{
  "contracts/Matches.sol": {
    "Matches": {
      "abi": [
        {
          "inputs": [],
          "stateMutability": "nonpayable",
          "type": "constructor"
        },
        {
          "anonymous": false,
          "inputs": [
            {
              "indexed": false,
              "internalType": "uint256",
              "name": "id",
              "type": "uint256"
            },
            {
              "indexed": false,
              "internalType": "string",
              "name": "name",
              "type": "string"
            },
            {
              "indexed": false,
              "internalType": "uint16",
              "name": "season",
              "type": "uint16"
            },
            {
              "indexed": false,
              "internalType": "string",
              "name": "country",
              "type": "string"
            }
          ],
          "name": "ChampionshipInserted",
          "type": "event"
        },
        {
          "anonymous": false,
          "inputs": [
            {
              "indexed": false,
              "internalType": "uint256",
              "name": "id",
              "type": "uint256"
            },
            {
              "indexed": false,
              "internalType": "uint256",
              "name": "champId",
              "type": "uint256"
            },
            {
              "indexed": false,
              "internalType": "string",
              "name": "house",
              "type": "string"
            },
            {
              "indexed": false,
              "internalType": "string",
              "name": "visitor",
              "type": "string"
            },
            {
              "indexed": false,
              "internalType": "uint256",
              "name": "start",
              "type": "uint256"
            }
          ],
          "name": "MatchInserted",
          "type": "event"
        },
        {
          "inputs": [],
          "name": "champIds",
          "outputs": [
            {
              "internalType": "uint256",
              "name": "_value",
              "type": "uint256"
            }
          ],
          "stateMutability": "view",
          "type": "function"
        },
        {
          "inputs": [
            {
              "components": [
                {
                  "internalType": "uint256",
                  "name": "champId",
                  "type": "uint256"
                },
                {
                  "internalType": "uint256",
                  "name": "matchId",
                  "type": "uint256"
                },
                {
                  "internalType": "uint16",
                  "name": "winnerMultiplier",
                  "type": "uint16"
                },
                {
                  "internalType": "uint16",
                  "name": "scoreMultiplier",
                  "type": "uint16"
                },
                {
                  "internalType": "uint16",
                  "name": "goalsMultiplier",
                  "type": "uint16"
                },
                {
                  "internalType": "uint256",
                  "name": "coordinatorFee",
                  "type": "uint256"
                }
              ],
              "internalType": "struct Matches.CloseMatches[]",
              "name": "matchesToClose",
              "type": "tuple[]"
            }
          ],
          "name": "closeMatches",
          "outputs": [],
          "stateMutability": "nonpayable",
          "type": "function"
        },
        {
          "inputs": [
            {
              "components": [
                {
                  "internalType": "uint8",
                  "name": "house",
                  "type": "uint8"
                },
                {
                  "internalType": "uint8",
                  "name": "visitor",
                  "type": "uint8"
                },
                {
                  "internalType": "uint256",
                  "name": "matchId",
                  "type": "uint256"
                },
                {
                  "internalType": "uint256",
                  "name": "champId",
                  "type": "uint256"
                }
              ],
              "internalType": "struct Matches.Fullfill[]",
              "name": "results",
              "type": "tuple[]"
            }
          ],
          "name": "fullfillResults",
          "outputs": [],
          "stateMutability": "nonpayable",
          "type": "function"
        },
        {
          "inputs": [
            {
              "internalType": "uint256",
              "name": "champId",
              "type": "uint256"
            },
            {
              "internalType": "uint256",
              "name": "matchId",
              "type": "uint256"
            }
          ],
          "name": "getMatch",
          "outputs": [
            {
              "components": [
                {
                  "internalType": "string",
                  "name": "house",
                  "type": "string"
                },
                {
                  "internalType": "string",
                  "name": "visitor",
                  "type": "string"
                },
                {
                  "internalType": "uint256",
                  "name": "start",
                  "type": "uint256"
                },
                {
                  "internalType": "uint8",
                  "name": "houseGoals",
                  "type": "uint8"
                },
                {
                  "internalType": "uint8",
                  "name": "visitorGoals",
                  "type": "uint8"
                },
                {
                  "internalType": "bool",
                  "name": "closed",
                  "type": "bool"
                },
                {
                  "internalType": "bool",
                  "name": "resultsFullfilled",
                  "type": "bool"
                }
              ],
              "internalType": "struct Matches.Match",
              "name": "",
              "type": "tuple"
            }
          ],
          "stateMutability": "view",
          "type": "function"
        },
        {
          "inputs": [
            {
              "components": [
                {
                  "internalType": "string",
                  "name": "name",
                  "type": "string"
                },
                {
                  "internalType": "uint16",
                  "name": "season",
                  "type": "uint16"
                },
                {
                  "internalType": "string",
                  "name": "country",
                  "type": "string"
                }
              ],
              "internalType": "struct Matches.Championship[]",
              "name": "champs",
              "type": "tuple[]"
            }
          ],
          "name": "insertChampionships",
          "outputs": [],
          "stateMutability": "nonpayable",
          "type": "function"
        },
        {
          "inputs": [
            {
              "internalType": "uint256",
              "name": "champId",
              "type": "uint256"
            },
            {
              "components": [
                {
                  "internalType": "string",
                  "name": "house",
                  "type": "string"
                },
                {
                  "internalType": "string",
                  "name": "visitor",
                  "type": "string"
                },
                {
                  "internalType": "uint256",
                  "name": "start",
                  "type": "uint256"
                },
                {
                  "internalType": "uint8",
                  "name": "houseGoals",
                  "type": "uint8"
                },
                {
                  "internalType": "uint8",
                  "name": "visitorGoals",
                  "type": "uint8"
                },
                {
                  "internalType": "bool",
                  "name": "closed",
                  "type": "bool"
                },
                {
                  "internalType": "bool",
                  "name": "resultsFullfilled",
                  "type": "bool"
                }
              ],
              "internalType": "struct Matches.Match[]",
              "name": "matchesToInsert",
              "type": "tuple[]"
            }
          ],
          "name": "insertMatches",
          "outputs": [],
          "stateMutability": "nonpayable",
          "type": "function"
        },
        {
          "inputs": [
            {
              "internalType": "uint256",
              "name": "",
              "type": "uint256"
            }
          ],
          "name": "matchIds",
          "outputs": [
            {
              "internalType": "uint256",
              "name": "_value",
              "type": "uint256"
            }
          ],
          "stateMutability": "view",
          "type": "function"
        },
        {
          "inputs": [
            {
              "internalType": "uint256",
              "name": "",
              "type": "uint256"
            },
            {
              "internalType": "uint256",
              "name": "",
              "type": "uint256"
            }
          ],
          "name": "matches",
          "outputs": [
            {
              "internalType": "string",
              "name": "house",
              "type": "string"
            },
            {
              "internalType": "string",
              "name": "visitor",
              "type": "string"
            },
            {
              "internalType": "uint256",
              "name": "start",
              "type": "uint256"
            },
            {
              "internalType": "uint8",
              "name": "houseGoals",
              "type": "uint8"
            },
            {
              "internalType": "uint8",
              "name": "visitorGoals",
              "type": "uint8"
            },
            {
              "internalType": "bool",
              "name": "closed",
              "type": "bool"
            },
            {
              "internalType": "bool",
              "name": "resultsFullfilled",
              "type": "bool"
            }
          ],
          "stateMutability": "view",
          "type": "function"
        },
        {
          "inputs": [
            {
              "internalType": "address",
              "name": "_betContract",
              "type": "address"
            }
          ],
          "name": "setContractAdresses",
          "outputs": [],
          "stateMutability": "nonpayable",
          "type": "function"
        }
      ],
      "evm": {
        "bytecode": {
          "linkReferences": {},
          "object": "608060405234801561001057600080fd5b5033600360006101000a81548173ffffffffffffffffffffffffffffffffffffffff021916908373ffffffffffffffffffffffffffffffffffffffff160217905550612233806100616000396000f3fe608060405234801561001057600080fd5b50600436106100935760003560e01c806387472ac31161006657806387472ac314610130578063a11149641461014c578063c58e8bb114610168578063d67ed34d14610186578063d6b3fa14146101bc57610093565b8063107cfe51146100985780632c2702e8146100c857806336ff6a70146100e45780636a41889814610114575b600080fd5b6100b260048036038101906100ad91906118a1565b6101d8565b6040516100bf9190611cc3565b60405180910390f35b6100e260048036038101906100dd919061184d565b6103bb565b005b6100fe60048036038101906100f99190611824565b6106f9565b60405161010b9190611ce5565b60405180910390f35b61012e600480360381019061012991906117a2565b610717565b005b61014a60048036038101906101459190611738565b610976565b005b610166600480360381019061016191906117e3565b610a4a565b005b610170610cdf565b60405161017d9190611ce5565b60405180910390f35b6101a0600480360381019061019b91906118a1565b610ceb565b6040516101b39796959493929190611be6565b60405180910390f35b6101d660048036038101906101d19190611761565b610e7e565b005b6101e0611071565b60006001600085815260200190815260200160002060008481526020019081526020016000206040518060e001604052908160008201805461022190611fc5565b80601f016020809104026020016040519081016040528092919081815260200182805461024d90611fc5565b801561029a5780601f1061026f5761010080835404028352916020019161029a565b820191906000526020600020905b81548152906001019060200180831161027d57829003601f168201915b505050505081526020016001820180546102b390611fc5565b80601f01602080910402602001604051908101604052809291908181526020018280546102df90611fc5565b801561032c5780601f106103015761010080835404028352916020019161032c565b820191906000526020600020905b81548152906001019060200180831161030f57829003601f168201915b50505050508152602001600282015481526020016003820160009054906101000a900460ff1660ff1660ff1681526020016003820160019054906101000a900460ff1660ff1660ff1681526020016003820160029054906101000a900460ff161515151581526020016003820160039054906101000a900460ff16151515158152505090508091505092915050565b600360009054906101000a900473ffffffffffffffffffffffffffffffffffffffff1673ffffffffffffffffffffffffffffffffffffffff163373ffffffffffffffffffffffffffffffffffffffff161461044b576040517f08c379a000000000000000000000000000000000000000000000000000000000815260040161044290611c83565b60405180910390fd5b60005b81518110156106f45760006001600085815260200190815260200160002060006104896002600088815260200190815260200160002061104d565b815260200190815260200160002090508282815181106104d2577f4e487b7100000000000000000000000000000000000000000000000000000000600052603260045260246000fd5b602002602001015160400151816002018190555082828151811061051f577f4e487b7100000000000000000000000000000000000000000000000000000000600052603260045260246000fd5b6020026020010151600001518160000190805190602001906105429291906110b8565b5082828151811061057c577f4e487b7100000000000000000000000000000000000000000000000000000000600052603260045260246000fd5b60200260200101516020015181600101908051906020019061059f9291906110b8565b507f44d870c03b54839515bdc2bb3dc697edbb306b69e5f70a9917ea5772937dd3466105dc6002600087815260200190815260200160002061104d565b85858581518110610616577f4e487b7100000000000000000000000000000000000000000000000000000000600052603260045260246000fd5b60200260200101516000015186868151811061065b577f4e487b7100000000000000000000000000000000000000000000000000000000600052603260045260246000fd5b6020026020010151602001518787815181106106a0577f4e487b7100000000000000000000000000000000000000000000000000000000600052603260045260246000fd5b6020026020010151604001516040516106bd959493929190611d53565b60405180910390a16106e06002600086815260200190815260200160002061105b565b5080806106ec90612028565b91505061044e565b505050565b60026020528060005260406000206000915090508060000154905081565b600360009054906101000a900473ffffffffffffffffffffffffffffffffffffffff1673ffffffffffffffffffffffffffffffffffffffff163373ffffffffffffffffffffffffffffffffffffffff16146107a7576040517f08c379a000000000000000000000000000000000000000000000000000000000815260040161079e90611c83565b60405180910390fd5b60005b81518110156108e5576000600160008484815181106107f2577f4e487b7100000000000000000000000000000000000000000000000000000000600052603260045260246000fd5b60200260200101516000015181526020019081526020016000206000848481518110610847577f4e487b7100000000000000000000000000000000000000000000000000000000600052603260045260246000fd5b602002602001015160200151815260200190815260200160002090508060030160039054906101000a900460ff166108b4576040517f08c379a00000000000000000000000000000000000000000000000000000000081526004016108ab90611ca3565b60405180910390fd5b60018160030160026101000a81548160ff0219169083151502179055505080806108dd90612028565b9150506107aa565b50600460009054906101000a900473ffffffffffffffffffffffffffffffffffffffff1673ffffffffffffffffffffffffffffffffffffffff16636a418898826040518263ffffffff1660e01b81526004016109419190611bc4565b600060405180830381600087803b15801561095b57600080fd5b505af115801561096f573d6000803e3d6000fd5b5050505050565b600360009054906101000a900473ffffffffffffffffffffffffffffffffffffffff1673ffffffffffffffffffffffffffffffffffffffff163373ffffffffffffffffffffffffffffffffffffffff1614610a06576040517f08c379a00000000000000000000000000000000000000000000000000000000081526004016109fd90611c83565b60405180910390fd5b80600460006101000a81548173ffffffffffffffffffffffffffffffffffffffff021916908373ffffffffffffffffffffffffffffffffffffffff16021790555050565b600360009054906101000a900473ffffffffffffffffffffffffffffffffffffffff1673ffffffffffffffffffffffffffffffffffffffff163373ffffffffffffffffffffffffffffffffffffffff1614610ada576040517f08c379a0000000000000000000000000000000000000000000000000000000008152600401610ad190611c83565b60405180910390fd5b60005b8151811015610cdb57600060016000848481518110610b25577f4e487b7100000000000000000000000000000000000000000000000000000000600052603260045260246000fd5b60200260200101516060015181526020019081526020016000206000848481518110610b7a577f4e487b7100000000000000000000000000000000000000000000000000000000600052603260045260246000fd5b602002602001015160400151815260200190815260200160002090508060030160039054906101000a900460ff1615610be8576040517f08c379a0000000000000000000000000000000000000000000000000000000008152600401610bdf90611c63565b60405180910390fd5b828281518110610c21577f4e487b7100000000000000000000000000000000000000000000000000000000600052603260045260246000fd5b6020026020010151600001518160030160006101000a81548160ff021916908360ff160217905550828281518110610c82577f4e487b7100000000000000000000000000000000000000000000000000000000600052603260045260246000fd5b6020026020010151602001518160030160016101000a81548160ff021916908360ff16021790555060018160030160036101000a81548160ff021916908315150217905550508080610cd390612028565b915050610add565b5050565b60008060000154905081565b600160205281600052604060002060205280600052604060002060009150915050806000018054610d1b90611fc5565b80601f0160208091040260200160405190810160405280929190818152602001828054610d4790611fc5565b8015610d945780601f10610d6957610100808354040283529160200191610d94565b820191906000526020600020905b815481529060010190602001808311610d7757829003601f168201915b505050505090806001018054610da990611fc5565b80601f0160208091040260200160405190810160405280929190818152602001828054610dd590611fc5565b8015610e225780601f10610df757610100808354040283529160200191610e22565b820191906000526020600020905b815481529060010190602001808311610e0557829003601f168201915b5050505050908060020154908060030160009054906101000a900460ff16908060030160019054906101000a900460ff16908060030160029054906101000a900460ff16908060030160039054906101000a900460ff16905087565b600360009054906101000a900473ffffffffffffffffffffffffffffffffffffffff1673ffffffffffffffffffffffffffffffffffffffff163373ffffffffffffffffffffffffffffffffffffffff1614610f0e576040517f08c379a0000000000000000000000000000000000000000000000000000000008152600401610f0590611c83565b60405180910390fd5b60005b8151811015611049577f10764dd95868cd163cc1bdbd6f0981dba5825fcd9063cb102cd379a64533cfaf610f45600061104d565b838381518110610f7e577f4e487b7100000000000000000000000000000000000000000000000000000000600052603260045260246000fd5b602002602001015160000151848481518110610fc3577f4e487b7100000000000000000000000000000000000000000000000000000000600052603260045260246000fd5b602002602001015160200151858581518110611008577f4e487b7100000000000000000000000000000000000000000000000000000000600052603260045260246000fd5b6020026020010151604001516040516110249493929190611d00565b60405180910390a1611036600061105b565b808061104190612028565b915050610f11565b5050565b600081600001549050919050565b6001816000016000828254019250508190555050565b6040518060e00160405280606081526020016060815260200160008152602001600060ff168152602001600060ff1681526020016000151581526020016000151581525090565b8280546110c490611fc5565b90600052602060002090601f0160209004810192826110e6576000855561112d565b82601f106110ff57805160ff191683800117855561112d565b8280016001018555821561112d579182015b8281111561112c578251825591602001919060010190611111565b5b50905061113a919061113e565b5090565b5b8082111561115757600081600090555060010161113f565b5090565b600061116e61116984611dd9565b611db4565b9050808382526020820190508285602086028201111561118d57600080fd5b60005b858110156111d757813567ffffffffffffffff8111156111af57600080fd5b8086016111bc8982611479565b85526020850194506020840193505050600181019050611190565b5050509392505050565b60006111f46111ef84611e05565b611db4565b905080838252602082019050828560c086028201111561121357600080fd5b60005b8581101561124357816112298882611509565b845260208401935060c08301925050600181019050611216565b5050509392505050565b600061126061125b84611e31565b611db4565b9050808382526020820190508285608086028201111561127f57600080fd5b60005b858110156112af578161129588826115a5565b845260208401935060808301925050600181019050611282565b5050509392505050565b60006112cc6112c784611e5d565b611db4565b905080838252602082019050828560208602820111156112eb57600080fd5b60005b8581101561133557813567ffffffffffffffff81111561130d57600080fd5b80860161131a8982611619565b855260208501945060208401935050506001810190506112ee565b5050509392505050565b600061135261134d84611e89565b611db4565b90508281526020810184848401111561136a57600080fd5b611375848285611f83565b509392505050565b60008135905061138c8161218a565b92915050565b600082601f8301126113a357600080fd5b81356113b384826020860161115b565b91505092915050565b600082601f8301126113cd57600080fd5b81356113dd8482602086016111e1565b91505092915050565b600082601f8301126113f757600080fd5b813561140784826020860161124d565b91505092915050565b600082601f83011261142157600080fd5b81356114318482602086016112b9565b91505092915050565b600081359050611449816121a1565b92915050565b600082601f83011261146057600080fd5b813561147084826020860161133f565b91505092915050565b60006060828403121561148b57600080fd5b6114956060611db4565b9050600082013567ffffffffffffffff8111156114b157600080fd5b6114bd8482850161144f565b60008301525060206114d1848285016116f9565b602083015250604082013567ffffffffffffffff8111156114f157600080fd5b6114fd8482850161144f565b60408301525092915050565b600060c0828403121561151b57600080fd5b61152560c0611db4565b905060006115358482850161170e565b60008301525060206115498482850161170e565b602083015250604061155d848285016116f9565b6040830152506060611571848285016116f9565b6060830152506080611585848285016116f9565b60808301525060a06115998482850161170e565b60a08301525092915050565b6000608082840312156115b757600080fd5b6115c16080611db4565b905060006115d184828501611723565b60008301525060206115e584828501611723565b60208301525060406115f98482850161170e565b604083015250606061160d8482850161170e565b60608301525092915050565b600060e0828403121561162b57600080fd5b61163560e0611db4565b9050600082013567ffffffffffffffff81111561165157600080fd5b61165d8482850161144f565b600083015250602082013567ffffffffffffffff81111561167d57600080fd5b6116898482850161144f565b602083015250604061169d8482850161170e565b60408301525060606116b184828501611723565b60608301525060806116c584828501611723565b60808301525060a06116d98482850161143a565b60a08301525060c06116ed8482850161143a565b60c08301525092915050565b600081359050611708816121b8565b92915050565b60008135905061171d816121cf565b92915050565b600081359050611732816121e6565b92915050565b60006020828403121561174a57600080fd5b60006117588482850161137d565b91505092915050565b60006020828403121561177357600080fd5b600082013567ffffffffffffffff81111561178d57600080fd5b61179984828501611392565b91505092915050565b6000602082840312156117b457600080fd5b600082013567ffffffffffffffff8111156117ce57600080fd5b6117da848285016113bc565b91505092915050565b6000602082840312156117f557600080fd5b600082013567ffffffffffffffff81111561180f57600080fd5b61181b848285016113e6565b91505092915050565b60006020828403121561183657600080fd5b60006118448482850161170e565b91505092915050565b6000806040838503121561186057600080fd5b600061186e8582860161170e565b925050602083013567ffffffffffffffff81111561188b57600080fd5b61189785828601611410565b9150509250929050565b600080604083850312156118b457600080fd5b60006118c28582860161170e565b92505060206118d38582860161170e565b9150509250929050565b60006118e98383611a4c565b60c08301905092915050565b600061190082611eca565b61190a8185611eed565b935061191583611eba565b8060005b8381101561194657815161192d88826118dd565b975061193883611ee0565b925050600181019050611919565b5085935050505092915050565b61195c81611f32565b82525050565b61196b81611f32565b82525050565b600061197c82611ed5565b6119868185611efe565b9350611996818560208601611f92565b61199f816120fe565b840191505092915050565b60006119b582611ed5565b6119bf8185611f0f565b93506119cf818560208601611f92565b6119d8816120fe565b840191505092915050565b60006119f0601283611f0f565b91506119fb8261210f565b602082019050919050565b6000611a13601883611f0f565b9150611a1e82612138565b602082019050919050565b6000611a36600e83611f0f565b9150611a4182612161565b602082019050919050565b60c082016000820151611a626000850182611b88565b506020820151611a756020850182611b88565b506040820151611a886040850182611b6a565b506060820151611a9b6060850182611b6a565b506080820151611aae6080850182611b6a565b5060a0820151611ac160a0850182611b88565b50505050565b600060e0830160008301518482036000860152611ae48282611971565b91505060208301518482036020860152611afe8282611971565b9150506040830151611b136040860182611b88565b506060830151611b266060860182611ba6565b506080830151611b396080860182611ba6565b5060a0830151611b4c60a0860182611953565b5060c0830151611b5f60c0860182611953565b508091505092915050565b611b7381611f3e565b82525050565b611b8281611f3e565b82525050565b611b9181611f6c565b82525050565b611ba081611f6c565b82525050565b611baf81611f76565b82525050565b611bbe81611f76565b82525050565b60006020820190508181036000830152611bde81846118f5565b905092915050565b600060e0820190508181036000830152611c00818a6119aa565b90508181036020830152611c1481896119aa565b9050611c236040830188611b97565b611c306060830187611bb5565b611c3d6080830186611bb5565b611c4a60a0830185611962565b611c5760c0830184611962565b98975050505050505050565b60006020820190508181036000830152611c7c816119e3565b9050919050565b60006020820190508181036000830152611c9c81611a06565b9050919050565b60006020820190508181036000830152611cbc81611a29565b9050919050565b60006020820190508181036000830152611cdd8184611ac7565b905092915050565b6000602082019050611cfa6000830184611b97565b92915050565b6000608082019050611d156000830187611b97565b8181036020830152611d2781866119aa565b9050611d366040830185611b79565b8181036060830152611d4881846119aa565b905095945050505050565b600060a082019050611d686000830188611b97565b611d756020830187611b97565b8181036040830152611d8781866119aa565b90508181036060830152611d9b81856119aa565b9050611daa6080830184611b97565b9695505050505050565b6000611dbe611dcf565b9050611dca8282611ff7565b919050565b6000604051905090565b600067ffffffffffffffff821115611df457611df36120cf565b5b602082029050602081019050919050565b600067ffffffffffffffff821115611e2057611e1f6120cf565b5b602082029050602081019050919050565b600067ffffffffffffffff821115611e4c57611e4b6120cf565b5b602082029050602081019050919050565b600067ffffffffffffffff821115611e7857611e776120cf565b5b602082029050602081019050919050565b600067ffffffffffffffff821115611ea457611ea36120cf565b5b611ead826120fe565b9050602081019050919050565b6000819050602082019050919050565b600081519050919050565b600081519050919050565b6000602082019050919050565b600082825260208201905092915050565b600082825260208201905092915050565b600082825260208201905092915050565b6000611f2b82611f4c565b9050919050565b60008115159050919050565b600061ffff82169050919050565b600073ffffffffffffffffffffffffffffffffffffffff82169050919050565b6000819050919050565b600060ff82169050919050565b82818337600083830152505050565b60005b83811015611fb0578082015181840152602081019050611f95565b83811115611fbf576000848401525b50505050565b60006002820490506001821680611fdd57607f821691505b60208210811415611ff157611ff06120a0565b5b50919050565b612000826120fe565b810181811067ffffffffffffffff8211171561201f5761201e6120cf565b5b80604052505050565b600061203382611f6c565b91507fffffffffffffffffffffffffffffffffffffffffffffffffffffffffffffffff82141561206657612065612071565b5b600182019050919050565b7f4e487b7100000000000000000000000000000000000000000000000000000000600052601160045260246000fd5b7f4e487b7100000000000000000000000000000000000000000000000000000000600052602260045260246000fd5b7f4e487b7100000000000000000000000000000000000000000000000000000000600052604160045260246000fd5b6000601f19601f8301169050919050565b7f616c72656164792066756c6c66696c6c65640000000000000000000000000000600082015250565b7f4f6e6c7920636f6f7264696e61746f7220616c6c6f7765640000000000000000600082015250565b7f4e6f20726573756c747320796574000000000000000000000000000000000000600082015250565b61219381611f20565b811461219e57600080fd5b50565b6121aa81611f32565b81146121b557600080fd5b50565b6121c181611f3e565b81146121cc57600080fd5b50565b6121d881611f6c565b81146121e357600080fd5b50565b6121ef81611f76565b81146121fa57600080fd5b5056fea2646970667358221220e0c1cc96e55364c36f30b17cd79004743ca8656dce992180dbab99c2f3fd41ea64736f6c63430008040033",
          "opcodes": "PUSH1 0x80 PUSH1 0x40 MSTORE CALLVALUE DUP1 ISZERO PUSH2 0x10 JUMPI PUSH1 0x0 DUP1 REVERT JUMPDEST POP CALLER PUSH1 0x3 PUSH1 0x0 PUSH2 0x100 EXP DUP2 SLOAD DUP2 PUSH20 0xFFFFFFFFFFFFFFFFFFFFFFFFFFFFFFFFFFFFFFFF MUL NOT AND SWAP1 DUP4 PUSH20 0xFFFFFFFFFFFFFFFFFFFFFFFFFFFFFFFFFFFFFFFF AND MUL OR SWAP1 SSTORE POP PUSH2 0x2233 DUP1 PUSH2 0x61 PUSH1 0x0 CODECOPY PUSH1 0x0 RETURN INVALID PUSH1 0x80 PUSH1 0x40 MSTORE CALLVALUE DUP1 ISZERO PUSH2 0x10 JUMPI PUSH1 0x0 DUP1 REVERT JUMPDEST POP PUSH1 0x4 CALLDATASIZE LT PUSH2 0x93 JUMPI PUSH1 0x0 CALLDATALOAD PUSH1 0xE0 SHR DUP1 PUSH4 0x87472AC3 GT PUSH2 0x66 JUMPI DUP1 PUSH4 0x87472AC3 EQ PUSH2 0x130 JUMPI DUP1 PUSH4 0xA1114964 EQ PUSH2 0x14C JUMPI DUP1 PUSH4 0xC58E8BB1 EQ PUSH2 0x168 JUMPI DUP1 PUSH4 0xD67ED34D EQ PUSH2 0x186 JUMPI DUP1 PUSH4 0xD6B3FA14 EQ PUSH2 0x1BC JUMPI PUSH2 0x93 JUMP JUMPDEST DUP1 PUSH4 0x107CFE51 EQ PUSH2 0x98 JUMPI DUP1 PUSH4 0x2C2702E8 EQ PUSH2 0xC8 JUMPI DUP1 PUSH4 0x36FF6A70 EQ PUSH2 0xE4 JUMPI DUP1 PUSH4 0x6A418898 EQ PUSH2 0x114 JUMPI JUMPDEST PUSH1 0x0 DUP1 REVERT JUMPDEST PUSH2 0xB2 PUSH1 0x4 DUP1 CALLDATASIZE SUB DUP2 ADD SWAP1 PUSH2 0xAD SWAP2 SWAP1 PUSH2 0x18A1 JUMP JUMPDEST PUSH2 0x1D8 JUMP JUMPDEST PUSH1 0x40 MLOAD PUSH2 0xBF SWAP2 SWAP1 PUSH2 0x1CC3 JUMP JUMPDEST PUSH1 0x40 MLOAD DUP1 SWAP2 SUB SWAP1 RETURN JUMPDEST PUSH2 0xE2 PUSH1 0x4 DUP1 CALLDATASIZE SUB DUP2 ADD SWAP1 PUSH2 0xDD SWAP2 SWAP1 PUSH2 0x184D JUMP JUMPDEST PUSH2 0x3BB JUMP JUMPDEST STOP JUMPDEST PUSH2 0xFE PUSH1 0x4 DUP1 CALLDATASIZE SUB DUP2 ADD SWAP1 PUSH2 0xF9 SWAP2 SWAP1 PUSH2 0x1824 JUMP JUMPDEST PUSH2 0x6F9 JUMP JUMPDEST PUSH1 0x40 MLOAD PUSH2 0x10B SWAP2 SWAP1 PUSH2 0x1CE5 JUMP JUMPDEST PUSH1 0x40 MLOAD DUP1 SWAP2 SUB SWAP1 RETURN JUMPDEST PUSH2 0x12E PUSH1 0x4 DUP1 CALLDATASIZE SUB DUP2 ADD SWAP1 PUSH2 0x129 SWAP2 SWAP1 PUSH2 0x17A2 JUMP JUMPDEST PUSH2 0x717 JUMP JUMPDEST STOP JUMPDEST PUSH2 0x14A PUSH1 0x4 DUP1 CALLDATASIZE SUB DUP2 ADD SWAP1 PUSH2 0x145 SWAP2 SWAP1 PUSH2 0x1738 JUMP JUMPDEST PUSH2 0x976 JUMP JUMPDEST STOP JUMPDEST PUSH2 0x166 PUSH1 0x4 DUP1 CALLDATASIZE SUB DUP2 ADD SWAP1 PUSH2 0x161 SWAP2 SWAP1 PUSH2 0x17E3 JUMP JUMPDEST PUSH2 0xA4A JUMP JUMPDEST STOP JUMPDEST PUSH2 0x170 PUSH2 0xCDF JUMP JUMPDEST PUSH1 0x40 MLOAD PUSH2 0x17D SWAP2 SWAP1 PUSH2 0x1CE5 JUMP JUMPDEST PUSH1 0x40 MLOAD DUP1 SWAP2 SUB SWAP1 RETURN JUMPDEST PUSH2 0x1A0 PUSH1 0x4 DUP1 CALLDATASIZE SUB DUP2 ADD SWAP1 PUSH2 0x19B SWAP2 SWAP1 PUSH2 0x18A1 JUMP JUMPDEST PUSH2 0xCEB JUMP JUMPDEST PUSH1 0x40 MLOAD PUSH2 0x1B3 SWAP8 SWAP7 SWAP6 SWAP5 SWAP4 SWAP3 SWAP2 SWAP1 PUSH2 0x1BE6 JUMP JUMPDEST PUSH1 0x40 MLOAD DUP1 SWAP2 SUB SWAP1 RETURN JUMPDEST PUSH2 0x1D6 PUSH1 0x4 DUP1 CALLDATASIZE SUB DUP2 ADD SWAP1 PUSH2 0x1D1 SWAP2 SWAP1 PUSH2 0x1761 JUMP JUMPDEST PUSH2 0xE7E JUMP JUMPDEST STOP JUMPDEST PUSH2 0x1E0 PUSH2 0x1071 JUMP JUMPDEST PUSH1 0x0 PUSH1 0x1 PUSH1 0x0 DUP6 DUP2 MSTORE PUSH1 0x20 ADD SWAP1 DUP2 MSTORE PUSH1 0x20 ADD PUSH1 0x0 KECCAK256 PUSH1 0x0 DUP5 DUP2 MSTORE PUSH1 0x20 ADD SWAP1 DUP2 MSTORE PUSH1 0x20 ADD PUSH1 0x0 KECCAK256 PUSH1 0x40 MLOAD DUP1 PUSH1 0xE0 ADD PUSH1 0x40 MSTORE SWAP1 DUP2 PUSH1 0x0 DUP3 ADD DUP1 SLOAD PUSH2 0x221 SWAP1 PUSH2 0x1FC5 JUMP JUMPDEST DUP1 PUSH1 0x1F ADD PUSH1 0x20 DUP1 SWAP2 DIV MUL PUSH1 0x20 ADD PUSH1 0x40 MLOAD SWAP1 DUP2 ADD PUSH1 0x40 MSTORE DUP1 SWAP3 SWAP2 SWAP1 DUP2 DUP2 MSTORE PUSH1 0x20 ADD DUP3 DUP1 SLOAD PUSH2 0x24D SWAP1 PUSH2 0x1FC5 JUMP JUMPDEST DUP1 ISZERO PUSH2 0x29A JUMPI DUP1 PUSH1 0x1F LT PUSH2 0x26F JUMPI PUSH2 0x100 DUP1 DUP4 SLOAD DIV MUL DUP4 MSTORE SWAP2 PUSH1 0x20 ADD SWAP2 PUSH2 0x29A JUMP JUMPDEST DUP3 ADD SWAP2 SWAP1 PUSH1 0x0 MSTORE PUSH1 0x20 PUSH1 0x0 KECCAK256 SWAP1 JUMPDEST DUP2 SLOAD DUP2 MSTORE SWAP1 PUSH1 0x1 ADD SWAP1 PUSH1 0x20 ADD DUP1 DUP4 GT PUSH2 0x27D JUMPI DUP3 SWAP1 SUB PUSH1 0x1F AND DUP3 ADD SWAP2 JUMPDEST POP POP POP POP POP DUP2 MSTORE PUSH1 0x20 ADD PUSH1 0x1 DUP3 ADD DUP1 SLOAD PUSH2 0x2B3 SWAP1 PUSH2 0x1FC5 JUMP JUMPDEST DUP1 PUSH1 0x1F ADD PUSH1 0x20 DUP1 SWAP2 DIV MUL PUSH1 0x20 ADD PUSH1 0x40 MLOAD SWAP1 DUP2 ADD PUSH1 0x40 MSTORE DUP1 SWAP3 SWAP2 SWAP1 DUP2 DUP2 MSTORE PUSH1 0x20 ADD DUP3 DUP1 SLOAD PUSH2 0x2DF SWAP1 PUSH2 0x1FC5 JUMP JUMPDEST DUP1 ISZERO PUSH2 0x32C JUMPI DUP1 PUSH1 0x1F LT PUSH2 0x301 JUMPI PUSH2 0x100 DUP1 DUP4 SLOAD DIV MUL DUP4 MSTORE SWAP2 PUSH1 0x20 ADD SWAP2 PUSH2 0x32C JUMP JUMPDEST DUP3 ADD SWAP2 SWAP1 PUSH1 0x0 MSTORE PUSH1 0x20 PUSH1 0x0 KECCAK256 SWAP1 JUMPDEST DUP2 SLOAD DUP2 MSTORE SWAP1 PUSH1 0x1 ADD SWAP1 PUSH1 0x20 ADD DUP1 DUP4 GT PUSH2 0x30F JUMPI DUP3 SWAP1 SUB PUSH1 0x1F AND DUP3 ADD SWAP2 JUMPDEST POP POP POP POP POP DUP2 MSTORE PUSH1 0x20 ADD PUSH1 0x2 DUP3 ADD SLOAD DUP2 MSTORE PUSH1 0x20 ADD PUSH1 0x3 DUP3 ADD PUSH1 0x0 SWAP1 SLOAD SWAP1 PUSH2 0x100 EXP SWAP1 DIV PUSH1 0xFF AND PUSH1 0xFF AND PUSH1 0xFF AND DUP2 MSTORE PUSH1 0x20 ADD PUSH1 0x3 DUP3 ADD PUSH1 0x1 SWAP1 SLOAD SWAP1 PUSH2 0x100 EXP SWAP1 DIV PUSH1 0xFF AND PUSH1 0xFF AND PUSH1 0xFF AND DUP2 MSTORE PUSH1 0x20 ADD PUSH1 0x3 DUP3 ADD PUSH1 0x2 SWAP1 SLOAD SWAP1 PUSH2 0x100 EXP SWAP1 DIV PUSH1 0xFF AND ISZERO ISZERO ISZERO ISZERO DUP2 MSTORE PUSH1 0x20 ADD PUSH1 0x3 DUP3 ADD PUSH1 0x3 SWAP1 SLOAD SWAP1 PUSH2 0x100 EXP SWAP1 DIV PUSH1 0xFF AND ISZERO ISZERO ISZERO ISZERO DUP2 MSTORE POP POP SWAP1 POP DUP1 SWAP2 POP POP SWAP3 SWAP2 POP POP JUMP JUMPDEST PUSH1 0x3 PUSH1 0x0 SWAP1 SLOAD SWAP1 PUSH2 0x100 EXP SWAP1 DIV PUSH20 0xFFFFFFFFFFFFFFFFFFFFFFFFFFFFFFFFFFFFFFFF AND PUSH20 0xFFFFFFFFFFFFFFFFFFFFFFFFFFFFFFFFFFFFFFFF AND CALLER PUSH20 0xFFFFFFFFFFFFFFFFFFFFFFFFFFFFFFFFFFFFFFFF AND EQ PUSH2 0x44B JUMPI PUSH1 0x40 MLOAD PUSH32 0x8C379A000000000000000000000000000000000000000000000000000000000 DUP2 MSTORE PUSH1 0x4 ADD PUSH2 0x442 SWAP1 PUSH2 0x1C83 JUMP JUMPDEST PUSH1 0x40 MLOAD DUP1 SWAP2 SUB SWAP1 REVERT JUMPDEST PUSH1 0x0 JUMPDEST DUP2 MLOAD DUP2 LT ISZERO PUSH2 0x6F4 JUMPI PUSH1 0x0 PUSH1 0x1 PUSH1 0x0 DUP6 DUP2 MSTORE PUSH1 0x20 ADD SWAP1 DUP2 MSTORE PUSH1 0x20 ADD PUSH1 0x0 KECCAK256 PUSH1 0x0 PUSH2 0x489 PUSH1 0x2 PUSH1 0x0 DUP9 DUP2 MSTORE PUSH1 0x20 ADD SWAP1 DUP2 MSTORE PUSH1 0x20 ADD PUSH1 0x0 KECCAK256 PUSH2 0x104D JUMP JUMPDEST DUP2 MSTORE PUSH1 0x20 ADD SWAP1 DUP2 MSTORE PUSH1 0x20 ADD PUSH1 0x0 KECCAK256 SWAP1 POP DUP3 DUP3 DUP2 MLOAD DUP2 LT PUSH2 0x4D2 JUMPI PUSH32 0x4E487B7100000000000000000000000000000000000000000000000000000000 PUSH1 0x0 MSTORE PUSH1 0x32 PUSH1 0x4 MSTORE PUSH1 0x24 PUSH1 0x0 REVERT JUMPDEST PUSH1 0x20 MUL PUSH1 0x20 ADD ADD MLOAD PUSH1 0x40 ADD MLOAD DUP2 PUSH1 0x2 ADD DUP2 SWAP1 SSTORE POP DUP3 DUP3 DUP2 MLOAD DUP2 LT PUSH2 0x51F JUMPI PUSH32 0x4E487B7100000000000000000000000000000000000000000000000000000000 PUSH1 0x0 MSTORE PUSH1 0x32 PUSH1 0x4 MSTORE PUSH1 0x24 PUSH1 0x0 REVERT JUMPDEST PUSH1 0x20 MUL PUSH1 0x20 ADD ADD MLOAD PUSH1 0x0 ADD MLOAD DUP2 PUSH1 0x0 ADD SWAP1 DUP1 MLOAD SWAP1 PUSH1 0x20 ADD SWAP1 PUSH2 0x542 SWAP3 SWAP2 SWAP1 PUSH2 0x10B8 JUMP JUMPDEST POP DUP3 DUP3 DUP2 MLOAD DUP2 LT PUSH2 0x57C JUMPI PUSH32 0x4E487B7100000000000000000000000000000000000000000000000000000000 PUSH1 0x0 MSTORE PUSH1 0x32 PUSH1 0x4 MSTORE PUSH1 0x24 PUSH1 0x0 REVERT JUMPDEST PUSH1 0x20 MUL PUSH1 0x20 ADD ADD MLOAD PUSH1 0x20 ADD MLOAD DUP2 PUSH1 0x1 ADD SWAP1 DUP1 MLOAD SWAP1 PUSH1 0x20 ADD SWAP1 PUSH2 0x59F SWAP3 SWAP2 SWAP1 PUSH2 0x10B8 JUMP JUMPDEST POP PUSH32 0x44D870C03B54839515BDC2BB3DC697EDBB306B69E5F70A9917EA5772937DD346 PUSH2 0x5DC PUSH1 0x2 PUSH1 0x0 DUP8 DUP2 MSTORE PUSH1 0x20 ADD SWAP1 DUP2 MSTORE PUSH1 0x20 ADD PUSH1 0x0 KECCAK256 PUSH2 0x104D JUMP JUMPDEST DUP6 DUP6 DUP6 DUP2 MLOAD DUP2 LT PUSH2 0x616 JUMPI PUSH32 0x4E487B7100000000000000000000000000000000000000000000000000000000 PUSH1 0x0 MSTORE PUSH1 0x32 PUSH1 0x4 MSTORE PUSH1 0x24 PUSH1 0x0 REVERT JUMPDEST PUSH1 0x20 MUL PUSH1 0x20 ADD ADD MLOAD PUSH1 0x0 ADD MLOAD DUP7 DUP7 DUP2 MLOAD DUP2 LT PUSH2 0x65B JUMPI PUSH32 0x4E487B7100000000000000000000000000000000000000000000000000000000 PUSH1 0x0 MSTORE PUSH1 0x32 PUSH1 0x4 MSTORE PUSH1 0x24 PUSH1 0x0 REVERT JUMPDEST PUSH1 0x20 MUL PUSH1 0x20 ADD ADD MLOAD PUSH1 0x20 ADD MLOAD DUP8 DUP8 DUP2 MLOAD DUP2 LT PUSH2 0x6A0 JUMPI PUSH32 0x4E487B7100000000000000000000000000000000000000000000000000000000 PUSH1 0x0 MSTORE PUSH1 0x32 PUSH1 0x4 MSTORE PUSH1 0x24 PUSH1 0x0 REVERT JUMPDEST PUSH1 0x20 MUL PUSH1 0x20 ADD ADD MLOAD PUSH1 0x40 ADD MLOAD PUSH1 0x40 MLOAD PUSH2 0x6BD SWAP6 SWAP5 SWAP4 SWAP3 SWAP2 SWAP1 PUSH2 0x1D53 JUMP JUMPDEST PUSH1 0x40 MLOAD DUP1 SWAP2 SUB SWAP1 LOG1 PUSH2 0x6E0 PUSH1 0x2 PUSH1 0x0 DUP7 DUP2 MSTORE PUSH1 0x20 ADD SWAP1 DUP2 MSTORE PUSH1 0x20 ADD PUSH1 0x0 KECCAK256 PUSH2 0x105B JUMP JUMPDEST POP DUP1 DUP1 PUSH2 0x6EC SWAP1 PUSH2 0x2028 JUMP JUMPDEST SWAP2 POP POP PUSH2 0x44E JUMP JUMPDEST POP POP POP JUMP JUMPDEST PUSH1 0x2 PUSH1 0x20 MSTORE DUP1 PUSH1 0x0 MSTORE PUSH1 0x40 PUSH1 0x0 KECCAK256 PUSH1 0x0 SWAP2 POP SWAP1 POP DUP1 PUSH1 0x0 ADD SLOAD SWAP1 POP DUP2 JUMP JUMPDEST PUSH1 0x3 PUSH1 0x0 SWAP1 SLOAD SWAP1 PUSH2 0x100 EXP SWAP1 DIV PUSH20 0xFFFFFFFFFFFFFFFFFFFFFFFFFFFFFFFFFFFFFFFF AND PUSH20 0xFFFFFFFFFFFFFFFFFFFFFFFFFFFFFFFFFFFFFFFF AND CALLER PUSH20 0xFFFFFFFFFFFFFFFFFFFFFFFFFFFFFFFFFFFFFFFF AND EQ PUSH2 0x7A7 JUMPI PUSH1 0x40 MLOAD PUSH32 0x8C379A000000000000000000000000000000000000000000000000000000000 DUP2 MSTORE PUSH1 0x4 ADD PUSH2 0x79E SWAP1 PUSH2 0x1C83 JUMP JUMPDEST PUSH1 0x40 MLOAD DUP1 SWAP2 SUB SWAP1 REVERT JUMPDEST PUSH1 0x0 JUMPDEST DUP2 MLOAD DUP2 LT ISZERO PUSH2 0x8E5 JUMPI PUSH1 0x0 PUSH1 0x1 PUSH1 0x0 DUP5 DUP5 DUP2 MLOAD DUP2 LT PUSH2 0x7F2 JUMPI PUSH32 0x4E487B7100000000000000000000000000000000000000000000000000000000 PUSH1 0x0 MSTORE PUSH1 0x32 PUSH1 0x4 MSTORE PUSH1 0x24 PUSH1 0x0 REVERT JUMPDEST PUSH1 0x20 MUL PUSH1 0x20 ADD ADD MLOAD PUSH1 0x0 ADD MLOAD DUP2 MSTORE PUSH1 0x20 ADD SWAP1 DUP2 MSTORE PUSH1 0x20 ADD PUSH1 0x0 KECCAK256 PUSH1 0x0 DUP5 DUP5 DUP2 MLOAD DUP2 LT PUSH2 0x847 JUMPI PUSH32 0x4E487B7100000000000000000000000000000000000000000000000000000000 PUSH1 0x0 MSTORE PUSH1 0x32 PUSH1 0x4 MSTORE PUSH1 0x24 PUSH1 0x0 REVERT JUMPDEST PUSH1 0x20 MUL PUSH1 0x20 ADD ADD MLOAD PUSH1 0x20 ADD MLOAD DUP2 MSTORE PUSH1 0x20 ADD SWAP1 DUP2 MSTORE PUSH1 0x20 ADD PUSH1 0x0 KECCAK256 SWAP1 POP DUP1 PUSH1 0x3 ADD PUSH1 0x3 SWAP1 SLOAD SWAP1 PUSH2 0x100 EXP SWAP1 DIV PUSH1 0xFF AND PUSH2 0x8B4 JUMPI PUSH1 0x40 MLOAD PUSH32 0x8C379A000000000000000000000000000000000000000000000000000000000 DUP2 MSTORE PUSH1 0x4 ADD PUSH2 0x8AB SWAP1 PUSH2 0x1CA3 JUMP JUMPDEST PUSH1 0x40 MLOAD DUP1 SWAP2 SUB SWAP1 REVERT JUMPDEST PUSH1 0x1 DUP2 PUSH1 0x3 ADD PUSH1 0x2 PUSH2 0x100 EXP DUP2 SLOAD DUP2 PUSH1 0xFF MUL NOT AND SWAP1 DUP4 ISZERO ISZERO MUL OR SWAP1 SSTORE POP POP DUP1 DUP1 PUSH2 0x8DD SWAP1 PUSH2 0x2028 JUMP JUMPDEST SWAP2 POP POP PUSH2 0x7AA JUMP JUMPDEST POP PUSH1 0x4 PUSH1 0x0 SWAP1 SLOAD SWAP1 PUSH2 0x100 EXP SWAP1 DIV PUSH20 0xFFFFFFFFFFFFFFFFFFFFFFFFFFFFFFFFFFFFFFFF AND PUSH20 0xFFFFFFFFFFFFFFFFFFFFFFFFFFFFFFFFFFFFFFFF AND PUSH4 0x6A418898 DUP3 PUSH1 0x40 MLOAD DUP3 PUSH4 0xFFFFFFFF AND PUSH1 0xE0 SHL DUP2 MSTORE PUSH1 0x4 ADD PUSH2 0x941 SWAP2 SWAP1 PUSH2 0x1BC4 JUMP JUMPDEST PUSH1 0x0 PUSH1 0x40 MLOAD DUP1 DUP4 SUB DUP2 PUSH1 0x0 DUP8 DUP1 EXTCODESIZE ISZERO DUP1 ISZERO PUSH2 0x95B JUMPI PUSH1 0x0 DUP1 REVERT JUMPDEST POP GAS CALL ISZERO DUP1 ISZERO PUSH2 0x96F JUMPI RETURNDATASIZE PUSH1 0x0 DUP1 RETURNDATACOPY RETURNDATASIZE PUSH1 0x0 REVERT JUMPDEST POP POP POP POP POP JUMP JUMPDEST PUSH1 0x3 PUSH1 0x0 SWAP1 SLOAD SWAP1 PUSH2 0x100 EXP SWAP1 DIV PUSH20 0xFFFFFFFFFFFFFFFFFFFFFFFFFFFFFFFFFFFFFFFF AND PUSH20 0xFFFFFFFFFFFFFFFFFFFFFFFFFFFFFFFFFFFFFFFF AND CALLER PUSH20 0xFFFFFFFFFFFFFFFFFFFFFFFFFFFFFFFFFFFFFFFF AND EQ PUSH2 0xA06 JUMPI PUSH1 0x40 MLOAD PUSH32 0x8C379A000000000000000000000000000000000000000000000000000000000 DUP2 MSTORE PUSH1 0x4 ADD PUSH2 0x9FD SWAP1 PUSH2 0x1C83 JUMP JUMPDEST PUSH1 0x40 MLOAD DUP1 SWAP2 SUB SWAP1 REVERT JUMPDEST DUP1 PUSH1 0x4 PUSH1 0x0 PUSH2 0x100 EXP DUP2 SLOAD DUP2 PUSH20 0xFFFFFFFFFFFFFFFFFFFFFFFFFFFFFFFFFFFFFFFF MUL NOT AND SWAP1 DUP4 PUSH20 0xFFFFFFFFFFFFFFFFFFFFFFFFFFFFFFFFFFFFFFFF AND MUL OR SWAP1 SSTORE POP POP JUMP JUMPDEST PUSH1 0x3 PUSH1 0x0 SWAP1 SLOAD SWAP1 PUSH2 0x100 EXP SWAP1 DIV PUSH20 0xFFFFFFFFFFFFFFFFFFFFFFFFFFFFFFFFFFFFFFFF AND PUSH20 0xFFFFFFFFFFFFFFFFFFFFFFFFFFFFFFFFFFFFFFFF AND CALLER PUSH20 0xFFFFFFFFFFFFFFFFFFFFFFFFFFFFFFFFFFFFFFFF AND EQ PUSH2 0xADA JUMPI PUSH1 0x40 MLOAD PUSH32 0x8C379A000000000000000000000000000000000000000000000000000000000 DUP2 MSTORE PUSH1 0x4 ADD PUSH2 0xAD1 SWAP1 PUSH2 0x1C83 JUMP JUMPDEST PUSH1 0x40 MLOAD DUP1 SWAP2 SUB SWAP1 REVERT JUMPDEST PUSH1 0x0 JUMPDEST DUP2 MLOAD DUP2 LT ISZERO PUSH2 0xCDB JUMPI PUSH1 0x0 PUSH1 0x1 PUSH1 0x0 DUP5 DUP5 DUP2 MLOAD DUP2 LT PUSH2 0xB25 JUMPI PUSH32 0x4E487B7100000000000000000000000000000000000000000000000000000000 PUSH1 0x0 MSTORE PUSH1 0x32 PUSH1 0x4 MSTORE PUSH1 0x24 PUSH1 0x0 REVERT JUMPDEST PUSH1 0x20 MUL PUSH1 0x20 ADD ADD MLOAD PUSH1 0x60 ADD MLOAD DUP2 MSTORE PUSH1 0x20 ADD SWAP1 DUP2 MSTORE PUSH1 0x20 ADD PUSH1 0x0 KECCAK256 PUSH1 0x0 DUP5 DUP5 DUP2 MLOAD DUP2 LT PUSH2 0xB7A JUMPI PUSH32 0x4E487B7100000000000000000000000000000000000000000000000000000000 PUSH1 0x0 MSTORE PUSH1 0x32 PUSH1 0x4 MSTORE PUSH1 0x24 PUSH1 0x0 REVERT JUMPDEST PUSH1 0x20 MUL PUSH1 0x20 ADD ADD MLOAD PUSH1 0x40 ADD MLOAD DUP2 MSTORE PUSH1 0x20 ADD SWAP1 DUP2 MSTORE PUSH1 0x20 ADD PUSH1 0x0 KECCAK256 SWAP1 POP DUP1 PUSH1 0x3 ADD PUSH1 0x3 SWAP1 SLOAD SWAP1 PUSH2 0x100 EXP SWAP1 DIV PUSH1 0xFF AND ISZERO PUSH2 0xBE8 JUMPI PUSH1 0x40 MLOAD PUSH32 0x8C379A000000000000000000000000000000000000000000000000000000000 DUP2 MSTORE PUSH1 0x4 ADD PUSH2 0xBDF SWAP1 PUSH2 0x1C63 JUMP JUMPDEST PUSH1 0x40 MLOAD DUP1 SWAP2 SUB SWAP1 REVERT JUMPDEST DUP3 DUP3 DUP2 MLOAD DUP2 LT PUSH2 0xC21 JUMPI PUSH32 0x4E487B7100000000000000000000000000000000000000000000000000000000 PUSH1 0x0 MSTORE PUSH1 0x32 PUSH1 0x4 MSTORE PUSH1 0x24 PUSH1 0x0 REVERT JUMPDEST PUSH1 0x20 MUL PUSH1 0x20 ADD ADD MLOAD PUSH1 0x0 ADD MLOAD DUP2 PUSH1 0x3 ADD PUSH1 0x0 PUSH2 0x100 EXP DUP2 SLOAD DUP2 PUSH1 0xFF MUL NOT AND SWAP1 DUP4 PUSH1 0xFF AND MUL OR SWAP1 SSTORE POP DUP3 DUP3 DUP2 MLOAD DUP2 LT PUSH2 0xC82 JUMPI PUSH32 0x4E487B7100000000000000000000000000000000000000000000000000000000 PUSH1 0x0 MSTORE PUSH1 0x32 PUSH1 0x4 MSTORE PUSH1 0x24 PUSH1 0x0 REVERT JUMPDEST PUSH1 0x20 MUL PUSH1 0x20 ADD ADD MLOAD PUSH1 0x20 ADD MLOAD DUP2 PUSH1 0x3 ADD PUSH1 0x1 PUSH2 0x100 EXP DUP2 SLOAD DUP2 PUSH1 0xFF MUL NOT AND SWAP1 DUP4 PUSH1 0xFF AND MUL OR SWAP1 SSTORE POP PUSH1 0x1 DUP2 PUSH1 0x3 ADD PUSH1 0x3 PUSH2 0x100 EXP DUP2 SLOAD DUP2 PUSH1 0xFF MUL NOT AND SWAP1 DUP4 ISZERO ISZERO MUL OR SWAP1 SSTORE POP POP DUP1 DUP1 PUSH2 0xCD3 SWAP1 PUSH2 0x2028 JUMP JUMPDEST SWAP2 POP POP PUSH2 0xADD JUMP JUMPDEST POP POP JUMP JUMPDEST PUSH1 0x0 DUP1 PUSH1 0x0 ADD SLOAD SWAP1 POP DUP2 JUMP JUMPDEST PUSH1 0x1 PUSH1 0x20 MSTORE DUP2 PUSH1 0x0 MSTORE PUSH1 0x40 PUSH1 0x0 KECCAK256 PUSH1 0x20 MSTORE DUP1 PUSH1 0x0 MSTORE PUSH1 0x40 PUSH1 0x0 KECCAK256 PUSH1 0x0 SWAP2 POP SWAP2 POP POP DUP1 PUSH1 0x0 ADD DUP1 SLOAD PUSH2 0xD1B SWAP1 PUSH2 0x1FC5 JUMP JUMPDEST DUP1 PUSH1 0x1F ADD PUSH1 0x20 DUP1 SWAP2 DIV MUL PUSH1 0x20 ADD PUSH1 0x40 MLOAD SWAP1 DUP2 ADD PUSH1 0x40 MSTORE DUP1 SWAP3 SWAP2 SWAP1 DUP2 DUP2 MSTORE PUSH1 0x20 ADD DUP3 DUP1 SLOAD PUSH2 0xD47 SWAP1 PUSH2 0x1FC5 JUMP JUMPDEST DUP1 ISZERO PUSH2 0xD94 JUMPI DUP1 PUSH1 0x1F LT PUSH2 0xD69 JUMPI PUSH2 0x100 DUP1 DUP4 SLOAD DIV MUL DUP4 MSTORE SWAP2 PUSH1 0x20 ADD SWAP2 PUSH2 0xD94 JUMP JUMPDEST DUP3 ADD SWAP2 SWAP1 PUSH1 0x0 MSTORE PUSH1 0x20 PUSH1 0x0 KECCAK256 SWAP1 JUMPDEST DUP2 SLOAD DUP2 MSTORE SWAP1 PUSH1 0x1 ADD SWAP1 PUSH1 0x20 ADD DUP1 DUP4 GT PUSH2 0xD77 JUMPI DUP3 SWAP1 SUB PUSH1 0x1F AND DUP3 ADD SWAP2 JUMPDEST POP POP POP POP POP SWAP1 DUP1 PUSH1 0x1 ADD DUP1 SLOAD PUSH2 0xDA9 SWAP1 PUSH2 0x1FC5 JUMP JUMPDEST DUP1 PUSH1 0x1F ADD PUSH1 0x20 DUP1 SWAP2 DIV MUL PUSH1 0x20 ADD PUSH1 0x40 MLOAD SWAP1 DUP2 ADD PUSH1 0x40 MSTORE DUP1 SWAP3 SWAP2 SWAP1 DUP2 DUP2 MSTORE PUSH1 0x20 ADD DUP3 DUP1 SLOAD PUSH2 0xDD5 SWAP1 PUSH2 0x1FC5 JUMP JUMPDEST DUP1 ISZERO PUSH2 0xE22 JUMPI DUP1 PUSH1 0x1F LT PUSH2 0xDF7 JUMPI PUSH2 0x100 DUP1 DUP4 SLOAD DIV MUL DUP4 MSTORE SWAP2 PUSH1 0x20 ADD SWAP2 PUSH2 0xE22 JUMP JUMPDEST DUP3 ADD SWAP2 SWAP1 PUSH1 0x0 MSTORE PUSH1 0x20 PUSH1 0x0 KECCAK256 SWAP1 JUMPDEST DUP2 SLOAD DUP2 MSTORE SWAP1 PUSH1 0x1 ADD SWAP1 PUSH1 0x20 ADD DUP1 DUP4 GT PUSH2 0xE05 JUMPI DUP3 SWAP1 SUB PUSH1 0x1F AND DUP3 ADD SWAP2 JUMPDEST POP POP POP POP POP SWAP1 DUP1 PUSH1 0x2 ADD SLOAD SWAP1 DUP1 PUSH1 0x3 ADD PUSH1 0x0 SWAP1 SLOAD SWAP1 PUSH2 0x100 EXP SWAP1 DIV PUSH1 0xFF AND SWAP1 DUP1 PUSH1 0x3 ADD PUSH1 0x1 SWAP1 SLOAD SWAP1 PUSH2 0x100 EXP SWAP1 DIV PUSH1 0xFF AND SWAP1 DUP1 PUSH1 0x3 ADD PUSH1 0x2 SWAP1 SLOAD SWAP1 PUSH2 0x100 EXP SWAP1 DIV PUSH1 0xFF AND SWAP1 DUP1 PUSH1 0x3 ADD PUSH1 0x3 SWAP1 SLOAD SWAP1 PUSH2 0x100 EXP SWAP1 DIV PUSH1 0xFF AND SWAP1 POP DUP8 JUMP JUMPDEST PUSH1 0x3 PUSH1 0x0 SWAP1 SLOAD SWAP1 PUSH2 0x100 EXP SWAP1 DIV PUSH20 0xFFFFFFFFFFFFFFFFFFFFFFFFFFFFFFFFFFFFFFFF AND PUSH20 0xFFFFFFFFFFFFFFFFFFFFFFFFFFFFFFFFFFFFFFFF AND CALLER PUSH20 0xFFFFFFFFFFFFFFFFFFFFFFFFFFFFFFFFFFFFFFFF AND EQ PUSH2 0xF0E JUMPI PUSH1 0x40 MLOAD PUSH32 0x8C379A000000000000000000000000000000000000000000000000000000000 DUP2 MSTORE PUSH1 0x4 ADD PUSH2 0xF05 SWAP1 PUSH2 0x1C83 JUMP JUMPDEST PUSH1 0x40 MLOAD DUP1 SWAP2 SUB SWAP1 REVERT JUMPDEST PUSH1 0x0 JUMPDEST DUP2 MLOAD DUP2 LT ISZERO PUSH2 0x1049 JUMPI PUSH32 0x10764DD95868CD163CC1BDBD6F0981DBA5825FCD9063CB102CD379A64533CFAF PUSH2 0xF45 PUSH1 0x0 PUSH2 0x104D JUMP JUMPDEST DUP4 DUP4 DUP2 MLOAD DUP2 LT PUSH2 0xF7E JUMPI PUSH32 0x4E487B7100000000000000000000000000000000000000000000000000000000 PUSH1 0x0 MSTORE PUSH1 0x32 PUSH1 0x4 MSTORE PUSH1 0x24 PUSH1 0x0 REVERT JUMPDEST PUSH1 0x20 MUL PUSH1 0x20 ADD ADD MLOAD PUSH1 0x0 ADD MLOAD DUP5 DUP5 DUP2 MLOAD DUP2 LT PUSH2 0xFC3 JUMPI PUSH32 0x4E487B7100000000000000000000000000000000000000000000000000000000 PUSH1 0x0 MSTORE PUSH1 0x32 PUSH1 0x4 MSTORE PUSH1 0x24 PUSH1 0x0 REVERT JUMPDEST PUSH1 0x20 MUL PUSH1 0x20 ADD ADD MLOAD PUSH1 0x20 ADD MLOAD DUP6 DUP6 DUP2 MLOAD DUP2 LT PUSH2 0x1008 JUMPI PUSH32 0x4E487B7100000000000000000000000000000000000000000000000000000000 PUSH1 0x0 MSTORE PUSH1 0x32 PUSH1 0x4 MSTORE PUSH1 0x24 PUSH1 0x0 REVERT JUMPDEST PUSH1 0x20 MUL PUSH1 0x20 ADD ADD MLOAD PUSH1 0x40 ADD MLOAD PUSH1 0x40 MLOAD PUSH2 0x1024 SWAP5 SWAP4 SWAP3 SWAP2 SWAP1 PUSH2 0x1D00 JUMP JUMPDEST PUSH1 0x40 MLOAD DUP1 SWAP2 SUB SWAP1 LOG1 PUSH2 0x1036 PUSH1 0x0 PUSH2 0x105B JUMP JUMPDEST DUP1 DUP1 PUSH2 0x1041 SWAP1 PUSH2 0x2028 JUMP JUMPDEST SWAP2 POP POP PUSH2 0xF11 JUMP JUMPDEST POP POP JUMP JUMPDEST PUSH1 0x0 DUP2 PUSH1 0x0 ADD SLOAD SWAP1 POP SWAP2 SWAP1 POP JUMP JUMPDEST PUSH1 0x1 DUP2 PUSH1 0x0 ADD PUSH1 0x0 DUP3 DUP3 SLOAD ADD SWAP3 POP POP DUP2 SWAP1 SSTORE POP POP JUMP JUMPDEST PUSH1 0x40 MLOAD DUP1 PUSH1 0xE0 ADD PUSH1 0x40 MSTORE DUP1 PUSH1 0x60 DUP2 MSTORE PUSH1 0x20 ADD PUSH1 0x60 DUP2 MSTORE PUSH1 0x20 ADD PUSH1 0x0 DUP2 MSTORE PUSH1 0x20 ADD PUSH1 0x0 PUSH1 0xFF AND DUP2 MSTORE PUSH1 0x20 ADD PUSH1 0x0 PUSH1 0xFF AND DUP2 MSTORE PUSH1 0x20 ADD PUSH1 0x0 ISZERO ISZERO DUP2 MSTORE PUSH1 0x20 ADD PUSH1 0x0 ISZERO ISZERO DUP2 MSTORE POP SWAP1 JUMP JUMPDEST DUP3 DUP1 SLOAD PUSH2 0x10C4 SWAP1 PUSH2 0x1FC5 JUMP JUMPDEST SWAP1 PUSH1 0x0 MSTORE PUSH1 0x20 PUSH1 0x0 KECCAK256 SWAP1 PUSH1 0x1F ADD PUSH1 0x20 SWAP1 DIV DUP2 ADD SWAP3 DUP3 PUSH2 0x10E6 JUMPI PUSH1 0x0 DUP6 SSTORE PUSH2 0x112D JUMP JUMPDEST DUP3 PUSH1 0x1F LT PUSH2 0x10FF JUMPI DUP1 MLOAD PUSH1 0xFF NOT AND DUP4 DUP1 ADD OR DUP6 SSTORE PUSH2 0x112D JUMP JUMPDEST DUP3 DUP1 ADD PUSH1 0x1 ADD DUP6 SSTORE DUP3 ISZERO PUSH2 0x112D JUMPI SWAP2 DUP3 ADD JUMPDEST DUP3 DUP2 GT ISZERO PUSH2 0x112C JUMPI DUP3 MLOAD DUP3 SSTORE SWAP2 PUSH1 0x20 ADD SWAP2 SWAP1 PUSH1 0x1 ADD SWAP1 PUSH2 0x1111 JUMP JUMPDEST JUMPDEST POP SWAP1 POP PUSH2 0x113A SWAP2 SWAP1 PUSH2 0x113E JUMP JUMPDEST POP SWAP1 JUMP JUMPDEST JUMPDEST DUP1 DUP3 GT ISZERO PUSH2 0x1157 JUMPI PUSH1 0x0 DUP2 PUSH1 0x0 SWAP1 SSTORE POP PUSH1 0x1 ADD PUSH2 0x113F JUMP JUMPDEST POP SWAP1 JUMP JUMPDEST PUSH1 0x0 PUSH2 0x116E PUSH2 0x1169 DUP5 PUSH2 0x1DD9 JUMP JUMPDEST PUSH2 0x1DB4 JUMP JUMPDEST SWAP1 POP DUP1 DUP4 DUP3 MSTORE PUSH1 0x20 DUP3 ADD SWAP1 POP DUP3 DUP6 PUSH1 0x20 DUP7 MUL DUP3 ADD GT ISZERO PUSH2 0x118D JUMPI PUSH1 0x0 DUP1 REVERT JUMPDEST PUSH1 0x0 JUMPDEST DUP6 DUP2 LT ISZERO PUSH2 0x11D7 JUMPI DUP2 CALLDATALOAD PUSH8 0xFFFFFFFFFFFFFFFF DUP2 GT ISZERO PUSH2 0x11AF JUMPI PUSH1 0x0 DUP1 REVERT JUMPDEST DUP1 DUP7 ADD PUSH2 0x11BC DUP10 DUP3 PUSH2 0x1479 JUMP JUMPDEST DUP6 MSTORE PUSH1 0x20 DUP6 ADD SWAP5 POP PUSH1 0x20 DUP5 ADD SWAP4 POP POP POP PUSH1 0x1 DUP2 ADD SWAP1 POP PUSH2 0x1190 JUMP JUMPDEST POP POP POP SWAP4 SWAP3 POP POP POP JUMP JUMPDEST PUSH1 0x0 PUSH2 0x11F4 PUSH2 0x11EF DUP5 PUSH2 0x1E05 JUMP JUMPDEST PUSH2 0x1DB4 JUMP JUMPDEST SWAP1 POP DUP1 DUP4 DUP3 MSTORE PUSH1 0x20 DUP3 ADD SWAP1 POP DUP3 DUP6 PUSH1 0xC0 DUP7 MUL DUP3 ADD GT ISZERO PUSH2 0x1213 JUMPI PUSH1 0x0 DUP1 REVERT JUMPDEST PUSH1 0x0 JUMPDEST DUP6 DUP2 LT ISZERO PUSH2 0x1243 JUMPI DUP2 PUSH2 0x1229 DUP9 DUP3 PUSH2 0x1509 JUMP JUMPDEST DUP5 MSTORE PUSH1 0x20 DUP5 ADD SWAP4 POP PUSH1 0xC0 DUP4 ADD SWAP3 POP POP PUSH1 0x1 DUP2 ADD SWAP1 POP PUSH2 0x1216 JUMP JUMPDEST POP POP POP SWAP4 SWAP3 POP POP POP JUMP JUMPDEST PUSH1 0x0 PUSH2 0x1260 PUSH2 0x125B DUP5 PUSH2 0x1E31 JUMP JUMPDEST PUSH2 0x1DB4 JUMP JUMPDEST SWAP1 POP DUP1 DUP4 DUP3 MSTORE PUSH1 0x20 DUP3 ADD SWAP1 POP DUP3 DUP6 PUSH1 0x80 DUP7 MUL DUP3 ADD GT ISZERO PUSH2 0x127F JUMPI PUSH1 0x0 DUP1 REVERT JUMPDEST PUSH1 0x0 JUMPDEST DUP6 DUP2 LT ISZERO PUSH2 0x12AF JUMPI DUP2 PUSH2 0x1295 DUP9 DUP3 PUSH2 0x15A5 JUMP JUMPDEST DUP5 MSTORE PUSH1 0x20 DUP5 ADD SWAP4 POP PUSH1 0x80 DUP4 ADD SWAP3 POP POP PUSH1 0x1 DUP2 ADD SWAP1 POP PUSH2 0x1282 JUMP JUMPDEST POP POP POP SWAP4 SWAP3 POP POP POP JUMP JUMPDEST PUSH1 0x0 PUSH2 0x12CC PUSH2 0x12C7 DUP5 PUSH2 0x1E5D JUMP JUMPDEST PUSH2 0x1DB4 JUMP JUMPDEST SWAP1 POP DUP1 DUP4 DUP3 MSTORE PUSH1 0x20 DUP3 ADD SWAP1 POP DUP3 DUP6 PUSH1 0x20 DUP7 MUL DUP3 ADD GT ISZERO PUSH2 0x12EB JUMPI PUSH1 0x0 DUP1 REVERT JUMPDEST PUSH1 0x0 JUMPDEST DUP6 DUP2 LT ISZERO PUSH2 0x1335 JUMPI DUP2 CALLDATALOAD PUSH8 0xFFFFFFFFFFFFFFFF DUP2 GT ISZERO PUSH2 0x130D JUMPI PUSH1 0x0 DUP1 REVERT JUMPDEST DUP1 DUP7 ADD PUSH2 0x131A DUP10 DUP3 PUSH2 0x1619 JUMP JUMPDEST DUP6 MSTORE PUSH1 0x20 DUP6 ADD SWAP5 POP PUSH1 0x20 DUP5 ADD SWAP4 POP POP POP PUSH1 0x1 DUP2 ADD SWAP1 POP PUSH2 0x12EE JUMP JUMPDEST POP POP POP SWAP4 SWAP3 POP POP POP JUMP JUMPDEST PUSH1 0x0 PUSH2 0x1352 PUSH2 0x134D DUP5 PUSH2 0x1E89 JUMP JUMPDEST PUSH2 0x1DB4 JUMP JUMPDEST SWAP1 POP DUP3 DUP2 MSTORE PUSH1 0x20 DUP2 ADD DUP5 DUP5 DUP5 ADD GT ISZERO PUSH2 0x136A JUMPI PUSH1 0x0 DUP1 REVERT JUMPDEST PUSH2 0x1375 DUP5 DUP3 DUP6 PUSH2 0x1F83 JUMP JUMPDEST POP SWAP4 SWAP3 POP POP POP JUMP JUMPDEST PUSH1 0x0 DUP2 CALLDATALOAD SWAP1 POP PUSH2 0x138C DUP2 PUSH2 0x218A JUMP JUMPDEST SWAP3 SWAP2 POP POP JUMP JUMPDEST PUSH1 0x0 DUP3 PUSH1 0x1F DUP4 ADD SLT PUSH2 0x13A3 JUMPI PUSH1 0x0 DUP1 REVERT JUMPDEST DUP2 CALLDATALOAD PUSH2 0x13B3 DUP5 DUP3 PUSH1 0x20 DUP7 ADD PUSH2 0x115B JUMP JUMPDEST SWAP2 POP POP SWAP3 SWAP2 POP POP JUMP JUMPDEST PUSH1 0x0 DUP3 PUSH1 0x1F DUP4 ADD SLT PUSH2 0x13CD JUMPI PUSH1 0x0 DUP1 REVERT JUMPDEST DUP2 CALLDATALOAD PUSH2 0x13DD DUP5 DUP3 PUSH1 0x20 DUP7 ADD PUSH2 0x11E1 JUMP JUMPDEST SWAP2 POP POP SWAP3 SWAP2 POP POP JUMP JUMPDEST PUSH1 0x0 DUP3 PUSH1 0x1F DUP4 ADD SLT PUSH2 0x13F7 JUMPI PUSH1 0x0 DUP1 REVERT JUMPDEST DUP2 CALLDATALOAD PUSH2 0x1407 DUP5 DUP3 PUSH1 0x20 DUP7 ADD PUSH2 0x124D JUMP JUMPDEST SWAP2 POP POP SWAP3 SWAP2 POP POP JUMP JUMPDEST PUSH1 0x0 DUP3 PUSH1 0x1F DUP4 ADD SLT PUSH2 0x1421 JUMPI PUSH1 0x0 DUP1 REVERT JUMPDEST DUP2 CALLDATALOAD PUSH2 0x1431 DUP5 DUP3 PUSH1 0x20 DUP7 ADD PUSH2 0x12B9 JUMP JUMPDEST SWAP2 POP POP SWAP3 SWAP2 POP POP JUMP JUMPDEST PUSH1 0x0 DUP2 CALLDATALOAD SWAP1 POP PUSH2 0x1449 DUP2 PUSH2 0x21A1 JUMP JUMPDEST SWAP3 SWAP2 POP POP JUMP JUMPDEST PUSH1 0x0 DUP3 PUSH1 0x1F DUP4 ADD SLT PUSH2 0x1460 JUMPI PUSH1 0x0 DUP1 REVERT JUMPDEST DUP2 CALLDATALOAD PUSH2 0x1470 DUP5 DUP3 PUSH1 0x20 DUP7 ADD PUSH2 0x133F JUMP JUMPDEST SWAP2 POP POP SWAP3 SWAP2 POP POP JUMP JUMPDEST PUSH1 0x0 PUSH1 0x60 DUP3 DUP5 SUB SLT ISZERO PUSH2 0x148B JUMPI PUSH1 0x0 DUP1 REVERT JUMPDEST PUSH2 0x1495 PUSH1 0x60 PUSH2 0x1DB4 JUMP JUMPDEST SWAP1 POP PUSH1 0x0 DUP3 ADD CALLDATALOAD PUSH8 0xFFFFFFFFFFFFFFFF DUP2 GT ISZERO PUSH2 0x14B1 JUMPI PUSH1 0x0 DUP1 REVERT JUMPDEST PUSH2 0x14BD DUP5 DUP3 DUP6 ADD PUSH2 0x144F JUMP JUMPDEST PUSH1 0x0 DUP4 ADD MSTORE POP PUSH1 0x20 PUSH2 0x14D1 DUP5 DUP3 DUP6 ADD PUSH2 0x16F9 JUMP JUMPDEST PUSH1 0x20 DUP4 ADD MSTORE POP PUSH1 0x40 DUP3 ADD CALLDATALOAD PUSH8 0xFFFFFFFFFFFFFFFF DUP2 GT ISZERO PUSH2 0x14F1 JUMPI PUSH1 0x0 DUP1 REVERT JUMPDEST PUSH2 0x14FD DUP5 DUP3 DUP6 ADD PUSH2 0x144F JUMP JUMPDEST PUSH1 0x40 DUP4 ADD MSTORE POP SWAP3 SWAP2 POP POP JUMP JUMPDEST PUSH1 0x0 PUSH1 0xC0 DUP3 DUP5 SUB SLT ISZERO PUSH2 0x151B JUMPI PUSH1 0x0 DUP1 REVERT JUMPDEST PUSH2 0x1525 PUSH1 0xC0 PUSH2 0x1DB4 JUMP JUMPDEST SWAP1 POP PUSH1 0x0 PUSH2 0x1535 DUP5 DUP3 DUP6 ADD PUSH2 0x170E JUMP JUMPDEST PUSH1 0x0 DUP4 ADD MSTORE POP PUSH1 0x20 PUSH2 0x1549 DUP5 DUP3 DUP6 ADD PUSH2 0x170E JUMP JUMPDEST PUSH1 0x20 DUP4 ADD MSTORE POP PUSH1 0x40 PUSH2 0x155D DUP5 DUP3 DUP6 ADD PUSH2 0x16F9 JUMP JUMPDEST PUSH1 0x40 DUP4 ADD MSTORE POP PUSH1 0x60 PUSH2 0x1571 DUP5 DUP3 DUP6 ADD PUSH2 0x16F9 JUMP JUMPDEST PUSH1 0x60 DUP4 ADD MSTORE POP PUSH1 0x80 PUSH2 0x1585 DUP5 DUP3 DUP6 ADD PUSH2 0x16F9 JUMP JUMPDEST PUSH1 0x80 DUP4 ADD MSTORE POP PUSH1 0xA0 PUSH2 0x1599 DUP5 DUP3 DUP6 ADD PUSH2 0x170E JUMP JUMPDEST PUSH1 0xA0 DUP4 ADD MSTORE POP SWAP3 SWAP2 POP POP JUMP JUMPDEST PUSH1 0x0 PUSH1 0x80 DUP3 DUP5 SUB SLT ISZERO PUSH2 0x15B7 JUMPI PUSH1 0x0 DUP1 REVERT JUMPDEST PUSH2 0x15C1 PUSH1 0x80 PUSH2 0x1DB4 JUMP JUMPDEST SWAP1 POP PUSH1 0x0 PUSH2 0x15D1 DUP5 DUP3 DUP6 ADD PUSH2 0x1723 JUMP JUMPDEST PUSH1 0x0 DUP4 ADD MSTORE POP PUSH1 0x20 PUSH2 0x15E5 DUP5 DUP3 DUP6 ADD PUSH2 0x1723 JUMP JUMPDEST PUSH1 0x20 DUP4 ADD MSTORE POP PUSH1 0x40 PUSH2 0x15F9 DUP5 DUP3 DUP6 ADD PUSH2 0x170E JUMP JUMPDEST PUSH1 0x40 DUP4 ADD MSTORE POP PUSH1 0x60 PUSH2 0x160D DUP5 DUP3 DUP6 ADD PUSH2 0x170E JUMP JUMPDEST PUSH1 0x60 DUP4 ADD MSTORE POP SWAP3 SWAP2 POP POP JUMP JUMPDEST PUSH1 0x0 PUSH1 0xE0 DUP3 DUP5 SUB SLT ISZERO PUSH2 0x162B JUMPI PUSH1 0x0 DUP1 REVERT JUMPDEST PUSH2 0x1635 PUSH1 0xE0 PUSH2 0x1DB4 JUMP JUMPDEST SWAP1 POP PUSH1 0x0 DUP3 ADD CALLDATALOAD PUSH8 0xFFFFFFFFFFFFFFFF DUP2 GT ISZERO PUSH2 0x1651 JUMPI PUSH1 0x0 DUP1 REVERT JUMPDEST PUSH2 0x165D DUP5 DUP3 DUP6 ADD PUSH2 0x144F JUMP JUMPDEST PUSH1 0x0 DUP4 ADD MSTORE POP PUSH1 0x20 DUP3 ADD CALLDATALOAD PUSH8 0xFFFFFFFFFFFFFFFF DUP2 GT ISZERO PUSH2 0x167D JUMPI PUSH1 0x0 DUP1 REVERT JUMPDEST PUSH2 0x1689 DUP5 DUP3 DUP6 ADD PUSH2 0x144F JUMP JUMPDEST PUSH1 0x20 DUP4 ADD MSTORE POP PUSH1 0x40 PUSH2 0x169D DUP5 DUP3 DUP6 ADD PUSH2 0x170E JUMP JUMPDEST PUSH1 0x40 DUP4 ADD MSTORE POP PUSH1 0x60 PUSH2 0x16B1 DUP5 DUP3 DUP6 ADD PUSH2 0x1723 JUMP JUMPDEST PUSH1 0x60 DUP4 ADD MSTORE POP PUSH1 0x80 PUSH2 0x16C5 DUP5 DUP3 DUP6 ADD PUSH2 0x1723 JUMP JUMPDEST PUSH1 0x80 DUP4 ADD MSTORE POP PUSH1 0xA0 PUSH2 0x16D9 DUP5 DUP3 DUP6 ADD PUSH2 0x143A JUMP JUMPDEST PUSH1 0xA0 DUP4 ADD MSTORE POP PUSH1 0xC0 PUSH2 0x16ED DUP5 DUP3 DUP6 ADD PUSH2 0x143A JUMP JUMPDEST PUSH1 0xC0 DUP4 ADD MSTORE POP SWAP3 SWAP2 POP POP JUMP JUMPDEST PUSH1 0x0 DUP2 CALLDATALOAD SWAP1 POP PUSH2 0x1708 DUP2 PUSH2 0x21B8 JUMP JUMPDEST SWAP3 SWAP2 POP POP JUMP JUMPDEST PUSH1 0x0 DUP2 CALLDATALOAD SWAP1 POP PUSH2 0x171D DUP2 PUSH2 0x21CF JUMP JUMPDEST SWAP3 SWAP2 POP POP JUMP JUMPDEST PUSH1 0x0 DUP2 CALLDATALOAD SWAP1 POP PUSH2 0x1732 DUP2 PUSH2 0x21E6 JUMP JUMPDEST SWAP3 SWAP2 POP POP JUMP JUMPDEST PUSH1 0x0 PUSH1 0x20 DUP3 DUP5 SUB SLT ISZERO PUSH2 0x174A JUMPI PUSH1 0x0 DUP1 REVERT JUMPDEST PUSH1 0x0 PUSH2 0x1758 DUP5 DUP3 DUP6 ADD PUSH2 0x137D JUMP JUMPDEST SWAP2 POP POP SWAP3 SWAP2 POP POP JUMP JUMPDEST PUSH1 0x0 PUSH1 0x20 DUP3 DUP5 SUB SLT ISZERO PUSH2 0x1773 JUMPI PUSH1 0x0 DUP1 REVERT JUMPDEST PUSH1 0x0 DUP3 ADD CALLDATALOAD PUSH8 0xFFFFFFFFFFFFFFFF DUP2 GT ISZERO PUSH2 0x178D JUMPI PUSH1 0x0 DUP1 REVERT JUMPDEST PUSH2 0x1799 DUP5 DUP3 DUP6 ADD PUSH2 0x1392 JUMP JUMPDEST SWAP2 POP POP SWAP3 SWAP2 POP POP JUMP JUMPDEST PUSH1 0x0 PUSH1 0x20 DUP3 DUP5 SUB SLT ISZERO PUSH2 0x17B4 JUMPI PUSH1 0x0 DUP1 REVERT JUMPDEST PUSH1 0x0 DUP3 ADD CALLDATALOAD PUSH8 0xFFFFFFFFFFFFFFFF DUP2 GT ISZERO PUSH2 0x17CE JUMPI PUSH1 0x0 DUP1 REVERT JUMPDEST PUSH2 0x17DA DUP5 DUP3 DUP6 ADD PUSH2 0x13BC JUMP JUMPDEST SWAP2 POP POP SWAP3 SWAP2 POP POP JUMP JUMPDEST PUSH1 0x0 PUSH1 0x20 DUP3 DUP5 SUB SLT ISZERO PUSH2 0x17F5 JUMPI PUSH1 0x0 DUP1 REVERT JUMPDEST PUSH1 0x0 DUP3 ADD CALLDATALOAD PUSH8 0xFFFFFFFFFFFFFFFF DUP2 GT ISZERO PUSH2 0x180F JUMPI PUSH1 0x0 DUP1 REVERT JUMPDEST PUSH2 0x181B DUP5 DUP3 DUP6 ADD PUSH2 0x13E6 JUMP JUMPDEST SWAP2 POP POP SWAP3 SWAP2 POP POP JUMP JUMPDEST PUSH1 0x0 PUSH1 0x20 DUP3 DUP5 SUB SLT ISZERO PUSH2 0x1836 JUMPI PUSH1 0x0 DUP1 REVERT JUMPDEST PUSH1 0x0 PUSH2 0x1844 DUP5 DUP3 DUP6 ADD PUSH2 0x170E JUMP JUMPDEST SWAP2 POP POP SWAP3 SWAP2 POP POP JUMP JUMPDEST PUSH1 0x0 DUP1 PUSH1 0x40 DUP4 DUP6 SUB SLT ISZERO PUSH2 0x1860 JUMPI PUSH1 0x0 DUP1 REVERT JUMPDEST PUSH1 0x0 PUSH2 0x186E DUP6 DUP3 DUP7 ADD PUSH2 0x170E JUMP JUMPDEST SWAP3 POP POP PUSH1 0x20 DUP4 ADD CALLDATALOAD PUSH8 0xFFFFFFFFFFFFFFFF DUP2 GT ISZERO PUSH2 0x188B JUMPI PUSH1 0x0 DUP1 REVERT JUMPDEST PUSH2 0x1897 DUP6 DUP3 DUP7 ADD PUSH2 0x1410 JUMP JUMPDEST SWAP2 POP POP SWAP3 POP SWAP3 SWAP1 POP JUMP JUMPDEST PUSH1 0x0 DUP1 PUSH1 0x40 DUP4 DUP6 SUB SLT ISZERO PUSH2 0x18B4 JUMPI PUSH1 0x0 DUP1 REVERT JUMPDEST PUSH1 0x0 PUSH2 0x18C2 DUP6 DUP3 DUP7 ADD PUSH2 0x170E JUMP JUMPDEST SWAP3 POP POP PUSH1 0x20 PUSH2 0x18D3 DUP6 DUP3 DUP7 ADD PUSH2 0x170E JUMP JUMPDEST SWAP2 POP POP SWAP3 POP SWAP3 SWAP1 POP JUMP JUMPDEST PUSH1 0x0 PUSH2 0x18E9 DUP4 DUP4 PUSH2 0x1A4C JUMP JUMPDEST PUSH1 0xC0 DUP4 ADD SWAP1 POP SWAP3 SWAP2 POP POP JUMP JUMPDEST PUSH1 0x0 PUSH2 0x1900 DUP3 PUSH2 0x1ECA JUMP JUMPDEST PUSH2 0x190A DUP2 DUP6 PUSH2 0x1EED JUMP JUMPDEST SWAP4 POP PUSH2 0x1915 DUP4 PUSH2 0x1EBA JUMP JUMPDEST DUP1 PUSH1 0x0 JUMPDEST DUP4 DUP2 LT ISZERO PUSH2 0x1946 JUMPI DUP2 MLOAD PUSH2 0x192D DUP9 DUP3 PUSH2 0x18DD JUMP JUMPDEST SWAP8 POP PUSH2 0x1938 DUP4 PUSH2 0x1EE0 JUMP JUMPDEST SWAP3 POP POP PUSH1 0x1 DUP2 ADD SWAP1 POP PUSH2 0x1919 JUMP JUMPDEST POP DUP6 SWAP4 POP POP POP POP SWAP3 SWAP2 POP POP JUMP JUMPDEST PUSH2 0x195C DUP2 PUSH2 0x1F32 JUMP JUMPDEST DUP3 MSTORE POP POP JUMP JUMPDEST PUSH2 0x196B DUP2 PUSH2 0x1F32 JUMP JUMPDEST DUP3 MSTORE POP POP JUMP JUMPDEST PUSH1 0x0 PUSH2 0x197C DUP3 PUSH2 0x1ED5 JUMP JUMPDEST PUSH2 0x1986 DUP2 DUP6 PUSH2 0x1EFE JUMP JUMPDEST SWAP4 POP PUSH2 0x1996 DUP2 DUP6 PUSH1 0x20 DUP7 ADD PUSH2 0x1F92 JUMP JUMPDEST PUSH2 0x199F DUP2 PUSH2 0x20FE JUMP JUMPDEST DUP5 ADD SWAP2 POP POP SWAP3 SWAP2 POP POP JUMP JUMPDEST PUSH1 0x0 PUSH2 0x19B5 DUP3 PUSH2 0x1ED5 JUMP JUMPDEST PUSH2 0x19BF DUP2 DUP6 PUSH2 0x1F0F JUMP JUMPDEST SWAP4 POP PUSH2 0x19CF DUP2 DUP6 PUSH1 0x20 DUP7 ADD PUSH2 0x1F92 JUMP JUMPDEST PUSH2 0x19D8 DUP2 PUSH2 0x20FE JUMP JUMPDEST DUP5 ADD SWAP2 POP POP SWAP3 SWAP2 POP POP JUMP JUMPDEST PUSH1 0x0 PUSH2 0x19F0 PUSH1 0x12 DUP4 PUSH2 0x1F0F JUMP JUMPDEST SWAP2 POP PUSH2 0x19FB DUP3 PUSH2 0x210F JUMP JUMPDEST PUSH1 0x20 DUP3 ADD SWAP1 POP SWAP2 SWAP1 POP JUMP JUMPDEST PUSH1 0x0 PUSH2 0x1A13 PUSH1 0x18 DUP4 PUSH2 0x1F0F JUMP JUMPDEST SWAP2 POP PUSH2 0x1A1E DUP3 PUSH2 0x2138 JUMP JUMPDEST PUSH1 0x20 DUP3 ADD SWAP1 POP SWAP2 SWAP1 POP JUMP JUMPDEST PUSH1 0x0 PUSH2 0x1A36 PUSH1 0xE DUP4 PUSH2 0x1F0F JUMP JUMPDEST SWAP2 POP PUSH2 0x1A41 DUP3 PUSH2 0x2161 JUMP JUMPDEST PUSH1 0x20 DUP3 ADD SWAP1 POP SWAP2 SWAP1 POP JUMP JUMPDEST PUSH1 0xC0 DUP3 ADD PUSH1 0x0 DUP3 ADD MLOAD PUSH2 0x1A62 PUSH1 0x0 DUP6 ADD DUP3 PUSH2 0x1B88 JUMP JUMPDEST POP PUSH1 0x20 DUP3 ADD MLOAD PUSH2 0x1A75 PUSH1 0x20 DUP6 ADD DUP3 PUSH2 0x1B88 JUMP JUMPDEST POP PUSH1 0x40 DUP3 ADD MLOAD PUSH2 0x1A88 PUSH1 0x40 DUP6 ADD DUP3 PUSH2 0x1B6A JUMP JUMPDEST POP PUSH1 0x60 DUP3 ADD MLOAD PUSH2 0x1A9B PUSH1 0x60 DUP6 ADD DUP3 PUSH2 0x1B6A JUMP JUMPDEST POP PUSH1 0x80 DUP3 ADD MLOAD PUSH2 0x1AAE PUSH1 0x80 DUP6 ADD DUP3 PUSH2 0x1B6A JUMP JUMPDEST POP PUSH1 0xA0 DUP3 ADD MLOAD PUSH2 0x1AC1 PUSH1 0xA0 DUP6 ADD DUP3 PUSH2 0x1B88 JUMP JUMPDEST POP POP POP POP JUMP JUMPDEST PUSH1 0x0 PUSH1 0xE0 DUP4 ADD PUSH1 0x0 DUP4 ADD MLOAD DUP5 DUP3 SUB PUSH1 0x0 DUP7 ADD MSTORE PUSH2 0x1AE4 DUP3 DUP3 PUSH2 0x1971 JUMP JUMPDEST SWAP2 POP POP PUSH1 0x20 DUP4 ADD MLOAD DUP5 DUP3 SUB PUSH1 0x20 DUP7 ADD MSTORE PUSH2 0x1AFE DUP3 DUP3 PUSH2 0x1971 JUMP JUMPDEST SWAP2 POP POP PUSH1 0x40 DUP4 ADD MLOAD PUSH2 0x1B13 PUSH1 0x40 DUP7 ADD DUP3 PUSH2 0x1B88 JUMP JUMPDEST POP PUSH1 0x60 DUP4 ADD MLOAD PUSH2 0x1B26 PUSH1 0x60 DUP7 ADD DUP3 PUSH2 0x1BA6 JUMP JUMPDEST POP PUSH1 0x80 DUP4 ADD MLOAD PUSH2 0x1B39 PUSH1 0x80 DUP7 ADD DUP3 PUSH2 0x1BA6 JUMP JUMPDEST POP PUSH1 0xA0 DUP4 ADD MLOAD PUSH2 0x1B4C PUSH1 0xA0 DUP7 ADD DUP3 PUSH2 0x1953 JUMP JUMPDEST POP PUSH1 0xC0 DUP4 ADD MLOAD PUSH2 0x1B5F PUSH1 0xC0 DUP7 ADD DUP3 PUSH2 0x1953 JUMP JUMPDEST POP DUP1 SWAP2 POP POP SWAP3 SWAP2 POP POP JUMP JUMPDEST PUSH2 0x1B73 DUP2 PUSH2 0x1F3E JUMP JUMPDEST DUP3 MSTORE POP POP JUMP JUMPDEST PUSH2 0x1B82 DUP2 PUSH2 0x1F3E JUMP JUMPDEST DUP3 MSTORE POP POP JUMP JUMPDEST PUSH2 0x1B91 DUP2 PUSH2 0x1F6C JUMP JUMPDEST DUP3 MSTORE POP POP JUMP JUMPDEST PUSH2 0x1BA0 DUP2 PUSH2 0x1F6C JUMP JUMPDEST DUP3 MSTORE POP POP JUMP JUMPDEST PUSH2 0x1BAF DUP2 PUSH2 0x1F76 JUMP JUMPDEST DUP3 MSTORE POP POP JUMP JUMPDEST PUSH2 0x1BBE DUP2 PUSH2 0x1F76 JUMP JUMPDEST DUP3 MSTORE POP POP JUMP JUMPDEST PUSH1 0x0 PUSH1 0x20 DUP3 ADD SWAP1 POP DUP2 DUP2 SUB PUSH1 0x0 DUP4 ADD MSTORE PUSH2 0x1BDE DUP2 DUP5 PUSH2 0x18F5 JUMP JUMPDEST SWAP1 POP SWAP3 SWAP2 POP POP JUMP JUMPDEST PUSH1 0x0 PUSH1 0xE0 DUP3 ADD SWAP1 POP DUP2 DUP2 SUB PUSH1 0x0 DUP4 ADD MSTORE PUSH2 0x1C00 DUP2 DUP11 PUSH2 0x19AA JUMP JUMPDEST SWAP1 POP DUP2 DUP2 SUB PUSH1 0x20 DUP4 ADD MSTORE PUSH2 0x1C14 DUP2 DUP10 PUSH2 0x19AA JUMP JUMPDEST SWAP1 POP PUSH2 0x1C23 PUSH1 0x40 DUP4 ADD DUP9 PUSH2 0x1B97 JUMP JUMPDEST PUSH2 0x1C30 PUSH1 0x60 DUP4 ADD DUP8 PUSH2 0x1BB5 JUMP JUMPDEST PUSH2 0x1C3D PUSH1 0x80 DUP4 ADD DUP7 PUSH2 0x1BB5 JUMP JUMPDEST PUSH2 0x1C4A PUSH1 0xA0 DUP4 ADD DUP6 PUSH2 0x1962 JUMP JUMPDEST PUSH2 0x1C57 PUSH1 0xC0 DUP4 ADD DUP5 PUSH2 0x1962 JUMP JUMPDEST SWAP9 SWAP8 POP POP POP POP POP POP POP POP JUMP JUMPDEST PUSH1 0x0 PUSH1 0x20 DUP3 ADD SWAP1 POP DUP2 DUP2 SUB PUSH1 0x0 DUP4 ADD MSTORE PUSH2 0x1C7C DUP2 PUSH2 0x19E3 JUMP JUMPDEST SWAP1 POP SWAP2 SWAP1 POP JUMP JUMPDEST PUSH1 0x0 PUSH1 0x20 DUP3 ADD SWAP1 POP DUP2 DUP2 SUB PUSH1 0x0 DUP4 ADD MSTORE PUSH2 0x1C9C DUP2 PUSH2 0x1A06 JUMP JUMPDEST SWAP1 POP SWAP2 SWAP1 POP JUMP JUMPDEST PUSH1 0x0 PUSH1 0x20 DUP3 ADD SWAP1 POP DUP2 DUP2 SUB PUSH1 0x0 DUP4 ADD MSTORE PUSH2 0x1CBC DUP2 PUSH2 0x1A29 JUMP JUMPDEST SWAP1 POP SWAP2 SWAP1 POP JUMP JUMPDEST PUSH1 0x0 PUSH1 0x20 DUP3 ADD SWAP1 POP DUP2 DUP2 SUB PUSH1 0x0 DUP4 ADD MSTORE PUSH2 0x1CDD DUP2 DUP5 PUSH2 0x1AC7 JUMP JUMPDEST SWAP1 POP SWAP3 SWAP2 POP POP JUMP JUMPDEST PUSH1 0x0 PUSH1 0x20 DUP3 ADD SWAP1 POP PUSH2 0x1CFA PUSH1 0x0 DUP4 ADD DUP5 PUSH2 0x1B97 JUMP JUMPDEST SWAP3 SWAP2 POP POP JUMP JUMPDEST PUSH1 0x0 PUSH1 0x80 DUP3 ADD SWAP1 POP PUSH2 0x1D15 PUSH1 0x0 DUP4 ADD DUP8 PUSH2 0x1B97 JUMP JUMPDEST DUP2 DUP2 SUB PUSH1 0x20 DUP4 ADD MSTORE PUSH2 0x1D27 DUP2 DUP7 PUSH2 0x19AA JUMP JUMPDEST SWAP1 POP PUSH2 0x1D36 PUSH1 0x40 DUP4 ADD DUP6 PUSH2 0x1B79 JUMP JUMPDEST DUP2 DUP2 SUB PUSH1 0x60 DUP4 ADD MSTORE PUSH2 0x1D48 DUP2 DUP5 PUSH2 0x19AA JUMP JUMPDEST SWAP1 POP SWAP6 SWAP5 POP POP POP POP POP JUMP JUMPDEST PUSH1 0x0 PUSH1 0xA0 DUP3 ADD SWAP1 POP PUSH2 0x1D68 PUSH1 0x0 DUP4 ADD DUP9 PUSH2 0x1B97 JUMP JUMPDEST PUSH2 0x1D75 PUSH1 0x20 DUP4 ADD DUP8 PUSH2 0x1B97 JUMP JUMPDEST DUP2 DUP2 SUB PUSH1 0x40 DUP4 ADD MSTORE PUSH2 0x1D87 DUP2 DUP7 PUSH2 0x19AA JUMP JUMPDEST SWAP1 POP DUP2 DUP2 SUB PUSH1 0x60 DUP4 ADD MSTORE PUSH2 0x1D9B DUP2 DUP6 PUSH2 0x19AA JUMP JUMPDEST SWAP1 POP PUSH2 0x1DAA PUSH1 0x80 DUP4 ADD DUP5 PUSH2 0x1B97 JUMP JUMPDEST SWAP7 SWAP6 POP POP POP POP POP POP JUMP JUMPDEST PUSH1 0x0 PUSH2 0x1DBE PUSH2 0x1DCF JUMP JUMPDEST SWAP1 POP PUSH2 0x1DCA DUP3 DUP3 PUSH2 0x1FF7 JUMP JUMPDEST SWAP2 SWAP1 POP JUMP JUMPDEST PUSH1 0x0 PUSH1 0x40 MLOAD SWAP1 POP SWAP1 JUMP JUMPDEST PUSH1 0x0 PUSH8 0xFFFFFFFFFFFFFFFF DUP3 GT ISZERO PUSH2 0x1DF4 JUMPI PUSH2 0x1DF3 PUSH2 0x20CF JUMP JUMPDEST JUMPDEST PUSH1 0x20 DUP3 MUL SWAP1 POP PUSH1 0x20 DUP2 ADD SWAP1 POP SWAP2 SWAP1 POP JUMP JUMPDEST PUSH1 0x0 PUSH8 0xFFFFFFFFFFFFFFFF DUP3 GT ISZERO PUSH2 0x1E20 JUMPI PUSH2 0x1E1F PUSH2 0x20CF JUMP JUMPDEST JUMPDEST PUSH1 0x20 DUP3 MUL SWAP1 POP PUSH1 0x20 DUP2 ADD SWAP1 POP SWAP2 SWAP1 POP JUMP JUMPDEST PUSH1 0x0 PUSH8 0xFFFFFFFFFFFFFFFF DUP3 GT ISZERO PUSH2 0x1E4C JUMPI PUSH2 0x1E4B PUSH2 0x20CF JUMP JUMPDEST JUMPDEST PUSH1 0x20 DUP3 MUL SWAP1 POP PUSH1 0x20 DUP2 ADD SWAP1 POP SWAP2 SWAP1 POP JUMP JUMPDEST PUSH1 0x0 PUSH8 0xFFFFFFFFFFFFFFFF DUP3 GT ISZERO PUSH2 0x1E78 JUMPI PUSH2 0x1E77 PUSH2 0x20CF JUMP JUMPDEST JUMPDEST PUSH1 0x20 DUP3 MUL SWAP1 POP PUSH1 0x20 DUP2 ADD SWAP1 POP SWAP2 SWAP1 POP JUMP JUMPDEST PUSH1 0x0 PUSH8 0xFFFFFFFFFFFFFFFF DUP3 GT ISZERO PUSH2 0x1EA4 JUMPI PUSH2 0x1EA3 PUSH2 0x20CF JUMP JUMPDEST JUMPDEST PUSH2 0x1EAD DUP3 PUSH2 0x20FE JUMP JUMPDEST SWAP1 POP PUSH1 0x20 DUP2 ADD SWAP1 POP SWAP2 SWAP1 POP JUMP JUMPDEST PUSH1 0x0 DUP2 SWAP1 POP PUSH1 0x20 DUP3 ADD SWAP1 POP SWAP2 SWAP1 POP JUMP JUMPDEST PUSH1 0x0 DUP2 MLOAD SWAP1 POP SWAP2 SWAP1 POP JUMP JUMPDEST PUSH1 0x0 DUP2 MLOAD SWAP1 POP SWAP2 SWAP1 POP JUMP JUMPDEST PUSH1 0x0 PUSH1 0x20 DUP3 ADD SWAP1 POP SWAP2 SWAP1 POP JUMP JUMPDEST PUSH1 0x0 DUP3 DUP3 MSTORE PUSH1 0x20 DUP3 ADD SWAP1 POP SWAP3 SWAP2 POP POP JUMP JUMPDEST PUSH1 0x0 DUP3 DUP3 MSTORE PUSH1 0x20 DUP3 ADD SWAP1 POP SWAP3 SWAP2 POP POP JUMP JUMPDEST PUSH1 0x0 DUP3 DUP3 MSTORE PUSH1 0x20 DUP3 ADD SWAP1 POP SWAP3 SWAP2 POP POP JUMP JUMPDEST PUSH1 0x0 PUSH2 0x1F2B DUP3 PUSH2 0x1F4C JUMP JUMPDEST SWAP1 POP SWAP2 SWAP1 POP JUMP JUMPDEST PUSH1 0x0 DUP2 ISZERO ISZERO SWAP1 POP SWAP2 SWAP1 POP JUMP JUMPDEST PUSH1 0x0 PUSH2 0xFFFF DUP3 AND SWAP1 POP SWAP2 SWAP1 POP JUMP JUMPDEST PUSH1 0x0 PUSH20 0xFFFFFFFFFFFFFFFFFFFFFFFFFFFFFFFFFFFFFFFF DUP3 AND SWAP1 POP SWAP2 SWAP1 POP JUMP JUMPDEST PUSH1 0x0 DUP2 SWAP1 POP SWAP2 SWAP1 POP JUMP JUMPDEST PUSH1 0x0 PUSH1 0xFF DUP3 AND SWAP1 POP SWAP2 SWAP1 POP JUMP JUMPDEST DUP3 DUP2 DUP4 CALLDATACOPY PUSH1 0x0 DUP4 DUP4 ADD MSTORE POP POP POP JUMP JUMPDEST PUSH1 0x0 JUMPDEST DUP4 DUP2 LT ISZERO PUSH2 0x1FB0 JUMPI DUP1 DUP3 ADD MLOAD DUP2 DUP5 ADD MSTORE PUSH1 0x20 DUP2 ADD SWAP1 POP PUSH2 0x1F95 JUMP JUMPDEST DUP4 DUP2 GT ISZERO PUSH2 0x1FBF JUMPI PUSH1 0x0 DUP5 DUP5 ADD MSTORE JUMPDEST POP POP POP POP JUMP JUMPDEST PUSH1 0x0 PUSH1 0x2 DUP3 DIV SWAP1 POP PUSH1 0x1 DUP3 AND DUP1 PUSH2 0x1FDD JUMPI PUSH1 0x7F DUP3 AND SWAP2 POP JUMPDEST PUSH1 0x20 DUP3 LT DUP2 EQ ISZERO PUSH2 0x1FF1 JUMPI PUSH2 0x1FF0 PUSH2 0x20A0 JUMP JUMPDEST JUMPDEST POP SWAP2 SWAP1 POP JUMP JUMPDEST PUSH2 0x2000 DUP3 PUSH2 0x20FE JUMP JUMPDEST DUP2 ADD DUP2 DUP2 LT PUSH8 0xFFFFFFFFFFFFFFFF DUP3 GT OR ISZERO PUSH2 0x201F JUMPI PUSH2 0x201E PUSH2 0x20CF JUMP JUMPDEST JUMPDEST DUP1 PUSH1 0x40 MSTORE POP POP POP JUMP JUMPDEST PUSH1 0x0 PUSH2 0x2033 DUP3 PUSH2 0x1F6C JUMP JUMPDEST SWAP2 POP PUSH32 0xFFFFFFFFFFFFFFFFFFFFFFFFFFFFFFFFFFFFFFFFFFFFFFFFFFFFFFFFFFFFFFFF DUP3 EQ ISZERO PUSH2 0x2066 JUMPI PUSH2 0x2065 PUSH2 0x2071 JUMP JUMPDEST JUMPDEST PUSH1 0x1 DUP3 ADD SWAP1 POP SWAP2 SWAP1 POP JUMP JUMPDEST PUSH32 0x4E487B7100000000000000000000000000000000000000000000000000000000 PUSH1 0x0 MSTORE PUSH1 0x11 PUSH1 0x4 MSTORE PUSH1 0x24 PUSH1 0x0 REVERT JUMPDEST PUSH32 0x4E487B7100000000000000000000000000000000000000000000000000000000 PUSH1 0x0 MSTORE PUSH1 0x22 PUSH1 0x4 MSTORE PUSH1 0x24 PUSH1 0x0 REVERT JUMPDEST PUSH32 0x4E487B7100000000000000000000000000000000000000000000000000000000 PUSH1 0x0 MSTORE PUSH1 0x41 PUSH1 0x4 MSTORE PUSH1 0x24 PUSH1 0x0 REVERT JUMPDEST PUSH1 0x0 PUSH1 0x1F NOT PUSH1 0x1F DUP4 ADD AND SWAP1 POP SWAP2 SWAP1 POP JUMP JUMPDEST PUSH32 0x616C72656164792066756C6C66696C6C65640000000000000000000000000000 PUSH1 0x0 DUP3 ADD MSTORE POP JUMP JUMPDEST PUSH32 0x4F6E6C7920636F6F7264696E61746F7220616C6C6F7765640000000000000000 PUSH1 0x0 DUP3 ADD MSTORE POP JUMP JUMPDEST PUSH32 0x4E6F20726573756C747320796574000000000000000000000000000000000000 PUSH1 0x0 DUP3 ADD MSTORE POP JUMP JUMPDEST PUSH2 0x2193 DUP2 PUSH2 0x1F20 JUMP JUMPDEST DUP2 EQ PUSH2 0x219E JUMPI PUSH1 0x0 DUP1 REVERT JUMPDEST POP JUMP JUMPDEST PUSH2 0x21AA DUP2 PUSH2 0x1F32 JUMP JUMPDEST DUP2 EQ PUSH2 0x21B5 JUMPI PUSH1 0x0 DUP1 REVERT JUMPDEST POP JUMP JUMPDEST PUSH2 0x21C1 DUP2 PUSH2 0x1F3E JUMP JUMPDEST DUP2 EQ PUSH2 0x21CC JUMPI PUSH1 0x0 DUP1 REVERT JUMPDEST POP JUMP JUMPDEST PUSH2 0x21D8 DUP2 PUSH2 0x1F6C JUMP JUMPDEST DUP2 EQ PUSH2 0x21E3 JUMPI PUSH1 0x0 DUP1 REVERT JUMPDEST POP JUMP JUMPDEST PUSH2 0x21EF DUP2 PUSH2 0x1F76 JUMP JUMPDEST DUP2 EQ PUSH2 0x21FA JUMPI PUSH1 0x0 DUP1 REVERT JUMPDEST POP JUMP INVALID LOG2 PUSH5 0x6970667358 0x22 SLT KECCAK256 0xE0 0xC1 0xCC SWAP7 0xE5 MSTORE8 PUSH5 0xC36F30B17C 0xD7 SWAP1 DIV PUSH21 0x3CA8656DCE992180DBAB99C2F3FD41EA64736F6C63 NUMBER STOP ADDMOD DIV STOP CALLER "
        },
        "methodIdentifiers": {
          "champIds()": "c58e8bb1",
          "closeMatches((uint256,uint256,uint16,uint16,uint16,uint256)[])": "6a418898",
          "fullfillResults((uint8,uint8,uint256,uint256)[])": "a1114964",
          "getMatch(uint256,uint256)": "107cfe51",
          "insertChampionships((string,uint16,string)[])": "d6b3fa14",
          "insertMatches(uint256,(string,string,uint256,uint8,uint8,bool,bool)[])": "2c2702e8",
          "matchIds(uint256)": "36ff6a70",
          "matches(uint256,uint256)": "d67ed34d",
          "setContractAdresses(address)": "87472ac3"
        }
      }
    }
  }
}