{
  "_format": "hh-sol-artifact-1",
  "contractName": "BrazilianStormSportingbet",
  "sourceName": "contracts/BrazilianStorm.sol",
  "abi": [
    {
      "inputs": [
        {
          "internalType": "address",
          "name": "_createUserVerifier",
          "type": "address"
        },
        {
          "internalType": "address",
          "name": "_depositVerifier",
          "type": "address"
        },
        {
          "internalType": "address",
          "name": "_withdrawnVerifier",
          "type": "address"
        },
        {
          "internalType": "uint8[32][2]",
          "name": "_coordinatorPubKey",
          "type": "uint8[32][2]"
        }
      ],
      "stateMutability": "nonpayable",
      "type": "constructor"
    },
    {
      "anonymous": false,
      "inputs": [
        {
          "indexed": false,
          "internalType": "uint256",
          "name": "identityCommitment",
          "type": "uint256"
        },
        {
          "indexed": false,
          "internalType": "uint8[32][2]",
          "name": "pubKey",
          "type": "uint8[32][2]"
        }
      ],
      "name": "UserCreated",
      "type": "event"
    },
    {
      "inputs": [
        {
          "internalType": "uint256",
          "name": "identityCommitment",
          "type": "uint256"
        },
        {
          "internalType": "uint256",
          "name": "currentBalance",
          "type": "uint256"
        },
        {
          "internalType": "uint256",
          "name": "newBalance",
          "type": "uint256"
        }
      ],
      "name": "changeBalance",
      "outputs": [],
      "stateMutability": "nonpayable",
      "type": "function"
    },
    {
      "inputs": [
        {
          "internalType": "uint256",
          "name": "",
          "type": "uint256"
        },
        {
          "internalType": "uint256",
          "name": "",
          "type": "uint256"
        }
      ],
      "name": "coordinatorPubKey",
      "outputs": [
        {
          "internalType": "uint8",
          "name": "",
          "type": "uint8"
        }
      ],
      "stateMutability": "view",
      "type": "function"
    },
    {
      "inputs": [
        {
          "internalType": "uint256[2]",
          "name": "a",
          "type": "uint256[2]"
        },
        {
          "internalType": "uint256[2][2]",
          "name": "b",
          "type": "uint256[2][2]"
        },
        {
          "internalType": "uint256[2]",
          "name": "c",
          "type": "uint256[2]"
        },
        {
          "internalType": "uint256[3]",
          "name": "input",
          "type": "uint256[3]"
        },
        {
          "internalType": "uint8[32][2]",
          "name": "pubKey",
          "type": "uint8[32][2]"
        }
      ],
      "name": "createUser",
      "outputs": [],
      "stateMutability": "nonpayable",
      "type": "function"
    },
    {
      "inputs": [
        {
          "internalType": "uint256[2]",
          "name": "a",
          "type": "uint256[2]"
        },
        {
          "internalType": "uint256[2][2]",
          "name": "b",
          "type": "uint256[2][2]"
        },
        {
          "internalType": "uint256[2]",
          "name": "c",
          "type": "uint256[2]"
        },
        {
          "internalType": "uint256[4]",
          "name": "input",
          "type": "uint256[4]"
        }
      ],
      "name": "deposit",
      "outputs": [],
      "stateMutability": "payable",
      "type": "function"
    },
    {
      "inputs": [
        {
          "internalType": "uint256",
          "name": "fee",
          "type": "uint256"
        }
      ],
      "name": "payCoordinator",
      "outputs": [],
      "stateMutability": "payable",
      "type": "function"
    },
    {
      "inputs": [
        {
          "internalType": "address",
          "name": "_betContract",
          "type": "address"
        }
      ],
      "name": "setContractAdresses",
      "outputs": [],
      "stateMutability": "nonpayable",
      "type": "function"
    },
    {
      "inputs": [
        {
          "internalType": "uint256",
          "name": "",
          "type": "uint256"
        }
      ],
      "name": "usernames",
      "outputs": [
        {
          "internalType": "bool",
          "name": "",
          "type": "bool"
        }
      ],
      "stateMutability": "view",
      "type": "function"
    },
    {
      "inputs": [
        {
          "internalType": "uint256",
          "name": "",
          "type": "uint256"
        }
      ],
      "name": "users",
      "outputs": [
        {
          "internalType": "uint256",
          "name": "balance",
          "type": "uint256"
        },
        {
          "internalType": "bool",
          "name": "isActive",
          "type": "bool"
        }
      ],
      "stateMutability": "view",
      "type": "function"
    },
    {
      "inputs": [
        {
          "internalType": "uint256[2]",
          "name": "a",
          "type": "uint256[2]"
        },
        {
          "internalType": "uint256[2][2]",
          "name": "b",
          "type": "uint256[2][2]"
        },
        {
          "internalType": "uint256[2]",
          "name": "c",
          "type": "uint256[2]"
        },
        {
          "internalType": "uint256[4]",
          "name": "input",
          "type": "uint256[4]"
        }
      ],
      "name": "withdrawn",
      "outputs": [],
      "stateMutability": "payable",
      "type": "function"
    }
  ],
  "bytecode": "0x60806040523480156200001157600080fd5b5060405162002506380380620025068339818101604052810190620000379190620003f9565b33600260006101000a81548173ffffffffffffffffffffffffffffffffffffffff021916908373ffffffffffffffffffffffffffffffffffffffff1602179055508060039060026200008b92919062000159565b5083600560006101000a81548173ffffffffffffffffffffffffffffffffffffffff021916908373ffffffffffffffffffffffffffffffffffffffff16021790555082600660006101000a81548173ffffffffffffffffffffffffffffffffffffffff021916908373ffffffffffffffffffffffffffffffffffffffff16021790555081600760006101000a81548173ffffffffffffffffffffffffffffffffffffffff021916908373ffffffffffffffffffffffffffffffffffffffff16021790555050505050620005cc565b82600281019282156200019b579160200282015b828111156200019a5782518290602062000189929190620001ae565b50916020019190600101906200016d565b5b509050620001aa91906200024f565b5090565b826020601f016020900481019282156200023c5791602002820160005b838211156200020b57835183826101000a81548160ff021916908360ff1602179055509260200192600101602081600001049283019260010302620001cb565b80156200023a5782816101000a81549060ff02191690556001016020816000010492830192600103026200020b565b505b5090506200024b919062000277565b5090565b5b8082111562000273576000818162000269919062000296565b5060010162000250565b5090565b5b808211156200029257600081600090555060010162000278565b5090565b5060009055565b6000620002b4620002ae846200048f565b62000466565b9050808285610400860282011115620002cc57600080fd5b60005b85811015620003015781620002e58882620003b8565b84526020840193506104008301925050600181019050620002cf565b5050509392505050565b6000620003226200031c84620004b8565b62000466565b905080828560208602820111156200033957600080fd5b60005b858110156200036d5781620003528882620003e2565b8452602084019350602083019250506001810190506200033c565b5050509392505050565b600081519050620003888162000598565b92915050565b600082601f830112620003a057600080fd5b6002620003af8482856200029d565b91505092915050565b600082601f830112620003ca57600080fd5b6020620003d98482856200030b565b91505092915050565b600081519050620003f381620005b2565b92915050565b60008060008061086085870312156200041157600080fd5b6000620004218782880162000377565b9450506020620004348782880162000377565b9350506040620004478782880162000377565b92505060606200045a878288016200038e565b91505092959194509250565b60006200047262000485565b905062000480828262000522565b919050565b6000604051905090565b600067ffffffffffffffff821115620004ad57620004ac62000558565b5b602082029050919050565b600067ffffffffffffffff821115620004d657620004d562000558565b5b602082029050919050565b6000620004ee82620004f5565b9050919050565b600073ffffffffffffffffffffffffffffffffffffffff82169050919050565b600060ff82169050919050565b6200052d8262000587565b810181811067ffffffffffffffff821117156200054f576200054e62000558565b5b80604052505050565b7f4e487b7100000000000000000000000000000000000000000000000000000000600052604160045260246000fd5b6000601f19601f8301169050919050565b620005a381620004e1565b8114620005af57600080fd5b50565b620005bd8162000515565b8114620005c957600080fd5b50565b611f2a80620005dc6000396000f3fe6080604052600436106100865760003560e01c8063650168c311610059578063650168c31461013e57806387472ac31461015a5780639ced35f2146101835780639d799831146101ac578063acc09e3c146101e957610086565b806312fdec661461008b578063136dd963146100a7578063365b98b2146100e457806359dde0b514610122575b600080fd5b6100a560048036038101906100a09190611345565b610212565b005b3480156100b357600080fd5b506100ce60048036038101906100c991906113d3565b610478565b6040516100db9190611917565b60405180910390f35b3480156100f057600080fd5b5061010b600480360381019061010691906113d3565b610498565b604051610119929190611a3c565b60405180910390f35b61013c60048036038101906101379190611345565b6104c9565b005b610158600480360381019061015391906113d3565b61076b565b005b34801561016657600080fd5b50610181600480360381019061017c91906112a2565b610867565b005b34801561018f57600080fd5b506101aa60048036038101906101a59190611438565b61093b565b005b3480156101b857600080fd5b506101d360048036038101906101ce91906113fc565b610a37565b6040516101e09190611a65565b60405180910390f35b3480156101f557600080fd5b50610210600480360381019061020b91906112cb565b610a73565b005b6000600660009054906101000a900473ffffffffffffffffffffffffffffffffffffffff1673ffffffffffffffffffffffffffffffffffffffff16635fe8c13b868686866040518563ffffffff1660e01b815260040161027594939291906118d0565b60206040518083038186803b15801561028d57600080fd5b505afa1580156102a1573d6000803e3d6000fd5b505050506040513d601f19601f820116820180604052508101906102c591906113aa565b905080610307576040517f08c379a00000000000000000000000000000000000000000000000000000000081526004016102fe906119f2565b60405180910390fd5b60006001600084600060048110610347577f4e487b7100000000000000000000000000000000000000000000000000000000600052603260045260246000fd5b60200201518152602001908152602001600020905082600160048110610396577f4e487b7100000000000000000000000000000000000000000000000000000000600052603260045260246000fd5b602002015181600001541480156103ea5750826003600481106103e2577f4e487b7100000000000000000000000000000000000000000000000000000000600052603260045260246000fd5b602002015134145b610429576040517f08c379a000000000000000000000000000000000000000000000000000000000815260040161042090611932565b60405180910390fd5b82600260048110610463577f4e487b7100000000000000000000000000000000000000000000000000000000600052603260045260246000fd5b60200201518160000181905550505050505050565b60006020528060005260406000206000915054906101000a900460ff1681565b60016020528060005260406000206000915090508060000154908060030160009054906101000a900460ff16905082565b6000600760009054906101000a900473ffffffffffffffffffffffffffffffffffffffff1673ffffffffffffffffffffffffffffffffffffffff16635fe8c13b868686866040518563ffffffff1660e01b815260040161052c94939291906118d0565b60206040518083038186803b15801561054457600080fd5b505afa158015610558573d6000803e3d6000fd5b505050506040513d601f19601f8201168201806040525081019061057c91906113aa565b9050806105be576040517f08c379a00000000000000000000000000000000000000000000000000000000081526004016105b5906119f2565b60405180910390fd5b600060016000846000600481106105fe577f4e487b7100000000000000000000000000000000000000000000000000000000600052603260045260246000fd5b6020020151815260200190815260200160002090508260016004811061064d577f4e487b7100000000000000000000000000000000000000000000000000000000600052603260045260246000fd5b6020020151816000015414610697576040517f08c379a000000000000000000000000000000000000000000000000000000000815260040161068e906119d2565b60405180910390fd5b826002600481106106d1577f4e487b7100000000000000000000000000000000000000000000000000000000600052603260045260246000fd5b602002015181600001819055503373ffffffffffffffffffffffffffffffffffffffff166108fc84600360048110610732577f4e487b7100000000000000000000000000000000000000000000000000000000600052603260045260246000fd5b60200201519081150290604051600060405180830381858888f19350505050158015610762573d6000803e3d6000fd5b50505050505050565b600860009054906101000a900473ffffffffffffffffffffffffffffffffffffffff1673ffffffffffffffffffffffffffffffffffffffff163373ffffffffffffffffffffffffffffffffffffffff16146107fb576040517f08c379a00000000000000000000000000000000000000000000000000000000081526004016107f290611992565b60405180910390fd5b600260009054906101000a900473ffffffffffffffffffffffffffffffffffffffff1673ffffffffffffffffffffffffffffffffffffffff166108fc829081150290604051600060405180830381858888f19350505050158015610863573d6000803e3d6000fd5b5050565b600260009054906101000a900473ffffffffffffffffffffffffffffffffffffffff1673ffffffffffffffffffffffffffffffffffffffff163373ffffffffffffffffffffffffffffffffffffffff16146108f7576040517f08c379a00000000000000000000000000000000000000000000000000000000081526004016108ee906119b2565b60405180910390fd5b80600860006101000a81548173ffffffffffffffffffffffffffffffffffffffff021916908373ffffffffffffffffffffffffffffffffffffffff16021790555050565b600860009054906101000a900473ffffffffffffffffffffffffffffffffffffffff1673ffffffffffffffffffffffffffffffffffffffff163373ffffffffffffffffffffffffffffffffffffffff16146109cb576040517f08c379a00000000000000000000000000000000000000000000000000000000081526004016109c290611992565b60405180910390fd5b600060016000858152602001908152602001600020905082816000015414610a28576040517f08c379a0000000000000000000000000000000000000000000000000000000008152600401610a1f90611972565b60405180910390fd5b81816000018190555050505050565b60038260028110610a4757600080fd5b018160208110610a5657600080fd5b60209182820401919006915091509054906101000a900460ff1681565b6000600560009054906101000a900473ffffffffffffffffffffffffffffffffffffffff1673ffffffffffffffffffffffffffffffffffffffff166311479fea878787876040518563ffffffff1660e01b8152600401610ad69493929190611889565b60206040518083038186803b158015610aee57600080fd5b505afa158015610b02573d6000803e3d6000fd5b505050506040513d601f19601f82011682018060405250810190610b2691906113aa565b905080610b68576040517f08c379a0000000000000000000000000000000000000000000000000000000008152600401610b5f906119f2565b60405180910390fd5b60008084600160038110610ba5577f4e487b7100000000000000000000000000000000000000000000000000000000600052603260045260246000fd5b6020020151815260200190815260200160002060009054906101000a900460ff1615610c06576040517f08c379a0000000000000000000000000000000000000000000000000000000008152600401610bfd90611952565b60405180910390fd5b600160008085600160038110610c45577f4e487b7100000000000000000000000000000000000000000000000000000000600052603260045260246000fd5b6020020151815260200190815260200160002060006101000a81548160ff021916908315150217905550604051806060016040528084600260038110610cb4577f4e487b7100000000000000000000000000000000000000000000000000000000600052603260045260246000fd5b60200201518152602001838152602001600115158152506001600085600060038110610d09577f4e487b7100000000000000000000000000000000000000000000000000000000600052603260045260246000fd5b6020020151815260200190815260200160002060008201518160000155602082015181600101906002610d3d929190610de0565b5060408201518160030160006101000a81548160ff0219169083151502179055509050507f259ef7fea9f07612663253d2844b5bc7e4046d58b6be03a7c82db8393da288cd83600060038110610dbc577f4e487b7100000000000000000000000000000000000000000000000000000000600052603260045260246000fd5b602002015183604051610dd0929190611a12565b60405180910390a1505050505050565b8260028101928215610e1d579160200282015b82811115610e1c57825182906020610e0c929190610e2e565b5091602001919060010190610df3565b5b509050610e2a9190610ec8565b5090565b826020601f01602090048101928215610eb75791602002820160005b83821115610e8857835183826101000a81548160ff021916908360ff1602179055509260200192600101602081600001049283019260010302610e4a565b8015610eb55782816101000a81549060ff0219169055600101602081600001049283019260010302610e88565b505b509050610ec49190610eec565b5090565b5b80821115610ee85760008181610edf9190610f09565b50600101610ec9565b5090565b5b80821115610f05576000816000905550600101610eed565b5090565b5060009055565b6000610f23610f1e84611aa5565b611a80565b90508082856040860282011115610f3957600080fd5b60005b85811015610f695781610f4f88826111c7565b845260208401935060408301925050600181019050610f3c565b5050509392505050565b6000610f86610f8184611acb565b611a80565b9050808285610400860282011115610f9d57600080fd5b60005b85811015610fce5781610fb3888261123c565b84526020840193506104008301925050600181019050610fa0565b5050509392505050565b6000610feb610fe684611af1565b611a80565b9050808285602086028201111561100157600080fd5b60005b8581101561103157816110178882611278565b845260208401935060208301925050600181019050611004565b5050509392505050565b600061104e61104984611b17565b611a80565b9050808285602086028201111561106457600080fd5b60005b85811015611094578161107a8882611278565b845260208401935060208301925050600181019050611067565b5050509392505050565b60006110b16110ac84611b3d565b611a80565b905080828560208602820111156110c757600080fd5b60005b858110156110f757816110dd8882611278565b8452602084019350602083019250506001810190506110ca565b5050509392505050565b600061111461110f84611b63565b611a80565b9050808285602086028201111561112a57600080fd5b60005b8581101561115a5781611140888261128d565b84526020840193506020830192505060018101905061112d565b5050509392505050565b60008135905061117381611e98565b92915050565b600082601f83011261118a57600080fd5b6002611197848285610f10565b91505092915050565b600082601f8301126111b157600080fd5b60026111be848285610f73565b91505092915050565b600082601f8301126111d857600080fd5b60026111e5848285610fd8565b91505092915050565b600082601f8301126111ff57600080fd5b600361120c84828561103b565b91505092915050565b600082601f83011261122657600080fd5b600461123384828561109e565b91505092915050565b600082601f83011261124d57600080fd5b602061125a848285611101565b91505092915050565b60008151905061127281611eaf565b92915050565b60008135905061128781611ec6565b92915050565b60008135905061129c81611edd565b92915050565b6000602082840312156112b457600080fd5b60006112c284828501611164565b91505092915050565b600080600080600061096086880312156112e457600080fd5b60006112f2888289016111c7565b955050604061130388828901611179565b94505060c0611314888289016111c7565b935050610100611326888289016111ee565b925050610160611338888289016111a0565b9150509295509295909350565b600080600080610180858703121561135c57600080fd5b600061136a878288016111c7565b945050604061137b87828801611179565b93505060c061138c878288016111c7565b92505061010061139e87828801611215565b91505092959194509250565b6000602082840312156113bc57600080fd5b60006113ca84828501611263565b91505092915050565b6000602082840312156113e557600080fd5b60006113f384828501611278565b91505092915050565b6000806040838503121561140f57600080fd5b600061141d85828601611278565b925050602061142e85828601611278565b9150509250929050565b60008060006060848603121561144d57600080fd5b600061145b86828701611278565b935050602061146c86828701611278565b925050604061147d86828701611278565b9150509250925092565b60006114938383611596565b60408301905092915050565b60006114ab83836116f2565b6104008301905092915050565b60006114c4838361184d565b60208301905092915050565b60006114dc838361186b565b60208301905092915050565b6114f181611bc5565b6114fb8184611c55565b925061150682611b89565b8060005b8381101561153757815161151e8782611487565b965061152983611c07565b92505060018101905061150a565b505050505050565b61154881611bd0565b6115528184611c60565b925061155d82611b93565b8060005b8381101561158e578151611575878261149f565b965061158083611c14565b925050600181019050611561565b505050505050565b61159f81611bdb565b6115a98184611c6b565b92506115b482611b9d565b8060005b838110156115e55781516115cc87826114b8565b96506115d783611c21565b9250506001810190506115b8565b505050505050565b6115f681611bdb565b6116008184611c76565b925061160b82611b9d565b8060005b8381101561163c57815161162387826114b8565b965061162e83611c21565b92505060018101905061160f565b505050505050565b61164d81611be6565b6116578184611c81565b925061166282611ba7565b8060005b8381101561169357815161167a87826114b8565b965061168583611c2e565b925050600181019050611666565b505050505050565b6116a481611bf1565b6116ae8184611c8c565b92506116b982611bb1565b8060005b838110156116ea5781516116d187826114b8565b96506116dc83611c3b565b9250506001810190506116bd565b505050505050565b6116fb81611bfc565b6117058184611c97565b925061171082611bbb565b8060005b8381101561174157815161172887826114d0565b965061173383611c48565b925050600181019050611714565b505050505050565b61175281611cc5565b82525050565b6000611765600f83611ca2565b915061177082611d79565b602082019050919050565b6000611788601183611ca2565b915061179382611da2565b602082019050919050565b60006117ab601783611ca2565b91506117b682611dcb565b602082019050919050565b60006117ce601683611ca2565b91506117d982611df4565b602082019050919050565b60006117f1601883611ca2565b91506117fc82611e1d565b602082019050919050565b6000611814601183611ca2565b915061181f82611e46565b602082019050919050565b6000611837600d83611ca2565b915061184282611e6f565b602082019050919050565b61185681611cf1565b82525050565b61186581611cf1565b82525050565b61187481611cfb565b82525050565b61188381611cfb565b82525050565b60006101608201905061189f60008301876115ed565b6118ac60408301866114e8565b6118b960c08301856115ed565b6118c7610100830184611644565b95945050505050565b6000610180820190506118e660008301876115ed565b6118f360408301866114e8565b61190060c08301856115ed565b61190e61010083018461169b565b95945050505050565b600060208201905061192c6000830184611749565b92915050565b6000602082019050818103600083015261194b81611758565b9050919050565b6000602082019050818103600083015261196b8161177b565b9050919050565b6000602082019050818103600083015261198b8161179e565b9050919050565b600060208201905081810360008301526119ab816117c1565b9050919050565b600060208201905081810360008301526119cb816117e4565b9050919050565b600060208201905081810360008301526119eb81611807565b9050919050565b60006020820190508181036000830152611a0b8161182a565b9050919050565b600061082082019050611a28600083018561185c565b611a35602083018461153f565b9392505050565b6000604082019050611a51600083018561185c565b611a5e6020830184611749565b9392505050565b6000602082019050611a7a600083018461187a565b92915050565b6000611a8a611a9b565b9050611a968282611d08565b919050565b6000604051905090565b600067ffffffffffffffff821115611ac057611abf611d39565b5b602082029050919050565b600067ffffffffffffffff821115611ae657611ae5611d39565b5b602082029050919050565b600067ffffffffffffffff821115611b0c57611b0b611d39565b5b602082029050919050565b600067ffffffffffffffff821115611b3257611b31611d39565b5b602082029050919050565b600067ffffffffffffffff821115611b5857611b57611d39565b5b602082029050919050565b600067ffffffffffffffff821115611b7e57611b7d611d39565b5b602082029050919050565b6000819050919050565b6000819050919050565b6000819050919050565b6000819050919050565b6000819050919050565b6000819050919050565b600060029050919050565b600060029050919050565b600060029050919050565b600060039050919050565b600060049050919050565b600060209050919050565b6000602082019050919050565b6000602082019050919050565b6000602082019050919050565b6000602082019050919050565b6000602082019050919050565b6000602082019050919050565b600081905092915050565b600081905092915050565b600081905092915050565b600081905092915050565b600081905092915050565b600081905092915050565b600081905092915050565b600082825260208201905092915050565b6000611cbe82611cd1565b9050919050565b60008115159050919050565b600073ffffffffffffffffffffffffffffffffffffffff82169050919050565b6000819050919050565b600060ff82169050919050565b611d1182611d68565b810181811067ffffffffffffffff82111715611d3057611d2f611d39565b5b80604052505050565b7f4e487b7100000000000000000000000000000000000000000000000000000000600052604160045260246000fd5b6000601f19601f8301169050919050565b7f496e76616c6964206465706f7369740000000000000000000000000000000000600082015250565b7f557365726e616d652069732074616b656e000000000000000000000000000000600082015250565b7f496e76616c69642063757272656e742062616c616e6365000000000000000000600082015250565b7f4f6e6c7920636f6e74726163747320616c6c6f77656400000000000000000000600082015250565b7f4f6e6c7920636f6f7264696e61746f7220616c6c6f7765640000000000000000600082015250565b7f496e76616c69642077697468647261776e000000000000000000000000000000600082015250565b7f496e76616c69642070726f6f6600000000000000000000000000000000000000600082015250565b611ea181611cb3565b8114611eac57600080fd5b50565b611eb881611cc5565b8114611ec357600080fd5b50565b611ecf81611cf1565b8114611eda57600080fd5b50565b611ee681611cfb565b8114611ef157600080fd5b5056fea2646970667358221220a26e80bf36ad74ebcd9af8951b0a10cdcefa0d7f7e7a4fa81f363811a764b68a64736f6c63430008040033",
  "linkReferences": {},
  "deployedLinkReferences": {}
}