{
  "_format": "hh-sol-artifact-1",
  "contractName": "BrazilianStormSportingbet",
  "sourceName": "contracts/BrazilianStormSportingbet.sol",
  "abi": [
    {
      "inputs": [
        {
          "internalType": "address",
          "name": "_createUserVerifier",
          "type": "address"
        },
        {
          "internalType": "address",
          "name": "_depositVerifier",
          "type": "address"
        },
        {
          "internalType": "address",
          "name": "_withdrawnVerifier",
          "type": "address"
        },
        {
          "internalType": "address",
          "name": "_betVerifier",
          "type": "address"
        },
        {
          "internalType": "address",
          "name": "_claimBetVerifier",
          "type": "address"
        },
        {
          "internalType": "uint8[32][2]",
          "name": "_coordinatorPubKey",
          "type": "uint8[32][2]"
        }
      ],
      "stateMutability": "nonpayable",
      "type": "constructor"
    },
    {
      "anonymous": false,
      "inputs": [
        {
          "indexed": false,
          "internalType": "uint256",
          "name": "id",
          "type": "uint256"
        },
        {
          "indexed": false,
          "internalType": "uint256",
          "name": "matchId",
          "type": "uint256"
        },
        {
          "indexed": false,
          "internalType": "uint256",
          "name": "better",
          "type": "uint256"
        },
        {
          "indexed": false,
          "internalType": "string",
          "name": "betType",
          "type": "string"
        }
      ],
      "name": "BetCreated",
      "type": "event"
    },
    {
      "anonymous": false,
      "inputs": [
        {
          "indexed": false,
          "internalType": "uint256",
          "name": "id",
          "type": "uint256"
        },
        {
          "indexed": false,
          "internalType": "uint16",
          "name": "season",
          "type": "uint16"
        },
        {
          "indexed": false,
          "internalType": "uint8",
          "name": "round",
          "type": "uint8"
        },
        {
          "indexed": false,
          "internalType": "string",
          "name": "house",
          "type": "string"
        },
        {
          "indexed": false,
          "internalType": "string",
          "name": "visitor",
          "type": "string"
        }
      ],
      "name": "MatchCreated",
      "type": "event"
    },
    {
      "anonymous": false,
      "inputs": [
        {
          "indexed": false,
          "internalType": "uint256",
          "name": "identityCommitment",
          "type": "uint256"
        },
        {
          "indexed": false,
          "internalType": "uint8[32][2]",
          "name": "pubKey",
          "type": "uint8[32][2]"
        }
      ],
      "name": "UserCreated",
      "type": "event"
    },
    {
      "inputs": [],
      "name": "_matchIds",
      "outputs": [
        {
          "internalType": "uint256",
          "name": "_value",
          "type": "uint256"
        }
      ],
      "stateMutability": "view",
      "type": "function"
    },
    {
      "inputs": [
        {
          "internalType": "uint256[2]",
          "name": "a",
          "type": "uint256[2]"
        },
        {
          "internalType": "uint256[2][2]",
          "name": "b",
          "type": "uint256[2][2]"
        },
        {
          "internalType": "uint256[2]",
          "name": "c",
          "type": "uint256[2]"
        },
        {
          "internalType": "uint256[4]",
          "name": "input",
          "type": "uint256[4]"
        },
        {
          "internalType": "uint256",
          "name": "matchId",
          "type": "uint256"
        },
        {
          "internalType": "bool",
          "name": "house",
          "type": "bool"
        },
        {
          "internalType": "uint8",
          "name": "goals",
          "type": "uint8"
        }
      ],
      "name": "betGoals",
      "outputs": [],
      "stateMutability": "nonpayable",
      "type": "function"
    },
    {
      "inputs": [
        {
          "internalType": "uint256[2]",
          "name": "a",
          "type": "uint256[2]"
        },
        {
          "internalType": "uint256[2][2]",
          "name": "b",
          "type": "uint256[2][2]"
        },
        {
          "internalType": "uint256[2]",
          "name": "c",
          "type": "uint256[2]"
        },
        {
          "internalType": "uint256[4]",
          "name": "input",
          "type": "uint256[4]"
        },
        {
          "internalType": "uint256",
          "name": "matchId",
          "type": "uint256"
        },
        {
          "internalType": "uint8",
          "name": "house",
          "type": "uint8"
        },
        {
          "internalType": "uint8",
          "name": "visitor",
          "type": "uint8"
        }
      ],
      "name": "betScore",
      "outputs": [],
      "stateMutability": "nonpayable",
      "type": "function"
    },
    {
      "inputs": [
        {
          "internalType": "uint256[2]",
          "name": "a",
          "type": "uint256[2]"
        },
        {
          "internalType": "uint256[2][2]",
          "name": "b",
          "type": "uint256[2][2]"
        },
        {
          "internalType": "uint256[2]",
          "name": "c",
          "type": "uint256[2]"
        },
        {
          "internalType": "uint256[4]",
          "name": "input",
          "type": "uint256[4]"
        },
        {
          "internalType": "uint256",
          "name": "matchId",
          "type": "uint256"
        },
        {
          "internalType": "bool",
          "name": "houseWins",
          "type": "bool"
        }
      ],
      "name": "betWinner",
      "outputs": [],
      "stateMutability": "nonpayable",
      "type": "function"
    },
    {
      "inputs": [
        {
          "internalType": "uint256[2]",
          "name": "a",
          "type": "uint256[2]"
        },
        {
          "internalType": "uint256[2][2]",
          "name": "b",
          "type": "uint256[2][2]"
        },
        {
          "internalType": "uint256[2]",
          "name": "c",
          "type": "uint256[2]"
        },
        {
          "internalType": "uint256[5]",
          "name": "input",
          "type": "uint256[5]"
        },
        {
          "internalType": "uint256",
          "name": "matchId",
          "type": "uint256"
        },
        {
          "internalType": "uint256",
          "name": "betId",
          "type": "uint256"
        }
      ],
      "name": "claimBetGoals",
      "outputs": [],
      "stateMutability": "nonpayable",
      "type": "function"
    },
    {
      "inputs": [
        {
          "internalType": "uint256[2]",
          "name": "a",
          "type": "uint256[2]"
        },
        {
          "internalType": "uint256[2][2]",
          "name": "b",
          "type": "uint256[2][2]"
        },
        {
          "internalType": "uint256[2]",
          "name": "c",
          "type": "uint256[2]"
        },
        {
          "internalType": "uint256[5]",
          "name": "input",
          "type": "uint256[5]"
        },
        {
          "internalType": "uint256",
          "name": "matchId",
          "type": "uint256"
        },
        {
          "internalType": "uint256",
          "name": "betId",
          "type": "uint256"
        }
      ],
      "name": "claimBetScore",
      "outputs": [],
      "stateMutability": "nonpayable",
      "type": "function"
    },
    {
      "inputs": [
        {
          "internalType": "uint256[2]",
          "name": "a",
          "type": "uint256[2]"
        },
        {
          "internalType": "uint256[2][2]",
          "name": "b",
          "type": "uint256[2][2]"
        },
        {
          "internalType": "uint256[2]",
          "name": "c",
          "type": "uint256[2]"
        },
        {
          "internalType": "uint256[5]",
          "name": "input",
          "type": "uint256[5]"
        },
        {
          "internalType": "uint256",
          "name": "matchId",
          "type": "uint256"
        },
        {
          "internalType": "uint256",
          "name": "betId",
          "type": "uint256"
        }
      ],
      "name": "claimBetWinner",
      "outputs": [],
      "stateMutability": "nonpayable",
      "type": "function"
    },
    {
      "inputs": [
        {
          "internalType": "uint256",
          "name": "matchId",
          "type": "uint256"
        },
        {
          "internalType": "uint256",
          "name": "scoreLostValue",
          "type": "uint256"
        },
        {
          "internalType": "uint256",
          "name": "goalsLostValue",
          "type": "uint256"
        },
        {
          "internalType": "uint256",
          "name": "winnerLostValue",
          "type": "uint256"
        },
        {
          "internalType": "uint16",
          "name": "scoreMultiplier",
          "type": "uint16"
        },
        {
          "internalType": "uint16",
          "name": "goalsMultiplier",
          "type": "uint16"
        },
        {
          "internalType": "uint16",
          "name": "winnerMultiplier",
          "type": "uint16"
        }
      ],
      "name": "closeMatchBets",
      "outputs": [],
      "stateMutability": "payable",
      "type": "function"
    },
    {
      "inputs": [
        {
          "internalType": "uint256",
          "name": "",
          "type": "uint256"
        },
        {
          "internalType": "uint256",
          "name": "",
          "type": "uint256"
        }
      ],
      "name": "coordinatorPubKey",
      "outputs": [
        {
          "internalType": "uint8",
          "name": "",
          "type": "uint8"
        }
      ],
      "stateMutability": "view",
      "type": "function"
    },
    {
      "inputs": [
        {
          "internalType": "uint8",
          "name": "round",
          "type": "uint8"
        },
        {
          "internalType": "uint16",
          "name": "season",
          "type": "uint16"
        },
        {
          "internalType": "string",
          "name": "house",
          "type": "string"
        },
        {
          "internalType": "string",
          "name": "visitor",
          "type": "string"
        },
        {
          "internalType": "uint256",
          "name": "limitTime",
          "type": "uint256"
        }
      ],
      "name": "createMatch",
      "outputs": [],
      "stateMutability": "nonpayable",
      "type": "function"
    },
    {
      "inputs": [
        {
          "internalType": "uint256[2]",
          "name": "a",
          "type": "uint256[2]"
        },
        {
          "internalType": "uint256[2][2]",
          "name": "b",
          "type": "uint256[2][2]"
        },
        {
          "internalType": "uint256[2]",
          "name": "c",
          "type": "uint256[2]"
        },
        {
          "internalType": "uint256[3]",
          "name": "input",
          "type": "uint256[3]"
        },
        {
          "internalType": "uint8[32][2]",
          "name": "pubKey",
          "type": "uint8[32][2]"
        }
      ],
      "name": "createUser",
      "outputs": [],
      "stateMutability": "nonpayable",
      "type": "function"
    },
    {
      "inputs": [
        {
          "internalType": "uint256[2]",
          "name": "a",
          "type": "uint256[2]"
        },
        {
          "internalType": "uint256[2][2]",
          "name": "b",
          "type": "uint256[2][2]"
        },
        {
          "internalType": "uint256[2]",
          "name": "c",
          "type": "uint256[2]"
        },
        {
          "internalType": "uint256[4]",
          "name": "input",
          "type": "uint256[4]"
        }
      ],
      "name": "deposit",
      "outputs": [],
      "stateMutability": "payable",
      "type": "function"
    },
    {
      "inputs": [],
      "name": "firstOpenIndex",
      "outputs": [
        {
          "internalType": "uint256",
          "name": "",
          "type": "uint256"
        }
      ],
      "stateMutability": "view",
      "type": "function"
    },
    {
      "inputs": [
        {
          "internalType": "uint256",
          "name": "matchId",
          "type": "uint256"
        },
        {
          "internalType": "uint8",
          "name": "house",
          "type": "uint8"
        },
        {
          "internalType": "uint8",
          "name": "visitor",
          "type": "uint8"
        }
      ],
      "name": "fullfillMatchResult",
      "outputs": [
        {
          "components": [
            {
              "internalType": "bool",
              "name": "houseWins",
              "type": "bool"
            },
            {
              "components": [
                {
                  "internalType": "uint256",
                  "name": "id",
                  "type": "uint256"
                },
                {
                  "internalType": "uint256",
                  "name": "better",
                  "type": "uint256"
                },
                {
                  "internalType": "uint256",
                  "name": "value",
                  "type": "uint256"
                },
                {
                  "internalType": "bool",
                  "name": "won",
                  "type": "bool"
                },
                {
                  "internalType": "bool",
                  "name": "claimed",
                  "type": "bool"
                }
              ],
              "internalType": "struct Bets.Bet",
              "name": "bet",
              "type": "tuple"
            }
          ],
          "internalType": "struct Bets.WinnerBet[]",
          "name": "",
          "type": "tuple[]"
        },
        {
          "components": [
            {
              "internalType": "bool",
              "name": "house",
              "type": "bool"
            },
            {
              "internalType": "uint8",
              "name": "goals",
              "type": "uint8"
            },
            {
              "components": [
                {
                  "internalType": "uint256",
                  "name": "id",
                  "type": "uint256"
                },
                {
                  "internalType": "uint256",
                  "name": "better",
                  "type": "uint256"
                },
                {
                  "internalType": "uint256",
                  "name": "value",
                  "type": "uint256"
                },
                {
                  "internalType": "bool",
                  "name": "won",
                  "type": "bool"
                },
                {
                  "internalType": "bool",
                  "name": "claimed",
                  "type": "bool"
                }
              ],
              "internalType": "struct Bets.Bet",
              "name": "bet",
              "type": "tuple"
            }
          ],
          "internalType": "struct Bets.GoalsBet[]",
          "name": "",
          "type": "tuple[]"
        },
        {
          "components": [
            {
              "internalType": "uint8",
              "name": "house",
              "type": "uint8"
            },
            {
              "internalType": "uint8",
              "name": "visitor",
              "type": "uint8"
            },
            {
              "components": [
                {
                  "internalType": "uint256",
                  "name": "id",
                  "type": "uint256"
                },
                {
                  "internalType": "uint256",
                  "name": "better",
                  "type": "uint256"
                },
                {
                  "internalType": "uint256",
                  "name": "value",
                  "type": "uint256"
                },
                {
                  "internalType": "bool",
                  "name": "won",
                  "type": "bool"
                },
                {
                  "internalType": "bool",
                  "name": "claimed",
                  "type": "bool"
                }
              ],
              "internalType": "struct Bets.Bet",
              "name": "bet",
              "type": "tuple"
            }
          ],
          "internalType": "struct Bets.ScoreBet[]",
          "name": "",
          "type": "tuple[]"
        }
      ],
      "stateMutability": "nonpayable",
      "type": "function"
    },
    {
      "inputs": [
        {
          "internalType": "uint256",
          "name": "matchId",
          "type": "uint256"
        }
      ],
      "name": "getAllMatchBets",
      "outputs": [
        {
          "components": [
            {
              "internalType": "bool",
              "name": "houseWins",
              "type": "bool"
            },
            {
              "components": [
                {
                  "internalType": "uint256",
                  "name": "id",
                  "type": "uint256"
                },
                {
                  "internalType": "uint256",
                  "name": "better",
                  "type": "uint256"
                },
                {
                  "internalType": "uint256",
                  "name": "value",
                  "type": "uint256"
                },
                {
                  "internalType": "bool",
                  "name": "won",
                  "type": "bool"
                },
                {
                  "internalType": "bool",
                  "name": "claimed",
                  "type": "bool"
                }
              ],
              "internalType": "struct Bets.Bet",
              "name": "bet",
              "type": "tuple"
            }
          ],
          "internalType": "struct Bets.WinnerBet[]",
          "name": "",
          "type": "tuple[]"
        },
        {
          "components": [
            {
              "internalType": "bool",
              "name": "house",
              "type": "bool"
            },
            {
              "internalType": "uint8",
              "name": "goals",
              "type": "uint8"
            },
            {
              "components": [
                {
                  "internalType": "uint256",
                  "name": "id",
                  "type": "uint256"
                },
                {
                  "internalType": "uint256",
                  "name": "better",
                  "type": "uint256"
                },
                {
                  "internalType": "uint256",
                  "name": "value",
                  "type": "uint256"
                },
                {
                  "internalType": "bool",
                  "name": "won",
                  "type": "bool"
                },
                {
                  "internalType": "bool",
                  "name": "claimed",
                  "type": "bool"
                }
              ],
              "internalType": "struct Bets.Bet",
              "name": "bet",
              "type": "tuple"
            }
          ],
          "internalType": "struct Bets.GoalsBet[]",
          "name": "",
          "type": "tuple[]"
        },
        {
          "components": [
            {
              "internalType": "uint8",
              "name": "house",
              "type": "uint8"
            },
            {
              "internalType": "uint8",
              "name": "visitor",
              "type": "uint8"
            },
            {
              "components": [
                {
                  "internalType": "uint256",
                  "name": "id",
                  "type": "uint256"
                },
                {
                  "internalType": "uint256",
                  "name": "better",
                  "type": "uint256"
                },
                {
                  "internalType": "uint256",
                  "name": "value",
                  "type": "uint256"
                },
                {
                  "internalType": "bool",
                  "name": "won",
                  "type": "bool"
                },
                {
                  "internalType": "bool",
                  "name": "claimed",
                  "type": "bool"
                }
              ],
              "internalType": "struct Bets.Bet",
              "name": "bet",
              "type": "tuple"
            }
          ],
          "internalType": "struct Bets.ScoreBet[]",
          "name": "",
          "type": "tuple[]"
        }
      ],
      "stateMutability": "view",
      "type": "function"
    },
    {
      "inputs": [
        {
          "internalType": "uint256",
          "name": "matchId",
          "type": "uint256"
        }
      ],
      "name": "getMatch",
      "outputs": [
        {
          "internalType": "uint8",
          "name": "",
          "type": "uint8"
        },
        {
          "internalType": "uint16",
          "name": "",
          "type": "uint16"
        },
        {
          "internalType": "string",
          "name": "",
          "type": "string"
        },
        {
          "internalType": "string",
          "name": "",
          "type": "string"
        },
        {
          "internalType": "uint256",
          "name": "",
          "type": "uint256"
        },
        {
          "internalType": "bool",
          "name": "",
          "type": "bool"
        }
      ],
      "stateMutability": "view",
      "type": "function"
    },
    {
      "inputs": [],
      "name": "getMatches",
      "outputs": [
        {
          "components": [
            {
              "internalType": "uint256",
              "name": "id",
              "type": "uint256"
            },
            {
              "internalType": "uint8",
              "name": "round",
              "type": "uint8"
            },
            {
              "internalType": "uint16",
              "name": "season",
              "type": "uint16"
            },
            {
              "internalType": "string",
              "name": "house",
              "type": "string"
            },
            {
              "internalType": "string",
              "name": "visitor",
              "type": "string"
            },
            {
              "internalType": "uint256",
              "name": "limitTime",
              "type": "uint256"
            },
            {
              "internalType": "bool",
              "name": "closed",
              "type": "bool"
            }
          ],
          "internalType": "struct Bets.MatchFields[]",
          "name": "",
          "type": "tuple[]"
        }
      ],
      "stateMutability": "view",
      "type": "function"
    },
    {
      "inputs": [
        {
          "internalType": "uint256",
          "name": "",
          "type": "uint256"
        }
      ],
      "name": "usernames",
      "outputs": [
        {
          "internalType": "bool",
          "name": "",
          "type": "bool"
        }
      ],
      "stateMutability": "view",
      "type": "function"
    },
    {
      "inputs": [
        {
          "internalType": "uint256",
          "name": "",
          "type": "uint256"
        }
      ],
      "name": "users",
      "outputs": [
        {
          "internalType": "uint256",
          "name": "balance",
          "type": "uint256"
        },
        {
          "internalType": "bool",
          "name": "isActive",
          "type": "bool"
        }
      ],
      "stateMutability": "view",
      "type": "function"
    },
    {
      "inputs": [
        {
          "internalType": "uint256[2]",
          "name": "a",
          "type": "uint256[2]"
        },
        {
          "internalType": "uint256[2][2]",
          "name": "b",
          "type": "uint256[2][2]"
        },
        {
          "internalType": "uint256[2]",
          "name": "c",
          "type": "uint256[2]"
        },
        {
          "internalType": "uint256[4]",
          "name": "input",
          "type": "uint256[4]"
        }
      ],
      "name": "withdrawn",
      "outputs": [],
      "stateMutability": "payable",
      "type": "function"
    }
  ],
  "bytecode": "0x60806040523480156200001157600080fd5b5060405162005e3a38038062005e3a833981810160405281019062000037919062000485565b8186868682600260006101000a81548173ffffffffffffffffffffffffffffffffffffffff021916908373ffffffffffffffffffffffffffffffffffffffff16021790555081600360006101000a81548173ffffffffffffffffffffffffffffffffffffffff021916908373ffffffffffffffffffffffffffffffffffffffff16021790555080600460006101000a81548173ffffffffffffffffffffffffffffffffffffffff021916908373ffffffffffffffffffffffffffffffffffffffff16021790555050505080600860006101000a81548173ffffffffffffffffffffffffffffffffffffffff021916908373ffffffffffffffffffffffffffffffffffffffff1602179055505082600c60006101000a81548173ffffffffffffffffffffffffffffffffffffffff021916908373ffffffffffffffffffffffffffffffffffffffff16021790555033600960006101000a81548173ffffffffffffffffffffffffffffffffffffffff021916908373ffffffffffffffffffffffffffffffffffffffff16021790555080600a906002620001d8929190620001e5565b5050505050505062000682565b826002810192821562000227579160200282015b828111156200022657825182906020620002159291906200023a565b5091602001919060010190620001f9565b5b509050620002369190620002db565b5090565b826020601f01602090048101928215620002c85791602002820160005b838211156200029757835183826101000a81548160ff021916908360ff160217905550926020019260010160208160000104928301926001030262000257565b8015620002c65782816101000a81549060ff021916905560010160208160000104928301926001030262000297565b505b509050620002d7919062000303565b5090565b5b80821115620002ff5760008181620002f5919062000322565b50600101620002dc565b5090565b5b808211156200031e57600081600090555060010162000304565b5090565b5060009055565b6000620003406200033a8462000545565b6200051c565b90508082856104008602820111156200035857600080fd5b60005b858110156200038d578162000371888262000444565b845260208401935061040083019250506001810190506200035b565b5050509392505050565b6000620003ae620003a8846200056e565b6200051c565b90508082856020860282011115620003c557600080fd5b60005b85811015620003f95781620003de88826200046e565b845260208401935060208301925050600181019050620003c8565b5050509392505050565b60008151905062000414816200064e565b92915050565b600082601f8301126200042c57600080fd5b60026200043b84828562000329565b91505092915050565b600082601f8301126200045657600080fd5b60206200046584828562000397565b91505092915050565b6000815190506200047f8162000668565b92915050565b6000806000806000806108a08789031215620004a057600080fd5b6000620004b089828a0162000403565b9650506020620004c389828a0162000403565b9550506040620004d689828a0162000403565b9450506060620004e989828a0162000403565b9350506080620004fc89828a0162000403565b92505060a06200050f89828a016200041a565b9150509295509295509295565b6000620005286200053b565b9050620005368282620005d8565b919050565b6000604051905090565b600067ffffffffffffffff8211156200056357620005626200060e565b5b602082029050919050565b600067ffffffffffffffff8211156200058c576200058b6200060e565b5b602082029050919050565b6000620005a482620005ab565b9050919050565b600073ffffffffffffffffffffffffffffffffffffffff82169050919050565b600060ff82169050919050565b620005e3826200063d565b810181811067ffffffffffffffff821117156200060557620006046200060e565b5b80604052505050565b7f4e487b7100000000000000000000000000000000000000000000000000000000600052604160045260246000fd5b6000601f19601f8301169050919050565b620006598162000597565b81146200066557600080fd5b50565b6200067381620005cb565b81146200067f57600080fd5b50565b6157a880620006926000396000f3fe60806040526004361061011f5760003560e01c80638246225f116100a0578063acc09e3c11610064578063acc09e3c146103f7578063bcea60dd14610420578063cf7058b21461044b578063f258510114610474578063f30ff71b1461049d5761011f565b80638246225f14610300578063861642851461032957806389b4cd2c146103525780639d79983114610391578063a7dd43a1146103ce5761011f565b8063329cabdb116100e7578063329cabdb146101fc578063365b98b21461023b5780633982423b146102795780633d092b3d146102a257806359dde0b5146102e45761011f565b806312c194ae1461012457806312fdec661461014f578063136dd9631461016b57806324f3e723146101a85780632c70120e146101d1575b600080fd5b34801561013057600080fd5b506101396104b9565b6040516101469190614d94565b60405180910390f35b61016960048036038101906101649190613d48565b6104bf565b005b34801561017757600080fd5b50610192600480360381019061018d9190614036565b610725565b60405161019f9190614c59565b60405180910390f35b3480156101b457600080fd5b506101cf60048036038101906101ca9190613e3a565b610745565b005b3480156101dd57600080fd5b506101e6610a3c565b6040516101f39190614b16565b60405180910390f35b34801561020857600080fd5b50610223600480360381019061021e9190614036565b610ecf565b60405161023293929190614b38565b60405180910390f35b34801561024757600080fd5b50610262600480360381019061025d9190614036565b6114b7565b604051610270929190614dd9565b60405180910390f35b34801561028557600080fd5b506102a0600480360381019061029b9190614188565b6114e8565b005b3480156102ae57600080fd5b506102c960048036038101906102c49190614036565b61167b565b6040516102db96959493929190614e7e565b60405180910390f35b6102fe60048036038101906102f99190613d48565b61180d565b005b34801561030c57600080fd5b5061032760048036038101906103229190613f80565b611aaf565b005b34801561033557600080fd5b50610350600480360381019061034b9190613f80565b611bd4565b005b34801561035e57600080fd5b5061037960048036038101906103749190614139565b611cf9565b60405161038893929190614b38565b60405180910390f35b34801561039d57600080fd5b506103b860048036038101906103b3919061405f565b6124f4565b6040516103c59190614e63565b60405180910390f35b3480156103da57600080fd5b506103f560048036038101906103f09190613dad565b612530565b005b34801561040357600080fd5b5061041e60048036038101906104199190613cce565b612809565b005b34801561042c57600080fd5b50610435612b76565b6040516104429190614d94565b60405180910390f35b34801561045757600080fd5b50610472600480360381019061046d9190613edd565b612b82565b005b34801561048057600080fd5b5061049b60048036038101906104969190613f80565b612e7a565b005b6104b760048036038101906104b2919061409b565b612f9f565b005b60075481565b6000600360009054906101000a900473ffffffffffffffffffffffffffffffffffffffff1673ffffffffffffffffffffffffffffffffffffffff16635fe8c13b868686866040518563ffffffff1660e01b81526004016105229493929190614bcb565b60206040518083038186803b15801561053a57600080fd5b505afa15801561054e573d6000803e3d6000fd5b505050506040513d601f19601f82011682018060405250810190610572919061400d565b9050806105b4576040517f08c379a00000000000000000000000000000000000000000000000000000000081526004016105ab90614d74565b60405180910390fd5b600060016000846000600481106105f4577f4e487b7100000000000000000000000000000000000000000000000000000000600052603260045260246000fd5b60200201518152602001908152602001600020905082600160048110610643577f4e487b7100000000000000000000000000000000000000000000000000000000600052603260045260246000fd5b6020020151816000015414801561069757508260036004811061068f577f4e487b7100000000000000000000000000000000000000000000000000000000600052603260045260246000fd5b602002015134145b6106d6576040517f08c379a00000000000000000000000000000000000000000000000000000000081526004016106cd90614c94565b60405180910390fd5b82600260048110610710577f4e487b7100000000000000000000000000000000000000000000000000000000600052603260045260246000fd5b60200201518160000181905550505050505050565b60006020528060005260406000206000915054906101000a900460ff1681565b6000600c60009054906101000a900473ffffffffffffffffffffffffffffffffffffffff1673ffffffffffffffffffffffffffffffffffffffff16635fe8c13b898989896040518563ffffffff1660e01b81526004016107a89493929190614bcb565b60206040518083038186803b1580156107c057600080fd5b505afa1580156107d4573d6000803e3d6000fd5b505050506040513d601f19601f820116820180604052508101906107f8919061400d565b90508061083a576040517f08c379a000000000000000000000000000000000000000000000000000000000815260040161083190614d74565b60405180910390fd5b6108ff85600060048110610877577f4e487b7100000000000000000000000000000000000000000000000000000000600052603260045260246000fd5b6020020151866001600481106108b6577f4e487b7100000000000000000000000000000000000000000000000000000000600052603260045260246000fd5b6020020151876002600481106108f5577f4e487b7100000000000000000000000000000000000000000000000000000000600052603260045260246000fd5b602002015161321b565b6000600560008681526020019081526020016000206006016008019050600081600001600061093084600101613287565b81526020019081526020016000209050848160000160006101000a81548160ff021916908315150217905550838160000160016101000a81548160ff021916908360ff16021790555061098582600101613287565b8160010160000181905550866000600481106109ca577f4e487b7100000000000000000000000000000000000000000000000000000000600052603260045260246000fd5b6020020151816001016001018190555086600360048110610a14577f4e487b7100000000000000000000000000000000000000000000000000000000600052603260045260246000fd5b60200201518160010160020181905550610a3082600101613295565b50505050505050505050565b60606000600754610a4d6006613287565b610a579190615385565b67ffffffffffffffff811115610a96577f4e487b7100000000000000000000000000000000000000000000000000000000600052604160045260246000fd5b604051908082528060200260200182016040528015610acf57816020015b610abc61358b565b815260200190600190039081610ab45790505b509050600060075490505b610ae46006613287565b811015610ec75760056000828152602001908152602001600020600001548260075483610b119190615385565b81518110610b48577f4e487b7100000000000000000000000000000000000000000000000000000000600052603260045260246000fd5b602002602001015160000181815250506005600082815260200190815260200160002060010160009054906101000a900460ff168260075483610b8b9190615385565b81518110610bc2577f4e487b7100000000000000000000000000000000000000000000000000000000600052603260045260246000fd5b60200260200101516020019060ff16908160ff16815250506005600082815260200190815260200160002060010160019054906101000a900461ffff168260075483610c0e9190615385565b81518110610c45577f4e487b7100000000000000000000000000000000000000000000000000000000600052603260045260246000fd5b60200260200101516040019061ffff16908161ffff1681525050600560008281526020019081526020016000206002018054610c809061542c565b80601f0160208091040260200160405190810160405280929190818152602001828054610cac9061542c565b8015610cf95780601f10610cce57610100808354040283529160200191610cf9565b820191906000526020600020905b815481529060010190602001808311610cdc57829003601f168201915b50505050508260075483610d0d9190615385565b81518110610d44577f4e487b7100000000000000000000000000000000000000000000000000000000600052603260045260246000fd5b602002602001015160600181905250600560008281526020019081526020016000206003018054610d749061542c565b80601f0160208091040260200160405190810160405280929190818152602001828054610da09061542c565b8015610ded5780601f10610dc257610100808354040283529160200191610ded565b820191906000526020600020905b815481529060010190602001808311610dd057829003601f168201915b50505050508260075483610e019190615385565b81518110610e38577f4e487b7100000000000000000000000000000000000000000000000000000000600052603260045260246000fd5b60200260200101516080018190525060056000828152602001908152602001600020600401548260075483610e6d9190615385565b81518110610ea4577f4e487b7100000000000000000000000000000000000000000000000000000000600052603260045260246000fd5b602002602001015160a00181815250508080610ebf9061548f565b915050610ada565b508091505090565b6060806060600960009054906101000a900473ffffffffffffffffffffffffffffffffffffffff1673ffffffffffffffffffffffffffffffffffffffff163373ffffffffffffffffffffffffffffffffffffffff1614610f64576040517f08c379a0000000000000000000000000000000000000000000000000000000008152600401610f5b90614d34565b60405180910390fd5b60006005600086815260200190815260200160002060060190506000610f8f82600001600101613287565b67ffffffffffffffff811115610fce577f4e487b7100000000000000000000000000000000000000000000000000000000600052604160045260246000fd5b60405190808252806020026020018201604052801561100757816020015b610ff46135d1565b815260200190600190039081610fec5790505b50905060005b61101c83600001600101613287565b811015611120578260000160000160008281526020019081526020016000206040518060400160405290816000820160009054906101000a900460ff16151515158152602001600182016040518060a00160405290816000820154815260200160018201548152602001600282015481526020016003820160009054906101000a900460ff161515151581526020016003820160019054906101000a900460ff16151515158152505081525050828281518110611102577f4e487b7100000000000000000000000000000000000000000000000000000000600052603260045260246000fd5b602002602001018190525080806111189061548f565b91505061100d565b50600061113283600801600101613287565b67ffffffffffffffff811115611171577f4e487b7100000000000000000000000000000000000000000000000000000000600052604160045260246000fd5b6040519080825280602002602001820160405280156111aa57816020015b6111976135f3565b81526020019060019003908161118f5790505b50905060005b6111bf84600801600101613287565b8110156112e0578360080160000160008281526020019081526020016000206040518060600160405290816000820160009054906101000a900460ff161515151581526020016000820160019054906101000a900460ff1660ff1660ff168152602001600182016040518060a00160405290816000820154815260200160018201548152602001600282015481526020016003820160009054906101000a900460ff161515151581526020016003820160019054906101000a900460ff161515151581525050815250508282815181106112c2577f4e487b7100000000000000000000000000000000000000000000000000000000600052603260045260246000fd5b602002602001018190525080806112d89061548f565b9150506111b0565b5060006112f284600401600101613287565b67ffffffffffffffff811115611331577f4e487b7100000000000000000000000000000000000000000000000000000000600052604160045260246000fd5b60405190808252806020026020018201604052801561136a57816020015b61135761361f565b81526020019060019003908161134f5790505b50905060005b61137f85600401600101613287565b8110156114a2578460040160000160008281526020019081526020016000206040518060600160405290816000820160009054906101000a900460ff1660ff1660ff1681526020016000820160019054906101000a900460ff1660ff1660ff168152602001600182016040518060a00160405290816000820154815260200160018201548152602001600282015481526020016003820160009054906101000a900460ff161515151581526020016003820160019054906101000a900460ff16151515158152505081525050828281518110611484577f4e487b7100000000000000000000000000000000000000000000000000000000600052603260045260246000fd5b6020026020010181905250808061149a9061548f565b915050611370565b50828282965096509650505050509193909250565b60016020528060005260406000206000915090508060000154908060030160009054906101000a900460ff16905082565b600960009054906101000a900473ffffffffffffffffffffffffffffffffffffffff1673ffffffffffffffffffffffffffffffffffffffff163373ffffffffffffffffffffffffffffffffffffffff1614611578576040517f08c379a000000000000000000000000000000000000000000000000000000000815260040161156f90614d34565b60405180910390fd5b6000600560006115886006613287565b815260200190815260200160002090506115a26006613287565b8160000181905550848160010160016101000a81548161ffff021916908361ffff160217905550858160010160006101000a81548160ff021916908360ff160217905550838160020190805190602001906115fe92919061364c565b508281600301908051906020019061161792919061364c565b508181600401819055507fcbb5a7e881dbc8a426f38af40605ae79bf18484ac1fa302f8ad3a538a4b9992c61164c6006613287565b86888787604051611661959493929190614e02565b60405180910390a16116736006613295565b505050505050565b60008060608060008060006005600089815260200190815260200160002090508060010160009054906101000a900460ff168160010160019054906101000a900461ffff16826002018360030184600401548560050160009054906101000a900460ff168380546116eb9061542c565b80601f01602080910402602001604051908101604052809291908181526020018280546117179061542c565b80156117645780601f1061173957610100808354040283529160200191611764565b820191906000526020600020905b81548152906001019060200180831161174757829003601f168201915b505050505093508280546117779061542c565b80601f01602080910402602001604051908101604052809291908181526020018280546117a39061542c565b80156117f05780601f106117c5576101008083540402835291602001916117f0565b820191906000526020600020905b8154815290600101906020018083116117d357829003601f168201915b505050505092509650965096509650965096505091939550919395565b6000600460009054906101000a900473ffffffffffffffffffffffffffffffffffffffff1673ffffffffffffffffffffffffffffffffffffffff16635fe8c13b868686866040518563ffffffff1660e01b81526004016118709493929190614bcb565b60206040518083038186803b15801561188857600080fd5b505afa15801561189c573d6000803e3d6000fd5b505050506040513d601f19601f820116820180604052508101906118c0919061400d565b905080611902576040517f08c379a00000000000000000000000000000000000000000000000000000000081526004016118f990614d74565b60405180910390fd5b60006001600084600060048110611942577f4e487b7100000000000000000000000000000000000000000000000000000000600052603260045260246000fd5b60200201518152602001908152602001600020905082600160048110611991577f4e487b7100000000000000000000000000000000000000000000000000000000600052603260045260246000fd5b60200201518160000154146119db576040517f08c379a00000000000000000000000000000000000000000000000000000000081526004016119d290614d54565b60405180910390fd5b82600260048110611a15577f4e487b7100000000000000000000000000000000000000000000000000000000600052603260045260246000fd5b602002015181600001819055503373ffffffffffffffffffffffffffffffffffffffff166108fc84600360048110611a76577f4e487b7100000000000000000000000000000000000000000000000000000000600052603260045260246000fd5b60200201519081150290604051600060405180830381858888f19350505050158015611aa6573d6000803e3d6000fd5b50505050505050565b6000600560008481526020019081526020016000206006016004019050611b06878787878560000160008881526020019081526020016000206001018660020160010160009054906101000a900461ffff166132ab565b611bcb84600060058110611b43577f4e487b7100000000000000000000000000000000000000000000000000000000600052603260045260246000fd5b602002015185600160058110611b82577f4e487b7100000000000000000000000000000000000000000000000000000000600052603260045260246000fd5b602002015186600260058110611bc1577f4e487b7100000000000000000000000000000000000000000000000000000000600052603260045260246000fd5b602002015161321b565b50505050505050565b6000600560008481526020019081526020016000206006016008019050611c2b878787878560000160008881526020019081526020016000206001018660020160010160009054906101000a900461ffff166132ab565b611cf084600060058110611c68577f4e487b7100000000000000000000000000000000000000000000000000000000600052603260045260246000fd5b602002015185600160058110611ca7577f4e487b7100000000000000000000000000000000000000000000000000000000600052603260045260246000fd5b602002015186600260058110611ce6577f4e487b7100000000000000000000000000000000000000000000000000000000600052603260045260246000fd5b602002015161321b565b50505050505050565b6060806060600960009054906101000a900473ffffffffffffffffffffffffffffffffffffffff1673ffffffffffffffffffffffffffffffffffffffff163373ffffffffffffffffffffffffffffffffffffffff1614611d8e576040517f08c379a0000000000000000000000000000000000000000000000000000000008152600401611d8590614d34565b60405180910390fd5b60008460ff168660ff1611905060006005600089815260200190815260200160002060060190506000611dc682600001600101613287565b67ffffffffffffffff811115611e05577f4e487b7100000000000000000000000000000000000000000000000000000000600052604160045260246000fd5b604051908082528060200260200182016040528015611e3e57816020015b611e2b6135d1565b815260200190600190039081611e235790505b50905060005b611e5383600001600101613287565b811015611fbb5783151583600001600001600083815260200190815260200160002060000160009054906101000a900460ff1615151483600001600001600083815260200190815260200160002060010160030160006101000a81548160ff0219169083151502179055508260000160000160008281526020019081526020016000206040518060400160405290816000820160009054906101000a900460ff16151515158152602001600182016040518060a00160405290816000820154815260200160018201548152602001600282015481526020016003820160009054906101000a900460ff161515151581526020016003820160019054906101000a900460ff16151515158152505081525050828281518110611f9d577f4e487b7100000000000000000000000000000000000000000000000000000000600052603260045260246000fd5b60200260200101819052508080611fb39061548f565b915050611e44565b506000611fcd83600801600101613287565b67ffffffffffffffff81111561200c577f4e487b7100000000000000000000000000000000000000000000000000000000600052604160045260246000fd5b60405190808252806020026020018201604052801561204557816020015b6120326135f3565b81526020019060019003908161202a5790505b50905060005b61205a84600801600101613287565b81101561227b5783600801600001600082815260200190815260200160002060000160009054906101000a900460ff16156120fa578960ff1684600801600001600083815260200190815260200160002060000160019054906101000a900460ff1660ff161484600801600001600083815260200190815260200160002060010160030160006101000a81548160ff021916908315150217905550612161565b8860ff1684600801600001600083815260200190815260200160002060000160019054906101000a900460ff1660ff161484600801600001600083815260200190815260200160002060010160030160006101000a81548160ff0219169083151502179055505b8360080160000160008281526020019081526020016000206040518060600160405290816000820160009054906101000a900460ff161515151581526020016000820160019054906101000a900460ff1660ff1660ff168152602001600182016040518060a00160405290816000820154815260200160018201548152602001600282015481526020016003820160009054906101000a900460ff161515151581526020016003820160019054906101000a900460ff1615151515815250508152505082828151811061225d577f4e487b7100000000000000000000000000000000000000000000000000000000600052603260045260246000fd5b602002602001018190525080806122739061548f565b91505061204b565b50600061228d84600401600101613287565b67ffffffffffffffff8111156122cc577f4e487b7100000000000000000000000000000000000000000000000000000000600052604160045260246000fd5b60405190808252806020026020018201604052801561230557816020015b6122f261361f565b8152602001906001900390816122ea5790505b50905060005b61231a85600401600101613287565b8110156124dc578a60ff1685600401600001600083815260200190815260200160002060000160009054906101000a900460ff1660ff1614801561238b57508960ff1685600401600001600083815260200190815260200160002060000160019054906101000a900460ff1660ff16145b85600401600001600083815260200190815260200160002060010160030160006101000a81548160ff0219169083151502179055508460040160000160008281526020019081526020016000206040518060600160405290816000820160009054906101000a900460ff1660ff1660ff1681526020016000820160019054906101000a900460ff1660ff1660ff168152602001600182016040518060a00160405290816000820154815260200160018201548152602001600282015481526020016003820160009054906101000a900460ff161515151581526020016003820160019054906101000a900460ff161515151581525050815250508282815181106124be577f4e487b7100000000000000000000000000000000000000000000000000000000600052603260045260246000fd5b602002602001018190525080806124d49061548f565b91505061230b565b50828282975097509750505050505093509350939050565b600a826002811061250457600080fd5b01816020811061251357600080fd5b60209182820401919006915091509054906101000a900460ff1681565b6000600c60009054906101000a900473ffffffffffffffffffffffffffffffffffffffff1673ffffffffffffffffffffffffffffffffffffffff16635fe8c13b888888886040518563ffffffff1660e01b81526004016125939493929190614bcb565b60206040518083038186803b1580156125ab57600080fd5b505afa1580156125bf573d6000803e3d6000fd5b505050506040513d601f19601f820116820180604052508101906125e3919061400d565b905080612625576040517f08c379a000000000000000000000000000000000000000000000000000000000815260040161261c90614d74565b60405180910390fd5b6126ea84600060048110612662577f4e487b7100000000000000000000000000000000000000000000000000000000600052603260045260246000fd5b6020020151856001600481106126a1577f4e487b7100000000000000000000000000000000000000000000000000000000600052603260045260246000fd5b6020020151866002600481106126e0577f4e487b7100000000000000000000000000000000000000000000000000000000600052603260045260246000fd5b602002015161321b565b6000600560008581526020019081526020016000206006016000019050600081600001600061271b84600101613287565b81526020019081526020016000209050838160000160006101000a81548160ff02191690831515021790555061275382600101613287565b816001016000018190555085600060048110612798577f4e487b7100000000000000000000000000000000000000000000000000000000600052603260045260246000fd5b60200201518160010160010181905550856003600481106127e2577f4e487b7100000000000000000000000000000000000000000000000000000000600052603260045260246000fd5b602002015181600101600201819055506127fe82600101613295565b505050505050505050565b6000600260009054906101000a900473ffffffffffffffffffffffffffffffffffffffff1673ffffffffffffffffffffffffffffffffffffffff166311479fea878787876040518563ffffffff1660e01b815260040161286c9493929190614b84565b60206040518083038186803b15801561288457600080fd5b505afa158015612898573d6000803e3d6000fd5b505050506040513d601f19601f820116820180604052508101906128bc919061400d565b9050806128fe576040517f08c379a00000000000000000000000000000000000000000000000000000000081526004016128f590614d74565b60405180910390fd5b6000808460016003811061293b577f4e487b7100000000000000000000000000000000000000000000000000000000600052603260045260246000fd5b6020020151815260200190815260200160002060009054906101000a900460ff161561299c576040517f08c379a000000000000000000000000000000000000000000000000000000000815260040161299390614cb4565b60405180910390fd5b6001600080856001600381106129db577f4e487b7100000000000000000000000000000000000000000000000000000000600052603260045260246000fd5b6020020151815260200190815260200160002060006101000a81548160ff021916908315150217905550604051806060016040528084600260038110612a4a577f4e487b7100000000000000000000000000000000000000000000000000000000600052603260045260246000fd5b60200201518152602001838152602001600115158152506001600085600060038110612a9f577f4e487b7100000000000000000000000000000000000000000000000000000000600052603260045260246000fd5b6020020151815260200190815260200160002060008201518160000155602082015181600101906002612ad39291906136d2565b5060408201518160030160006101000a81548160ff0219169083151502179055509050507f259ef7fea9f07612663253d2844b5bc7e4046d58b6be03a7c82db8393da288cd83600060038110612b52577f4e487b7100000000000000000000000000000000000000000000000000000000600052603260045260246000fd5b602002015183604051612b66929190614daf565b60405180910390a1505050505050565b60068060000154905081565b6000600c60009054906101000a900473ffffffffffffffffffffffffffffffffffffffff1673ffffffffffffffffffffffffffffffffffffffff16635fe8c13b898989896040518563ffffffff1660e01b8152600401612be59493929190614bcb565b60206040518083038186803b158015612bfd57600080fd5b505afa158015612c11573d6000803e3d6000fd5b505050506040513d601f19601f82011682018060405250810190612c35919061400d565b905080612c77576040517f08c379a0000000000000000000000000000000000000000000000000000000008152600401612c6e90614d74565b60405180910390fd5b612d3c85600060048110612cb4577f4e487b7100000000000000000000000000000000000000000000000000000000600052603260045260246000fd5b602002015186600160048110612cf3577f4e487b7100000000000000000000000000000000000000000000000000000000600052603260045260246000fd5b602002015187600260048110612d32577f4e487b7100000000000000000000000000000000000000000000000000000000600052603260045260246000fd5b602002015161321b565b60006005600086815260200190815260200160002060060160040190506000816000016000612d6d84600101613287565b81526020019081526020016000209050848160000160006101000a81548160ff021916908360ff160217905550838160000160016101000a81548160ff021916908360ff160217905550612dc382600101613287565b816001016000018190555086600060048110612e08577f4e487b7100000000000000000000000000000000000000000000000000000000600052603260045260246000fd5b6020020151816001016001018190555086600360048110612e52577f4e487b7100000000000000000000000000000000000000000000000000000000600052603260045260246000fd5b60200201518160010160020181905550612e6e82600101613295565b50505050505050505050565b6000600560008481526020019081526020016000206006016000019050612ed1878787878560000160008881526020019081526020016000206001018660020160010160009054906101000a900461ffff166132ab565b612f9684600060058110612f0e577f4e487b7100000000000000000000000000000000000000000000000000000000600052603260045260246000fd5b602002015185600160058110612f4d577f4e487b7100000000000000000000000000000000000000000000000000000000600052603260045260246000fd5b602002015186600260058110612f8c577f4e487b7100000000000000000000000000000000000000000000000000000000600052603260045260246000fd5b602002015161321b565b50505050505050565b600960009054906101000a900473ffffffffffffffffffffffffffffffffffffffff1673ffffffffffffffffffffffffffffffffffffffff163373ffffffffffffffffffffffffffffffffffffffff161461302f576040517f08c379a000000000000000000000000000000000000000000000000000000000815260040161302690614d34565b60405180910390fd5b600060056000898152602001908152602001600020905060006064605a87613057919061532b565b61306191906152fa565b905060006064605a8a613074919061532b565b61307e91906152fa565b905060006064605a8a613091919061532b565b61309b91906152fa565b90506000818a6130ab9190615385565b838c6130b79190615385565b858b6130c39190615385565b6130cd91906152a4565b6130d791906152a4565b9050838560060160000160020160000181905550858560060160000160020160010160006101000a81548161ffff021916908361ffff160217905550818560060160080160020160000181905550868560060160080160020160010160006101000a81548161ffff021916908361ffff160217905550828560060160040160020160000181905550878560060160040160020160010160006101000a81548161ffff021916908361ffff16021790555060018560050160006101000a81548160ff021916908315150217905550600960009054906101000a900473ffffffffffffffffffffffffffffffffffffffff1673ffffffffffffffffffffffffffffffffffffffff166108fc829081150290604051600060405180830381858888f1935050505015801561320c573d6000803e3d6000fd5b50505050505050505050505050565b600060016000858152602001908152602001600020905082816000015414613278576040517f08c379a000000000000000000000000000000000000000000000000000000000815260040161326f90614cd4565b60405180910390fd5b81816000018190555050505050565b600081600001549050919050565b6001816000016000828254019250508190555050565b6000600860009054906101000a900473ffffffffffffffffffffffffffffffffffffffff1673ffffffffffffffffffffffffffffffffffffffff166334baeab9888888886040518563ffffffff1660e01b815260040161330e9493929190614c12565b60206040518083038186803b15801561332657600080fd5b505afa15801561333a573d6000803e3d6000fd5b505050506040513d601f19601f8201168201806040525081019061335e919061400d565b9050806133a0576040517f08c379a000000000000000000000000000000000000000000000000000000000815260040161339790614d74565b60405180910390fd5b836000600581106133da577f4e487b7100000000000000000000000000000000000000000000000000000000600052603260045260246000fd5b60200201518360010154148015613432575083600360058110613426577f4e487b7100000000000000000000000000000000000000000000000000000000600052603260045260246000fd5b60200201518360020154145b8015613483575083600460058110613473577f4e487b7100000000000000000000000000000000000000000000000000000000600052603260045260246000fd5b602002015161ffff168261ffff16145b6134c2576040517f08c379a00000000000000000000000000000000000000000000000000000000081526004016134b990614cf4565b60405180910390fd5b8260030160019054906101000a900460ff1615613514576040517f08c379a000000000000000000000000000000000000000000000000000000000815260040161350b90614d14565b60405180910390fd5b8260030160009054906101000a900460ff16613565576040517f08c379a000000000000000000000000000000000000000000000000000000000815260040161355c90614c74565b60405180910390fd5b60018360030160016101000a81548160ff02191690831515021790555050505050505050565b6040518060e0016040528060008152602001600060ff168152602001600061ffff1681526020016060815260200160608152602001600081526020016000151581525090565b60405180604001604052806000151581526020016135ed613720565b81525090565b6040518060600160405280600015158152602001600060ff168152602001613619613720565b81525090565b6040518060600160405280600060ff168152602001600060ff168152602001613646613720565b81525090565b8280546136589061542c565b90600052602060002090601f01602090048101928261367a57600085556136c1565b82601f1061369357805160ff19168380011785556136c1565b828001600101855582156136c1579182015b828111156136c05782518255916020019190600101906136a5565b5b5090506136ce9190613753565b5090565b826002810192821561370f579160200282015b8281111561370e578251829060206136fe929190613770565b50916020019190600101906136e5565b5b50905061371c919061380a565b5090565b6040518060a001604052806000815260200160008152602001600081526020016000151581526020016000151581525090565b5b8082111561376c576000816000905550600101613754565b5090565b826020601f016020900481019282156137f95791602002820160005b838211156137ca57835183826101000a81548160ff021916908360ff160217905550926020019260010160208160000104928301926001030261378c565b80156137f75782816101000a81549060ff02191690556001016020816000010492830192600103026137ca565b505b5090506138069190613753565b5090565b5b8082111561382a5760008181613821919061382e565b5060010161380b565b5090565b5060009055565b600061384861384384614f12565b614eed565b9050808285604086028201111561385e57600080fd5b60005b8581101561388e57816138748882613b78565b845260208401935060408301925050600181019050613861565b5050509392505050565b60006138ab6138a684614f38565b614eed565b90508082856104008602820111156138c257600080fd5b60005b858110156138f357816138d88882613c14565b845260208401935061040083019250506001810190506138c5565b5050509392505050565b600061391061390b84614f5e565b614eed565b9050808285602086028201111561392657600080fd5b60005b85811015613956578161393c8882613ca4565b845260208401935060208301925050600181019050613929565b5050509392505050565b600061397361396e84614f84565b614eed565b9050808285602086028201111561398957600080fd5b60005b858110156139b9578161399f8882613ca4565b84526020840193506020830192505060018101905061398c565b5050509392505050565b60006139d66139d184614faa565b614eed565b905080828560208602820111156139ec57600080fd5b60005b85811015613a1c5781613a028882613ca4565b8452602084019350602083019250506001810190506139ef565b5050509392505050565b6000613a39613a3484614fd0565b614eed565b90508082856020860282011115613a4f57600080fd5b60005b85811015613a7f5781613a658882613ca4565b845260208401935060208301925050600181019050613a52565b5050509392505050565b6000613a9c613a9784614ff6565b614eed565b90508082856020860282011115613ab257600080fd5b60005b85811015613ae25781613ac88882613cb9565b845260208401935060208301925050600181019050613ab5565b5050509392505050565b6000613aff613afa8461501c565b614eed565b905082815260208101848484011115613b1757600080fd5b613b228482856153ea565b509392505050565b600082601f830112613b3b57600080fd5b6002613b48848285613835565b91505092915050565b600082601f830112613b6257600080fd5b6002613b6f848285613898565b91505092915050565b600082601f830112613b8957600080fd5b6002613b968482856138fd565b91505092915050565b600082601f830112613bb057600080fd5b6003613bbd848285613960565b91505092915050565b600082601f830112613bd757600080fd5b6004613be48482856139c3565b91505092915050565b600082601f830112613bfe57600080fd5b6005613c0b848285613a26565b91505092915050565b600082601f830112613c2557600080fd5b6020613c32848285613a89565b91505092915050565b600081359050613c4a81615716565b92915050565b600081519050613c5f81615716565b92915050565b600082601f830112613c7657600080fd5b8135613c86848260208601613aec565b91505092915050565b600081359050613c9e8161572d565b92915050565b600081359050613cb381615744565b92915050565b600081359050613cc88161575b565b92915050565b60008060008060006109608688031215613ce757600080fd5b6000613cf588828901613b78565b9550506040613d0688828901613b2a565b94505060c0613d1788828901613b78565b935050610100613d2988828901613b9f565b925050610160613d3b88828901613b51565b9150509295509295909350565b6000806000806101808587031215613d5f57600080fd5b6000613d6d87828801613b78565b9450506040613d7e87828801613b2a565b93505060c0613d8f87828801613b78565b925050610100613da187828801613bc6565b91505092959194509250565b6000806000806000806101c08789031215613dc757600080fd5b6000613dd589828a01613b78565b9650506040613de689828a01613b2a565b95505060c0613df789828a01613b78565b945050610100613e0989828a01613bc6565b935050610180613e1b89828a01613ca4565b9250506101a0613e2d89828a01613c3b565b9150509295509295509295565b60008060008060008060006101e0888a031215613e5657600080fd5b6000613e648a828b01613b78565b9750506040613e758a828b01613b2a565b96505060c0613e868a828b01613b78565b955050610100613e988a828b01613bc6565b945050610180613eaa8a828b01613ca4565b9350506101a0613ebc8a828b01613c3b565b9250506101c0613ece8a828b01613cb9565b91505092959891949750929550565b60008060008060008060006101e0888a031215613ef957600080fd5b6000613f078a828b01613b78565b9750506040613f188a828b01613b2a565b96505060c0613f298a828b01613b78565b955050610100613f3b8a828b01613bc6565b945050610180613f4d8a828b01613ca4565b9350506101a0613f5f8a828b01613cb9565b9250506101c0613f718a828b01613cb9565b91505092959891949750929550565b6000806000806000806101e08789031215613f9a57600080fd5b6000613fa889828a01613b78565b9650506040613fb989828a01613b2a565b95505060c0613fca89828a01613b78565b945050610100613fdc89828a01613bed565b9350506101a0613fee89828a01613ca4565b9250506101c061400089828a01613ca4565b9150509295509295509295565b60006020828403121561401f57600080fd5b600061402d84828501613c50565b91505092915050565b60006020828403121561404857600080fd5b600061405684828501613ca4565b91505092915050565b6000806040838503121561407257600080fd5b600061408085828601613ca4565b925050602061409185828601613ca4565b9150509250929050565b600080600080600080600060e0888a0312156140b657600080fd5b60006140c48a828b01613ca4565b97505060206140d58a828b01613ca4565b96505060406140e68a828b01613ca4565b95505060606140f78a828b01613ca4565b94505060806141088a828b01613c8f565b93505060a06141198a828b01613c8f565b92505060c061412a8a828b01613c8f565b91505092959891949750929550565b60008060006060848603121561414e57600080fd5b600061415c86828701613ca4565b935050602061416d86828701613cb9565b925050604061417e86828701613cb9565b9150509250925092565b600080600080600060a086880312156141a057600080fd5b60006141ae88828901613cb9565b95505060206141bf88828901613c8f565b945050604086013567ffffffffffffffff8111156141dc57600080fd5b6141e888828901613c65565b935050606086013567ffffffffffffffff81111561420557600080fd5b61421188828901613c65565b925050608061422288828901613ca4565b9150509295509295909350565b600061423b8383614529565b60408301905092915050565b600061425383836146dc565b6104008301905092915050565b600061426c8383614966565b60e08301905092915050565b600061428483836149a8565b905092915050565b60006142988383614a4b565b60e08301905092915050565b60006142b08383614a8d565b60c08301905092915050565b60006142c88383614ada565b60208301905092915050565b60006142e08383614af8565b60208301905092915050565b6142f5816150d3565b6142ff81846151e6565b925061430a8261504d565b8060005b8381101561433b578151614322878261422f565b965061432d83615157565b92505060018101905061430e565b505050505050565b61434c816150de565b61435681846151f1565b925061436182615057565b8060005b838110156143925781516143798782614247565b965061438483615164565b925050600181019050614365565b505050505050565b60006143a5826150e9565b6143af81856151fc565b93506143ba83615061565b8060005b838110156143eb5781516143d28882614260565b97506143dd83615171565b9250506001810190506143be565b5085935050505092915050565b6000614403826150f4565b61440d818561520d565b93508360208202850161441f85615071565b8060005b8581101561445b578484038952815161443c8582614278565b94506144478361517e565b925060208a01995050600181019050614423565b50829750879550505050505092915050565b6000614478826150ff565b614482818561521e565b935061448d83615081565b8060005b838110156144be5781516144a5888261428c565b97506144b08361518b565b925050600181019050614491565b5085935050505092915050565b60006144d68261510a565b6144e0818561522f565b93506144eb83615091565b8060005b8381101561451c57815161450388826142a4565b975061450e83615198565b9250506001810190506144ef565b5085935050505092915050565b61453281615115565b61453c8184615240565b9250614547826150a1565b8060005b8381101561457857815161455f87826142bc565b965061456a836151a5565b92505060018101905061454b565b505050505050565b61458981615115565b614593818461524b565b925061459e826150a1565b8060005b838110156145cf5781516145b687826142bc565b96506145c1836151a5565b9250506001810190506145a2565b505050505050565b6145e081615120565b6145ea8184615256565b92506145f5826150ab565b8060005b8381101561462657815161460d87826142bc565b9650614618836151b2565b9250506001810190506145f9565b505050505050565b6146378161512b565b6146418184615261565b925061464c826150b5565b8060005b8381101561467d57815161466487826142bc565b965061466f836151bf565b925050600181019050614650565b505050505050565b61468e81615136565b614698818461526c565b92506146a3826150bf565b8060005b838110156146d45781516146bb87826142bc565b96506146c6836151cc565b9250506001810190506146a7565b505050505050565b6146e581615141565b6146ef8184615277565b92506146fa826150c9565b8060005b8381101561472b57815161471287826142d4565b965061471d836151d9565b9250506001810190506146fe565b505050505050565b61473c816153b9565b82525050565b61474b816153b9565b82525050565b600061475c8261514c565b6147668185615282565b93506147768185602086016153f9565b61477f81615594565b840191505092915050565b60006147958261514c565b61479f8185615293565b93506147af8185602086016153f9565b6147b881615594565b840191505092915050565b60006147d0600b83615293565b91506147db826155a5565b602082019050919050565b60006147f3600f83615293565b91506147fe826155ce565b602082019050919050565b6000614816601183615293565b9150614821826155f7565b602082019050919050565b6000614839601783615293565b915061484482615620565b602082019050919050565b600061485c600b83615293565b915061486782615649565b602082019050919050565b600061487f600f83615293565b915061488a82615672565b602082019050919050565b60006148a2601883615293565b91506148ad8261569b565b602082019050919050565b60006148c5601183615293565b91506148d0826156c4565b602082019050919050565b60006148e8600d83615293565b91506148f3826156ed565b602082019050919050565b60a0820160008201516149146000850182614ada565b5060208201516149276020850182614ada565b50604082015161493a6040850182614ada565b50606082015161494d6060850182614733565b5060808201516149606080850182614733565b50505050565b60e08201600082015161497c6000850182614733565b50602082015161498f6020850182614af8565b5060408201516149a260408501826148fe565b50505050565b600060e0830160008301516149c06000860182614ada565b5060208301516149d36020860182614af8565b5060408301516149e66040860182614abc565b50606083015184820360608601526149fe8282614751565b91505060808301518482036080860152614a188282614751565b91505060a0830151614a2d60a0860182614ada565b5060c0830151614a4060c0860182614733565b508091505092915050565b60e082016000820151614a616000850182614af8565b506020820151614a746020850182614af8565b506040820151614a8760408501826148fe565b50505050565b60c082016000820151614aa36000850182614733565b506020820151614ab660208501826148fe565b50505050565b614ac5816153c5565b82525050565b614ad4816153c5565b82525050565b614ae3816153d3565b82525050565b614af2816153d3565b82525050565b614b01816153dd565b82525050565b614b10816153dd565b82525050565b60006020820190508181036000830152614b3081846143f8565b905092915050565b60006060820190508181036000830152614b5281866144cb565b90508181036020830152614b66818561439a565b90508181036040830152614b7a818461446d565b9050949350505050565b600061016082019050614b9a6000830187614580565b614ba760408301866142ec565b614bb460c0830185614580565b614bc26101008301846145d7565b95945050505050565b600061018082019050614be16000830187614580565b614bee60408301866142ec565b614bfb60c0830185614580565b614c0961010083018461462e565b95945050505050565b60006101a082019050614c286000830187614580565b614c3560408301866142ec565b614c4260c0830185614580565b614c50610100830184614685565b95945050505050565b6000602082019050614c6e6000830184614742565b92915050565b60006020820190508181036000830152614c8d816147c3565b9050919050565b60006020820190508181036000830152614cad816147e6565b9050919050565b60006020820190508181036000830152614ccd81614809565b9050919050565b60006020820190508181036000830152614ced8161482c565b9050919050565b60006020820190508181036000830152614d0d8161484f565b9050919050565b60006020820190508181036000830152614d2d81614872565b9050919050565b60006020820190508181036000830152614d4d81614895565b9050919050565b60006020820190508181036000830152614d6d816148b8565b9050919050565b60006020820190508181036000830152614d8d816148db565b9050919050565b6000602082019050614da96000830184614ae9565b92915050565b600061082082019050614dc56000830185614ae9565b614dd26020830184614343565b9392505050565b6000604082019050614dee6000830185614ae9565b614dfb6020830184614742565b9392505050565b600060a082019050614e176000830188614ae9565b614e246020830187614acb565b614e316040830186614b07565b8181036060830152614e43818561478a565b90508181036080830152614e57818461478a565b90509695505050505050565b6000602082019050614e786000830184614b07565b92915050565b600060c082019050614e936000830189614b07565b614ea06020830188614acb565b8181036040830152614eb2818761478a565b90508181036060830152614ec6818661478a565b9050614ed56080830185614ae9565b614ee260a0830184614742565b979650505050505050565b6000614ef7614f08565b9050614f03828261545e565b919050565b6000604051905090565b600067ffffffffffffffff821115614f2d57614f2c615565565b5b602082029050919050565b600067ffffffffffffffff821115614f5357614f52615565565b5b602082029050919050565b600067ffffffffffffffff821115614f7957614f78615565565b5b602082029050919050565b600067ffffffffffffffff821115614f9f57614f9e615565565b5b602082029050919050565b600067ffffffffffffffff821115614fc557614fc4615565565b5b602082029050919050565b600067ffffffffffffffff821115614feb57614fea615565565b5b602082029050919050565b600067ffffffffffffffff82111561501157615010615565565b5b602082029050919050565b600067ffffffffffffffff82111561503757615036615565565b5b61504082615594565b9050602081019050919050565b6000819050919050565b6000819050919050565b6000819050602082019050919050565b6000819050602082019050919050565b6000819050602082019050919050565b6000819050602082019050919050565b6000819050919050565b6000819050919050565b6000819050919050565b6000819050919050565b6000819050919050565b600060029050919050565b600060029050919050565b600081519050919050565b600081519050919050565b600081519050919050565b600081519050919050565b600060029050919050565b600060039050919050565b600060049050919050565b600060059050919050565b600060209050919050565b600081519050919050565b6000602082019050919050565b6000602082019050919050565b6000602082019050919050565b6000602082019050919050565b6000602082019050919050565b6000602082019050919050565b6000602082019050919050565b6000602082019050919050565b6000602082019050919050565b6000602082019050919050565b6000602082019050919050565b600081905092915050565b600081905092915050565b600082825260208201905092915050565b600082825260208201905092915050565b600082825260208201905092915050565b600082825260208201905092915050565b600081905092915050565b600081905092915050565b600081905092915050565b600081905092915050565b600081905092915050565b600081905092915050565b600082825260208201905092915050565b600082825260208201905092915050565b60006152af826153d3565b91506152ba836153d3565b9250827fffffffffffffffffffffffffffffffffffffffffffffffffffffffffffffffff038211156152ef576152ee6154d8565b5b828201905092915050565b6000615305826153d3565b9150615310836153d3565b9250826153205761531f615507565b5b828204905092915050565b6000615336826153d3565b9150615341836153d3565b9250817fffffffffffffffffffffffffffffffffffffffffffffffffffffffffffffffff048311821515161561537a576153796154d8565b5b828202905092915050565b6000615390826153d3565b915061539b836153d3565b9250828210156153ae576153ad6154d8565b5b828203905092915050565b60008115159050919050565b600061ffff82169050919050565b6000819050919050565b600060ff82169050919050565b82818337600083830152505050565b60005b838110156154175780820151818401526020810190506153fc565b83811115615426576000848401525b50505050565b6000600282049050600182168061544457607f821691505b6020821081141561545857615457615536565b5b50919050565b61546782615594565b810181811067ffffffffffffffff8211171561548657615485615565565b5b80604052505050565b600061549a826153d3565b91507fffffffffffffffffffffffffffffffffffffffffffffffffffffffffffffffff8214156154cd576154cc6154d8565b5b600182019050919050565b7f4e487b7100000000000000000000000000000000000000000000000000000000600052601160045260246000fd5b7f4e487b7100000000000000000000000000000000000000000000000000000000600052601260045260246000fd5b7f4e487b7100000000000000000000000000000000000000000000000000000000600052602260045260246000fd5b7f4e487b7100000000000000000000000000000000000000000000000000000000600052604160045260246000fd5b6000601f19601f8301169050919050565b7f446964206e6f742077696e000000000000000000000000000000000000000000600082015250565b7f496e76616c6964206465706f7369740000000000000000000000000000000000600082015250565b7f557365726e616d652069732074616b656e000000000000000000000000000000600082015250565b7f496e76616c69642063757272656e742062616c616e6365000000000000000000600082015250565b7f496e76616c696420626574000000000000000000000000000000000000000000600082015250565b7f416c726561647920636c61696d65640000000000000000000000000000000000600082015250565b7f4f6e6c7920636f6f7264696e61746f7220616c6c6f7765640000000000000000600082015250565b7f496e76616c69642077697468647261776e000000000000000000000000000000600082015250565b7f496e76616c69642070726f6f6600000000000000000000000000000000000000600082015250565b61571f816153b9565b811461572a57600080fd5b50565b615736816153c5565b811461574157600080fd5b50565b61574d816153d3565b811461575857600080fd5b50565b615764816153dd565b811461576f57600080fd5b5056fea2646970667358221220a3277bac4ddfb1802984fbe57e1f556cf0f8e72ef69eff2284dc3a0f80a7876e64736f6c63430008040033",
  "linkReferences": {},
  "deployedLinkReferences": {}
}