{
  "_format": "hh-sol-artifact-1",
  "contractName": "Users",
  "sourceName": "contracts/Users.sol",
  "abi": [
    {
      "inputs": [
        {
          "internalType": "address",
          "name": "_createUserVerifier",
          "type": "address"
        },
        {
          "internalType": "address",
          "name": "_depositVerifier",
          "type": "address"
        },
        {
          "internalType": "address",
          "name": "_withdrawnVerifier",
          "type": "address"
        }
      ],
      "stateMutability": "nonpayable",
      "type": "constructor"
    },
    {
      "anonymous": false,
      "inputs": [
        {
          "indexed": false,
          "internalType": "uint256",
          "name": "identityCommitment",
          "type": "uint256"
        },
        {
          "indexed": false,
          "internalType": "uint8[32][2]",
          "name": "pubKey",
          "type": "uint8[32][2]"
        }
      ],
      "name": "UserCreated",
      "type": "event"
    },
    {
      "inputs": [
        {
          "internalType": "uint256[2]",
          "name": "a",
          "type": "uint256[2]"
        },
        {
          "internalType": "uint256[2][2]",
          "name": "b",
          "type": "uint256[2][2]"
        },
        {
          "internalType": "uint256[2]",
          "name": "c",
          "type": "uint256[2]"
        },
        {
          "internalType": "uint256[3]",
          "name": "input",
          "type": "uint256[3]"
        },
        {
          "internalType": "uint8[32][2]",
          "name": "pubKey",
          "type": "uint8[32][2]"
        }
      ],
      "name": "createUser",
      "outputs": [],
      "stateMutability": "nonpayable",
      "type": "function"
    },
    {
      "inputs": [
        {
          "internalType": "uint256[2]",
          "name": "a",
          "type": "uint256[2]"
        },
        {
          "internalType": "uint256[2][2]",
          "name": "b",
          "type": "uint256[2][2]"
        },
        {
          "internalType": "uint256[2]",
          "name": "c",
          "type": "uint256[2]"
        },
        {
          "internalType": "uint256[4]",
          "name": "input",
          "type": "uint256[4]"
        }
      ],
      "name": "deposit",
      "outputs": [],
      "stateMutability": "payable",
      "type": "function"
    },
    {
      "inputs": [
        {
          "internalType": "uint256",
          "name": "",
          "type": "uint256"
        }
      ],
      "name": "usernames",
      "outputs": [
        {
          "internalType": "bool",
          "name": "",
          "type": "bool"
        }
      ],
      "stateMutability": "view",
      "type": "function"
    },
    {
      "inputs": [
        {
          "internalType": "uint256",
          "name": "",
          "type": "uint256"
        }
      ],
      "name": "users",
      "outputs": [
        {
          "internalType": "uint256",
          "name": "balance",
          "type": "uint256"
        },
        {
          "internalType": "bool",
          "name": "isActive",
          "type": "bool"
        }
      ],
      "stateMutability": "view",
      "type": "function"
    },
    {
      "inputs": [
        {
          "internalType": "uint256[2]",
          "name": "a",
          "type": "uint256[2]"
        },
        {
          "internalType": "uint256[2][2]",
          "name": "b",
          "type": "uint256[2][2]"
        },
        {
          "internalType": "uint256[2]",
          "name": "c",
          "type": "uint256[2]"
        },
        {
          "internalType": "uint256[4]",
          "name": "input",
          "type": "uint256[4]"
        }
      ],
      "name": "withdrawn",
      "outputs": [],
      "stateMutability": "payable",
      "type": "function"
    }
  ],
  "bytecode": "0x60806040523480156200001157600080fd5b5060405162001a8938038062001a8983398181016040528101906200003791906200011a565b82600260006101000a81548173ffffffffffffffffffffffffffffffffffffffff021916908373ffffffffffffffffffffffffffffffffffffffff16021790555081600360006101000a81548173ffffffffffffffffffffffffffffffffffffffff021916908373ffffffffffffffffffffffffffffffffffffffff16021790555080600460006101000a81548173ffffffffffffffffffffffffffffffffffffffff021916908373ffffffffffffffffffffffffffffffffffffffff160217905550505050620001be565b6000815190506200011481620001a4565b92915050565b6000806000606084860312156200013057600080fd5b6000620001408682870162000103565b9350506020620001538682870162000103565b9250506040620001668682870162000103565b9150509250925092565b60006200017d8262000184565b9050919050565b600073ffffffffffffffffffffffffffffffffffffffff82169050919050565b620001af8162000170565b8114620001bb57600080fd5b50565b6118bb80620001ce6000396000f3fe60806040526004361061004a5760003560e01c806312fdec661461004f578063136dd9631461006b578063365b98b2146100a857806359dde0b5146100e6578063acc09e3c14610102575b600080fd5b61006960048036038101906100649190610f18565b61012b565b005b34801561007757600080fd5b50610092600480360381019061008d9190610fa6565b610391565b60405161009f91906113e7565b60405180910390f35b3480156100b457600080fd5b506100cf60048036038101906100ca9190610fa6565b6103b1565b6040516100dd9291906114ac565b60405180910390f35b61010060048036038101906100fb9190610f18565b6103e2565b005b34801561010e57600080fd5b5061012960048036038101906101249190610e9e565b610684565b005b6000600360009054906101000a900473ffffffffffffffffffffffffffffffffffffffff1673ffffffffffffffffffffffffffffffffffffffff16635fe8c13b868686866040518563ffffffff1660e01b815260040161018e94939291906113a0565b60206040518083038186803b1580156101a657600080fd5b505afa1580156101ba573d6000803e3d6000fd5b505050506040513d601f19601f820116820180604052508101906101de9190610f7d565b905080610220576040517f08c379a000000000000000000000000000000000000000000000000000000000815260040161021790611462565b60405180910390fd5b60006001600084600060048110610260577f4e487b7100000000000000000000000000000000000000000000000000000000600052603260045260246000fd5b602002015181526020019081526020016000209050826001600481106102af577f4e487b7100000000000000000000000000000000000000000000000000000000600052603260045260246000fd5b602002015181600001541480156103035750826003600481106102fb577f4e487b7100000000000000000000000000000000000000000000000000000000600052603260045260246000fd5b602002015134145b610342576040517f08c379a000000000000000000000000000000000000000000000000000000000815260040161033990611402565b60405180910390fd5b8260026004811061037c577f4e487b7100000000000000000000000000000000000000000000000000000000600052603260045260246000fd5b60200201518160000181905550505050505050565b60006020528060005260406000206000915054906101000a900460ff1681565b60016020528060005260406000206000915090508060000154908060030160009054906101000a900460ff16905082565b6000600460009054906101000a900473ffffffffffffffffffffffffffffffffffffffff1673ffffffffffffffffffffffffffffffffffffffff16635fe8c13b868686866040518563ffffffff1660e01b815260040161044594939291906113a0565b60206040518083038186803b15801561045d57600080fd5b505afa158015610471573d6000803e3d6000fd5b505050506040513d601f19601f820116820180604052508101906104959190610f7d565b9050806104d7576040517f08c379a00000000000000000000000000000000000000000000000000000000081526004016104ce90611462565b60405180910390fd5b60006001600084600060048110610517577f4e487b7100000000000000000000000000000000000000000000000000000000600052603260045260246000fd5b60200201518152602001908152602001600020905082600160048110610566577f4e487b7100000000000000000000000000000000000000000000000000000000600052603260045260246000fd5b60200201518160000154146105b0576040517f08c379a00000000000000000000000000000000000000000000000000000000081526004016105a790611442565b60405180910390fd5b826002600481106105ea577f4e487b7100000000000000000000000000000000000000000000000000000000600052603260045260246000fd5b602002015181600001819055503373ffffffffffffffffffffffffffffffffffffffff166108fc8460036004811061064b577f4e487b7100000000000000000000000000000000000000000000000000000000600052603260045260246000fd5b60200201519081150290604051600060405180830381858888f1935050505015801561067b573d6000803e3d6000fd5b50505050505050565b6000600260009054906101000a900473ffffffffffffffffffffffffffffffffffffffff1673ffffffffffffffffffffffffffffffffffffffff166311479fea878787876040518563ffffffff1660e01b81526004016106e79493929190611359565b60206040518083038186803b1580156106ff57600080fd5b505afa158015610713573d6000803e3d6000fd5b505050506040513d601f19601f820116820180604052508101906107379190610f7d565b905080610779576040517f08c379a000000000000000000000000000000000000000000000000000000000815260040161077090611462565b60405180910390fd5b600080846001600381106107b6577f4e487b7100000000000000000000000000000000000000000000000000000000600052603260045260246000fd5b6020020151815260200190815260200160002060009054906101000a900460ff1615610817576040517f08c379a000000000000000000000000000000000000000000000000000000000815260040161080e90611422565b60405180910390fd5b600160008085600160038110610856577f4e487b7100000000000000000000000000000000000000000000000000000000600052603260045260246000fd5b6020020151815260200190815260200160002060006101000a81548160ff0219169083151502179055506040518060600160405280846002600381106108c5577f4e487b7100000000000000000000000000000000000000000000000000000000600052603260045260246000fd5b6020020151815260200183815260200160011515815250600160008560006003811061091a577f4e487b7100000000000000000000000000000000000000000000000000000000600052603260045260246000fd5b602002015181526020019081526020016000206000820151816000015560208201518160010190600261094e9291906109f1565b5060408201518160030160006101000a81548160ff0219169083151502179055509050507f259ef7fea9f07612663253d2844b5bc7e4046d58b6be03a7c82db8393da288cd836000600381106109cd577f4e487b7100000000000000000000000000000000000000000000000000000000600052603260045260246000fd5b6020020151836040516109e1929190611482565b60405180910390a1505050505050565b8260028101928215610a2e579160200282015b82811115610a2d57825182906020610a1d929190610a3f565b5091602001919060010190610a04565b5b509050610a3b9190610ad9565b5090565b826020601f01602090048101928215610ac85791602002820160005b83821115610a9957835183826101000a81548160ff021916908360ff1602179055509260200192600101602081600001049283019260010302610a5b565b8015610ac65782816101000a81549060ff0219169055600101602081600001049283019260010302610a99565b505b509050610ad59190610afd565b5090565b5b80821115610af95760008181610af09190610b1a565b50600101610ada565b5090565b5b80821115610b16576000816000905550600101610afe565b5090565b5060009055565b6000610b34610b2f846114fa565b6114d5565b90508082856040860282011115610b4a57600080fd5b60005b85811015610b7a5781610b608882610dc3565b845260208401935060408301925050600181019050610b4d565b5050509392505050565b6000610b97610b9284611520565b6114d5565b9050808285610400860282011115610bae57600080fd5b60005b85811015610bdf5781610bc48882610e38565b84526020840193506104008301925050600181019050610bb1565b5050509392505050565b6000610bfc610bf784611546565b6114d5565b90508082856020860282011115610c1257600080fd5b60005b85811015610c425781610c288882610e74565b845260208401935060208301925050600181019050610c15565b5050509392505050565b6000610c5f610c5a8461156c565b6114d5565b90508082856020860282011115610c7557600080fd5b60005b85811015610ca55781610c8b8882610e74565b845260208401935060208301925050600181019050610c78565b5050509392505050565b6000610cc2610cbd84611592565b6114d5565b90508082856020860282011115610cd857600080fd5b60005b85811015610d085781610cee8882610e74565b845260208401935060208301925050600181019050610cdb565b5050509392505050565b6000610d25610d20846115b8565b6114d5565b90508082856020860282011115610d3b57600080fd5b60005b85811015610d6b5781610d518882610e89565b845260208401935060208301925050600181019050610d3e565b5050509392505050565b600082601f830112610d8657600080fd5b6002610d93848285610b21565b91505092915050565b600082601f830112610dad57600080fd5b6002610dba848285610b84565b91505092915050565b600082601f830112610dd457600080fd5b6002610de1848285610be9565b91505092915050565b600082601f830112610dfb57600080fd5b6003610e08848285610c4c565b91505092915050565b600082601f830112610e2257600080fd5b6004610e2f848285610caf565b91505092915050565b600082601f830112610e4957600080fd5b6020610e56848285610d12565b91505092915050565b600081519050610e6e81611840565b92915050565b600081359050610e8381611857565b92915050565b600081359050610e988161186e565b92915050565b60008060008060006109608688031215610eb757600080fd5b6000610ec588828901610dc3565b9550506040610ed688828901610d75565b94505060c0610ee788828901610dc3565b935050610100610ef988828901610dea565b925050610160610f0b88828901610d9c565b9150509295509295909350565b6000806000806101808587031215610f2f57600080fd5b6000610f3d87828801610dc3565b9450506040610f4e87828801610d75565b93505060c0610f5f87828801610dc3565b925050610100610f7187828801610e11565b91505092959194509250565b600060208284031215610f8f57600080fd5b6000610f9d84828501610e5f565b91505092915050565b600060208284031215610fb857600080fd5b6000610fc684828501610e74565b91505092915050565b6000610fdb83836110de565b60408301905092915050565b6000610ff3838361123a565b6104008301905092915050565b600061100c838361132c565b60208301905092915050565b6000611024838361134a565b60208301905092915050565b6110398161161a565b61104381846116aa565b925061104e826115de565b8060005b8381101561107f5781516110668782610fcf565b96506110718361165c565b925050600181019050611052565b505050505050565b61109081611625565b61109a81846116b5565b92506110a5826115e8565b8060005b838110156110d65781516110bd8782610fe7565b96506110c883611669565b9250506001810190506110a9565b505050505050565b6110e781611630565b6110f181846116c0565b92506110fc826115f2565b8060005b8381101561112d5781516111148782611000565b965061111f83611676565b925050600181019050611100565b505050505050565b61113e81611630565b61114881846116cb565b9250611153826115f2565b8060005b8381101561118457815161116b8782611000565b965061117683611676565b925050600181019050611157565b505050505050565b6111958161163b565b61119f81846116d6565b92506111aa826115fc565b8060005b838110156111db5781516111c28782611000565b96506111cd83611683565b9250506001810190506111ae565b505050505050565b6111ec81611646565b6111f681846116e1565b925061120182611606565b8060005b838110156112325781516112198782611000565b965061122483611690565b925050600181019050611205565b505050505050565b61124381611651565b61124d81846116ec565b925061125882611610565b8060005b838110156112895781516112708782611018565b965061127b8361169d565b92505060018101905061125c565b505050505050565b61129a81611708565b82525050565b60006112ad600f836116f7565b91506112b88261179c565b602082019050919050565b60006112d06011836116f7565b91506112db826117c5565b602082019050919050565b60006112f36011836116f7565b91506112fe826117ee565b602082019050919050565b6000611316600d836116f7565b915061132182611817565b602082019050919050565b61133581611714565b82525050565b61134481611714565b82525050565b6113538161171e565b82525050565b60006101608201905061136f6000830187611135565b61137c6040830186611030565b61138960c0830185611135565b61139761010083018461118c565b95945050505050565b6000610180820190506113b66000830187611135565b6113c36040830186611030565b6113d060c0830185611135565b6113de6101008301846111e3565b95945050505050565b60006020820190506113fc6000830184611291565b92915050565b6000602082019050818103600083015261141b816112a0565b9050919050565b6000602082019050818103600083015261143b816112c3565b9050919050565b6000602082019050818103600083015261145b816112e6565b9050919050565b6000602082019050818103600083015261147b81611309565b9050919050565b600061082082019050611498600083018561133b565b6114a56020830184611087565b9392505050565b60006040820190506114c1600083018561133b565b6114ce6020830184611291565b9392505050565b60006114df6114f0565b90506114eb828261172b565b919050565b6000604051905090565b600067ffffffffffffffff8211156115155761151461175c565b5b602082029050919050565b600067ffffffffffffffff82111561153b5761153a61175c565b5b602082029050919050565b600067ffffffffffffffff8211156115615761156061175c565b5b602082029050919050565b600067ffffffffffffffff8211156115875761158661175c565b5b602082029050919050565b600067ffffffffffffffff8211156115ad576115ac61175c565b5b602082029050919050565b600067ffffffffffffffff8211156115d3576115d261175c565b5b602082029050919050565b6000819050919050565b6000819050919050565b6000819050919050565b6000819050919050565b6000819050919050565b6000819050919050565b600060029050919050565b600060029050919050565b600060029050919050565b600060039050919050565b600060049050919050565b600060209050919050565b6000602082019050919050565b6000602082019050919050565b6000602082019050919050565b6000602082019050919050565b6000602082019050919050565b6000602082019050919050565b600081905092915050565b600081905092915050565b600081905092915050565b600081905092915050565b600081905092915050565b600081905092915050565b600081905092915050565b600082825260208201905092915050565b60008115159050919050565b6000819050919050565b600060ff82169050919050565b6117348261178b565b810181811067ffffffffffffffff821117156117535761175261175c565b5b80604052505050565b7f4e487b7100000000000000000000000000000000000000000000000000000000600052604160045260246000fd5b6000601f19601f8301169050919050565b7f496e76616c6964206465706f7369740000000000000000000000000000000000600082015250565b7f557365726e616d652069732074616b656e000000000000000000000000000000600082015250565b7f496e76616c69642077697468647261776e000000000000000000000000000000600082015250565b7f496e76616c69642070726f6f6600000000000000000000000000000000000000600082015250565b61184981611708565b811461185457600080fd5b50565b61186081611714565b811461186b57600080fd5b50565b6118778161171e565b811461188257600080fd5b5056fea2646970667358221220fd3baf19cfb874be55066b24b6006728a91f7aee6cda91abba81529f670bd8aa64736f6c63430008040033",
  "linkReferences": {},
  "deployedLinkReferences": {}
}