{
  "_format": "hh-sol-artifact-1",
  "contractName": "Matches",
  "sourceName": "contracts/Matches.sol",
  "abi": [
    {
      "inputs": [],
      "stateMutability": "nonpayable",
      "type": "constructor"
    },
    {
      "anonymous": false,
      "inputs": [
        {
          "indexed": false,
          "internalType": "uint256",
          "name": "id",
          "type": "uint256"
        },
        {
          "indexed": false,
          "internalType": "string",
          "name": "name",
          "type": "string"
        },
        {
          "indexed": false,
          "internalType": "uint16",
          "name": "season",
          "type": "uint16"
        },
        {
          "indexed": false,
          "internalType": "string",
          "name": "country",
          "type": "string"
        }
      ],
      "name": "ChampionshipInserted",
      "type": "event"
    },
    {
      "anonymous": false,
      "inputs": [
        {
          "indexed": false,
          "internalType": "uint256",
          "name": "id",
          "type": "uint256"
        },
        {
          "indexed": false,
          "internalType": "uint256",
          "name": "champId",
          "type": "uint256"
        },
        {
          "indexed": false,
          "internalType": "string",
          "name": "house",
          "type": "string"
        },
        {
          "indexed": false,
          "internalType": "string",
          "name": "visitor",
          "type": "string"
        }
      ],
      "name": "MatchInserted",
      "type": "event"
    },
    {
      "inputs": [],
      "name": "champIds",
      "outputs": [
        {
          "internalType": "uint256",
          "name": "_value",
          "type": "uint256"
        }
      ],
      "stateMutability": "view",
      "type": "function"
    },
    {
      "inputs": [
        {
          "internalType": "uint256",
          "name": "",
          "type": "uint256"
        }
      ],
      "name": "championships",
      "outputs": [
        {
          "internalType": "uint256",
          "name": "id",
          "type": "uint256"
        },
        {
          "internalType": "string",
          "name": "name",
          "type": "string"
        },
        {
          "internalType": "uint16",
          "name": "season",
          "type": "uint16"
        },
        {
          "internalType": "string",
          "name": "country",
          "type": "string"
        },
        {
          "internalType": "bool",
          "name": "closed",
          "type": "bool"
        },
        {
          "internalType": "uint256",
          "name": "openMatchIndex",
          "type": "uint256"
        }
      ],
      "stateMutability": "view",
      "type": "function"
    },
    {
      "inputs": [
        {
          "internalType": "uint256",
          "name": "champId",
          "type": "uint256"
        }
      ],
      "name": "closeChampionship",
      "outputs": [],
      "stateMutability": "nonpayable",
      "type": "function"
    },
    {
      "inputs": [
        {
          "components": [
            {
              "internalType": "uint256",
              "name": "champId",
              "type": "uint256"
            },
            {
              "internalType": "uint256",
              "name": "matchId",
              "type": "uint256"
            },
            {
              "internalType": "uint16",
              "name": "winnerMultiplier",
              "type": "uint16"
            },
            {
              "internalType": "uint16",
              "name": "scoreMultiplier",
              "type": "uint16"
            },
            {
              "internalType": "uint16",
              "name": "goalsMultiplier",
              "type": "uint16"
            },
            {
              "internalType": "uint256",
              "name": "coordinatorFee",
              "type": "uint256"
            }
          ],
          "internalType": "struct Dto.CloseMatches[]",
          "name": "matchesToClose",
          "type": "tuple[]"
        }
      ],
      "name": "closeMatches",
      "outputs": [],
      "stateMutability": "nonpayable",
      "type": "function"
    },
    {
      "inputs": [
        {
          "components": [
            {
              "internalType": "uint8",
              "name": "house",
              "type": "uint8"
            },
            {
              "internalType": "uint8",
              "name": "visitor",
              "type": "uint8"
            },
            {
              "internalType": "uint256",
              "name": "matchId",
              "type": "uint256"
            },
            {
              "internalType": "uint256",
              "name": "champId",
              "type": "uint256"
            }
          ],
          "internalType": "struct Matches.Fullfill[]",
          "name": "results",
          "type": "tuple[]"
        }
      ],
      "name": "fullfillResults",
      "outputs": [],
      "stateMutability": "nonpayable",
      "type": "function"
    },
    {
      "inputs": [],
      "name": "getChampionships",
      "outputs": [
        {
          "components": [
            {
              "internalType": "uint256",
              "name": "id",
              "type": "uint256"
            },
            {
              "internalType": "string",
              "name": "name",
              "type": "string"
            },
            {
              "internalType": "uint16",
              "name": "season",
              "type": "uint16"
            },
            {
              "internalType": "string",
              "name": "country",
              "type": "string"
            },
            {
              "internalType": "bool",
              "name": "closed",
              "type": "bool"
            },
            {
              "internalType": "uint256",
              "name": "openMatchIndex",
              "type": "uint256"
            }
          ],
          "internalType": "struct Matches.Championship[]",
          "name": "",
          "type": "tuple[]"
        }
      ],
      "stateMutability": "view",
      "type": "function"
    },
    {
      "inputs": [
        {
          "internalType": "uint256",
          "name": "champId",
          "type": "uint256"
        },
        {
          "internalType": "uint256",
          "name": "matchId",
          "type": "uint256"
        }
      ],
      "name": "getMatch",
      "outputs": [
        {
          "components": [
            {
              "internalType": "uint256",
              "name": "id",
              "type": "uint256"
            },
            {
              "internalType": "string",
              "name": "house",
              "type": "string"
            },
            {
              "internalType": "string",
              "name": "visitor",
              "type": "string"
            },
            {
              "internalType": "uint256",
              "name": "start",
              "type": "uint256"
            },
            {
              "internalType": "uint8",
              "name": "houseGoals",
              "type": "uint8"
            },
            {
              "internalType": "uint8",
              "name": "visitorGoals",
              "type": "uint8"
            },
            {
              "internalType": "bool",
              "name": "closed",
              "type": "bool"
            },
            {
              "internalType": "bool",
              "name": "resultsFullfilled",
              "type": "bool"
            }
          ],
          "internalType": "struct Dto.Match",
          "name": "",
          "type": "tuple"
        }
      ],
      "stateMutability": "view",
      "type": "function"
    },
    {
      "inputs": [
        {
          "internalType": "uint256",
          "name": "champId",
          "type": "uint256"
        }
      ],
      "name": "getMatches",
      "outputs": [
        {
          "components": [
            {
              "internalType": "uint256",
              "name": "id",
              "type": "uint256"
            },
            {
              "internalType": "string",
              "name": "house",
              "type": "string"
            },
            {
              "internalType": "string",
              "name": "visitor",
              "type": "string"
            },
            {
              "internalType": "uint256",
              "name": "start",
              "type": "uint256"
            },
            {
              "internalType": "uint8",
              "name": "houseGoals",
              "type": "uint8"
            },
            {
              "internalType": "uint8",
              "name": "visitorGoals",
              "type": "uint8"
            },
            {
              "internalType": "bool",
              "name": "closed",
              "type": "bool"
            },
            {
              "internalType": "bool",
              "name": "resultsFullfilled",
              "type": "bool"
            }
          ],
          "internalType": "struct Dto.Match[]",
          "name": "",
          "type": "tuple[]"
        }
      ],
      "stateMutability": "view",
      "type": "function"
    },
    {
      "inputs": [
        {
          "components": [
            {
              "internalType": "uint256",
              "name": "id",
              "type": "uint256"
            },
            {
              "internalType": "string",
              "name": "name",
              "type": "string"
            },
            {
              "internalType": "uint16",
              "name": "season",
              "type": "uint16"
            },
            {
              "internalType": "string",
              "name": "country",
              "type": "string"
            },
            {
              "internalType": "bool",
              "name": "closed",
              "type": "bool"
            },
            {
              "internalType": "uint256",
              "name": "openMatchIndex",
              "type": "uint256"
            }
          ],
          "internalType": "struct Matches.Championship[]",
          "name": "champs",
          "type": "tuple[]"
        }
      ],
      "name": "insertChampionships",
      "outputs": [],
      "stateMutability": "nonpayable",
      "type": "function"
    },
    {
      "inputs": [
        {
          "internalType": "uint256",
          "name": "champId",
          "type": "uint256"
        },
        {
          "components": [
            {
              "internalType": "uint256",
              "name": "id",
              "type": "uint256"
            },
            {
              "internalType": "string",
              "name": "house",
              "type": "string"
            },
            {
              "internalType": "string",
              "name": "visitor",
              "type": "string"
            },
            {
              "internalType": "uint256",
              "name": "start",
              "type": "uint256"
            },
            {
              "internalType": "uint8",
              "name": "houseGoals",
              "type": "uint8"
            },
            {
              "internalType": "uint8",
              "name": "visitorGoals",
              "type": "uint8"
            },
            {
              "internalType": "bool",
              "name": "closed",
              "type": "bool"
            },
            {
              "internalType": "bool",
              "name": "resultsFullfilled",
              "type": "bool"
            }
          ],
          "internalType": "struct Dto.Match[]",
          "name": "matchesToInsert",
          "type": "tuple[]"
        }
      ],
      "name": "insertMatches",
      "outputs": [],
      "stateMutability": "nonpayable",
      "type": "function"
    },
    {
      "inputs": [
        {
          "internalType": "uint256",
          "name": "",
          "type": "uint256"
        }
      ],
      "name": "matchIds",
      "outputs": [
        {
          "internalType": "uint256",
          "name": "_value",
          "type": "uint256"
        }
      ],
      "stateMutability": "view",
      "type": "function"
    },
    {
      "inputs": [
        {
          "internalType": "uint256",
          "name": "",
          "type": "uint256"
        },
        {
          "internalType": "uint256",
          "name": "",
          "type": "uint256"
        }
      ],
      "name": "matches",
      "outputs": [
        {
          "internalType": "uint256",
          "name": "id",
          "type": "uint256"
        },
        {
          "internalType": "string",
          "name": "house",
          "type": "string"
        },
        {
          "internalType": "string",
          "name": "visitor",
          "type": "string"
        },
        {
          "internalType": "uint256",
          "name": "start",
          "type": "uint256"
        },
        {
          "internalType": "uint8",
          "name": "houseGoals",
          "type": "uint8"
        },
        {
          "internalType": "uint8",
          "name": "visitorGoals",
          "type": "uint8"
        },
        {
          "internalType": "bool",
          "name": "closed",
          "type": "bool"
        },
        {
          "internalType": "bool",
          "name": "resultsFullfilled",
          "type": "bool"
        }
      ],
      "stateMutability": "view",
      "type": "function"
    },
    {
      "inputs": [],
      "name": "openChampionshipIndex",
      "outputs": [
        {
          "internalType": "uint256",
          "name": "",
          "type": "uint256"
        }
      ],
      "stateMutability": "view",
      "type": "function"
    },
    {
      "inputs": [
        {
          "internalType": "address",
          "name": "_betContract",
          "type": "address"
        }
      ],
      "name": "setContractAdresses",
      "outputs": [],
      "stateMutability": "nonpayable",
      "type": "function"
    }
  ],
  "bytecode": "0x608060405234801561001057600080fd5b5033600560006101000a81548173ffffffffffffffffffffffffffffffffffffffff021916908373ffffffffffffffffffffffffffffffffffffffff1602179055506133ea806100616000396000f3fe608060405234801561001057600080fd5b50600436106100ea5760003560e01c80638524849c1161008c578063a111496411610066578063a11149641461024c578063c58e8bb114610268578063d67ed34d14610286578063e60d585a146102bd576100ea565b80638524849c146101f857806387472ac3146102145780638c13662c14610230576100ea565b806336ff6a70116100c857806336ff6a701461015b57806339c4a1cd1461018b578063558b91ed146101c05780636a418898146101dc576100ea565b806305e14c99146100ef578063107cfe511461010d57806332f872501461013d575b600080fd5b6100f76102ed565b6040516101049190612cb3565b60405180910390f35b6101276004803603810190610122919061263b565b6102f3565b6040516101349190612c91565b60405180910390f35b6101456104e1565b6040516101529190612bcb565b60405180910390f35b610175600480360381019061017091906125be565b61078c565b6040516101829190612cb3565b60405180910390f35b6101a560048036038101906101a091906125be565b6107aa565b6040516101b796959493929190612dad565b60405180910390f35b6101da60048036038101906101d591906125e7565b610911565b005b6101f660048036038101906101f1919061253c565b610c2c565b005b610212600480360381019061020d91906124fb565b610f8f565b005b61022e600480360381019061022991906124d2565b6112ad565b005b61024a600480360381019061024591906125be565b611381565b005b6102666004803603810190610261919061257d565b611465565b005b6102706116fa565b60405161027d9190612cb3565b60405180910390f35b6102a0600480360381019061029b919061263b565b611706565b6040516102b4989796959493929190612cce565b60405180910390f35b6102d760048036038101906102d291906125be565b61189f565b6040516102e49190612c0f565b60405180910390f35b60025481565b6102fb611d75565b600060036000858152602001908152602001600020600084815260200190815260200160002060405180610100016040529081600082015481526020016001820180546103479061317c565b80601f01602080910402602001604051908101604052809291908181526020018280546103739061317c565b80156103c05780601f10610395576101008083540402835291602001916103c0565b820191906000526020600020905b8154815290600101906020018083116103a357829003601f168201915b505050505081526020016002820180546103d99061317c565b80601f01602080910402602001604051908101604052809291908181526020018280546104059061317c565b80156104525780601f1061042757610100808354040283529160200191610452565b820191906000526020600020905b81548152906001019060200180831161043557829003601f168201915b50505050508152602001600382015481526020016004820160009054906101000a900460ff1660ff1660ff1681526020016004820160019054906101000a900460ff1660ff1660ff1681526020016004820160029054906101000a900460ff161515151581526020016004820160039054906101000a900460ff16151515158152505090508091505092915050565b606060006002546104f26001611d51565b6104fc91906130a3565b67ffffffffffffffff81111561053b577f4e487b7100000000000000000000000000000000000000000000000000000000600052604160045260246000fd5b60405190808252806020026020018201604052801561057457816020015b610561611dc4565b8152602001906001900390816105595790505b509050600060025490505b6105896001611d51565b811015610784576000808281526020019081526020016000206040518060c0016040529081600082015481526020016001820180546105c79061317c565b80601f01602080910402602001604051908101604052809291908181526020018280546105f39061317c565b80156106405780601f1061061557610100808354040283529160200191610640565b820191906000526020600020905b81548152906001019060200180831161062357829003601f168201915b505050505081526020016002820160009054906101000a900461ffff1661ffff1661ffff1681526020016003820180546106799061317c565b80601f01602080910402602001604051908101604052809291908181526020018280546106a59061317c565b80156106f25780601f106106c7576101008083540402835291602001916106f2565b820191906000526020600020905b8154815290600101906020018083116106d557829003601f168201915b505050505081526020016004820160009054906101000a900460ff16151515158152602001600582015481525050826002548361072f91906130a3565b81518110610766577f4e487b7100000000000000000000000000000000000000000000000000000000600052603260045260246000fd5b6020026020010181905250808061077c906131df565b91505061057f565b508091505090565b60046020528060005260406000206000915090508060000154905081565b60006020528060005260406000206000915090508060000154908060010180546107d39061317c565b80601f01602080910402602001604051908101604052809291908181526020018280546107ff9061317c565b801561084c5780601f106108215761010080835404028352916020019161084c565b820191906000526020600020905b81548152906001019060200180831161082f57829003601f168201915b5050505050908060020160009054906101000a900461ffff16908060030180546108759061317c565b80601f01602080910402602001604051908101604052809291908181526020018280546108a19061317c565b80156108ee5780601f106108c3576101008083540402835291602001916108ee565b820191906000526020600020905b8154815290600101906020018083116108d157829003601f168201915b5050505050908060040160009054906101000a900460ff16908060050154905086565b600560009054906101000a900473ffffffffffffffffffffffffffffffffffffffff1673ffffffffffffffffffffffffffffffffffffffff163373ffffffffffffffffffffffffffffffffffffffff16146109a1576040517f08c379a000000000000000000000000000000000000000000000000000000000815260040161099890612c51565b60405180910390fd5b60005b8151811015610c275760006003600085815260200190815260200160002060006109df60046000888152602001908152602001600020611d51565b81526020019081526020016000209050610a0a60046000868152602001908152602001600020611d51565b8160000181905550828281518110610a4b577f4e487b7100000000000000000000000000000000000000000000000000000000600052603260045260246000fd5b6020026020010151606001518160030181905550828281518110610a98577f4e487b7100000000000000000000000000000000000000000000000000000000600052603260045260246000fd5b602002602001015160200151816001019080519060200190610abb929190611e00565b50828281518110610af5577f4e487b7100000000000000000000000000000000000000000000000000000000600052603260045260246000fd5b602002602001015160400151816002019080519060200190610b18929190611e00565b507fad9ede88a2582d61ca52746b2476080c0ad4325142f507e3d627fda314870268610b5560046000878152602001908152602001600020611d51565b85858581518110610b8f577f4e487b7100000000000000000000000000000000000000000000000000000000600052603260045260246000fd5b602002602001015160200151868681518110610bd4577f4e487b7100000000000000000000000000000000000000000000000000000000600052603260045260246000fd5b602002602001015160400151604051610bf09493929190612e1c565b60405180910390a1610c1360046000868152602001908152602001600020611d5f565b508080610c1f906131df565b9150506109a4565b505050565b600560009054906101000a900473ffffffffffffffffffffffffffffffffffffffff1673ffffffffffffffffffffffffffffffffffffffff163373ffffffffffffffffffffffffffffffffffffffff1614610cbc576040517f08c379a0000000000000000000000000000000000000000000000000000000008152600401610cb390612c51565b60405180910390fd5b60005b8151811015610efe576000806000848481518110610d06577f4e487b7100000000000000000000000000000000000000000000000000000000600052603260045260246000fd5b60200260200101516000015181526020019081526020016000209050600060036000858581518110610d61577f4e487b7100000000000000000000000000000000000000000000000000000000600052603260045260246000fd5b60200260200101516000015181526020019081526020016000206000858581518110610db6577f4e487b7100000000000000000000000000000000000000000000000000000000600052603260045260246000fd5b602002602001015160200151815260200190815260200160002090508060040160039054906101000a900460ff16610e23576040517f08c379a0000000000000000000000000000000000000000000000000000000008152600401610e1a90612c71565b60405180910390fd5b60018160040160026101000a81548160ff0219169083151502179055508160050154848481518110610e7e577f4e487b7100000000000000000000000000000000000000000000000000000000600052603260045260246000fd5b60200260200101516020015111610ee9576001848481518110610eca577f4e487b7100000000000000000000000000000000000000000000000000000000600052603260045260246000fd5b602002602001015160200151610ee0919061304d565b82600501819055505b50508080610ef6906131df565b915050610cbf565b50600660009054906101000a900473ffffffffffffffffffffffffffffffffffffffff1673ffffffffffffffffffffffffffffffffffffffff16636a418898826040518263ffffffff1660e01b8152600401610f5a9190612bed565b600060405180830381600087803b158015610f7457600080fd5b505af1158015610f88573d6000803e3d6000fd5b5050505050565b600560009054906101000a900473ffffffffffffffffffffffffffffffffffffffff1673ffffffffffffffffffffffffffffffffffffffff163373ffffffffffffffffffffffffffffffffffffffff161461101f576040517f08c379a000000000000000000000000000000000000000000000000000000000815260040161101690612c51565b60405180910390fd5b60005b81518110156112a957600080600061103a6001611d51565b815260200190815260200160002090506110546001611d51565b8160000181905550828281518110611095577f4e487b7100000000000000000000000000000000000000000000000000000000600052603260045260246000fd5b6020026020010151602001518160010190805190602001906110b8929190611e00565b508282815181106110f2577f4e487b7100000000000000000000000000000000000000000000000000000000600052603260045260246000fd5b6020026020010151604001518160020160006101000a81548161ffff021916908361ffff160217905550828281518110611155577f4e487b7100000000000000000000000000000000000000000000000000000000600052603260045260246000fd5b602002602001015160600151816003019080519060200190611178929190611e00565b507f10764dd95868cd163cc1bdbd6f0981dba5825fcd9063cb102cd379a64533cfaf6111a46001611d51565b8484815181106111dd577f4e487b7100000000000000000000000000000000000000000000000000000000600052603260045260246000fd5b602002602001015160200151858581518110611222577f4e487b7100000000000000000000000000000000000000000000000000000000600052603260045260246000fd5b602002602001015160400151868681518110611267577f4e487b7100000000000000000000000000000000000000000000000000000000600052603260045260246000fd5b6020026020010151606001516040516112839493929190612d5a565b60405180910390a16112956001611d5f565b5080806112a1906131df565b915050611022565b5050565b600560009054906101000a900473ffffffffffffffffffffffffffffffffffffffff1673ffffffffffffffffffffffffffffffffffffffff163373ffffffffffffffffffffffffffffffffffffffff161461133d576040517f08c379a000000000000000000000000000000000000000000000000000000000815260040161133490612c51565b60405180910390fd5b80600660006101000a81548173ffffffffffffffffffffffffffffffffffffffff021916908373ffffffffffffffffffffffffffffffffffffffff16021790555050565b600560009054906101000a900473ffffffffffffffffffffffffffffffffffffffff1673ffffffffffffffffffffffffffffffffffffffff163373ffffffffffffffffffffffffffffffffffffffff1614611411576040517f08c379a000000000000000000000000000000000000000000000000000000000815260040161140890612c51565b60405180910390fd5b6000806000838152602001908152602001600020905060018160040160006101000a81548160ff02191690831515021790555060025482116114615760018261145a919061304d565b6002819055505b5050565b600560009054906101000a900473ffffffffffffffffffffffffffffffffffffffff1673ffffffffffffffffffffffffffffffffffffffff163373ffffffffffffffffffffffffffffffffffffffff16146114f5576040517f08c379a00000000000000000000000000000000000000000000000000000000081526004016114ec90612c51565b60405180910390fd5b60005b81518110156116f657600060036000848481518110611540577f4e487b7100000000000000000000000000000000000000000000000000000000600052603260045260246000fd5b60200260200101516060015181526020019081526020016000206000848481518110611595577f4e487b7100000000000000000000000000000000000000000000000000000000600052603260045260246000fd5b602002602001015160400151815260200190815260200160002090508060040160039054906101000a900460ff1615611603576040517f08c379a00000000000000000000000000000000000000000000000000000000081526004016115fa90612c31565b60405180910390fd5b82828151811061163c577f4e487b7100000000000000000000000000000000000000000000000000000000600052603260045260246000fd5b6020026020010151600001518160040160006101000a81548160ff021916908360ff16021790555082828151811061169d577f4e487b7100000000000000000000000000000000000000000000000000000000600052603260045260246000fd5b6020026020010151602001518160040160016101000a81548160ff021916908360ff16021790555060018160040160036101000a81548160ff0219169083151502179055505080806116ee906131df565b9150506114f8565b5050565b60018060000154905081565b60036020528160005260406000206020528060005260406000206000915091505080600001549080600101805461173c9061317c565b80601f01602080910402602001604051908101604052809291908181526020018280546117689061317c565b80156117b55780601f1061178a576101008083540402835291602001916117b5565b820191906000526020600020905b81548152906001019060200180831161179857829003601f168201915b5050505050908060020180546117ca9061317c565b80601f01602080910402602001604051908101604052809291908181526020018280546117f69061317c565b80156118435780601f1061181857610100808354040283529160200191611843565b820191906000526020600020905b81548152906001019060200180831161182657829003601f168201915b5050505050908060030154908060040160009054906101000a900460ff16908060040160019054906101000a900460ff16908060040160029054906101000a900460ff16908060040160039054906101000a900460ff16905088565b606060008060008481526020019081526020016000206040518060c0016040529081600082015481526020016001820180546118da9061317c565b80601f01602080910402602001604051908101604052809291908181526020018280546119069061317c565b80156119535780601f1061192857610100808354040283529160200191611953565b820191906000526020600020905b81548152906001019060200180831161193657829003601f168201915b505050505081526020016002820160009054906101000a900461ffff1661ffff1661ffff16815260200160038201805461198c9061317c565b80601f01602080910402602001604051908101604052809291908181526020018280546119b89061317c565b8015611a055780601f106119da57610100808354040283529160200191611a05565b820191906000526020600020905b8154815290600101906020018083116119e857829003601f168201915b505050505081526020016004820160009054906101000a900460ff16151515158152602001600582015481525050905060008160a00151611a5760046000878152602001908152602001600020611d51565b611a6191906130a3565b67ffffffffffffffff811115611aa0577f4e487b7100000000000000000000000000000000000000000000000000000000600052604160045260246000fd5b604051908082528060200260200182016040528015611ad957816020015b611ac6611d75565b815260200190600190039081611abe5790505b50905060008260a0015190505b611b0160046000878152602001908152602001600020611d51565b811015611d46576003600086815260200190815260200160002060008281526020019081526020016000206040518061010001604052908160008201548152602001600182018054611b529061317c565b80601f0160208091040260200160405190810160405280929190818152602001828054611b7e9061317c565b8015611bcb5780601f10611ba057610100808354040283529160200191611bcb565b820191906000526020600020905b815481529060010190602001808311611bae57829003601f168201915b50505050508152602001600282018054611be49061317c565b80601f0160208091040260200160405190810160405280929190818152602001828054611c109061317c565b8015611c5d5780601f10611c3257610100808354040283529160200191611c5d565b820191906000526020600020905b815481529060010190602001808311611c4057829003601f168201915b50505050508152602001600382015481526020016004820160009054906101000a900460ff1660ff1660ff1681526020016004820160019054906101000a900460ff1660ff1660ff1681526020016004820160029054906101000a900460ff161515151581526020016004820160039054906101000a900460ff161515151581525050828460a0015183611cf191906130a3565b81518110611d28577f4e487b7100000000000000000000000000000000000000000000000000000000600052603260045260246000fd5b60200260200101819052508080611d3e906131df565b915050611ae6565b508092505050919050565b600081600001549050919050565b6001816000016000828254019250508190555050565b60405180610100016040528060008152602001606081526020016060815260200160008152602001600060ff168152602001600060ff1681526020016000151581526020016000151581525090565b6040518060c001604052806000815260200160608152602001600061ffff16815260200160608152602001600015158152602001600081525090565b828054611e0c9061317c565b90600052602060002090601f016020900481019282611e2e5760008555611e75565b82601f10611e4757805160ff1916838001178555611e75565b82800160010185558215611e75579182015b82811115611e74578251825591602001919060010190611e59565b5b509050611e829190611e86565b5090565b5b80821115611e9f576000816000905550600101611e87565b5090565b6000611eb6611eb184612e94565b612e6f565b90508083825260208201905082856020860282011115611ed557600080fd5b60005b85811015611f1f57813567ffffffffffffffff811115611ef757600080fd5b808601611f0489826121c1565b85526020850194506020840193505050600181019050611ed8565b5050509392505050565b6000611f3c611f3784612ec0565b612e6f565b905080838252602082019050828560c0860282011115611f5b57600080fd5b60005b85811015611f8b5781611f71888261228d565b845260208401935060c08301925050600181019050611f5e565b5050509392505050565b6000611fa8611fa384612eec565b612e6f565b90508083825260208201905082856080860282011115611fc757600080fd5b60005b85811015611ff75781611fdd8882612329565b845260208401935060808301925050600181019050611fca565b5050509392505050565b600061201461200f84612f18565b612e6f565b9050808382526020820190508285602086028201111561203357600080fd5b60005b8581101561207d57813567ffffffffffffffff81111561205557600080fd5b808601612062898261239d565b85526020850194506020840193505050600181019050612036565b5050509392505050565b600061209a61209584612f44565b612e6f565b9050828152602081018484840111156120b257600080fd5b6120bd84828561313a565b509392505050565b6000813590506120d481613341565b92915050565b600082601f8301126120eb57600080fd5b81356120fb848260208601611ea3565b91505092915050565b600082601f83011261211557600080fd5b8135612125848260208601611f29565b91505092915050565b600082601f83011261213f57600080fd5b813561214f848260208601611f95565b91505092915050565b600082601f83011261216957600080fd5b8135612179848260208601612001565b91505092915050565b60008135905061219181613358565b92915050565b600082601f8301126121a857600080fd5b81356121b8848260208601612087565b91505092915050565b600060c082840312156121d357600080fd5b6121dd60c0612e6f565b905060006121ed848285016124a8565b600083015250602082013567ffffffffffffffff81111561220d57600080fd5b61221984828501612197565b602083015250604061222d84828501612493565b604083015250606082013567ffffffffffffffff81111561224d57600080fd5b61225984828501612197565b606083015250608061226d84828501612182565b60808301525060a0612281848285016124a8565b60a08301525092915050565b600060c0828403121561229f57600080fd5b6122a960c0612e6f565b905060006122b9848285016124a8565b60008301525060206122cd848285016124a8565b60208301525060406122e184828501612493565b60408301525060606122f584828501612493565b606083015250608061230984828501612493565b60808301525060a061231d848285016124a8565b60a08301525092915050565b60006080828403121561233b57600080fd5b6123456080612e6f565b90506000612355848285016124bd565b6000830152506020612369848285016124bd565b602083015250604061237d848285016124a8565b6040830152506060612391848285016124a8565b60608301525092915050565b600061010082840312156123b057600080fd5b6123bb610100612e6f565b905060006123cb848285016124a8565b600083015250602082013567ffffffffffffffff8111156123eb57600080fd5b6123f784828501612197565b602083015250604082013567ffffffffffffffff81111561241757600080fd5b61242384828501612197565b6040830152506060612437848285016124a8565b606083015250608061244b848285016124bd565b60808301525060a061245f848285016124bd565b60a08301525060c061247384828501612182565b60c08301525060e061248784828501612182565b60e08301525092915050565b6000813590506124a28161336f565b92915050565b6000813590506124b781613386565b92915050565b6000813590506124cc8161339d565b92915050565b6000602082840312156124e457600080fd5b60006124f2848285016120c5565b91505092915050565b60006020828403121561250d57600080fd5b600082013567ffffffffffffffff81111561252757600080fd5b612533848285016120da565b91505092915050565b60006020828403121561254e57600080fd5b600082013567ffffffffffffffff81111561256857600080fd5b61257484828501612104565b91505092915050565b60006020828403121561258f57600080fd5b600082013567ffffffffffffffff8111156125a957600080fd5b6125b58482850161212e565b91505092915050565b6000602082840312156125d057600080fd5b60006125de848285016124a8565b91505092915050565b600080604083850312156125fa57600080fd5b6000612608858286016124a8565b925050602083013567ffffffffffffffff81111561262557600080fd5b61263185828601612158565b9150509250929050565b6000806040838503121561264e57600080fd5b600061265c858286016124a8565b925050602061266d858286016124a8565b9150509250929050565b600061268383836128f8565b905092915050565b60006126978383612988565b60c08301905092915050565b60006126af8383612a03565b905092915050565b60006126c282612fa5565b6126cc8185612ff8565b9350836020820285016126de85612f75565b8060005b8581101561271a57848403895281516126fb8582612677565b945061270683612fd1565b925060208a019950506001810190506126e2565b50829750879550505050505092915050565b600061273782612fb0565b6127418185613009565b935061274c83612f85565b8060005b8381101561277d578151612764888261268b565b975061276f83612fde565b925050600181019050612750565b5085935050505092915050565b600061279582612fbb565b61279f818561301a565b9350836020820285016127b185612f95565b8060005b858110156127ed57848403895281516127ce85826126a3565b94506127d983612feb565b925060208a019950506001810190506127b5565b50829750879550505050505092915050565b612808816130e9565b82525050565b612817816130e9565b82525050565b600061282882612fc6565b612832818561302b565b9350612842818560208601613149565b61284b816132b5565b840191505092915050565b600061286182612fc6565b61286b818561303c565b935061287b818560208601613149565b612884816132b5565b840191505092915050565b600061289c60128361303c565b91506128a7826132c6565b602082019050919050565b60006128bf60188361303c565b91506128ca826132ef565b602082019050919050565b60006128e2600e8361303c565b91506128ed82613318565b602082019050919050565b600060c0830160008301516129106000860182612b8f565b5060208301518482036020860152612928828261281d565b915050604083015161293d6040860182612b71565b5060608301518482036060860152612955828261281d565b915050608083015161296a60808601826127ff565b5060a083015161297d60a0860182612b8f565b508091505092915050565b60c08201600082015161299e6000850182612b8f565b5060208201516129b16020850182612b8f565b5060408201516129c46040850182612b71565b5060608201516129d76060850182612b71565b5060808201516129ea6080850182612b71565b5060a08201516129fd60a0850182612b8f565b50505050565b600061010083016000830151612a1c6000860182612b8f565b5060208301518482036020860152612a34828261281d565b91505060408301518482036040860152612a4e828261281d565b9150506060830151612a636060860182612b8f565b506080830151612a766080860182612bad565b5060a0830151612a8960a0860182612bad565b5060c0830151612a9c60c08601826127ff565b5060e0830151612aaf60e08601826127ff565b508091505092915050565b600061010083016000830151612ad36000860182612b8f565b5060208301518482036020860152612aeb828261281d565b91505060408301518482036040860152612b05828261281d565b9150506060830151612b1a6060860182612b8f565b506080830151612b2d6080860182612bad565b5060a0830151612b4060a0860182612bad565b5060c0830151612b5360c08601826127ff565b5060e0830151612b6660e08601826127ff565b508091505092915050565b612b7a816130f5565b82525050565b612b89816130f5565b82525050565b612b9881613123565b82525050565b612ba781613123565b82525050565b612bb68161312d565b82525050565b612bc58161312d565b82525050565b60006020820190508181036000830152612be581846126b7565b905092915050565b60006020820190508181036000830152612c07818461272c565b905092915050565b60006020820190508181036000830152612c29818461278a565b905092915050565b60006020820190508181036000830152612c4a8161288f565b9050919050565b60006020820190508181036000830152612c6a816128b2565b9050919050565b60006020820190508181036000830152612c8a816128d5565b9050919050565b60006020820190508181036000830152612cab8184612aba565b905092915050565b6000602082019050612cc86000830184612b9e565b92915050565b600061010082019050612ce4600083018b612b9e565b8181036020830152612cf6818a612856565b90508181036040830152612d0a8189612856565b9050612d196060830188612b9e565b612d266080830187612bbc565b612d3360a0830186612bbc565b612d4060c083018561280e565b612d4d60e083018461280e565b9998505050505050505050565b6000608082019050612d6f6000830187612b9e565b8181036020830152612d818186612856565b9050612d906040830185612b80565b8181036060830152612da28184612856565b905095945050505050565b600060c082019050612dc26000830189612b9e565b8181036020830152612dd48188612856565b9050612de36040830187612b80565b8181036060830152612df58186612856565b9050612e04608083018561280e565b612e1160a0830184612b9e565b979650505050505050565b6000608082019050612e316000830187612b9e565b612e3e6020830186612b9e565b8181036040830152612e508185612856565b90508181036060830152612e648184612856565b905095945050505050565b6000612e79612e8a565b9050612e8582826131ae565b919050565b6000604051905090565b600067ffffffffffffffff821115612eaf57612eae613286565b5b602082029050602081019050919050565b600067ffffffffffffffff821115612edb57612eda613286565b5b602082029050602081019050919050565b600067ffffffffffffffff821115612f0757612f06613286565b5b602082029050602081019050919050565b600067ffffffffffffffff821115612f3357612f32613286565b5b602082029050602081019050919050565b600067ffffffffffffffff821115612f5f57612f5e613286565b5b612f68826132b5565b9050602081019050919050565b6000819050602082019050919050565b6000819050602082019050919050565b6000819050602082019050919050565b600081519050919050565b600081519050919050565b600081519050919050565b600081519050919050565b6000602082019050919050565b6000602082019050919050565b6000602082019050919050565b600082825260208201905092915050565b600082825260208201905092915050565b600082825260208201905092915050565b600082825260208201905092915050565b600082825260208201905092915050565b600061305882613123565b915061306383613123565b9250827fffffffffffffffffffffffffffffffffffffffffffffffffffffffffffffffff0382111561309857613097613228565b5b828201905092915050565b60006130ae82613123565b91506130b983613123565b9250828210156130cc576130cb613228565b5b828203905092915050565b60006130e282613103565b9050919050565b60008115159050919050565b600061ffff82169050919050565b600073ffffffffffffffffffffffffffffffffffffffff82169050919050565b6000819050919050565b600060ff82169050919050565b82818337600083830152505050565b60005b8381101561316757808201518184015260208101905061314c565b83811115613176576000848401525b50505050565b6000600282049050600182168061319457607f821691505b602082108114156131a8576131a7613257565b5b50919050565b6131b7826132b5565b810181811067ffffffffffffffff821117156131d6576131d5613286565b5b80604052505050565b60006131ea82613123565b91507fffffffffffffffffffffffffffffffffffffffffffffffffffffffffffffffff82141561321d5761321c613228565b5b600182019050919050565b7f4e487b7100000000000000000000000000000000000000000000000000000000600052601160045260246000fd5b7f4e487b7100000000000000000000000000000000000000000000000000000000600052602260045260246000fd5b7f4e487b7100000000000000000000000000000000000000000000000000000000600052604160045260246000fd5b6000601f19601f8301169050919050565b7f616c72656164792066756c6c66696c6c65640000000000000000000000000000600082015250565b7f4f6e6c7920636f6f7264696e61746f7220616c6c6f7765640000000000000000600082015250565b7f4e6f20726573756c747320796574000000000000000000000000000000000000600082015250565b61334a816130d7565b811461335557600080fd5b50565b613361816130e9565b811461336c57600080fd5b50565b613378816130f5565b811461338357600080fd5b50565b61338f81613123565b811461339a57600080fd5b50565b6133a68161312d565b81146133b157600080fd5b5056fea26469706673582212201114fc44579618e78f41ff019f0a45d3b351dedeeae9a398ee077b4ed990c1b664736f6c63430008040033",
  "linkReferences": {},
  "deployedLinkReferences": {}
}