{
  "_format": "hh-sol-artifact-1",
  "contractName": "Matches",
  "sourceName": "contracts/Matches.sol",
  "abi": [
    {
      "inputs": [],
      "stateMutability": "nonpayable",
      "type": "constructor"
    },
    {
      "anonymous": false,
      "inputs": [
        {
          "indexed": false,
          "internalType": "uint256",
          "name": "id",
          "type": "uint256"
        },
        {
          "indexed": false,
          "internalType": "string",
          "name": "name",
          "type": "string"
        },
        {
          "indexed": false,
          "internalType": "uint16",
          "name": "season",
          "type": "uint16"
        },
        {
          "indexed": false,
          "internalType": "string",
          "name": "country",
          "type": "string"
        }
      ],
      "name": "ChampionshipInserted",
      "type": "event"
    },
    {
      "anonymous": false,
      "inputs": [
        {
          "indexed": false,
          "internalType": "uint256",
          "name": "id",
          "type": "uint256"
        },
        {
          "indexed": false,
          "internalType": "uint256",
          "name": "champId",
          "type": "uint256"
        },
        {
          "indexed": false,
          "internalType": "string",
          "name": "house",
          "type": "string"
        },
        {
          "indexed": false,
          "internalType": "string",
          "name": "visitor",
          "type": "string"
        },
        {
          "indexed": false,
          "internalType": "uint256",
          "name": "start",
          "type": "uint256"
        }
      ],
      "name": "MatchInserted",
      "type": "event"
    },
    {
      "inputs": [],
      "name": "champIds",
      "outputs": [
        {
          "internalType": "uint256",
          "name": "_value",
          "type": "uint256"
        }
      ],
      "stateMutability": "view",
      "type": "function"
    },
    {
      "inputs": [
        {
          "components": [
            {
              "internalType": "uint256",
              "name": "champId",
              "type": "uint256"
            },
            {
              "internalType": "uint256",
              "name": "matchId",
              "type": "uint256"
            },
            {
              "internalType": "uint16",
              "name": "winnerMultiplier",
              "type": "uint16"
            },
            {
              "internalType": "uint16",
              "name": "scoreMultiplier",
              "type": "uint16"
            },
            {
              "internalType": "uint16",
              "name": "goalsMultiplier",
              "type": "uint16"
            },
            {
              "internalType": "uint256",
              "name": "coordinatorFee",
              "type": "uint256"
            }
          ],
          "internalType": "struct Matches.CloseMatches[]",
          "name": "matchesToClose",
          "type": "tuple[]"
        }
      ],
      "name": "closeMatches",
      "outputs": [],
      "stateMutability": "nonpayable",
      "type": "function"
    },
    {
      "inputs": [
        {
          "components": [
            {
              "internalType": "uint8",
              "name": "house",
              "type": "uint8"
            },
            {
              "internalType": "uint8",
              "name": "visitor",
              "type": "uint8"
            },
            {
              "internalType": "uint256",
              "name": "matchId",
              "type": "uint256"
            },
            {
              "internalType": "uint256",
              "name": "champId",
              "type": "uint256"
            }
          ],
          "internalType": "struct Matches.Fullfill[]",
          "name": "results",
          "type": "tuple[]"
        }
      ],
      "name": "fullfillResults",
      "outputs": [],
      "stateMutability": "nonpayable",
      "type": "function"
    },
    {
      "inputs": [
        {
          "internalType": "uint256",
          "name": "champId",
          "type": "uint256"
        },
        {
          "internalType": "uint256",
          "name": "matchId",
          "type": "uint256"
        }
      ],
      "name": "getMatch",
      "outputs": [
        {
          "components": [
            {
              "internalType": "string",
              "name": "house",
              "type": "string"
            },
            {
              "internalType": "string",
              "name": "visitor",
              "type": "string"
            },
            {
              "internalType": "uint256",
              "name": "start",
              "type": "uint256"
            },
            {
              "internalType": "uint8",
              "name": "houseGoals",
              "type": "uint8"
            },
            {
              "internalType": "uint8",
              "name": "visitorGoals",
              "type": "uint8"
            },
            {
              "internalType": "bool",
              "name": "closed",
              "type": "bool"
            },
            {
              "internalType": "bool",
              "name": "resultsFullfilled",
              "type": "bool"
            }
          ],
          "internalType": "struct Matches.Match",
          "name": "",
          "type": "tuple"
        }
      ],
      "stateMutability": "view",
      "type": "function"
    },
    {
      "inputs": [
        {
          "components": [
            {
              "internalType": "string",
              "name": "name",
              "type": "string"
            },
            {
              "internalType": "uint16",
              "name": "season",
              "type": "uint16"
            },
            {
              "internalType": "string",
              "name": "country",
              "type": "string"
            }
          ],
          "internalType": "struct Matches.Championship[]",
          "name": "champs",
          "type": "tuple[]"
        }
      ],
      "name": "insertChampionships",
      "outputs": [],
      "stateMutability": "nonpayable",
      "type": "function"
    },
    {
      "inputs": [
        {
          "internalType": "uint256",
          "name": "champId",
          "type": "uint256"
        },
        {
          "components": [
            {
              "internalType": "string",
              "name": "house",
              "type": "string"
            },
            {
              "internalType": "string",
              "name": "visitor",
              "type": "string"
            },
            {
              "internalType": "uint256",
              "name": "start",
              "type": "uint256"
            },
            {
              "internalType": "uint8",
              "name": "houseGoals",
              "type": "uint8"
            },
            {
              "internalType": "uint8",
              "name": "visitorGoals",
              "type": "uint8"
            },
            {
              "internalType": "bool",
              "name": "closed",
              "type": "bool"
            },
            {
              "internalType": "bool",
              "name": "resultsFullfilled",
              "type": "bool"
            }
          ],
          "internalType": "struct Matches.Match[]",
          "name": "matchesToInsert",
          "type": "tuple[]"
        }
      ],
      "name": "insertMatches",
      "outputs": [],
      "stateMutability": "nonpayable",
      "type": "function"
    },
    {
      "inputs": [
        {
          "internalType": "uint256",
          "name": "",
          "type": "uint256"
        }
      ],
      "name": "matchIds",
      "outputs": [
        {
          "internalType": "uint256",
          "name": "_value",
          "type": "uint256"
        }
      ],
      "stateMutability": "view",
      "type": "function"
    },
    {
      "inputs": [
        {
          "internalType": "uint256",
          "name": "",
          "type": "uint256"
        },
        {
          "internalType": "uint256",
          "name": "",
          "type": "uint256"
        }
      ],
      "name": "matches",
      "outputs": [
        {
          "internalType": "string",
          "name": "house",
          "type": "string"
        },
        {
          "internalType": "string",
          "name": "visitor",
          "type": "string"
        },
        {
          "internalType": "uint256",
          "name": "start",
          "type": "uint256"
        },
        {
          "internalType": "uint8",
          "name": "houseGoals",
          "type": "uint8"
        },
        {
          "internalType": "uint8",
          "name": "visitorGoals",
          "type": "uint8"
        },
        {
          "internalType": "bool",
          "name": "closed",
          "type": "bool"
        },
        {
          "internalType": "bool",
          "name": "resultsFullfilled",
          "type": "bool"
        }
      ],
      "stateMutability": "view",
      "type": "function"
    },
    {
      "inputs": [
        {
          "internalType": "address",
          "name": "_betContract",
          "type": "address"
        }
      ],
      "name": "setContractAdresses",
      "outputs": [],
      "stateMutability": "nonpayable",
      "type": "function"
    }
  ],
  "bytecode": "0x608060405234801561001057600080fd5b5033600360006101000a81548173ffffffffffffffffffffffffffffffffffffffff021916908373ffffffffffffffffffffffffffffffffffffffff160217905550612233806100616000396000f3fe608060405234801561001057600080fd5b50600436106100935760003560e01c806387472ac31161006657806387472ac314610130578063a11149641461014c578063c58e8bb114610168578063d67ed34d14610186578063d6b3fa14146101bc57610093565b8063107cfe51146100985780632c2702e8146100c857806336ff6a70146100e45780636a41889814610114575b600080fd5b6100b260048036038101906100ad91906118a1565b6101d8565b6040516100bf9190611cc3565b60405180910390f35b6100e260048036038101906100dd919061184d565b6103bb565b005b6100fe60048036038101906100f99190611824565b6106f9565b60405161010b9190611ce5565b60405180910390f35b61012e600480360381019061012991906117a2565b610717565b005b61014a60048036038101906101459190611738565b610976565b005b610166600480360381019061016191906117e3565b610a4a565b005b610170610cdf565b60405161017d9190611ce5565b60405180910390f35b6101a0600480360381019061019b91906118a1565b610ceb565b6040516101b39796959493929190611be6565b60405180910390f35b6101d660048036038101906101d19190611761565b610e7e565b005b6101e0611071565b60006001600085815260200190815260200160002060008481526020019081526020016000206040518060e001604052908160008201805461022190611fc5565b80601f016020809104026020016040519081016040528092919081815260200182805461024d90611fc5565b801561029a5780601f1061026f5761010080835404028352916020019161029a565b820191906000526020600020905b81548152906001019060200180831161027d57829003601f168201915b505050505081526020016001820180546102b390611fc5565b80601f01602080910402602001604051908101604052809291908181526020018280546102df90611fc5565b801561032c5780601f106103015761010080835404028352916020019161032c565b820191906000526020600020905b81548152906001019060200180831161030f57829003601f168201915b50505050508152602001600282015481526020016003820160009054906101000a900460ff1660ff1660ff1681526020016003820160019054906101000a900460ff1660ff1660ff1681526020016003820160029054906101000a900460ff161515151581526020016003820160039054906101000a900460ff16151515158152505090508091505092915050565b600360009054906101000a900473ffffffffffffffffffffffffffffffffffffffff1673ffffffffffffffffffffffffffffffffffffffff163373ffffffffffffffffffffffffffffffffffffffff161461044b576040517f08c379a000000000000000000000000000000000000000000000000000000000815260040161044290611c83565b60405180910390fd5b60005b81518110156106f45760006001600085815260200190815260200160002060006104896002600088815260200190815260200160002061104d565b815260200190815260200160002090508282815181106104d2577f4e487b7100000000000000000000000000000000000000000000000000000000600052603260045260246000fd5b602002602001015160400151816002018190555082828151811061051f577f4e487b7100000000000000000000000000000000000000000000000000000000600052603260045260246000fd5b6020026020010151600001518160000190805190602001906105429291906110b8565b5082828151811061057c577f4e487b7100000000000000000000000000000000000000000000000000000000600052603260045260246000fd5b60200260200101516020015181600101908051906020019061059f9291906110b8565b507f44d870c03b54839515bdc2bb3dc697edbb306b69e5f70a9917ea5772937dd3466105dc6002600087815260200190815260200160002061104d565b85858581518110610616577f4e487b7100000000000000000000000000000000000000000000000000000000600052603260045260246000fd5b60200260200101516000015186868151811061065b577f4e487b7100000000000000000000000000000000000000000000000000000000600052603260045260246000fd5b6020026020010151602001518787815181106106a0577f4e487b7100000000000000000000000000000000000000000000000000000000600052603260045260246000fd5b6020026020010151604001516040516106bd959493929190611d53565b60405180910390a16106e06002600086815260200190815260200160002061105b565b5080806106ec90612028565b91505061044e565b505050565b60026020528060005260406000206000915090508060000154905081565b600360009054906101000a900473ffffffffffffffffffffffffffffffffffffffff1673ffffffffffffffffffffffffffffffffffffffff163373ffffffffffffffffffffffffffffffffffffffff16146107a7576040517f08c379a000000000000000000000000000000000000000000000000000000000815260040161079e90611c83565b60405180910390fd5b60005b81518110156108e5576000600160008484815181106107f2577f4e487b7100000000000000000000000000000000000000000000000000000000600052603260045260246000fd5b60200260200101516000015181526020019081526020016000206000848481518110610847577f4e487b7100000000000000000000000000000000000000000000000000000000600052603260045260246000fd5b602002602001015160200151815260200190815260200160002090508060030160039054906101000a900460ff166108b4576040517f08c379a00000000000000000000000000000000000000000000000000000000081526004016108ab90611ca3565b60405180910390fd5b60018160030160026101000a81548160ff0219169083151502179055505080806108dd90612028565b9150506107aa565b50600460009054906101000a900473ffffffffffffffffffffffffffffffffffffffff1673ffffffffffffffffffffffffffffffffffffffff16636a418898826040518263ffffffff1660e01b81526004016109419190611bc4565b600060405180830381600087803b15801561095b57600080fd5b505af115801561096f573d6000803e3d6000fd5b5050505050565b600360009054906101000a900473ffffffffffffffffffffffffffffffffffffffff1673ffffffffffffffffffffffffffffffffffffffff163373ffffffffffffffffffffffffffffffffffffffff1614610a06576040517f08c379a00000000000000000000000000000000000000000000000000000000081526004016109fd90611c83565b60405180910390fd5b80600460006101000a81548173ffffffffffffffffffffffffffffffffffffffff021916908373ffffffffffffffffffffffffffffffffffffffff16021790555050565b600360009054906101000a900473ffffffffffffffffffffffffffffffffffffffff1673ffffffffffffffffffffffffffffffffffffffff163373ffffffffffffffffffffffffffffffffffffffff1614610ada576040517f08c379a0000000000000000000000000000000000000000000000000000000008152600401610ad190611c83565b60405180910390fd5b60005b8151811015610cdb57600060016000848481518110610b25577f4e487b7100000000000000000000000000000000000000000000000000000000600052603260045260246000fd5b60200260200101516060015181526020019081526020016000206000848481518110610b7a577f4e487b7100000000000000000000000000000000000000000000000000000000600052603260045260246000fd5b602002602001015160400151815260200190815260200160002090508060030160039054906101000a900460ff1615610be8576040517f08c379a0000000000000000000000000000000000000000000000000000000008152600401610bdf90611c63565b60405180910390fd5b828281518110610c21577f4e487b7100000000000000000000000000000000000000000000000000000000600052603260045260246000fd5b6020026020010151600001518160030160006101000a81548160ff021916908360ff160217905550828281518110610c82577f4e487b7100000000000000000000000000000000000000000000000000000000600052603260045260246000fd5b6020026020010151602001518160030160016101000a81548160ff021916908360ff16021790555060018160030160036101000a81548160ff021916908315150217905550508080610cd390612028565b915050610add565b5050565b60008060000154905081565b600160205281600052604060002060205280600052604060002060009150915050806000018054610d1b90611fc5565b80601f0160208091040260200160405190810160405280929190818152602001828054610d4790611fc5565b8015610d945780601f10610d6957610100808354040283529160200191610d94565b820191906000526020600020905b815481529060010190602001808311610d7757829003601f168201915b505050505090806001018054610da990611fc5565b80601f0160208091040260200160405190810160405280929190818152602001828054610dd590611fc5565b8015610e225780601f10610df757610100808354040283529160200191610e22565b820191906000526020600020905b815481529060010190602001808311610e0557829003601f168201915b5050505050908060020154908060030160009054906101000a900460ff16908060030160019054906101000a900460ff16908060030160029054906101000a900460ff16908060030160039054906101000a900460ff16905087565b600360009054906101000a900473ffffffffffffffffffffffffffffffffffffffff1673ffffffffffffffffffffffffffffffffffffffff163373ffffffffffffffffffffffffffffffffffffffff1614610f0e576040517f08c379a0000000000000000000000000000000000000000000000000000000008152600401610f0590611c83565b60405180910390fd5b60005b8151811015611049577f10764dd95868cd163cc1bdbd6f0981dba5825fcd9063cb102cd379a64533cfaf610f45600061104d565b838381518110610f7e577f4e487b7100000000000000000000000000000000000000000000000000000000600052603260045260246000fd5b602002602001015160000151848481518110610fc3577f4e487b7100000000000000000000000000000000000000000000000000000000600052603260045260246000fd5b602002602001015160200151858581518110611008577f4e487b7100000000000000000000000000000000000000000000000000000000600052603260045260246000fd5b6020026020010151604001516040516110249493929190611d00565b60405180910390a1611036600061105b565b808061104190612028565b915050610f11565b5050565b600081600001549050919050565b6001816000016000828254019250508190555050565b6040518060e00160405280606081526020016060815260200160008152602001600060ff168152602001600060ff1681526020016000151581526020016000151581525090565b8280546110c490611fc5565b90600052602060002090601f0160209004810192826110e6576000855561112d565b82601f106110ff57805160ff191683800117855561112d565b8280016001018555821561112d579182015b8281111561112c578251825591602001919060010190611111565b5b50905061113a919061113e565b5090565b5b8082111561115757600081600090555060010161113f565b5090565b600061116e61116984611dd9565b611db4565b9050808382526020820190508285602086028201111561118d57600080fd5b60005b858110156111d757813567ffffffffffffffff8111156111af57600080fd5b8086016111bc8982611479565b85526020850194506020840193505050600181019050611190565b5050509392505050565b60006111f46111ef84611e05565b611db4565b905080838252602082019050828560c086028201111561121357600080fd5b60005b8581101561124357816112298882611509565b845260208401935060c08301925050600181019050611216565b5050509392505050565b600061126061125b84611e31565b611db4565b9050808382526020820190508285608086028201111561127f57600080fd5b60005b858110156112af578161129588826115a5565b845260208401935060808301925050600181019050611282565b5050509392505050565b60006112cc6112c784611e5d565b611db4565b905080838252602082019050828560208602820111156112eb57600080fd5b60005b8581101561133557813567ffffffffffffffff81111561130d57600080fd5b80860161131a8982611619565b855260208501945060208401935050506001810190506112ee565b5050509392505050565b600061135261134d84611e89565b611db4565b90508281526020810184848401111561136a57600080fd5b611375848285611f83565b509392505050565b60008135905061138c8161218a565b92915050565b600082601f8301126113a357600080fd5b81356113b384826020860161115b565b91505092915050565b600082601f8301126113cd57600080fd5b81356113dd8482602086016111e1565b91505092915050565b600082601f8301126113f757600080fd5b813561140784826020860161124d565b91505092915050565b600082601f83011261142157600080fd5b81356114318482602086016112b9565b91505092915050565b600081359050611449816121a1565b92915050565b600082601f83011261146057600080fd5b813561147084826020860161133f565b91505092915050565b60006060828403121561148b57600080fd5b6114956060611db4565b9050600082013567ffffffffffffffff8111156114b157600080fd5b6114bd8482850161144f565b60008301525060206114d1848285016116f9565b602083015250604082013567ffffffffffffffff8111156114f157600080fd5b6114fd8482850161144f565b60408301525092915050565b600060c0828403121561151b57600080fd5b61152560c0611db4565b905060006115358482850161170e565b60008301525060206115498482850161170e565b602083015250604061155d848285016116f9565b6040830152506060611571848285016116f9565b6060830152506080611585848285016116f9565b60808301525060a06115998482850161170e565b60a08301525092915050565b6000608082840312156115b757600080fd5b6115c16080611db4565b905060006115d184828501611723565b60008301525060206115e584828501611723565b60208301525060406115f98482850161170e565b604083015250606061160d8482850161170e565b60608301525092915050565b600060e0828403121561162b57600080fd5b61163560e0611db4565b9050600082013567ffffffffffffffff81111561165157600080fd5b61165d8482850161144f565b600083015250602082013567ffffffffffffffff81111561167d57600080fd5b6116898482850161144f565b602083015250604061169d8482850161170e565b60408301525060606116b184828501611723565b60608301525060806116c584828501611723565b60808301525060a06116d98482850161143a565b60a08301525060c06116ed8482850161143a565b60c08301525092915050565b600081359050611708816121b8565b92915050565b60008135905061171d816121cf565b92915050565b600081359050611732816121e6565b92915050565b60006020828403121561174a57600080fd5b60006117588482850161137d565b91505092915050565b60006020828403121561177357600080fd5b600082013567ffffffffffffffff81111561178d57600080fd5b61179984828501611392565b91505092915050565b6000602082840312156117b457600080fd5b600082013567ffffffffffffffff8111156117ce57600080fd5b6117da848285016113bc565b91505092915050565b6000602082840312156117f557600080fd5b600082013567ffffffffffffffff81111561180f57600080fd5b61181b848285016113e6565b91505092915050565b60006020828403121561183657600080fd5b60006118448482850161170e565b91505092915050565b6000806040838503121561186057600080fd5b600061186e8582860161170e565b925050602083013567ffffffffffffffff81111561188b57600080fd5b61189785828601611410565b9150509250929050565b600080604083850312156118b457600080fd5b60006118c28582860161170e565b92505060206118d38582860161170e565b9150509250929050565b60006118e98383611a4c565b60c08301905092915050565b600061190082611eca565b61190a8185611eed565b935061191583611eba565b8060005b8381101561194657815161192d88826118dd565b975061193883611ee0565b925050600181019050611919565b5085935050505092915050565b61195c81611f32565b82525050565b61196b81611f32565b82525050565b600061197c82611ed5565b6119868185611efe565b9350611996818560208601611f92565b61199f816120fe565b840191505092915050565b60006119b582611ed5565b6119bf8185611f0f565b93506119cf818560208601611f92565b6119d8816120fe565b840191505092915050565b60006119f0601283611f0f565b91506119fb8261210f565b602082019050919050565b6000611a13601883611f0f565b9150611a1e82612138565b602082019050919050565b6000611a36600e83611f0f565b9150611a4182612161565b602082019050919050565b60c082016000820151611a626000850182611b88565b506020820151611a756020850182611b88565b506040820151611a886040850182611b6a565b506060820151611a9b6060850182611b6a565b506080820151611aae6080850182611b6a565b5060a0820151611ac160a0850182611b88565b50505050565b600060e0830160008301518482036000860152611ae48282611971565b91505060208301518482036020860152611afe8282611971565b9150506040830151611b136040860182611b88565b506060830151611b266060860182611ba6565b506080830151611b396080860182611ba6565b5060a0830151611b4c60a0860182611953565b5060c0830151611b5f60c0860182611953565b508091505092915050565b611b7381611f3e565b82525050565b611b8281611f3e565b82525050565b611b9181611f6c565b82525050565b611ba081611f6c565b82525050565b611baf81611f76565b82525050565b611bbe81611f76565b82525050565b60006020820190508181036000830152611bde81846118f5565b905092915050565b600060e0820190508181036000830152611c00818a6119aa565b90508181036020830152611c1481896119aa565b9050611c236040830188611b97565b611c306060830187611bb5565b611c3d6080830186611bb5565b611c4a60a0830185611962565b611c5760c0830184611962565b98975050505050505050565b60006020820190508181036000830152611c7c816119e3565b9050919050565b60006020820190508181036000830152611c9c81611a06565b9050919050565b60006020820190508181036000830152611cbc81611a29565b9050919050565b60006020820190508181036000830152611cdd8184611ac7565b905092915050565b6000602082019050611cfa6000830184611b97565b92915050565b6000608082019050611d156000830187611b97565b8181036020830152611d2781866119aa565b9050611d366040830185611b79565b8181036060830152611d4881846119aa565b905095945050505050565b600060a082019050611d686000830188611b97565b611d756020830187611b97565b8181036040830152611d8781866119aa565b90508181036060830152611d9b81856119aa565b9050611daa6080830184611b97565b9695505050505050565b6000611dbe611dcf565b9050611dca8282611ff7565b919050565b6000604051905090565b600067ffffffffffffffff821115611df457611df36120cf565b5b602082029050602081019050919050565b600067ffffffffffffffff821115611e2057611e1f6120cf565b5b602082029050602081019050919050565b600067ffffffffffffffff821115611e4c57611e4b6120cf565b5b602082029050602081019050919050565b600067ffffffffffffffff821115611e7857611e776120cf565b5b602082029050602081019050919050565b600067ffffffffffffffff821115611ea457611ea36120cf565b5b611ead826120fe565b9050602081019050919050565b6000819050602082019050919050565b600081519050919050565b600081519050919050565b6000602082019050919050565b600082825260208201905092915050565b600082825260208201905092915050565b600082825260208201905092915050565b6000611f2b82611f4c565b9050919050565b60008115159050919050565b600061ffff82169050919050565b600073ffffffffffffffffffffffffffffffffffffffff82169050919050565b6000819050919050565b600060ff82169050919050565b82818337600083830152505050565b60005b83811015611fb0578082015181840152602081019050611f95565b83811115611fbf576000848401525b50505050565b60006002820490506001821680611fdd57607f821691505b60208210811415611ff157611ff06120a0565b5b50919050565b612000826120fe565b810181811067ffffffffffffffff8211171561201f5761201e6120cf565b5b80604052505050565b600061203382611f6c565b91507fffffffffffffffffffffffffffffffffffffffffffffffffffffffffffffffff82141561206657612065612071565b5b600182019050919050565b7f4e487b7100000000000000000000000000000000000000000000000000000000600052601160045260246000fd5b7f4e487b7100000000000000000000000000000000000000000000000000000000600052602260045260246000fd5b7f4e487b7100000000000000000000000000000000000000000000000000000000600052604160045260246000fd5b6000601f19601f8301169050919050565b7f616c72656164792066756c6c66696c6c65640000000000000000000000000000600082015250565b7f4f6e6c7920636f6f7264696e61746f7220616c6c6f7765640000000000000000600082015250565b7f4e6f20726573756c747320796574000000000000000000000000000000000000600082015250565b61219381611f20565b811461219e57600080fd5b50565b6121aa81611f32565b81146121b557600080fd5b50565b6121c181611f3e565b81146121cc57600080fd5b50565b6121d881611f6c565b81146121e357600080fd5b50565b6121ef81611f76565b81146121fa57600080fd5b5056fea2646970667358221220e0c1cc96e55364c36f30b17cd79004743ca8656dce992180dbab99c2f3fd41ea64736f6c63430008040033",
  "linkReferences": {},
  "deployedLinkReferences": {}
}