{
  "_format": "hh-sol-artifact-1",
  "contractName": "ClaimBetVerifier",
  "sourceName": "contracts/ClaimBetVerifier.sol",
  "abi": [
    {
      "inputs": [
        {
          "internalType": "uint256[2]",
          "name": "a",
          "type": "uint256[2]"
        },
        {
          "internalType": "uint256[2][2]",
          "name": "b",
          "type": "uint256[2][2]"
        },
        {
          "internalType": "uint256[2]",
          "name": "c",
          "type": "uint256[2]"
        },
        {
          "internalType": "uint256[5]",
          "name": "input",
          "type": "uint256[5]"
        }
      ],
      "name": "verifyProof",
      "outputs": [
        {
          "internalType": "bool",
          "name": "r",
          "type": "bool"
        }
      ],
      "stateMutability": "view",
      "type": "function"
    }
  ],
  "bytecode": "0x608060405234801561001057600080fd5b5061251c806100206000396000f3fe608060405234801561001057600080fd5b506004361061002b5760003560e01c806334baeab914610030575b600080fd5b61004a60048036038101906100459190611ecd565b610060565b6040516100579190612013565b60405180910390f35b600061006a611bd8565b6040518060400160405280876000600281106100af577f4e487b7100000000000000000000000000000000000000000000000000000000600052603260045260246000fd5b60200201518152602001876001600281106100f3577f4e487b7100000000000000000000000000000000000000000000000000000000600052603260045260246000fd5b602002015181525081600001819052506040518060400160405280604051806040016040528088600060028110610153577f4e487b7100000000000000000000000000000000000000000000000000000000600052603260045260246000fd5b6020020151600060028110610191577f4e487b7100000000000000000000000000000000000000000000000000000000600052603260045260246000fd5b60200201518152602001886000600281106101d5577f4e487b7100000000000000000000000000000000000000000000000000000000600052603260045260246000fd5b6020020151600160028110610213577f4e487b7100000000000000000000000000000000000000000000000000000000600052603260045260246000fd5b60200201518152508152602001604051806040016040528088600160028110610265577f4e487b7100000000000000000000000000000000000000000000000000000000600052603260045260246000fd5b60200201516000600281106102a3577f4e487b7100000000000000000000000000000000000000000000000000000000600052603260045260246000fd5b60200201518152602001886001600281106102e7577f4e487b7100000000000000000000000000000000000000000000000000000000600052603260045260246000fd5b6020020151600160028110610325577f4e487b7100000000000000000000000000000000000000000000000000000000600052603260045260246000fd5b6020020151815250815250816020018190525060405180604001604052808560006002811061037d577f4e487b7100000000000000000000000000000000000000000000000000000000600052603260045260246000fd5b60200201518152602001856001600281106103c1577f4e487b7100000000000000000000000000000000000000000000000000000000600052603260045260246000fd5b602002015181525081604001819052506000600567ffffffffffffffff811115610414577f4e487b7100000000000000000000000000000000000000000000000000000000600052604160045260246000fd5b6040519080825280602002602001820160405280156104425781602001602082028036833780820191505090505b50905060005b60058110156104e75784816005811061048a577f4e487b7100000000000000000000000000000000000000000000000000000000600052603260045260246000fd5b60200201518282815181106104c8577f4e487b7100000000000000000000000000000000000000000000000000000000600052603260045260246000fd5b60200260200101818152505080806104df906122c1565b915050610448565b5060006104f48284610514565b14156105055760019250505061050c565b6000925050505b949350505050565b6000807f30644e72e131a029b85045b68181585d2833e84879b9709143e1f593f00000019050600061054461079f565b90508060800151516001865161055a9190612196565b1461059a576040517f08c379a00000000000000000000000000000000000000000000000000000000081526004016105919061202e565b60405180910390fd5b60006040518060400160405280600081526020016000815250905060005b86518110156106fb57838782815181106105fb577f4e487b7100000000000000000000000000000000000000000000000000000000600052603260045260246000fd5b602002602001015110610643576040517f08c379a000000000000000000000000000000000000000000000000000000000815260040161063a9061206e565b60405180910390fd5b6106e6826106e1856080015160018561065c9190612196565b81518110610693577f4e487b7100000000000000000000000000000000000000000000000000000000600052603260045260246000fd5b60200260200101518a85815181106106d4577f4e487b7100000000000000000000000000000000000000000000000000000000600052603260045260246000fd5b6020026020010151610e8d565b610fdc565b915080806106f3906122c1565b9150506105b8565b5061074b81836080015160008151811061073e577f4e487b7100000000000000000000000000000000000000000000000000000000600052603260045260246000fd5b6020026020010151610fdc565b905061078161075d8660000151611177565b8660200151846000015185602001518587604001518b60400151896060015161121c565b6107915760019350505050610799565b600093505050505b92915050565b6107a7611c0b565b60405180604001604052807f2d4d9aa7e302d9df41749d5507949d05dbea33fbb16c643b22f599a2be6df2e281526020017f14bedd503c37ceb061d8ec60209fe345ce89830a19230301f076caff004d19268152508160000181905250604051806040016040528060405180604001604052807f0967032fcbf776d1afc985f88877f182d38480a653f2decaa9794cbc3bf3060c81526020017f0e187847ad4c798374d0d6732bf501847dd68bc0e071241e0213bc7fc13db7ab815250815260200160405180604001604052807f304cfbd1e08a704a99f5e847d93f8c3caafddec46b7a0d379da69a4d112346a781526020017f1739c1b1a457a8c7313123d24d2f9192f896b7c63eea05a9d57f06547ad0cec88152508152508160200181905250604051806040016040528060405180604001604052807f198e9393920d483a7260bfb731fb5d25f1aa493335a9e71297e485b7aef312c281526020017f1800deef121f1e76426a00665e5c4479674322d4f75edadd46debd5cd992f6ed815250815260200160405180604001604052807f090689d0585ff075ec9e99ad690c3395bc4b313370b38ef355acdadcd122975b81526020017f12c85ea5db8c6deb4aab71808dcb408fe3d1e7690c43d37b4ce6cc0166fa7daa8152508152508160400181905250604051806040016040528060405180604001604052807f1cf2ea0245cd44cefa509f8515bd6837494660a9fabcdaa0879beb1c4d44c24381526020017f02488ba46c114db5d2b8dc79f24bc522bf248468e72994d56b9993550f9dfc46815250815260200160405180604001604052807f078bcacc1f93a8ab17f5ff5378d136a1f94e34b79533955c6fc2d610c20a869e81526020017f104bd847170ffbba39d6421494f57d26c0f8e60f471960c10a62a4d3119a34cf8152508152508160600181905250600667ffffffffffffffff811115610a94577f4e487b7100000000000000000000000000000000000000000000000000000000600052604160045260246000fd5b604051908082528060200260200182016040528015610acd57816020015b610aba611c52565b815260200190600190039081610ab25790505b50816080018190525060405180604001604052807f13b74f421e748a5aed68e2eaefa8206c9d405ebef9ac6f50dbc5368d37d9859081526020017f28b3acbcbcd28ec75d91e34fe8c5b3411fc6f9a708047e73deb6cd7654bfab188152508160800151600081518110610b69577f4e487b7100000000000000000000000000000000000000000000000000000000600052603260045260246000fd5b602002602001018190525060405180604001604052807f0c7ed598957c60ef26d96791a5b063b19297763aaf9e1c51b8b8360af1677d8781526020017f03501e5cc6a695cbfd678853843b24edc2176571972253b033a483eef6350f6b8152508160800151600181518110610c07577f4e487b7100000000000000000000000000000000000000000000000000000000600052603260045260246000fd5b602002602001018190525060405180604001604052807f27ca45e6116b9bdcb9ea492987dfb19ae7d3abd0abc476f230e050e307628cd281526020017f26f7d54fcdc2c246c71823d1fbf0d412444b8ba5e4c9c74fb14b848d3d0fcd788152508160800151600281518110610ca5577f4e487b7100000000000000000000000000000000000000000000000000000000600052603260045260246000fd5b602002602001018190525060405180604001604052807f0aac3789c1724201382e59fb278515928f63fd4c6e59d3077109831ab6c9c2df81526020017f23836b798406198789a27564de5c5bf65cfd7f6c675706f7fd2264d5e41aff9c8152508160800151600381518110610d43577f4e487b7100000000000000000000000000000000000000000000000000000000600052603260045260246000fd5b602002602001018190525060405180604001604052807f07a19ebdd53eba8de894b926c9b12852cdb1679946300f82ab78f59605d1fab381526020017f063f63150b61ab3234099c313847926c46bb381505dd9aadf80bce6182d7937e8152508160800151600481518110610de1577f4e487b7100000000000000000000000000000000000000000000000000000000600052603260045260246000fd5b602002602001018190525060405180604001604052807f132dd16a168a72231201457fa937ccd20f7c2868d7efe3e65e57f8c7342705de81526020017f1039ef2a8559aa9d86d5fb5af25f20ea11e103f9316254f6fb0139f568ce0d028152508160800151600581518110610e7f577f4e487b7100000000000000000000000000000000000000000000000000000000600052603260045260246000fd5b602002602001018190525090565b610e95611c52565b610e9d611c6c565b836000015181600060038110610edc577f4e487b7100000000000000000000000000000000000000000000000000000000600052603260045260246000fd5b602002018181525050836020015181600160038110610f24577f4e487b7100000000000000000000000000000000000000000000000000000000600052603260045260246000fd5b6020020181815250508281600260038110610f68577f4e487b7100000000000000000000000000000000000000000000000000000000600052603260045260246000fd5b602002018181525050600060608360808460076107d05a03fa90508060008114610f9157610f93565bfe5b5080610fd4576040517f08c379a0000000000000000000000000000000000000000000000000000000008152600401610fcb9061204e565b60405180910390fd5b505092915050565b610fe4611c52565b610fec611c8e565b83600001518160006004811061102b577f4e487b7100000000000000000000000000000000000000000000000000000000600052603260045260246000fd5b602002018181525050836020015181600160048110611073577f4e487b7100000000000000000000000000000000000000000000000000000000600052603260045260246000fd5b6020020181815250508260000151816002600481106110bb577f4e487b7100000000000000000000000000000000000000000000000000000000600052603260045260246000fd5b602002018181525050826020015181600360048110611103577f4e487b7100000000000000000000000000000000000000000000000000000000600052603260045260246000fd5b602002018181525050600060608360c08460066107d05a03fa9050806000811461112c5761112e565bfe5b508061116f576040517f08c379a0000000000000000000000000000000000000000000000000000000008152600401611166906120ae565b60405180910390fd5b505092915050565b61117f611c52565b60007f30644e72e131a029b85045b68181585d97816a916871ca8d3c208c16d87cfd479050600083600001511480156111bc575060008360200151145b156111e0576040518060400160405280600081526020016000815250915050611217565b604051806040016040528084600001518152602001828560200151611205919061230a565b836112109190612246565b8152509150505b919050565b600080600467ffffffffffffffff811115611260577f4e487b7100000000000000000000000000000000000000000000000000000000600052604160045260246000fd5b60405190808252806020026020018201604052801561129957816020015b611286611c52565b81526020019060019003908161127e5790505b5090506000600467ffffffffffffffff8111156112df577f4e487b7100000000000000000000000000000000000000000000000000000000600052604160045260246000fd5b60405190808252806020026020018201604052801561131857816020015b611305611cb0565b8152602001906001900390816112fd5790505b5090508a82600081518110611356577f4e487b7100000000000000000000000000000000000000000000000000000000600052603260045260246000fd5b6020026020010181905250888260018151811061139c577f4e487b7100000000000000000000000000000000000000000000000000000000600052603260045260246000fd5b602002602001018190525086826002815181106113e2577f4e487b7100000000000000000000000000000000000000000000000000000000600052603260045260246000fd5b60200260200101819052508482600381518110611428577f4e487b7100000000000000000000000000000000000000000000000000000000600052603260045260246000fd5b6020026020010181905250898160008151811061146e577f4e487b7100000000000000000000000000000000000000000000000000000000600052603260045260246000fd5b602002602001018190525087816001815181106114b4577f4e487b7100000000000000000000000000000000000000000000000000000000600052603260045260246000fd5b602002602001018190525085816002815181106114fa577f4e487b7100000000000000000000000000000000000000000000000000000000600052603260045260246000fd5b60200260200101819052508381600381518110611540577f4e487b7100000000000000000000000000000000000000000000000000000000600052603260045260246000fd5b60200260200101819052506115558282611565565b9250505098975050505050505050565b600081518351146115ab576040517f08c379a00000000000000000000000000000000000000000000000000000000081526004016115a29061208e565b60405180910390fd5b60008351905060006006826115c091906121ec565b905060008167ffffffffffffffff811115611604577f4e487b7100000000000000000000000000000000000000000000000000000000600052604160045260246000fd5b6040519080825280602002602001820160405280156116325781602001602082028036833780820191505090505b50905060005b83811015611b1757868181518110611679577f4e487b7100000000000000000000000000000000000000000000000000000000600052603260045260246000fd5b60200260200101516000015182600060068461169591906121ec565b61169f9190612196565b815181106116d6577f4e487b7100000000000000000000000000000000000000000000000000000000600052603260045260246000fd5b60200260200101818152505086818151811061171b577f4e487b7100000000000000000000000000000000000000000000000000000000600052603260045260246000fd5b60200260200101516020015182600160068461173791906121ec565b6117419190612196565b81518110611778577f4e487b7100000000000000000000000000000000000000000000000000000000600052603260045260246000fd5b6020026020010181815250508581815181106117bd577f4e487b7100000000000000000000000000000000000000000000000000000000600052603260045260246000fd5b602002602001015160000151600060028110611802577f4e487b7100000000000000000000000000000000000000000000000000000000600052603260045260246000fd5b602002015182600260068461181791906121ec565b6118219190612196565b81518110611858577f4e487b7100000000000000000000000000000000000000000000000000000000600052603260045260246000fd5b60200260200101818152505085818151811061189d577f4e487b7100000000000000000000000000000000000000000000000000000000600052603260045260246000fd5b6020026020010151600001516001600281106118e2577f4e487b7100000000000000000000000000000000000000000000000000000000600052603260045260246000fd5b60200201518260036006846118f791906121ec565b6119019190612196565b81518110611938577f4e487b7100000000000000000000000000000000000000000000000000000000600052603260045260246000fd5b60200260200101818152505085818151811061197d577f4e487b7100000000000000000000000000000000000000000000000000000000600052603260045260246000fd5b6020026020010151602001516000600281106119c2577f4e487b7100000000000000000000000000000000000000000000000000000000600052603260045260246000fd5b60200201518260046006846119d791906121ec565b6119e19190612196565b81518110611a18577f4e487b7100000000000000000000000000000000000000000000000000000000600052603260045260246000fd5b602002602001018181525050858181518110611a5d577f4e487b7100000000000000000000000000000000000000000000000000000000600052603260045260246000fd5b602002602001015160200151600160028110611aa2577f4e487b7100000000000000000000000000000000000000000000000000000000600052603260045260246000fd5b6020020151826005600684611ab791906121ec565b611ac19190612196565b81518110611af8577f4e487b7100000000000000000000000000000000000000000000000000000000600052603260045260246000fd5b6020026020010181815250508080611b0f906122c1565b915050611638565b50611b20611cd6565b6000602082602086026020860160086107d05a03fa90508060008114611b4557611b47565bfe5b5080611b88576040517f08c379a0000000000000000000000000000000000000000000000000000000008152600401611b7f906120ce565b60405180910390fd5b600082600060018110611bc4577f4e487b7100000000000000000000000000000000000000000000000000000000600052603260045260246000fd5b602002015114159550505050505092915050565b6040518060600160405280611beb611c52565b8152602001611bf8611cb0565b8152602001611c05611c52565b81525090565b6040518060a00160405280611c1e611c52565b8152602001611c2b611cb0565b8152602001611c38611cb0565b8152602001611c45611cb0565b8152602001606081525090565b604051806040016040528060008152602001600081525090565b6040518060600160405280600390602082028036833780820191505090505090565b6040518060800160405280600490602082028036833780820191505090505090565b6040518060400160405280611cc3611cf8565b8152602001611cd0611cf8565b81525090565b6040518060200160405280600190602082028036833780820191505090505090565b6040518060400160405280600290602082028036833780820191505090505090565b6000611d2d611d2884612113565b6120ee565b90508082856040860282011115611d4357600080fd5b60005b85811015611d735781611d598882611e6a565b845260208401935060408301925050600181019050611d46565b5050509392505050565b6000611d90611d8b84612139565b6120ee565b90508082856020860282011115611da657600080fd5b60005b85811015611dd65781611dbc8882611eb8565b845260208401935060208301925050600181019050611da9565b5050509392505050565b6000611df3611dee8461215f565b6120ee565b90508082856020860282011115611e0957600080fd5b60005b85811015611e395781611e1f8882611eb8565b845260208401935060208301925050600181019050611e0c565b5050509392505050565b600082601f830112611e5457600080fd5b6002611e61848285611d1a565b91505092915050565b600082601f830112611e7b57600080fd5b6002611e88848285611d7d565b91505092915050565b600082601f830112611ea257600080fd5b6005611eaf848285611de0565b91505092915050565b600081359050611ec7816124cf565b92915050565b6000806000806101a08587031215611ee457600080fd5b6000611ef287828801611e6a565b9450506040611f0387828801611e43565b93505060c0611f1487828801611e6a565b925050610100611f2687828801611e91565b91505092959194509250565b611f3b8161227a565b82525050565b6000611f4e601283612185565b9150611f59826123d9565b602082019050919050565b6000611f71601283612185565b9150611f7c82612402565b602082019050919050565b6000611f94601f83612185565b9150611f9f8261242b565b602082019050919050565b6000611fb7601683612185565b9150611fc282612454565b602082019050919050565b6000611fda601283612185565b9150611fe58261247d565b602082019050919050565b6000611ffd601583612185565b9150612008826124a6565b602082019050919050565b60006020820190506120286000830184611f32565b92915050565b6000602082019050818103600083015261204781611f41565b9050919050565b6000602082019050818103600083015261206781611f64565b9050919050565b6000602082019050818103600083015261208781611f87565b9050919050565b600060208201905081810360008301526120a781611faa565b9050919050565b600060208201905081810360008301526120c781611fcd565b9050919050565b600060208201905081810360008301526120e781611ff0565b9050919050565b60006120f8612109565b90506121048282612290565b919050565b6000604051905090565b600067ffffffffffffffff82111561212e5761212d612399565b5b602082029050919050565b600067ffffffffffffffff82111561215457612153612399565b5b602082029050919050565b600067ffffffffffffffff82111561217a57612179612399565b5b602082029050919050565b600082825260208201905092915050565b60006121a182612286565b91506121ac83612286565b9250827fffffffffffffffffffffffffffffffffffffffffffffffffffffffffffffffff038211156121e1576121e061233b565b5b828201905092915050565b60006121f782612286565b915061220283612286565b9250817fffffffffffffffffffffffffffffffffffffffffffffffffffffffffffffffff048311821515161561223b5761223a61233b565b5b828202905092915050565b600061225182612286565b915061225c83612286565b92508282101561226f5761226e61233b565b5b828203905092915050565b60008115159050919050565b6000819050919050565b612299826123c8565b810181811067ffffffffffffffff821117156122b8576122b7612399565b5b80604052505050565b60006122cc82612286565b91507fffffffffffffffffffffffffffffffffffffffffffffffffffffffffffffffff8214156122ff576122fe61233b565b5b600182019050919050565b600061231582612286565b915061232083612286565b9250826123305761232f61236a565b5b828206905092915050565b7f4e487b7100000000000000000000000000000000000000000000000000000000600052601160045260246000fd5b7f4e487b7100000000000000000000000000000000000000000000000000000000600052601260045260246000fd5b7f4e487b7100000000000000000000000000000000000000000000000000000000600052604160045260246000fd5b6000601f19601f8301169050919050565b7f76657269666965722d6261642d696e7075740000000000000000000000000000600082015250565b7f70616972696e672d6d756c2d6661696c65640000000000000000000000000000600082015250565b7f76657269666965722d6774652d736e61726b2d7363616c61722d6669656c6400600082015250565b7f70616972696e672d6c656e677468732d6661696c656400000000000000000000600082015250565b7f70616972696e672d6164642d6661696c65640000000000000000000000000000600082015250565b7f70616972696e672d6f70636f64652d6661696c65640000000000000000000000600082015250565b6124d881612286565b81146124e357600080fd5b5056fea2646970667358221220e9cd3e8e0b72abd6bfa28e5cfa9a20ac4cf80167d843193c039340d55a02289e64736f6c63430008040033",
  "linkReferences": {},
  "deployedLinkReferences": {}
}