{
  "_format": "hh-sol-artifact-1",
  "contractName": "Bets",
  "sourceName": "contracts/Bets.sol",
  "abi": [
    {
      "inputs": [
        {
          "internalType": "address",
          "name": "_claimBetVerifier",
          "type": "address"
        }
      ],
      "stateMutability": "nonpayable",
      "type": "constructor"
    },
    {
      "anonymous": false,
      "inputs": [
        {
          "indexed": false,
          "internalType": "uint256",
          "name": "id",
          "type": "uint256"
        },
        {
          "indexed": false,
          "internalType": "uint256",
          "name": "matchId",
          "type": "uint256"
        },
        {
          "indexed": false,
          "internalType": "uint256",
          "name": "better",
          "type": "uint256"
        },
        {
          "indexed": false,
          "internalType": "string",
          "name": "betType",
          "type": "string"
        }
      ],
      "name": "BetCreated",
      "type": "event"
    },
    {
      "anonymous": false,
      "inputs": [
        {
          "indexed": false,
          "internalType": "uint256",
          "name": "id",
          "type": "uint256"
        },
        {
          "indexed": false,
          "internalType": "uint16",
          "name": "season",
          "type": "uint16"
        },
        {
          "indexed": false,
          "internalType": "uint8",
          "name": "round",
          "type": "uint8"
        },
        {
          "indexed": false,
          "internalType": "string",
          "name": "house",
          "type": "string"
        },
        {
          "indexed": false,
          "internalType": "string",
          "name": "visitor",
          "type": "string"
        }
      ],
      "name": "MatchCreated",
      "type": "event"
    },
    {
      "inputs": [],
      "name": "_matchIds",
      "outputs": [
        {
          "internalType": "uint256",
          "name": "_value",
          "type": "uint256"
        }
      ],
      "stateMutability": "view",
      "type": "function"
    },
    {
      "inputs": [],
      "name": "firstOpenIndex",
      "outputs": [
        {
          "internalType": "uint256",
          "name": "",
          "type": "uint256"
        }
      ],
      "stateMutability": "view",
      "type": "function"
    },
    {
      "inputs": [
        {
          "internalType": "uint256",
          "name": "matchId",
          "type": "uint256"
        }
      ],
      "name": "getMatch",
      "outputs": [
        {
          "internalType": "uint8",
          "name": "",
          "type": "uint8"
        },
        {
          "internalType": "uint16",
          "name": "",
          "type": "uint16"
        },
        {
          "internalType": "string",
          "name": "",
          "type": "string"
        },
        {
          "internalType": "string",
          "name": "",
          "type": "string"
        },
        {
          "internalType": "uint256",
          "name": "",
          "type": "uint256"
        },
        {
          "internalType": "bool",
          "name": "",
          "type": "bool"
        }
      ],
      "stateMutability": "view",
      "type": "function"
    },
    {
      "inputs": [],
      "name": "getMatches",
      "outputs": [
        {
          "components": [
            {
              "internalType": "uint256",
              "name": "id",
              "type": "uint256"
            },
            {
              "internalType": "uint8",
              "name": "round",
              "type": "uint8"
            },
            {
              "internalType": "uint16",
              "name": "season",
              "type": "uint16"
            },
            {
              "internalType": "string",
              "name": "house",
              "type": "string"
            },
            {
              "internalType": "string",
              "name": "visitor",
              "type": "string"
            },
            {
              "internalType": "uint256",
              "name": "limitTime",
              "type": "uint256"
            },
            {
              "internalType": "bool",
              "name": "closed",
              "type": "bool"
            }
          ],
          "internalType": "struct Bets.MatchFields[]",
          "name": "",
          "type": "tuple[]"
        }
      ],
      "stateMutability": "view",
      "type": "function"
    }
  ],
  "bytecode": "0x608060405234801561001057600080fd5b50604051610da8380380610da88339818101604052810190610032919061008e565b80600360006101000a81548173ffffffffffffffffffffffffffffffffffffffff021916908373ffffffffffffffffffffffffffffffffffffffff16021790555050610100565b600081519050610088816100e9565b92915050565b6000602082840312156100a057600080fd5b60006100ae84828501610079565b91505092915050565b60006100c2826100c9565b9050919050565b600073ffffffffffffffffffffffffffffffffffffffff82169050919050565b6100f2816100b7565b81146100fd57600080fd5b50565b610c998061010f6000396000f3fe608060405234801561001057600080fd5b506004361061004c5760003560e01c806312c194ae146100515780632c70120e1461006f5780633d092b3d1461008d578063bcea60dd146100c2575b600080fd5b6100596100e0565b60405161006691906109da565b60405180910390f35b6100776100e6565b60405161008491906109b8565b60405180910390f35b6100a760048036038101906100a29190610779565b610573565b6040516100b9969594939291906109f5565b60405180910390f35b6100ca610704565b6040516100d791906109da565b60405180910390f35b60025481565b606060006002546100f76001610710565b6101019190610aca565b67ffffffffffffffff811115610140577f4e487b7100000000000000000000000000000000000000000000000000000000600052604160045260246000fd5b60405190808252806020026020018201604052801561017957816020015b61016661071e565b81526020019060019003908161015e5790505b509050600060025490505b61018e6001610710565b81101561056b576000808281526020019081526020016000206000015482600254836101ba9190610aca565b815181106101f1577f4e487b7100000000000000000000000000000000000000000000000000000000600052603260045260246000fd5b6020026020010151600001818152505060008082815260200190815260200160002060010160009054906101000a900460ff1682600254836102339190610aca565b8151811061026a577f4e487b7100000000000000000000000000000000000000000000000000000000600052603260045260246000fd5b60200260200101516020019060ff16908160ff168152505060008082815260200190815260200160002060010160019054906101000a900461ffff1682600254836102b59190610aca565b815181106102ec577f4e487b7100000000000000000000000000000000000000000000000000000000600052603260045260246000fd5b60200260200101516040019061ffff16908161ffff1681525050600080828152602001908152602001600020600201805461032690610b62565b80601f016020809104026020016040519081016040528092919081815260200182805461035290610b62565b801561039f5780601f106103745761010080835404028352916020019161039f565b820191906000526020600020905b81548152906001019060200180831161038257829003601f168201915b505050505082600254836103b39190610aca565b815181106103ea577f4e487b7100000000000000000000000000000000000000000000000000000000600052603260045260246000fd5b602002602001015160600181905250600080828152602001908152602001600020600301805461041990610b62565b80601f016020809104026020016040519081016040528092919081815260200182805461044590610b62565b80156104925780601f1061046757610100808354040283529160200191610492565b820191906000526020600020905b81548152906001019060200180831161047557829003601f168201915b505050505082600254836104a69190610aca565b815181106104dd577f4e487b7100000000000000000000000000000000000000000000000000000000600052603260045260246000fd5b6020026020010151608001819052506000808281526020019081526020016000206004015482600254836105119190610aca565b81518110610548577f4e487b7100000000000000000000000000000000000000000000000000000000600052603260045260246000fd5b602002602001015160a0018181525050808061056390610b94565b915050610184565b508091505090565b600080606080600080600080600089815260200190815260200160002090508060010160009054906101000a900460ff168160010160019054906101000a900461ffff16826002018360030184600401548560050160009054906101000a900460ff168380546105e290610b62565b80601f016020809104026020016040519081016040528092919081815260200182805461060e90610b62565b801561065b5780601f106106305761010080835404028352916020019161065b565b820191906000526020600020905b81548152906001019060200180831161063e57829003601f168201915b5050505050935082805461066e90610b62565b80601f016020809104026020016040519081016040528092919081815260200182805461069a90610b62565b80156106e75780601f106106bc576101008083540402835291602001916106e7565b820191906000526020600020905b8154815290600101906020018083116106ca57829003601f168201915b505050505092509650965096509650965096505091939550919395565b60018060000154905081565b600081600001549050919050565b6040518060e0016040528060008152602001600060ff168152602001600061ffff1681526020016060815260200160608152602001600081526020016000151581525090565b60008135905061077381610c4c565b92915050565b60006020828403121561078b57600080fd5b600061079984828501610764565b91505092915050565b60006107ae83836108bb565b905092915050565b60006107c182610a74565b6107cb8185610a97565b9350836020820285016107dd85610a64565b8060005b8581101561081957848403895281516107fa85826107a2565b945061080583610a8a565b925060208a019950506001810190506107e1565b50829750879550505050505092915050565b61083481610afe565b82525050565b61084381610afe565b82525050565b600061085482610a7f565b61085e8185610aa8565b935061086e818560208601610b2f565b61087781610c3b565b840191505092915050565b600061088d82610a7f565b6108978185610ab9565b93506108a7818560208601610b2f565b6108b081610c3b565b840191505092915050565b600060e0830160008301516108d3600086018261097c565b5060208301516108e6602086018261099a565b5060408301516108f9604086018261095e565b50606083015184820360608601526109118282610849565b9150506080830151848203608086015261092b8282610849565b91505060a083015161094060a086018261097c565b5060c083015161095360c086018261082b565b508091505092915050565b61096781610b0a565b82525050565b61097681610b0a565b82525050565b61098581610b18565b82525050565b61099481610b18565b82525050565b6109a381610b22565b82525050565b6109b281610b22565b82525050565b600060208201905081810360008301526109d281846107b6565b905092915050565b60006020820190506109ef600083018461098b565b92915050565b600060c082019050610a0a60008301896109a9565b610a17602083018861096d565b8181036040830152610a298187610882565b90508181036060830152610a3d8186610882565b9050610a4c608083018561098b565b610a5960a083018461083a565b979650505050505050565b6000819050602082019050919050565b600081519050919050565b600081519050919050565b6000602082019050919050565b600082825260208201905092915050565b600082825260208201905092915050565b600082825260208201905092915050565b6000610ad582610b18565b9150610ae083610b18565b925082821015610af357610af2610bdd565b5b828203905092915050565b60008115159050919050565b600061ffff82169050919050565b6000819050919050565b600060ff82169050919050565b60005b83811015610b4d578082015181840152602081019050610b32565b83811115610b5c576000848401525b50505050565b60006002820490506001821680610b7a57607f821691505b60208210811415610b8e57610b8d610c0c565b5b50919050565b6000610b9f82610b18565b91507fffffffffffffffffffffffffffffffffffffffffffffffffffffffffffffffff821415610bd257610bd1610bdd565b5b600182019050919050565b7f4e487b7100000000000000000000000000000000000000000000000000000000600052601160045260246000fd5b7f4e487b7100000000000000000000000000000000000000000000000000000000600052602260045260246000fd5b6000601f19601f8301169050919050565b610c5581610b18565b8114610c6057600080fd5b5056fea2646970667358221220d26e2255fcfe110e306a2d93042791e254f606f0df7bcfe04eb756e1c8a5c08464736f6c63430008040033",
  "linkReferences": {},
  "deployedLinkReferences": {}
}