{
  "_format": "hh-sol-artifact-1",
  "contractName": "Bets",
  "sourceName": "contracts/Bets.sol",
  "abi": [
    {
      "inputs": [
        {
          "internalType": "address",
          "name": "_betVerifier",
          "type": "address"
        },
        {
          "internalType": "address",
          "name": "_claimBetVerifier",
          "type": "address"
        },
        {
          "internalType": "address",
          "name": "_mainContract",
          "type": "address"
        },
        {
          "internalType": "address",
          "name": "_matchContract",
          "type": "address"
        }
      ],
      "stateMutability": "nonpayable",
      "type": "constructor"
    },
    {
      "anonymous": false,
      "inputs": [
        {
          "indexed": false,
          "internalType": "uint256",
          "name": "id",
          "type": "uint256"
        },
        {
          "indexed": false,
          "internalType": "uint256",
          "name": "champId",
          "type": "uint256"
        },
        {
          "indexed": false,
          "internalType": "uint256",
          "name": "matchId",
          "type": "uint256"
        },
        {
          "indexed": false,
          "internalType": "uint256",
          "name": "better",
          "type": "uint256"
        },
        {
          "indexed": false,
          "internalType": "string",
          "name": "betType",
          "type": "string"
        }
      ],
      "name": "BetInserted",
      "type": "event"
    },
    {
      "inputs": [
        {
          "internalType": "uint256[2]",
          "name": "a",
          "type": "uint256[2]"
        },
        {
          "internalType": "uint256[2][2]",
          "name": "b",
          "type": "uint256[2][2]"
        },
        {
          "internalType": "uint256[2]",
          "name": "c",
          "type": "uint256[2]"
        },
        {
          "internalType": "uint256[4]",
          "name": "input",
          "type": "uint256[4]"
        },
        {
          "internalType": "uint256",
          "name": "champId",
          "type": "uint256"
        },
        {
          "internalType": "uint256",
          "name": "matchId",
          "type": "uint256"
        },
        {
          "internalType": "bool",
          "name": "house",
          "type": "bool"
        },
        {
          "internalType": "uint8",
          "name": "goals",
          "type": "uint8"
        }
      ],
      "name": "betGoals",
      "outputs": [],
      "stateMutability": "nonpayable",
      "type": "function"
    },
    {
      "inputs": [
        {
          "internalType": "uint256[2]",
          "name": "a",
          "type": "uint256[2]"
        },
        {
          "internalType": "uint256[2][2]",
          "name": "b",
          "type": "uint256[2][2]"
        },
        {
          "internalType": "uint256[2]",
          "name": "c",
          "type": "uint256[2]"
        },
        {
          "internalType": "uint256[4]",
          "name": "input",
          "type": "uint256[4]"
        },
        {
          "internalType": "uint256",
          "name": "champId",
          "type": "uint256"
        },
        {
          "internalType": "uint256",
          "name": "matchId",
          "type": "uint256"
        },
        {
          "internalType": "uint8",
          "name": "house",
          "type": "uint8"
        },
        {
          "internalType": "uint8",
          "name": "visitor",
          "type": "uint8"
        }
      ],
      "name": "betScore",
      "outputs": [],
      "stateMutability": "nonpayable",
      "type": "function"
    },
    {
      "inputs": [
        {
          "internalType": "uint256[2]",
          "name": "a",
          "type": "uint256[2]"
        },
        {
          "internalType": "uint256[2][2]",
          "name": "b",
          "type": "uint256[2][2]"
        },
        {
          "internalType": "uint256[2]",
          "name": "c",
          "type": "uint256[2]"
        },
        {
          "internalType": "uint256[4]",
          "name": "input",
          "type": "uint256[4]"
        },
        {
          "internalType": "uint256",
          "name": "champId",
          "type": "uint256"
        },
        {
          "internalType": "uint256",
          "name": "matchId",
          "type": "uint256"
        },
        {
          "internalType": "bool",
          "name": "house",
          "type": "bool"
        }
      ],
      "name": "betWinner",
      "outputs": [],
      "stateMutability": "nonpayable",
      "type": "function"
    },
    {
      "inputs": [
        {
          "internalType": "uint256[2]",
          "name": "a",
          "type": "uint256[2]"
        },
        {
          "internalType": "uint256[2][2]",
          "name": "b",
          "type": "uint256[2][2]"
        },
        {
          "internalType": "uint256[2]",
          "name": "c",
          "type": "uint256[2]"
        },
        {
          "internalType": "uint256[5]",
          "name": "input",
          "type": "uint256[5]"
        },
        {
          "internalType": "uint256",
          "name": "champId",
          "type": "uint256"
        },
        {
          "internalType": "uint256",
          "name": "matchId",
          "type": "uint256"
        },
        {
          "internalType": "uint256",
          "name": "betId",
          "type": "uint256"
        }
      ],
      "name": "claimGoalsBet",
      "outputs": [],
      "stateMutability": "nonpayable",
      "type": "function"
    },
    {
      "inputs": [
        {
          "internalType": "uint256[2]",
          "name": "a",
          "type": "uint256[2]"
        },
        {
          "internalType": "uint256[2][2]",
          "name": "b",
          "type": "uint256[2][2]"
        },
        {
          "internalType": "uint256[2]",
          "name": "c",
          "type": "uint256[2]"
        },
        {
          "internalType": "uint256[5]",
          "name": "input",
          "type": "uint256[5]"
        },
        {
          "internalType": "uint256",
          "name": "champId",
          "type": "uint256"
        },
        {
          "internalType": "uint256",
          "name": "matchId",
          "type": "uint256"
        },
        {
          "internalType": "uint256",
          "name": "betId",
          "type": "uint256"
        }
      ],
      "name": "claimScoreBet",
      "outputs": [],
      "stateMutability": "nonpayable",
      "type": "function"
    },
    {
      "inputs": [
        {
          "internalType": "uint256[2]",
          "name": "a",
          "type": "uint256[2]"
        },
        {
          "internalType": "uint256[2][2]",
          "name": "b",
          "type": "uint256[2][2]"
        },
        {
          "internalType": "uint256[2]",
          "name": "c",
          "type": "uint256[2]"
        },
        {
          "internalType": "uint256[5]",
          "name": "input",
          "type": "uint256[5]"
        },
        {
          "internalType": "uint256",
          "name": "champId",
          "type": "uint256"
        },
        {
          "internalType": "uint256",
          "name": "matchId",
          "type": "uint256"
        },
        {
          "internalType": "uint256",
          "name": "betId",
          "type": "uint256"
        }
      ],
      "name": "claimWinnerBet",
      "outputs": [],
      "stateMutability": "nonpayable",
      "type": "function"
    },
    {
      "inputs": [
        {
          "components": [
            {
              "internalType": "uint256",
              "name": "champId",
              "type": "uint256"
            },
            {
              "internalType": "uint256",
              "name": "matchId",
              "type": "uint256"
            },
            {
              "internalType": "uint16",
              "name": "winnerMultiplier",
              "type": "uint16"
            },
            {
              "internalType": "uint16",
              "name": "scoreMultiplier",
              "type": "uint16"
            },
            {
              "internalType": "uint16",
              "name": "goalsMultiplier",
              "type": "uint16"
            },
            {
              "internalType": "uint256",
              "name": "coordinatorFee",
              "type": "uint256"
            }
          ],
          "internalType": "struct Dto.CloseMatches[]",
          "name": "matchesToClose",
          "type": "tuple[]"
        }
      ],
      "name": "closeMatches",
      "outputs": [],
      "stateMutability": "nonpayable",
      "type": "function"
    },
    {
      "inputs": [
        {
          "internalType": "uint256",
          "name": "champId",
          "type": "uint256"
        },
        {
          "internalType": "uint256",
          "name": "matchId",
          "type": "uint256"
        },
        {
          "internalType": "uint256",
          "name": "betId",
          "type": "uint256"
        }
      ],
      "name": "getGoalsBet",
      "outputs": [
        {
          "components": [
            {
              "internalType": "bool",
              "name": "house",
              "type": "bool"
            },
            {
              "internalType": "uint8",
              "name": "goals",
              "type": "uint8"
            },
            {
              "internalType": "uint256",
              "name": "better",
              "type": "uint256"
            },
            {
              "internalType": "uint256",
              "name": "value",
              "type": "uint256"
            },
            {
              "internalType": "bool",
              "name": "claimed",
              "type": "bool"
            }
          ],
          "internalType": "struct Bets.GoalsBet",
          "name": "",
          "type": "tuple"
        }
      ],
      "stateMutability": "view",
      "type": "function"
    },
    {
      "inputs": [
        {
          "internalType": "uint256",
          "name": "champId",
          "type": "uint256"
        },
        {
          "internalType": "uint256",
          "name": "matchId",
          "type": "uint256"
        }
      ],
      "name": "getMatchBets",
      "outputs": [
        {
          "components": [
            {
              "components": [
                {
                  "internalType": "bool",
                  "name": "house",
                  "type": "bool"
                },
                {
                  "internalType": "uint256",
                  "name": "better",
                  "type": "uint256"
                },
                {
                  "internalType": "uint256",
                  "name": "value",
                  "type": "uint256"
                },
                {
                  "internalType": "bool",
                  "name": "claimed",
                  "type": "bool"
                }
              ],
              "internalType": "struct Bets.WinnerBet[]",
              "name": "winner",
              "type": "tuple[]"
            },
            {
              "components": [
                {
                  "internalType": "uint8",
                  "name": "house",
                  "type": "uint8"
                },
                {
                  "internalType": "uint8",
                  "name": "visitor",
                  "type": "uint8"
                },
                {
                  "internalType": "uint256",
                  "name": "better",
                  "type": "uint256"
                },
                {
                  "internalType": "uint256",
                  "name": "value",
                  "type": "uint256"
                },
                {
                  "internalType": "bool",
                  "name": "claimed",
                  "type": "bool"
                }
              ],
              "internalType": "struct Bets.ScoreBet[]",
              "name": "score",
              "type": "tuple[]"
            },
            {
              "components": [
                {
                  "internalType": "bool",
                  "name": "house",
                  "type": "bool"
                },
                {
                  "internalType": "uint8",
                  "name": "goals",
                  "type": "uint8"
                },
                {
                  "internalType": "uint256",
                  "name": "better",
                  "type": "uint256"
                },
                {
                  "internalType": "uint256",
                  "name": "value",
                  "type": "uint256"
                },
                {
                  "internalType": "bool",
                  "name": "claimed",
                  "type": "bool"
                }
              ],
              "internalType": "struct Bets.GoalsBet[]",
              "name": "goals",
              "type": "tuple[]"
            }
          ],
          "internalType": "struct Bets.MatchBetsValues",
          "name": "",
          "type": "tuple"
        }
      ],
      "stateMutability": "view",
      "type": "function"
    },
    {
      "inputs": [
        {
          "internalType": "uint256",
          "name": "champId",
          "type": "uint256"
        },
        {
          "internalType": "uint256",
          "name": "matchId",
          "type": "uint256"
        },
        {
          "internalType": "uint256",
          "name": "betId",
          "type": "uint256"
        }
      ],
      "name": "getScoreBet",
      "outputs": [
        {
          "components": [
            {
              "internalType": "uint8",
              "name": "house",
              "type": "uint8"
            },
            {
              "internalType": "uint8",
              "name": "visitor",
              "type": "uint8"
            },
            {
              "internalType": "uint256",
              "name": "better",
              "type": "uint256"
            },
            {
              "internalType": "uint256",
              "name": "value",
              "type": "uint256"
            },
            {
              "internalType": "bool",
              "name": "claimed",
              "type": "bool"
            }
          ],
          "internalType": "struct Bets.ScoreBet",
          "name": "",
          "type": "tuple"
        }
      ],
      "stateMutability": "view",
      "type": "function"
    },
    {
      "inputs": [
        {
          "internalType": "uint256",
          "name": "champId",
          "type": "uint256"
        },
        {
          "internalType": "uint256",
          "name": "matchId",
          "type": "uint256"
        },
        {
          "internalType": "uint256",
          "name": "betId",
          "type": "uint256"
        }
      ],
      "name": "getWinnerBet",
      "outputs": [
        {
          "components": [
            {
              "internalType": "bool",
              "name": "house",
              "type": "bool"
            },
            {
              "internalType": "uint256",
              "name": "better",
              "type": "uint256"
            },
            {
              "internalType": "uint256",
              "name": "value",
              "type": "uint256"
            },
            {
              "internalType": "bool",
              "name": "claimed",
              "type": "bool"
            }
          ],
          "internalType": "struct Bets.WinnerBet",
          "name": "",
          "type": "tuple"
        }
      ],
      "stateMutability": "view",
      "type": "function"
    }
  ],
  "bytecode": "0x60806040523480156200001157600080fd5b50604051620046a6380380620046a683398181016040528101906200003791906200019d565b83600260006101000a81548173ffffffffffffffffffffffffffffffffffffffff021916908373ffffffffffffffffffffffffffffffffffffffff16021790555082600160006101000a81548173ffffffffffffffffffffffffffffffffffffffff021916908373ffffffffffffffffffffffffffffffffffffffff16021790555081600360006101000a81548173ffffffffffffffffffffffffffffffffffffffff021916908373ffffffffffffffffffffffffffffffffffffffff16021790555080600460006101000a81548173ffffffffffffffffffffffffffffffffffffffff021916908373ffffffffffffffffffffffffffffffffffffffff16021790555080600560006101000a81548173ffffffffffffffffffffffffffffffffffffffff021916908373ffffffffffffffffffffffffffffffffffffffff1602179055505050505062000257565b60008151905062000197816200023d565b92915050565b60008060008060808587031215620001b457600080fd5b6000620001c48782880162000186565b9450506020620001d78782880162000186565b9350506040620001ea8782880162000186565b9250506060620001fd8782880162000186565b91505092959194509250565b600062000216826200021d565b9050919050565b600073ffffffffffffffffffffffffffffffffffffffff82169050919050565b620002488162000209565b81146200025457600080fd5b50565b61443f80620002676000396000f3fe608060405234801561001057600080fd5b50600436106100a95760003560e01c80633dc7dd46116100715780633dc7dd46146101625780636a41889814610192578063aa86b69d146101ae578063c46b070e146101ca578063ce660013146101e6578063e665fd7614610216576100a9565b80631222060f146100ae57806313caa659146100ca5780631f698520146100e657806325385432146101025780632585ed3114610132575b600080fd5b6100c860048036038101906100c391906130ec565b610232565b005b6100e460048036038101906100df91906130ec565b6107fc565b005b61010060048036038101906100fb9190612f7e565b610dac565b005b61011c60048036038101906101179190613235565b610fc4565b6040516101299190613bf9565b60405180910390f35b61014c600480360381019061014791906131f9565b611089565b6040516101599190613bd7565b60405180910390f35b61017c60048036038101906101779190613235565b611654565b6040516101899190613c14565b60405180910390f35b6101ac60048036038101906101a79190612e9a565b6116fa565b005b6101c860048036038101906101c39190613035565b611a70565b005b6101e460048036038101906101df9190612edb565b611c8a565b005b61020060048036038101906101fb9190613235565b611e77565b60405161020d9190613bbc565b60405180910390f35b610230600480360381019061022b91906130ec565b611f3a565b005b6000600160009054906101000a900473ffffffffffffffffffffffffffffffffffffffff1673ffffffffffffffffffffffffffffffffffffffff166334baeab9898989896040518563ffffffff1660e01b81526004016102959493929190613a75565b60206040518083038186803b1580156102ad57600080fd5b505afa1580156102c1573d6000803e3d6000fd5b505050506040513d601f19601f820116820180604052508101906102e5919061318f565b905080610327576040517f08c379a000000000000000000000000000000000000000000000000000000000815260040161031e90613b7c565b60405180910390fd5b6000600460009054906101000a900473ffffffffffffffffffffffffffffffffffffffff1673ffffffffffffffffffffffffffffffffffffffff1663107cfe5186866040518363ffffffff1660e01b8152600401610386929190613c4a565b60006040518083038186803b15801561039e57600080fd5b505afa1580156103b2573d6000803e3d6000fd5b505050506040513d6000823e3d601f19601f820116820180604052508101906103db91906131b8565b90508060c00151610421576040517f08c379a000000000000000000000000000000000000000000000000000000000815260040161041890613b5c565b60405180910390fd5b600080600087815260200190815260200160002060008681526020019081526020016000206000019050600081600001600086815260200190815260200160002090508060030160009054906101000a900460ff16156104b6576040517f08c379a00000000000000000000000000000000000000000000000000000000081526004016104ad90613b3c565b60405180910390fd5b876000600581106104f0577f4e487b7100000000000000000000000000000000000000000000000000000000600052603260045260246000fd5b6020020151816001015414801561054857508760036005811061053c577f4e487b7100000000000000000000000000000000000000000000000000000000600052603260045260246000fd5b60200201518160020154145b80156105ab575087600460058110610589577f4e487b7100000000000000000000000000000000000000000000000000000000600052603260045260246000fd5b602002015161ffff168260020160009054906101000a900461ffff1661ffff16145b6105ea576040517f08c379a00000000000000000000000000000000000000000000000000000000081526004016105e190613b1c565b60405180910390fd5b8060000160009054906101000a900460ff16801561061557508260a0015160ff16836080015160ff16115b8061064857508060000160009054906101000a900460ff1615801561064757508260a0015160ff16836080015160ff16105b5b610687576040517f08c379a000000000000000000000000000000000000000000000000000000000815260040161067e90613abc565b60405180910390fd5b60018160030160006101000a81548160ff021916908315150217905550600360009054906101000a900473ffffffffffffffffffffffffffffffffffffffff1673ffffffffffffffffffffffffffffffffffffffff16639ced35f28960006005811061071c577f4e487b7100000000000000000000000000000000000000000000000000000000600052603260045260246000fd5b60200201518a60016005811061075b577f4e487b7100000000000000000000000000000000000000000000000000000000600052603260045260246000fd5b60200201518b60026005811061079a577f4e487b7100000000000000000000000000000000000000000000000000000000600052603260045260246000fd5b60200201516040518463ffffffff1660e01b81526004016107bd93929190613c73565b600060405180830381600087803b1580156107d757600080fd5b505af11580156107eb573d6000803e3d6000fd5b505050505050505050505050505050565b6000600160009054906101000a900473ffffffffffffffffffffffffffffffffffffffff1673ffffffffffffffffffffffffffffffffffffffff166334baeab9898989896040518563ffffffff1660e01b815260040161085f9493929190613a75565b60206040518083038186803b15801561087757600080fd5b505afa15801561088b573d6000803e3d6000fd5b505050506040513d601f19601f820116820180604052508101906108af919061318f565b9050806108f1576040517f08c379a00000000000000000000000000000000000000000000000000000000081526004016108e890613b7c565b60405180910390fd5b6000600460009054906101000a900473ffffffffffffffffffffffffffffffffffffffff1673ffffffffffffffffffffffffffffffffffffffff1663107cfe5186866040518363ffffffff1660e01b8152600401610950929190613c4a565b60006040518083038186803b15801561096857600080fd5b505afa15801561097c573d6000803e3d6000fd5b505050506040513d6000823e3d601f19601f820116820180604052508101906109a591906131b8565b90508060c001516109eb576040517f08c379a00000000000000000000000000000000000000000000000000000000081526004016109e290613b5c565b60405180910390fd5b600080600087815260200190815260200160002060008681526020019081526020016000206003019050600081600001600086815260200190815260200160002090508060030160009054906101000a900460ff1615610a80576040517f08c379a0000000000000000000000000000000000000000000000000000000008152600401610a7790613b3c565b60405180910390fd5b87600060058110610aba577f4e487b7100000000000000000000000000000000000000000000000000000000600052603260045260246000fd5b60200201518160010154148015610b12575087600360058110610b06577f4e487b7100000000000000000000000000000000000000000000000000000000600052603260045260246000fd5b60200201518160020154145b8015610b75575087600460058110610b53577f4e487b7100000000000000000000000000000000000000000000000000000000600052603260045260246000fd5b602002015161ffff168260020160009054906101000a900461ffff1661ffff16145b610bb4576040517f08c379a0000000000000000000000000000000000000000000000000000000008152600401610bab90613b1c565b60405180910390fd5b826080015160ff168160000160009054906101000a900460ff1660ff16148015610bf857508260a0015160ff168160000160019054906101000a900460ff1660ff16145b610c37576040517f08c379a0000000000000000000000000000000000000000000000000000000008152600401610c2e90613abc565b60405180910390fd5b60018160030160006101000a81548160ff021916908315150217905550600360009054906101000a900473ffffffffffffffffffffffffffffffffffffffff1673ffffffffffffffffffffffffffffffffffffffff16639ced35f289600060058110610ccc577f4e487b7100000000000000000000000000000000000000000000000000000000600052603260045260246000fd5b60200201518a600160058110610d0b577f4e487b7100000000000000000000000000000000000000000000000000000000600052603260045260246000fd5b60200201518b600260058110610d4a577f4e487b7100000000000000000000000000000000000000000000000000000000600052603260045260246000fd5b60200201516040518463ffffffff1660e01b8152600401610d6d93929190613c73565b600060405180830381600087803b158015610d8757600080fd5b505af1158015610d9b573d6000803e3d6000fd5b505050505050505050505050505050565b610dba88888888888861251d565b6000806000868152602001908152602001600020600085815260200190815260200160002060060190506040518060a0016040528084151581526020018360ff16815260200187600060048110610e3a577f4e487b7100000000000000000000000000000000000000000000000000000000600052603260045260246000fd5b6020020151815260200187600360048110610e7e577f4e487b7100000000000000000000000000000000000000000000000000000000600052603260045260246000fd5b6020020151815260200160001515815250816000016000610ea184600101612871565b815260200190815260200160002060008201518160000160006101000a81548160ff02191690831515021790555060208201518160000160016101000a81548160ff021916908360ff160217905550604082015181600101556060820151816002015560808201518160030160006101000a81548160ff0219169083151502179055509050507f5a09b93169b70f52b5fef188ef3328958c0c736fdbad0ef5ba0a5ecf0a397666610f5482600101612871565b868689600060048110610f90577f4e487b7100000000000000000000000000000000000000000000000000000000600052603260045260246000fd5b6020020151604051610fa59493929190613d02565b60405180910390a1610fb98160010161287f565b505050505050505050565b610fcc612895565b6000806000868152602001908152602001600020600085815260200190815260200160002060030160000160008481526020019081526020016000206040518060a00160405290816000820160009054906101000a900460ff1660ff1660ff1681526020016000820160019054906101000a900460ff1660ff1660ff16815260200160018201548152602001600282015481526020016003820160009054906101000a900460ff1615151515815250509050809150509392505050565b6110916128cc565b6000600460009054906101000a900473ffffffffffffffffffffffffffffffffffffffff1673ffffffffffffffffffffffffffffffffffffffff1663107cfe5185856040518363ffffffff1660e01b81526004016110f0929190613c4a565b60006040518083038186803b15801561110857600080fd5b505afa15801561111c573d6000803e3d6000fd5b505050506040513d6000823e3d601f19601f8201168201806040525081019061114591906131b8565b90508060e0015161118b576040517f08c379a000000000000000000000000000000000000000000000000000000000815260040161118290613b9c565b60405180910390fd5b60008060008681526020019081526020016000206000858152602001908152602001600020905060006111c382600001600101612871565b67ffffffffffffffff811115611202577f4e487b7100000000000000000000000000000000000000000000000000000000600052604160045260246000fd5b60405190808252806020026020018201604052801561123b57816020015b6112286128ed565b8152602001906001900390816112205790505b509050600061124f83600601600101612871565b67ffffffffffffffff81111561128e577f4e487b7100000000000000000000000000000000000000000000000000000000600052604160045260246000fd5b6040519080825280602002602001820160405280156112c757816020015b6112b4612919565b8152602001906001900390816112ac5790505b50905060006112db84600301600101612871565b67ffffffffffffffff81111561131a577f4e487b7100000000000000000000000000000000000000000000000000000000600052604160045260246000fd5b60405190808252806020026020018201604052801561135357816020015b611340612895565b8152602001906001900390816113385790505b50905060005b61136885600001600101612871565b811015611433578460000160000160008281526020019081526020016000206040518060800160405290816000820160009054906101000a900460ff1615151515815260200160018201548152602001600282015481526020016003820160009054906101000a900460ff161515151581525050848281518110611415577f4e487b7100000000000000000000000000000000000000000000000000000000600052603260045260246000fd5b6020026020010181905250808061142b90614132565b915050611359565b5060005b61144685600601600101612871565b81101561152e578460060160000160008281526020019081526020016000206040518060a00160405290816000820160009054906101000a900460ff161515151581526020016000820160019054906101000a900460ff1660ff1660ff16815260200160018201548152602001600282015481526020016003820160009054906101000a900460ff161515151581525050838281518110611510577f4e487b7100000000000000000000000000000000000000000000000000000000600052603260045260246000fd5b6020026020010181905250808061152690614132565b915050611437565b5060005b61154185600301600101612871565b81101561162b578460030160000160008281526020019081526020016000206040518060a00160405290816000820160009054906101000a900460ff1660ff1660ff1681526020016000820160019054906101000a900460ff1660ff1660ff16815260200160018201548152602001600282015481526020016003820160009054906101000a900460ff16151515158152505082828151811061160d577f4e487b7100000000000000000000000000000000000000000000000000000000600052603260045260246000fd5b6020026020010181905250808061162390614132565b915050611532565b506040518060600160405280848152602001828152602001838152509550505050505092915050565b61165c6128ed565b6000806000868152602001908152602001600020600085815260200190815260200160002060000160000160008481526020019081526020016000206040518060800160405290816000820160009054906101000a900460ff1615151515815260200160018201548152602001600282015481526020016003820160009054906101000a900460ff1615151515815250509050809150509392505050565b600560009054906101000a900473ffffffffffffffffffffffffffffffffffffffff1673ffffffffffffffffffffffffffffffffffffffff163373ffffffffffffffffffffffffffffffffffffffff161461178a576040517f08c379a000000000000000000000000000000000000000000000000000000000815260040161178190613afc565b60405180910390fd5b6000805b82518110156119de5760008060008584815181106117d5577f4e487b7100000000000000000000000000000000000000000000000000000000600052603260045260246000fd5b6020026020010151600001518152602001908152602001600020600085848151811061182a577f4e487b7100000000000000000000000000000000000000000000000000000000600052603260045260246000fd5b6020026020010151602001518152602001908152602001600020905083828151811061187f577f4e487b7100000000000000000000000000000000000000000000000000000000600052603260045260246000fd5b6020026020010151604001518160000160020160006101000a81548161ffff021916908361ffff1602179055508382815181106118e5577f4e487b7100000000000000000000000000000000000000000000000000000000600052603260045260246000fd5b6020026020010151606001518160030160020160006101000a81548161ffff021916908361ffff16021790555083828151811061194b577f4e487b7100000000000000000000000000000000000000000000000000000000600052603260045260246000fd5b6020026020010151608001518160060160020160006101000a81548161ffff021916908361ffff1602179055508382815181106119b1577f4e487b7100000000000000000000000000000000000000000000000000000000600052603260045260246000fd5b602002602001015160a00151836119c89190614047565b92505080806119d690614132565b91505061178e565b50600360009054906101000a900473ffffffffffffffffffffffffffffffffffffffff1673ffffffffffffffffffffffffffffffffffffffff1663650168c3826040518263ffffffff1660e01b8152600401611a3a9190613c2f565b600060405180830381600087803b158015611a5457600080fd5b505af1158015611a68573d6000803e3d6000fd5b505050505050565b611a7e88888888888861251d565b6000806000868152602001908152602001600020600085815260200190815260200160002060030190506040518060a001604052808460ff1681526020018360ff16815260200187600060048110611aff577f4e487b7100000000000000000000000000000000000000000000000000000000600052603260045260246000fd5b6020020151815260200187600360048110611b43577f4e487b7100000000000000000000000000000000000000000000000000000000600052603260045260246000fd5b6020020151815260200160001515815250816000016000611b6684600101612871565b815260200190815260200160002060008201518160000160006101000a81548160ff021916908360ff16021790555060208201518160000160016101000a81548160ff021916908360ff160217905550604082015181600101556060820151816002015560808201518160030160006101000a81548160ff0219169083151502179055509050507f5a09b93169b70f52b5fef188ef3328958c0c736fdbad0ef5ba0a5ecf0a397666611c1a82600101612871565b868689600060048110611c56577f4e487b7100000000000000000000000000000000000000000000000000000000600052603260045260246000fd5b6020020151604051611c6b9493929190613caa565b60405180910390a1611c7f8160010161287f565b505050505050505050565b611c9887878787878761251d565b6000806000858152602001908152602001600020600084815260200190815260200160002060000190506040518060800160405280831515815260200186600060048110611d0f577f4e487b7100000000000000000000000000000000000000000000000000000000600052603260045260246000fd5b6020020151815260200186600360048110611d53577f4e487b7100000000000000000000000000000000000000000000000000000000600052603260045260246000fd5b6020020151815260200160001515815250816000016000611d7684600101612871565b815260200190815260200160002060008201518160000160006101000a81548160ff021916908315150217905550602082015181600101556040820151816002015560608201518160030160006101000a81548160ff0219169083151502179055509050507f5a09b93169b70f52b5fef188ef3328958c0c736fdbad0ef5ba0a5ecf0a397666611e0882600101612871565b858588600060048110611e44577f4e487b7100000000000000000000000000000000000000000000000000000000600052603260045260246000fd5b6020020151604051611e599493929190613d5a565b60405180910390a1611e6d8160010161287f565b5050505050505050565b611e7f612919565b6000806000868152602001908152602001600020600085815260200190815260200160002060060160000160008481526020019081526020016000206040518060a00160405290816000820160009054906101000a900460ff161515151581526020016000820160019054906101000a900460ff1660ff1660ff16815260200160018201548152602001600282015481526020016003820160009054906101000a900460ff1615151515815250509050809150509392505050565b6000600160009054906101000a900473ffffffffffffffffffffffffffffffffffffffff1673ffffffffffffffffffffffffffffffffffffffff166334baeab9898989896040518563ffffffff1660e01b8152600401611f9d9493929190613a75565b60206040518083038186803b158015611fb557600080fd5b505afa158015611fc9573d6000803e3d6000fd5b505050506040513d601f19601f82011682018060405250810190611fed919061318f565b90508061202f576040517f08c379a000000000000000000000000000000000000000000000000000000000815260040161202690613b7c565b60405180910390fd5b6000600460009054906101000a900473ffffffffffffffffffffffffffffffffffffffff1673ffffffffffffffffffffffffffffffffffffffff1663107cfe5186866040518363ffffffff1660e01b815260040161208e929190613c4a565b60006040518083038186803b1580156120a657600080fd5b505afa1580156120ba573d6000803e3d6000fd5b505050506040513d6000823e3d601f19601f820116820180604052508101906120e391906131b8565b90508060c00151612129576040517f08c379a000000000000000000000000000000000000000000000000000000000815260040161212090613b5c565b60405180910390fd5b600080600087815260200190815260200160002060008681526020019081526020016000206006019050600081600001600086815260200190815260200160002090508060030160009054906101000a900460ff16156121be576040517f08c379a00000000000000000000000000000000000000000000000000000000081526004016121b590613b3c565b60405180910390fd5b876000600581106121f8577f4e487b7100000000000000000000000000000000000000000000000000000000600052603260045260246000fd5b60200201518160010154148015612250575087600360058110612244577f4e487b7100000000000000000000000000000000000000000000000000000000600052603260045260246000fd5b60200201518160020154145b80156122b3575087600460058110612291577f4e487b7100000000000000000000000000000000000000000000000000000000600052603260045260246000fd5b602002015161ffff168260020160009054906101000a900461ffff1661ffff16145b6122f2576040517f08c379a00000000000000000000000000000000000000000000000000000000081526004016122e990613b1c565b60405180910390fd5b8060000160009054906101000a900460ff16801561232a57508060000160019054906101000a900460ff1660ff16836080015160ff16145b8061236957508060000160009054906101000a900460ff16801561236857508060000160019054906101000a900460ff1660ff168360a0015160ff16145b5b6123a8576040517f08c379a000000000000000000000000000000000000000000000000000000000815260040161239f90613abc565b60405180910390fd5b60018160030160006101000a81548160ff021916908315150217905550600360009054906101000a900473ffffffffffffffffffffffffffffffffffffffff1673ffffffffffffffffffffffffffffffffffffffff16639ced35f28960006005811061243d577f4e487b7100000000000000000000000000000000000000000000000000000000600052603260045260246000fd5b60200201518a60016005811061247c577f4e487b7100000000000000000000000000000000000000000000000000000000600052603260045260246000fd5b60200201518b6002600581106124bb577f4e487b7100000000000000000000000000000000000000000000000000000000600052603260045260246000fd5b60200201516040518463ffffffff1660e01b81526004016124de93929190613c73565b600060405180830381600087803b1580156124f857600080fd5b505af115801561250c573d6000803e3d6000fd5b505050505050505050505050505050565b6000600260009054906101000a900473ffffffffffffffffffffffffffffffffffffffff1673ffffffffffffffffffffffffffffffffffffffff16635fe8c13b888888886040518563ffffffff1660e01b81526004016125809493929190613a2e565b60206040518083038186803b15801561259857600080fd5b505afa1580156125ac573d6000803e3d6000fd5b505050506040513d601f19601f820116820180604052508101906125d0919061318f565b905080612612576040517f08c379a000000000000000000000000000000000000000000000000000000000815260040161260990613b7c565b60405180910390fd5b6000600460009054906101000a900473ffffffffffffffffffffffffffffffffffffffff1673ffffffffffffffffffffffffffffffffffffffff1663107cfe5185856040518363ffffffff1660e01b8152600401612671929190613c4a565b60006040518083038186803b15801561268957600080fd5b505afa15801561269d573d6000803e3d6000fd5b505050506040513d6000823e3d601f19601f820116820180604052508101906126c691906131b8565b90508060600151610e10426126db9190614047565b111561271c576040517f08c379a000000000000000000000000000000000000000000000000000000000815260040161271390613adc565b60405180910390fd5b600360009054906101000a900473ffffffffffffffffffffffffffffffffffffffff1673ffffffffffffffffffffffffffffffffffffffff16639ced35f286600060048110612794577f4e487b7100000000000000000000000000000000000000000000000000000000600052603260045260246000fd5b6020020151876001600481106127d3577f4e487b7100000000000000000000000000000000000000000000000000000000600052603260045260246000fd5b602002015188600260048110612812577f4e487b7100000000000000000000000000000000000000000000000000000000600052603260045260246000fd5b60200201516040518463ffffffff1660e01b815260040161283593929190613c73565b600060405180830381600087803b15801561284f57600080fd5b505af1158015612863573d6000803e3d6000fd5b505050505050505050505050565b600081600001549050919050565b6001816000016000828254019250508190555050565b6040518060a00160405280600060ff168152602001600060ff16815260200160008152602001600081526020016000151581525090565b60405180606001604052806060815260200160608152602001606081525090565b604051806080016040528060001515815260200160008152602001600081526020016000151581525090565b6040518060a00160405280600015158152602001600060ff16815260200160008152602001600081526020016000151581525090565b600061296261295d84613dd7565b613db2565b9050808285604086028201111561297857600080fd5b60005b858110156129a8578161298e8882612bd6565b84526020840193506040830192505060018101905061297b565b5050509392505050565b60006129c56129c084613dfd565b613db2565b905080838252602082019050828560c08602820111156129e457600080fd5b60005b85811015612a1457816129fa8882612c9f565b845260208401935060c083019250506001810190506129e7565b5050509392505050565b6000612a31612a2c84613e29565b613db2565b90508082856020860282011115612a4757600080fd5b60005b85811015612a775781612a5d8882612e46565b845260208401935060208301925050600181019050612a4a565b5050509392505050565b6000612a94612a8f84613e4f565b613db2565b90508082856020860282011115612aaa57600080fd5b60005b85811015612ada5781612ac08882612e46565b845260208401935060208301925050600181019050612aad565b5050509392505050565b6000612af7612af284613e75565b613db2565b90508082856020860282011115612b0d57600080fd5b60005b85811015612b3d5781612b238882612e46565b845260208401935060208301925050600181019050612b10565b5050509392505050565b6000612b5a612b5584613e9b565b613db2565b905082815260208101848484011115612b7257600080fd5b612b7d8482856140ce565b509392505050565b600082601f830112612b9657600080fd5b6002612ba384828561294f565b91505092915050565b600082601f830112612bbd57600080fd5b8135612bcd8482602086016129b2565b91505092915050565b600082601f830112612be757600080fd5b6002612bf4848285612a1e565b91505092915050565b600082601f830112612c0e57600080fd5b6004612c1b848285612a81565b91505092915050565b600082601f830112612c3557600080fd5b6005612c42848285612ae4565b91505092915050565b600081359050612c5a816143ad565b92915050565b600081519050612c6f816143ad565b92915050565b600082601f830112612c8657600080fd5b8151612c96848260208601612b47565b91505092915050565b600060c08284031215612cb157600080fd5b612cbb60c0613db2565b90506000612ccb84828501612e46565b6000830152506020612cdf84828501612e46565b6020830152506040612cf384828501612e31565b6040830152506060612d0784828501612e31565b6060830152506080612d1b84828501612e31565b60808301525060a0612d2f84828501612e46565b60a08301525092915050565b60006101008284031215612d4e57600080fd5b612d59610100613db2565b90506000612d6984828501612e5b565b600083015250602082015167ffffffffffffffff811115612d8957600080fd5b612d9584828501612c75565b602083015250604082015167ffffffffffffffff811115612db557600080fd5b612dc184828501612c75565b6040830152506060612dd584828501612e5b565b6060830152506080612de984828501612e85565b60808301525060a0612dfd84828501612e85565b60a08301525060c0612e1184828501612c60565b60c08301525060e0612e2584828501612c60565b60e08301525092915050565b600081359050612e40816143c4565b92915050565b600081359050612e55816143db565b92915050565b600081519050612e6a816143db565b92915050565b600081359050612e7f816143f2565b92915050565b600081519050612e94816143f2565b92915050565b600060208284031215612eac57600080fd5b600082013567ffffffffffffffff811115612ec657600080fd5b612ed284828501612bac565b91505092915050565b60008060008060008060006101e0888a031215612ef757600080fd5b6000612f058a828b01612bd6565b9750506040612f168a828b01612b85565b96505060c0612f278a828b01612bd6565b955050610100612f398a828b01612bfd565b945050610180612f4b8a828b01612e46565b9350506101a0612f5d8a828b01612e46565b9250506101c0612f6f8a828b01612c4b565b91505092959891949750929550565b600080600080600080600080610200898b031215612f9b57600080fd5b6000612fa98b828c01612bd6565b9850506040612fba8b828c01612b85565b97505060c0612fcb8b828c01612bd6565b965050610100612fdd8b828c01612bfd565b955050610180612fef8b828c01612e46565b9450506101a06130018b828c01612e46565b9350506101c06130138b828c01612c4b565b9250506101e06130258b828c01612e70565b9150509295985092959890939650565b600080600080600080600080610200898b03121561305257600080fd5b60006130608b828c01612bd6565b98505060406130718b828c01612b85565b97505060c06130828b828c01612bd6565b9650506101006130948b828c01612bfd565b9550506101806130a68b828c01612e46565b9450506101a06130b88b828c01612e46565b9350506101c06130ca8b828c01612e70565b9250506101e06130dc8b828c01612e70565b9150509295985092959890939650565b6000806000806000806000610200888a03121561310857600080fd5b60006131168a828b01612bd6565b97505060406131278a828b01612b85565b96505060c06131388a828b01612bd6565b95505061010061314a8a828b01612c24565b9450506101a061315c8a828b01612e46565b9350506101c061316e8a828b01612e46565b9250506101e06131808a828b01612e46565b91505092959891949750929550565b6000602082840312156131a157600080fd5b60006131af84828501612c60565b91505092915050565b6000602082840312156131ca57600080fd5b600082015167ffffffffffffffff8111156131e457600080fd5b6131f084828501612d3b565b91505092915050565b6000806040838503121561320c57600080fd5b600061321a85828601612e46565b925050602061322b85828601612e46565b9150509250929050565b60008060006060848603121561324a57600080fd5b600061325886828701612e46565b935050602061326986828701612e46565b925050604061327a86828701612e46565b9150509250925092565b6000613290838361346d565b60408301905092915050565b60006132a88383613759565b60a08301905092915050565b60006132c08383613887565b60a08301905092915050565b60006132d88383613957565b60808301905092915050565b60006132f08383613a01565b60208301905092915050565b61330581613f24565b61330f8184613fcc565b925061331a82613ecc565b8060005b8381101561334b5781516133328782613284565b965061333d83613f71565b92505060018101905061331e565b505050505050565b600061335e82613f2f565b6133688185613fd7565b935061337383613ed6565b8060005b838110156133a457815161338b888261329c565b975061339683613f7e565b925050600181019050613377565b5085935050505092915050565b60006133bc82613f3a565b6133c68185613fe8565b93506133d183613ee6565b8060005b838110156134025781516133e988826132b4565b97506133f483613f8b565b9250506001810190506133d5565b5085935050505092915050565b600061341a82613f45565b6134248185613ff9565b935061342f83613ef6565b8060005b8381101561346057815161344788826132cc565b975061345283613f98565b925050600181019050613433565b5085935050505092915050565b61347681613f50565b613480818461400a565b925061348b82613f06565b8060005b838110156134bc5781516134a387826132e4565b96506134ae83613fa5565b92505060018101905061348f565b505050505050565b6134cd81613f50565b6134d78184614015565b92506134e282613f06565b8060005b838110156135135781516134fa87826132e4565b965061350583613fa5565b9250506001810190506134e6565b505050505050565b61352481613f5b565b61352e8184614020565b925061353982613f10565b8060005b8381101561356a57815161355187826132e4565b965061355c83613fb2565b92505060018101905061353d565b505050505050565b61357b81613f66565b613585818461402b565b925061359082613f1a565b8060005b838110156135c15781516135a887826132e4565b96506135b383613fbf565b925050600181019050613594565b505050505050565b6135d28161409d565b82525050565b60006135e5600b83614036565b91506135f0826141ea565b602082019050919050565b6000613608601c83614036565b915061361382614213565b602082019050919050565b600061362b601383614036565b91506136368261423c565b602082019050919050565b600061364e600583614036565b915061365982614265565b602082019050919050565b6000613671600b83614036565b915061367c8261428e565b602082019050919050565b6000613694600f83614036565b915061369f826142b7565b602082019050919050565b60006136b7602083614036565b91506136c2826142e0565b602082019050919050565b60006136da600583614036565b91506136e582614309565b602082019050919050565b60006136fd600d83614036565b915061370882614332565b602082019050919050565b6000613720600683614036565b915061372b8261435b565b602082019050919050565b6000613743600e83614036565b915061374e82614384565b602082019050919050565b60a08201600082015161376f60008501826135c9565b5060208201516137826020850182613a1f565b5060408201516137956040850182613a01565b5060608201516137a86060850182613a01565b5060808201516137bb60808501826135c9565b50505050565b60a0820160008201516137d760008501826135c9565b5060208201516137ea6020850182613a1f565b5060408201516137fd6040850182613a01565b5060608201516138106060850182613a01565b50608082015161382360808501826135c9565b50505050565b60006060830160008301518482036000860152613846828261340f565b9150506020830151848203602086015261386082826133b1565b9150506040830151848203604086015261387a8282613353565b9150508091505092915050565b60a08201600082015161389d6000850182613a1f565b5060208201516138b06020850182613a1f565b5060408201516138c36040850182613a01565b5060608201516138d66060850182613a01565b5060808201516138e960808501826135c9565b50505050565b60a0820160008201516139056000850182613a1f565b5060208201516139186020850182613a1f565b50604082015161392b6040850182613a01565b50606082015161393e6060850182613a01565b50608082015161395160808501826135c9565b50505050565b60808201600082015161396d60008501826135c9565b5060208201516139806020850182613a01565b5060408201516139936040850182613a01565b5060608201516139a660608501826135c9565b50505050565b6080820160008201516139c260008501826135c9565b5060208201516139d56020850182613a01565b5060408201516139e86040850182613a01565b5060608201516139fb60608501826135c9565b50505050565b613a0a816140b7565b82525050565b613a19816140b7565b82525050565b613a28816140c1565b82525050565b600061018082019050613a4460008301876134c4565b613a5160408301866132fc565b613a5e60c08301856134c4565b613a6c61010083018461351b565b95945050505050565b60006101a082019050613a8b60008301876134c4565b613a9860408301866132fc565b613aa560c08301856134c4565b613ab3610100830184613572565b95945050505050565b60006020820190508181036000830152613ad5816135d8565b9050919050565b60006020820190508181036000830152613af5816135fb565b9050919050565b60006020820190508181036000830152613b158161361e565b9050919050565b60006020820190508181036000830152613b3581613664565b9050919050565b60006020820190508181036000830152613b5581613687565b9050919050565b60006020820190508181036000830152613b75816136aa565b9050919050565b60006020820190508181036000830152613b95816136f0565b9050919050565b60006020820190508181036000830152613bb581613736565b9050919050565b600060a082019050613bd160008301846137c1565b92915050565b60006020820190508181036000830152613bf18184613829565b905092915050565b600060a082019050613c0e60008301846138ef565b92915050565b6000608082019050613c2960008301846139ac565b92915050565b6000602082019050613c446000830184613a10565b92915050565b6000604082019050613c5f6000830185613a10565b613c6c6020830184613a10565b9392505050565b6000606082019050613c886000830186613a10565b613c956020830185613a10565b613ca26040830184613a10565b949350505050565b600060a082019050613cbf6000830187613a10565b613ccc6020830186613a10565b613cd96040830185613a10565b613ce66060830184613a10565b8181036080830152613cf781613641565b905095945050505050565b600060a082019050613d176000830187613a10565b613d246020830186613a10565b613d316040830185613a10565b613d3e6060830184613a10565b8181036080830152613d4f816136cd565b905095945050505050565b600060a082019050613d6f6000830187613a10565b613d7c6020830186613a10565b613d896040830185613a10565b613d966060830184613a10565b8181036080830152613da781613713565b905095945050505050565b6000613dbc613dcd565b9050613dc88282614101565b919050565b6000604051905090565b600067ffffffffffffffff821115613df257613df16141aa565b5b602082029050919050565b600067ffffffffffffffff821115613e1857613e176141aa565b5b602082029050602081019050919050565b600067ffffffffffffffff821115613e4457613e436141aa565b5b602082029050919050565b600067ffffffffffffffff821115613e6a57613e696141aa565b5b602082029050919050565b600067ffffffffffffffff821115613e9057613e8f6141aa565b5b602082029050919050565b600067ffffffffffffffff821115613eb657613eb56141aa565b5b613ebf826141d9565b9050602081019050919050565b6000819050919050565b6000819050602082019050919050565b6000819050602082019050919050565b6000819050602082019050919050565b6000819050919050565b6000819050919050565b6000819050919050565b600060029050919050565b600081519050919050565b600081519050919050565b600081519050919050565b600060029050919050565b600060049050919050565b600060059050919050565b6000602082019050919050565b6000602082019050919050565b6000602082019050919050565b6000602082019050919050565b6000602082019050919050565b6000602082019050919050565b6000602082019050919050565b600081905092915050565b600082825260208201905092915050565b600082825260208201905092915050565b600082825260208201905092915050565b600081905092915050565b600081905092915050565b600081905092915050565b600081905092915050565b600082825260208201905092915050565b6000614052826140b7565b915061405d836140b7565b9250827fffffffffffffffffffffffffffffffffffffffffffffffffffffffffffffffff038211156140925761409161417b565b5b828201905092915050565b60008115159050919050565b600061ffff82169050919050565b6000819050919050565b600060ff82169050919050565b60005b838110156140ec5780820151818401526020810190506140d1565b838111156140fb576000848401525b50505050565b61410a826141d9565b810181811067ffffffffffffffff82111715614129576141286141aa565b5b80604052505050565b600061413d826140b7565b91507fffffffffffffffffffffffffffffffffffffffffffffffffffffffffffffffff8214156141705761416f61417b565b5b600182019050919050565b7f4e487b7100000000000000000000000000000000000000000000000000000000600052601160045260246000fd5b7f4e487b7100000000000000000000000000000000000000000000000000000000600052604160045260246000fd5b6000601f19601f8301169050919050565b7f446964206e6f742077696e000000000000000000000000000000000000000000600082015250565b7f546f206c61746520746f20626574206f6e2074686973206d6174636800000000600082015250565b7f6f6e6c79206d6174636820636f6e747261637400000000000000000000000000600082015250565b7f73636f7265000000000000000000000000000000000000000000000000000000600082015250565b7f496e76616c696420626574000000000000000000000000000000000000000000600082015250565b7f416c726561647920636c61696d65640000000000000000000000000000000000600082015250565b7f436f6f7264696e61746f72206e6565647320746f20636c6f7365206d61746368600082015250565b7f676f616c73000000000000000000000000000000000000000000000000000000600082015250565b7f496e76616c69642070726f6f6600000000000000000000000000000000000000600082015250565b7f77696e6e65720000000000000000000000000000000000000000000000000000600082015250565b7f4e6f20726573756c747320796574000000000000000000000000000000000000600082015250565b6143b68161409d565b81146143c157600080fd5b50565b6143cd816140a9565b81146143d857600080fd5b50565b6143e4816140b7565b81146143ef57600080fd5b50565b6143fb816140c1565b811461440657600080fd5b5056fea2646970667358221220f03e1d3578e399101aa916930fd4dc087ecda19fa0ecff20584801914c09a0da64736f6c63430008040033",
  "linkReferences": {},
  "deployedLinkReferences": {}
}