{
  "_format": "hh-sol-artifact-1",
  "contractName": "Bets",
  "sourceName": "contracts/Bets.sol",
  "abi": [
    {
      "inputs": [
        {
          "internalType": "address",
          "name": "_betVerifier",
          "type": "address"
        },
        {
          "internalType": "address",
          "name": "_claimBetVerifier",
          "type": "address"
        },
        {
          "internalType": "address",
          "name": "_mainContract",
          "type": "address"
        },
        {
          "internalType": "address",
          "name": "_matchContract",
          "type": "address"
        }
      ],
      "stateMutability": "nonpayable",
      "type": "constructor"
    },
    {
      "anonymous": false,
      "inputs": [
        {
          "indexed": false,
          "internalType": "uint256",
          "name": "id",
          "type": "uint256"
        },
        {
          "indexed": false,
          "internalType": "uint256",
          "name": "champId",
          "type": "uint256"
        },
        {
          "indexed": false,
          "internalType": "uint256",
          "name": "matchId",
          "type": "uint256"
        },
        {
          "indexed": false,
          "internalType": "uint256",
          "name": "better",
          "type": "uint256"
        },
        {
          "indexed": false,
          "internalType": "string",
          "name": "betType",
          "type": "string"
        }
      ],
      "name": "BetInserted",
      "type": "event"
    },
    {
      "inputs": [
        {
          "internalType": "uint256[2]",
          "name": "a",
          "type": "uint256[2]"
        },
        {
          "internalType": "uint256[2][2]",
          "name": "b",
          "type": "uint256[2][2]"
        },
        {
          "internalType": "uint256[2]",
          "name": "c",
          "type": "uint256[2]"
        },
        {
          "internalType": "uint256[4]",
          "name": "input",
          "type": "uint256[4]"
        },
        {
          "internalType": "uint256",
          "name": "champId",
          "type": "uint256"
        },
        {
          "internalType": "uint256",
          "name": "matchId",
          "type": "uint256"
        },
        {
          "internalType": "bool",
          "name": "house",
          "type": "bool"
        },
        {
          "internalType": "uint8",
          "name": "goals",
          "type": "uint8"
        }
      ],
      "name": "betGoals",
      "outputs": [],
      "stateMutability": "nonpayable",
      "type": "function"
    },
    {
      "inputs": [
        {
          "internalType": "uint256[2]",
          "name": "a",
          "type": "uint256[2]"
        },
        {
          "internalType": "uint256[2][2]",
          "name": "b",
          "type": "uint256[2][2]"
        },
        {
          "internalType": "uint256[2]",
          "name": "c",
          "type": "uint256[2]"
        },
        {
          "internalType": "uint256[4]",
          "name": "input",
          "type": "uint256[4]"
        },
        {
          "internalType": "uint256",
          "name": "champId",
          "type": "uint256"
        },
        {
          "internalType": "uint256",
          "name": "matchId",
          "type": "uint256"
        },
        {
          "internalType": "uint8",
          "name": "house",
          "type": "uint8"
        },
        {
          "internalType": "uint8",
          "name": "visitor",
          "type": "uint8"
        }
      ],
      "name": "betScore",
      "outputs": [],
      "stateMutability": "nonpayable",
      "type": "function"
    },
    {
      "inputs": [
        {
          "internalType": "uint256[2]",
          "name": "a",
          "type": "uint256[2]"
        },
        {
          "internalType": "uint256[2][2]",
          "name": "b",
          "type": "uint256[2][2]"
        },
        {
          "internalType": "uint256[2]",
          "name": "c",
          "type": "uint256[2]"
        },
        {
          "internalType": "uint256[4]",
          "name": "input",
          "type": "uint256[4]"
        },
        {
          "internalType": "uint256",
          "name": "champId",
          "type": "uint256"
        },
        {
          "internalType": "uint256",
          "name": "matchId",
          "type": "uint256"
        },
        {
          "internalType": "bool",
          "name": "house",
          "type": "bool"
        }
      ],
      "name": "betWinner",
      "outputs": [],
      "stateMutability": "nonpayable",
      "type": "function"
    },
    {
      "inputs": [
        {
          "internalType": "uint256[2]",
          "name": "a",
          "type": "uint256[2]"
        },
        {
          "internalType": "uint256[2][2]",
          "name": "b",
          "type": "uint256[2][2]"
        },
        {
          "internalType": "uint256[2]",
          "name": "c",
          "type": "uint256[2]"
        },
        {
          "internalType": "uint256[5]",
          "name": "input",
          "type": "uint256[5]"
        },
        {
          "internalType": "uint256",
          "name": "champId",
          "type": "uint256"
        },
        {
          "internalType": "uint256",
          "name": "matchId",
          "type": "uint256"
        },
        {
          "internalType": "uint256",
          "name": "betId",
          "type": "uint256"
        }
      ],
      "name": "claimGoalsBet",
      "outputs": [],
      "stateMutability": "nonpayable",
      "type": "function"
    },
    {
      "inputs": [
        {
          "internalType": "uint256[2]",
          "name": "a",
          "type": "uint256[2]"
        },
        {
          "internalType": "uint256[2][2]",
          "name": "b",
          "type": "uint256[2][2]"
        },
        {
          "internalType": "uint256[2]",
          "name": "c",
          "type": "uint256[2]"
        },
        {
          "internalType": "uint256[5]",
          "name": "input",
          "type": "uint256[5]"
        },
        {
          "internalType": "uint256",
          "name": "champId",
          "type": "uint256"
        },
        {
          "internalType": "uint256",
          "name": "matchId",
          "type": "uint256"
        },
        {
          "internalType": "uint256",
          "name": "betId",
          "type": "uint256"
        }
      ],
      "name": "claimScoreBet",
      "outputs": [],
      "stateMutability": "nonpayable",
      "type": "function"
    },
    {
      "inputs": [
        {
          "internalType": "uint256[2]",
          "name": "a",
          "type": "uint256[2]"
        },
        {
          "internalType": "uint256[2][2]",
          "name": "b",
          "type": "uint256[2][2]"
        },
        {
          "internalType": "uint256[2]",
          "name": "c",
          "type": "uint256[2]"
        },
        {
          "internalType": "uint256[5]",
          "name": "input",
          "type": "uint256[5]"
        },
        {
          "internalType": "uint256",
          "name": "champId",
          "type": "uint256"
        },
        {
          "internalType": "uint256",
          "name": "matchId",
          "type": "uint256"
        },
        {
          "internalType": "uint256",
          "name": "betId",
          "type": "uint256"
        }
      ],
      "name": "claimWinnerBet",
      "outputs": [],
      "stateMutability": "nonpayable",
      "type": "function"
    },
    {
      "inputs": [
        {
          "components": [
            {
              "internalType": "uint256",
              "name": "champId",
              "type": "uint256"
            },
            {
              "internalType": "uint256",
              "name": "matchId",
              "type": "uint256"
            },
            {
              "internalType": "uint16",
              "name": "winnerMultiplier",
              "type": "uint16"
            },
            {
              "internalType": "uint16",
              "name": "scoreMultiplier",
              "type": "uint16"
            },
            {
              "internalType": "uint16",
              "name": "goalsMultiplier",
              "type": "uint16"
            },
            {
              "internalType": "uint256",
              "name": "coordinatorFee",
              "type": "uint256"
            }
          ],
          "internalType": "struct Dto.CloseMatches[]",
          "name": "matchesToClose",
          "type": "tuple[]"
        }
      ],
      "name": "closeMatches",
      "outputs": [],
      "stateMutability": "nonpayable",
      "type": "function"
    },
    {
      "inputs": [
        {
          "internalType": "uint256",
          "name": "champId",
          "type": "uint256"
        },
        {
          "internalType": "uint256",
          "name": "matchId",
          "type": "uint256"
        }
      ],
      "name": "getMatchBets",
      "outputs": [
        {
          "components": [
            {
              "components": [
                {
                  "internalType": "bool",
                  "name": "house",
                  "type": "bool"
                },
                {
                  "internalType": "uint256",
                  "name": "better",
                  "type": "uint256"
                },
                {
                  "internalType": "uint256",
                  "name": "value",
                  "type": "uint256"
                },
                {
                  "internalType": "bool",
                  "name": "claimed",
                  "type": "bool"
                }
              ],
              "internalType": "struct Bets.WinnerBet[]",
              "name": "winner",
              "type": "tuple[]"
            },
            {
              "components": [
                {
                  "internalType": "uint8",
                  "name": "house",
                  "type": "uint8"
                },
                {
                  "internalType": "uint8",
                  "name": "visitor",
                  "type": "uint8"
                },
                {
                  "internalType": "uint256",
                  "name": "better",
                  "type": "uint256"
                },
                {
                  "internalType": "uint256",
                  "name": "value",
                  "type": "uint256"
                },
                {
                  "internalType": "bool",
                  "name": "claimed",
                  "type": "bool"
                }
              ],
              "internalType": "struct Bets.ScoreBet[]",
              "name": "score",
              "type": "tuple[]"
            },
            {
              "components": [
                {
                  "internalType": "bool",
                  "name": "house",
                  "type": "bool"
                },
                {
                  "internalType": "uint8",
                  "name": "goals",
                  "type": "uint8"
                },
                {
                  "internalType": "uint256",
                  "name": "better",
                  "type": "uint256"
                },
                {
                  "internalType": "uint256",
                  "name": "value",
                  "type": "uint256"
                },
                {
                  "internalType": "bool",
                  "name": "claimed",
                  "type": "bool"
                }
              ],
              "internalType": "struct Bets.GoalsBet[]",
              "name": "goals",
              "type": "tuple[]"
            }
          ],
          "internalType": "struct Bets.MatchBetsValues",
          "name": "",
          "type": "tuple"
        }
      ],
      "stateMutability": "view",
      "type": "function"
    }
  ],
  "bytecode": "0x60806040523480156200001157600080fd5b50604051620042023803806200420283398181016040528101906200003791906200019d565b83600260006101000a81548173ffffffffffffffffffffffffffffffffffffffff021916908373ffffffffffffffffffffffffffffffffffffffff16021790555082600160006101000a81548173ffffffffffffffffffffffffffffffffffffffff021916908373ffffffffffffffffffffffffffffffffffffffff16021790555081600360006101000a81548173ffffffffffffffffffffffffffffffffffffffff021916908373ffffffffffffffffffffffffffffffffffffffff16021790555080600460006101000a81548173ffffffffffffffffffffffffffffffffffffffff021916908373ffffffffffffffffffffffffffffffffffffffff16021790555080600560006101000a81548173ffffffffffffffffffffffffffffffffffffffff021916908373ffffffffffffffffffffffffffffffffffffffff1602179055505050505062000257565b60008151905062000197816200023d565b92915050565b60008060008060808587031215620001b457600080fd5b6000620001c48782880162000186565b9450506020620001d78782880162000186565b9350506040620001ea8782880162000186565b9250506060620001fd8782880162000186565b91505092959194509250565b600062000216826200021d565b9050919050565b600073ffffffffffffffffffffffffffffffffffffffff82169050919050565b620002488162000209565b81146200025457600080fd5b50565b613f9b80620002676000396000f3fe608060405234801561001057600080fd5b50600436106100885760003560e01c80636a4188981161005b5780636a41889814610111578063aa86b69d1461012d578063c46b070e14610149578063e665fd761461016557610088565b80631222060f1461008d57806313caa659146100a95780631f698520146100c55780632585ed31146100e1575b600080fd5b6100a760048036038101906100a29190612e0d565b610181565b005b6100c360048036038101906100be9190612e0d565b61074b565b005b6100df60048036038101906100da9190612c9f565b610cfb565b005b6100fb60048036038101906100f69190612f1a565b610f13565b6040516101089190613769565b60405180910390f35b61012b60048036038101906101269190612bbb565b6114de565b005b61014760048036038101906101429190612d56565b611854565b005b610163600480360381019061015e9190612bfc565b611a6e565b005b61017f600480360381019061017a9190612e0d565b611c5b565b005b6000600160009054906101000a900473ffffffffffffffffffffffffffffffffffffffff1673ffffffffffffffffffffffffffffffffffffffff166334baeab9898989896040518563ffffffff1660e01b81526004016101e49493929190613622565b60206040518083038186803b1580156101fc57600080fd5b505afa158015610210573d6000803e3d6000fd5b505050506040513d601f19601f820116820180604052508101906102349190612eb0565b905080610276576040517f08c379a000000000000000000000000000000000000000000000000000000000815260040161026d90613729565b60405180910390fd5b6000600460009054906101000a900473ffffffffffffffffffffffffffffffffffffffff1673ffffffffffffffffffffffffffffffffffffffff1663107cfe5186866040518363ffffffff1660e01b81526004016102d59291906137a6565b60006040518083038186803b1580156102ed57600080fd5b505afa158015610301573d6000803e3d6000fd5b505050506040513d6000823e3d601f19601f8201168201806040525081019061032a9190612ed9565b90508060c00151610370576040517f08c379a000000000000000000000000000000000000000000000000000000000815260040161036790613709565b60405180910390fd5b600080600087815260200190815260200160002060008681526020019081526020016000206000019050600081600001600086815260200190815260200160002090508060030160009054906101000a900460ff1615610405576040517f08c379a00000000000000000000000000000000000000000000000000000000081526004016103fc906136e9565b60405180910390fd5b8760006005811061043f577f4e487b7100000000000000000000000000000000000000000000000000000000600052603260045260246000fd5b6020020151816001015414801561049757508760036005811061048b577f4e487b7100000000000000000000000000000000000000000000000000000000600052603260045260246000fd5b60200201518160020154145b80156104fa5750876004600581106104d8577f4e487b7100000000000000000000000000000000000000000000000000000000600052603260045260246000fd5b602002015161ffff168260020160009054906101000a900461ffff1661ffff16145b610539576040517f08c379a0000000000000000000000000000000000000000000000000000000008152600401610530906136c9565b60405180910390fd5b8060000160009054906101000a900460ff16801561056457508260a0015160ff16836080015160ff16115b8061059757508060000160009054906101000a900460ff1615801561059657508260a0015160ff16836080015160ff16105b5b6105d6576040517f08c379a00000000000000000000000000000000000000000000000000000000081526004016105cd90613669565b60405180910390fd5b60018160030160006101000a81548160ff021916908315150217905550600360009054906101000a900473ffffffffffffffffffffffffffffffffffffffff1673ffffffffffffffffffffffffffffffffffffffff16639ced35f28960006005811061066b577f4e487b7100000000000000000000000000000000000000000000000000000000600052603260045260246000fd5b60200201518a6001600581106106aa577f4e487b7100000000000000000000000000000000000000000000000000000000600052603260045260246000fd5b60200201518b6002600581106106e9577f4e487b7100000000000000000000000000000000000000000000000000000000600052603260045260246000fd5b60200201516040518463ffffffff1660e01b815260040161070c939291906137cf565b600060405180830381600087803b15801561072657600080fd5b505af115801561073a573d6000803e3d6000fd5b505050505050505050505050505050565b6000600160009054906101000a900473ffffffffffffffffffffffffffffffffffffffff1673ffffffffffffffffffffffffffffffffffffffff166334baeab9898989896040518563ffffffff1660e01b81526004016107ae9493929190613622565b60206040518083038186803b1580156107c657600080fd5b505afa1580156107da573d6000803e3d6000fd5b505050506040513d601f19601f820116820180604052508101906107fe9190612eb0565b905080610840576040517f08c379a000000000000000000000000000000000000000000000000000000000815260040161083790613729565b60405180910390fd5b6000600460009054906101000a900473ffffffffffffffffffffffffffffffffffffffff1673ffffffffffffffffffffffffffffffffffffffff1663107cfe5186866040518363ffffffff1660e01b815260040161089f9291906137a6565b60006040518083038186803b1580156108b757600080fd5b505afa1580156108cb573d6000803e3d6000fd5b505050506040513d6000823e3d601f19601f820116820180604052508101906108f49190612ed9565b90508060c0015161093a576040517f08c379a000000000000000000000000000000000000000000000000000000000815260040161093190613709565b60405180910390fd5b600080600087815260200190815260200160002060008681526020019081526020016000206003019050600081600001600086815260200190815260200160002090508060030160009054906101000a900460ff16156109cf576040517f08c379a00000000000000000000000000000000000000000000000000000000081526004016109c6906136e9565b60405180910390fd5b87600060058110610a09577f4e487b7100000000000000000000000000000000000000000000000000000000600052603260045260246000fd5b60200201518160010154148015610a61575087600360058110610a55577f4e487b7100000000000000000000000000000000000000000000000000000000600052603260045260246000fd5b60200201518160020154145b8015610ac4575087600460058110610aa2577f4e487b7100000000000000000000000000000000000000000000000000000000600052603260045260246000fd5b602002015161ffff168260020160009054906101000a900461ffff1661ffff16145b610b03576040517f08c379a0000000000000000000000000000000000000000000000000000000008152600401610afa906136c9565b60405180910390fd5b826080015160ff168160000160009054906101000a900460ff1660ff16148015610b4757508260a0015160ff168160000160019054906101000a900460ff1660ff16145b610b86576040517f08c379a0000000000000000000000000000000000000000000000000000000008152600401610b7d90613669565b60405180910390fd5b60018160030160006101000a81548160ff021916908315150217905550600360009054906101000a900473ffffffffffffffffffffffffffffffffffffffff1673ffffffffffffffffffffffffffffffffffffffff16639ced35f289600060058110610c1b577f4e487b7100000000000000000000000000000000000000000000000000000000600052603260045260246000fd5b60200201518a600160058110610c5a577f4e487b7100000000000000000000000000000000000000000000000000000000600052603260045260246000fd5b60200201518b600260058110610c99577f4e487b7100000000000000000000000000000000000000000000000000000000600052603260045260246000fd5b60200201516040518463ffffffff1660e01b8152600401610cbc939291906137cf565b600060405180830381600087803b158015610cd657600080fd5b505af1158015610cea573d6000803e3d6000fd5b505050505050505050505050505050565b610d0988888888888861223e565b6000806000868152602001908152602001600020600085815260200190815260200160002060060190506040518060a0016040528084151581526020018360ff16815260200187600060048110610d89577f4e487b7100000000000000000000000000000000000000000000000000000000600052603260045260246000fd5b6020020151815260200187600360048110610dcd577f4e487b7100000000000000000000000000000000000000000000000000000000600052603260045260246000fd5b6020020151815260200160001515815250816000016000610df084600101612592565b815260200190815260200160002060008201518160000160006101000a81548160ff02191690831515021790555060208201518160000160016101000a81548160ff021916908360ff160217905550604082015181600101556060820151816002015560808201518160030160006101000a81548160ff0219169083151502179055509050507f5a09b93169b70f52b5fef188ef3328958c0c736fdbad0ef5ba0a5ecf0a397666610ea382600101612592565b868689600060048110610edf577f4e487b7100000000000000000000000000000000000000000000000000000000600052603260045260246000fd5b6020020151604051610ef4949392919061385e565b60405180910390a1610f08816001016125a0565b505050505050505050565b610f1b6125b6565b6000600460009054906101000a900473ffffffffffffffffffffffffffffffffffffffff1673ffffffffffffffffffffffffffffffffffffffff1663107cfe5185856040518363ffffffff1660e01b8152600401610f7a9291906137a6565b60006040518083038186803b158015610f9257600080fd5b505afa158015610fa6573d6000803e3d6000fd5b505050506040513d6000823e3d601f19601f82011682018060405250810190610fcf9190612ed9565b90508060e00151611015576040517f08c379a000000000000000000000000000000000000000000000000000000000815260040161100c90613749565b60405180910390fd5b600080600086815260200190815260200160002060008581526020019081526020016000209050600061104d82600001600101612592565b67ffffffffffffffff81111561108c577f4e487b7100000000000000000000000000000000000000000000000000000000600052604160045260246000fd5b6040519080825280602002602001820160405280156110c557816020015b6110b26125d7565b8152602001906001900390816110aa5790505b50905060006110d983600601600101612592565b67ffffffffffffffff811115611118577f4e487b7100000000000000000000000000000000000000000000000000000000600052604160045260246000fd5b60405190808252806020026020018201604052801561115157816020015b61113e612603565b8152602001906001900390816111365790505b509050600061116584600301600101612592565b67ffffffffffffffff8111156111a4577f4e487b7100000000000000000000000000000000000000000000000000000000600052604160045260246000fd5b6040519080825280602002602001820160405280156111dd57816020015b6111ca612639565b8152602001906001900390816111c25790505b50905060005b6111f285600001600101612592565b8110156112bd578460000160000160008281526020019081526020016000206040518060800160405290816000820160009054906101000a900460ff1615151515815260200160018201548152602001600282015481526020016003820160009054906101000a900460ff16151515158152505084828151811061129f577f4e487b7100000000000000000000000000000000000000000000000000000000600052603260045260246000fd5b602002602001018190525080806112b590613c8e565b9150506111e3565b5060005b6112d085600601600101612592565b8110156113b8578460060160000160008281526020019081526020016000206040518060a00160405290816000820160009054906101000a900460ff161515151581526020016000820160019054906101000a900460ff1660ff1660ff16815260200160018201548152602001600282015481526020016003820160009054906101000a900460ff16151515158152505083828151811061139a577f4e487b7100000000000000000000000000000000000000000000000000000000600052603260045260246000fd5b602002602001018190525080806113b090613c8e565b9150506112c1565b5060005b6113cb85600301600101612592565b8110156114b5578460030160000160008281526020019081526020016000206040518060a00160405290816000820160009054906101000a900460ff1660ff1660ff1681526020016000820160019054906101000a900460ff1660ff1660ff16815260200160018201548152602001600282015481526020016003820160009054906101000a900460ff161515151581525050828281518110611497577f4e487b7100000000000000000000000000000000000000000000000000000000600052603260045260246000fd5b602002602001018190525080806114ad90613c8e565b9150506113bc565b506040518060600160405280848152602001828152602001838152509550505050505092915050565b600560009054906101000a900473ffffffffffffffffffffffffffffffffffffffff1673ffffffffffffffffffffffffffffffffffffffff163373ffffffffffffffffffffffffffffffffffffffff161461156e576040517f08c379a0000000000000000000000000000000000000000000000000000000008152600401611565906136a9565b60405180910390fd5b6000805b82518110156117c25760008060008584815181106115b9577f4e487b7100000000000000000000000000000000000000000000000000000000600052603260045260246000fd5b6020026020010151600001518152602001908152602001600020600085848151811061160e577f4e487b7100000000000000000000000000000000000000000000000000000000600052603260045260246000fd5b60200260200101516020015181526020019081526020016000209050838281518110611663577f4e487b7100000000000000000000000000000000000000000000000000000000600052603260045260246000fd5b6020026020010151604001518160000160020160006101000a81548161ffff021916908361ffff1602179055508382815181106116c9577f4e487b7100000000000000000000000000000000000000000000000000000000600052603260045260246000fd5b6020026020010151606001518160030160020160006101000a81548161ffff021916908361ffff16021790555083828151811061172f577f4e487b7100000000000000000000000000000000000000000000000000000000600052603260045260246000fd5b6020026020010151608001518160060160020160006101000a81548161ffff021916908361ffff160217905550838281518110611795577f4e487b7100000000000000000000000000000000000000000000000000000000600052603260045260246000fd5b602002602001015160a00151836117ac9190613ba3565b92505080806117ba90613c8e565b915050611572565b50600360009054906101000a900473ffffffffffffffffffffffffffffffffffffffff1673ffffffffffffffffffffffffffffffffffffffff1663650168c3826040518263ffffffff1660e01b815260040161181e919061378b565b600060405180830381600087803b15801561183857600080fd5b505af115801561184c573d6000803e3d6000fd5b505050505050565b61186288888888888861223e565b6000806000868152602001908152602001600020600085815260200190815260200160002060030190506040518060a001604052808460ff1681526020018360ff168152602001876000600481106118e3577f4e487b7100000000000000000000000000000000000000000000000000000000600052603260045260246000fd5b6020020151815260200187600360048110611927577f4e487b7100000000000000000000000000000000000000000000000000000000600052603260045260246000fd5b602002015181526020016000151581525081600001600061194a84600101612592565b815260200190815260200160002060008201518160000160006101000a81548160ff021916908360ff16021790555060208201518160000160016101000a81548160ff021916908360ff160217905550604082015181600101556060820151816002015560808201518160030160006101000a81548160ff0219169083151502179055509050507f5a09b93169b70f52b5fef188ef3328958c0c736fdbad0ef5ba0a5ecf0a3976666119fe82600101612592565b868689600060048110611a3a577f4e487b7100000000000000000000000000000000000000000000000000000000600052603260045260246000fd5b6020020151604051611a4f9493929190613806565b60405180910390a1611a63816001016125a0565b505050505050505050565b611a7c87878787878761223e565b6000806000858152602001908152602001600020600084815260200190815260200160002060000190506040518060800160405280831515815260200186600060048110611af3577f4e487b7100000000000000000000000000000000000000000000000000000000600052603260045260246000fd5b6020020151815260200186600360048110611b37577f4e487b7100000000000000000000000000000000000000000000000000000000600052603260045260246000fd5b6020020151815260200160001515815250816000016000611b5a84600101612592565b815260200190815260200160002060008201518160000160006101000a81548160ff021916908315150217905550602082015181600101556040820151816002015560608201518160030160006101000a81548160ff0219169083151502179055509050507f5a09b93169b70f52b5fef188ef3328958c0c736fdbad0ef5ba0a5ecf0a397666611bec82600101612592565b858588600060048110611c28577f4e487b7100000000000000000000000000000000000000000000000000000000600052603260045260246000fd5b6020020151604051611c3d94939291906138b6565b60405180910390a1611c51816001016125a0565b5050505050505050565b6000600160009054906101000a900473ffffffffffffffffffffffffffffffffffffffff1673ffffffffffffffffffffffffffffffffffffffff166334baeab9898989896040518563ffffffff1660e01b8152600401611cbe9493929190613622565b60206040518083038186803b158015611cd657600080fd5b505afa158015611cea573d6000803e3d6000fd5b505050506040513d601f19601f82011682018060405250810190611d0e9190612eb0565b905080611d50576040517f08c379a0000000000000000000000000000000000000000000000000000000008152600401611d4790613729565b60405180910390fd5b6000600460009054906101000a900473ffffffffffffffffffffffffffffffffffffffff1673ffffffffffffffffffffffffffffffffffffffff1663107cfe5186866040518363ffffffff1660e01b8152600401611daf9291906137a6565b60006040518083038186803b158015611dc757600080fd5b505afa158015611ddb573d6000803e3d6000fd5b505050506040513d6000823e3d601f19601f82011682018060405250810190611e049190612ed9565b90508060c00151611e4a576040517f08c379a0000000000000000000000000000000000000000000000000000000008152600401611e4190613709565b60405180910390fd5b600080600087815260200190815260200160002060008681526020019081526020016000206006019050600081600001600086815260200190815260200160002090508060030160009054906101000a900460ff1615611edf576040517f08c379a0000000000000000000000000000000000000000000000000000000008152600401611ed6906136e9565b60405180910390fd5b87600060058110611f19577f4e487b7100000000000000000000000000000000000000000000000000000000600052603260045260246000fd5b60200201518160010154148015611f71575087600360058110611f65577f4e487b7100000000000000000000000000000000000000000000000000000000600052603260045260246000fd5b60200201518160020154145b8015611fd4575087600460058110611fb2577f4e487b7100000000000000000000000000000000000000000000000000000000600052603260045260246000fd5b602002015161ffff168260020160009054906101000a900461ffff1661ffff16145b612013576040517f08c379a000000000000000000000000000000000000000000000000000000000815260040161200a906136c9565b60405180910390fd5b8060000160009054906101000a900460ff16801561204b57508060000160019054906101000a900460ff1660ff16836080015160ff16145b8061208a57508060000160009054906101000a900460ff16801561208957508060000160019054906101000a900460ff1660ff168360a0015160ff16145b5b6120c9576040517f08c379a00000000000000000000000000000000000000000000000000000000081526004016120c090613669565b60405180910390fd5b60018160030160006101000a81548160ff021916908315150217905550600360009054906101000a900473ffffffffffffffffffffffffffffffffffffffff1673ffffffffffffffffffffffffffffffffffffffff16639ced35f28960006005811061215e577f4e487b7100000000000000000000000000000000000000000000000000000000600052603260045260246000fd5b60200201518a60016005811061219d577f4e487b7100000000000000000000000000000000000000000000000000000000600052603260045260246000fd5b60200201518b6002600581106121dc577f4e487b7100000000000000000000000000000000000000000000000000000000600052603260045260246000fd5b60200201516040518463ffffffff1660e01b81526004016121ff939291906137cf565b600060405180830381600087803b15801561221957600080fd5b505af115801561222d573d6000803e3d6000fd5b505050505050505050505050505050565b6000600260009054906101000a900473ffffffffffffffffffffffffffffffffffffffff1673ffffffffffffffffffffffffffffffffffffffff16635fe8c13b888888886040518563ffffffff1660e01b81526004016122a194939291906135db565b60206040518083038186803b1580156122b957600080fd5b505afa1580156122cd573d6000803e3d6000fd5b505050506040513d601f19601f820116820180604052508101906122f19190612eb0565b905080612333576040517f08c379a000000000000000000000000000000000000000000000000000000000815260040161232a90613729565b60405180910390fd5b6000600460009054906101000a900473ffffffffffffffffffffffffffffffffffffffff1673ffffffffffffffffffffffffffffffffffffffff1663107cfe5185856040518363ffffffff1660e01b81526004016123929291906137a6565b60006040518083038186803b1580156123aa57600080fd5b505afa1580156123be573d6000803e3d6000fd5b505050506040513d6000823e3d601f19601f820116820180604052508101906123e79190612ed9565b90508060600151610e10426123fc9190613ba3565b111561243d576040517f08c379a000000000000000000000000000000000000000000000000000000000815260040161243490613689565b60405180910390fd5b600360009054906101000a900473ffffffffffffffffffffffffffffffffffffffff1673ffffffffffffffffffffffffffffffffffffffff16639ced35f2866000600481106124b5577f4e487b7100000000000000000000000000000000000000000000000000000000600052603260045260246000fd5b6020020151876001600481106124f4577f4e487b7100000000000000000000000000000000000000000000000000000000600052603260045260246000fd5b602002015188600260048110612533577f4e487b7100000000000000000000000000000000000000000000000000000000600052603260045260246000fd5b60200201516040518463ffffffff1660e01b8152600401612556939291906137cf565b600060405180830381600087803b15801561257057600080fd5b505af1158015612584573d6000803e3d6000fd5b505050505050505050505050565b600081600001549050919050565b6001816000016000828254019250508190555050565b60405180606001604052806060815260200160608152602001606081525090565b604051806080016040528060001515815260200160008152602001600081526020016000151581525090565b6040518060a00160405280600015158152602001600060ff16815260200160008152602001600081526020016000151581525090565b6040518060a00160405280600060ff168152602001600060ff16815260200160008152602001600081526020016000151581525090565b600061268361267e84613933565b61390e565b9050808285604086028201111561269957600080fd5b60005b858110156126c957816126af88826128f7565b84526020840193506040830192505060018101905061269c565b5050509392505050565b60006126e66126e184613959565b61390e565b905080838252602082019050828560c086028201111561270557600080fd5b60005b85811015612735578161271b88826129c0565b845260208401935060c08301925050600181019050612708565b5050509392505050565b600061275261274d84613985565b61390e565b9050808285602086028201111561276857600080fd5b60005b85811015612798578161277e8882612b67565b84526020840193506020830192505060018101905061276b565b5050509392505050565b60006127b56127b0846139ab565b61390e565b905080828560208602820111156127cb57600080fd5b60005b858110156127fb57816127e18882612b67565b8452602084019350602083019250506001810190506127ce565b5050509392505050565b6000612818612813846139d1565b61390e565b9050808285602086028201111561282e57600080fd5b60005b8581101561285e57816128448882612b67565b845260208401935060208301925050600181019050612831565b5050509392505050565b600061287b612876846139f7565b61390e565b90508281526020810184848401111561289357600080fd5b61289e848285613c2a565b509392505050565b600082601f8301126128b757600080fd5b60026128c4848285612670565b91505092915050565b600082601f8301126128de57600080fd5b81356128ee8482602086016126d3565b91505092915050565b600082601f83011261290857600080fd5b600261291584828561273f565b91505092915050565b600082601f83011261292f57600080fd5b600461293c8482856127a2565b91505092915050565b600082601f83011261295657600080fd5b6005612963848285612805565b91505092915050565b60008135905061297b81613f09565b92915050565b60008151905061299081613f09565b92915050565b600082601f8301126129a757600080fd5b81516129b7848260208601612868565b91505092915050565b600060c082840312156129d257600080fd5b6129dc60c061390e565b905060006129ec84828501612b67565b6000830152506020612a0084828501612b67565b6020830152506040612a1484828501612b52565b6040830152506060612a2884828501612b52565b6060830152506080612a3c84828501612b52565b60808301525060a0612a5084828501612b67565b60a08301525092915050565b60006101008284031215612a6f57600080fd5b612a7a61010061390e565b90506000612a8a84828501612b7c565b600083015250602082015167ffffffffffffffff811115612aaa57600080fd5b612ab684828501612996565b602083015250604082015167ffffffffffffffff811115612ad657600080fd5b612ae284828501612996565b6040830152506060612af684828501612b7c565b6060830152506080612b0a84828501612ba6565b60808301525060a0612b1e84828501612ba6565b60a08301525060c0612b3284828501612981565b60c08301525060e0612b4684828501612981565b60e08301525092915050565b600081359050612b6181613f20565b92915050565b600081359050612b7681613f37565b92915050565b600081519050612b8b81613f37565b92915050565b600081359050612ba081613f4e565b92915050565b600081519050612bb581613f4e565b92915050565b600060208284031215612bcd57600080fd5b600082013567ffffffffffffffff811115612be757600080fd5b612bf3848285016128cd565b91505092915050565b60008060008060008060006101e0888a031215612c1857600080fd5b6000612c268a828b016128f7565b9750506040612c378a828b016128a6565b96505060c0612c488a828b016128f7565b955050610100612c5a8a828b0161291e565b945050610180612c6c8a828b01612b67565b9350506101a0612c7e8a828b01612b67565b9250506101c0612c908a828b0161296c565b91505092959891949750929550565b600080600080600080600080610200898b031215612cbc57600080fd5b6000612cca8b828c016128f7565b9850506040612cdb8b828c016128a6565b97505060c0612cec8b828c016128f7565b965050610100612cfe8b828c0161291e565b955050610180612d108b828c01612b67565b9450506101a0612d228b828c01612b67565b9350506101c0612d348b828c0161296c565b9250506101e0612d468b828c01612b91565b9150509295985092959890939650565b600080600080600080600080610200898b031215612d7357600080fd5b6000612d818b828c016128f7565b9850506040612d928b828c016128a6565b97505060c0612da38b828c016128f7565b965050610100612db58b828c0161291e565b955050610180612dc78b828c01612b67565b9450506101a0612dd98b828c01612b67565b9350506101c0612deb8b828c01612b91565b9250506101e0612dfd8b828c01612b91565b9150509295985092959890939650565b6000806000806000806000610200888a031215612e2957600080fd5b6000612e378a828b016128f7565b9750506040612e488a828b016128a6565b96505060c0612e598a828b016128f7565b955050610100612e6b8a828b01612945565b9450506101a0612e7d8a828b01612b67565b9350506101c0612e8f8a828b01612b67565b9250506101e0612ea18a828b01612b67565b91505092959891949750929550565b600060208284031215612ec257600080fd5b6000612ed084828501612981565b91505092915050565b600060208284031215612eeb57600080fd5b600082015167ffffffffffffffff811115612f0557600080fd5b612f1184828501612a5c565b91505092915050565b60008060408385031215612f2d57600080fd5b6000612f3b85828601612b67565b9250506020612f4c85828601612b67565b9150509250929050565b6000612f62838361313f565b60408301905092915050565b6000612f7a838361342b565b60a08301905092915050565b6000612f9283836134f1565b60a08301905092915050565b6000612faa8383613559565b60808301905092915050565b6000612fc283836135ae565b60208301905092915050565b612fd781613a80565b612fe18184613b28565b9250612fec82613a28565b8060005b8381101561301d5781516130048782612f56565b965061300f83613acd565b925050600181019050612ff0565b505050505050565b600061303082613a8b565b61303a8185613b33565b935061304583613a32565b8060005b8381101561307657815161305d8882612f6e565b975061306883613ada565b925050600181019050613049565b5085935050505092915050565b600061308e82613a96565b6130988185613b44565b93506130a383613a42565b8060005b838110156130d45781516130bb8882612f86565b97506130c683613ae7565b9250506001810190506130a7565b5085935050505092915050565b60006130ec82613aa1565b6130f68185613b55565b935061310183613a52565b8060005b838110156131325781516131198882612f9e565b975061312483613af4565b925050600181019050613105565b5085935050505092915050565b61314881613aac565b6131528184613b66565b925061315d82613a62565b8060005b8381101561318e5781516131758782612fb6565b965061318083613b01565b925050600181019050613161565b505050505050565b61319f81613aac565b6131a98184613b71565b92506131b482613a62565b8060005b838110156131e55781516131cc8782612fb6565b96506131d783613b01565b9250506001810190506131b8565b505050505050565b6131f681613ab7565b6132008184613b7c565b925061320b82613a6c565b8060005b8381101561323c5781516132238782612fb6565b965061322e83613b0e565b92505060018101905061320f565b505050505050565b61324d81613ac2565b6132578184613b87565b925061326282613a76565b8060005b8381101561329357815161327a8782612fb6565b965061328583613b1b565b925050600181019050613266565b505050505050565b6132a481613bf9565b82525050565b60006132b7600b83613b92565b91506132c282613d46565b602082019050919050565b60006132da601c83613b92565b91506132e582613d6f565b602082019050919050565b60006132fd601383613b92565b915061330882613d98565b602082019050919050565b6000613320600583613b92565b915061332b82613dc1565b602082019050919050565b6000613343600b83613b92565b915061334e82613dea565b602082019050919050565b6000613366600f83613b92565b915061337182613e13565b602082019050919050565b6000613389602083613b92565b915061339482613e3c565b602082019050919050565b60006133ac600583613b92565b91506133b782613e65565b602082019050919050565b60006133cf600d83613b92565b91506133da82613e8e565b602082019050919050565b60006133f2600683613b92565b91506133fd82613eb7565b602082019050919050565b6000613415600e83613b92565b915061342082613ee0565b602082019050919050565b60a082016000820151613441600085018261329b565b50602082015161345460208501826135cc565b50604082015161346760408501826135ae565b50606082015161347a60608501826135ae565b50608082015161348d608085018261329b565b50505050565b600060608301600083015184820360008601526134b082826130e1565b915050602083015184820360208601526134ca8282613083565b915050604083015184820360408601526134e48282613025565b9150508091505092915050565b60a08201600082015161350760008501826135cc565b50602082015161351a60208501826135cc565b50604082015161352d60408501826135ae565b50606082015161354060608501826135ae565b506080820151613553608085018261329b565b50505050565b60808201600082015161356f600085018261329b565b50602082015161358260208501826135ae565b50604082015161359560408501826135ae565b5060608201516135a8606085018261329b565b50505050565b6135b781613c13565b82525050565b6135c681613c13565b82525050565b6135d581613c1d565b82525050565b6000610180820190506135f16000830187613196565b6135fe6040830186612fce565b61360b60c0830185613196565b6136196101008301846131ed565b95945050505050565b60006101a0820190506136386000830187613196565b6136456040830186612fce565b61365260c0830185613196565b613660610100830184613244565b95945050505050565b60006020820190508181036000830152613682816132aa565b9050919050565b600060208201905081810360008301526136a2816132cd565b9050919050565b600060208201905081810360008301526136c2816132f0565b9050919050565b600060208201905081810360008301526136e281613336565b9050919050565b6000602082019050818103600083015261370281613359565b9050919050565b600060208201905081810360008301526137228161337c565b9050919050565b60006020820190508181036000830152613742816133c2565b9050919050565b6000602082019050818103600083015261376281613408565b9050919050565b600060208201905081810360008301526137838184613493565b905092915050565b60006020820190506137a060008301846135bd565b92915050565b60006040820190506137bb60008301856135bd565b6137c860208301846135bd565b9392505050565b60006060820190506137e460008301866135bd565b6137f160208301856135bd565b6137fe60408301846135bd565b949350505050565b600060a08201905061381b60008301876135bd565b61382860208301866135bd565b61383560408301856135bd565b61384260608301846135bd565b818103608083015261385381613313565b905095945050505050565b600060a08201905061387360008301876135bd565b61388060208301866135bd565b61388d60408301856135bd565b61389a60608301846135bd565b81810360808301526138ab8161339f565b905095945050505050565b600060a0820190506138cb60008301876135bd565b6138d860208301866135bd565b6138e560408301856135bd565b6138f260608301846135bd565b8181036080830152613903816133e5565b905095945050505050565b6000613918613929565b90506139248282613c5d565b919050565b6000604051905090565b600067ffffffffffffffff82111561394e5761394d613d06565b5b602082029050919050565b600067ffffffffffffffff82111561397457613973613d06565b5b602082029050602081019050919050565b600067ffffffffffffffff8211156139a05761399f613d06565b5b602082029050919050565b600067ffffffffffffffff8211156139c6576139c5613d06565b5b602082029050919050565b600067ffffffffffffffff8211156139ec576139eb613d06565b5b602082029050919050565b600067ffffffffffffffff821115613a1257613a11613d06565b5b613a1b82613d35565b9050602081019050919050565b6000819050919050565b6000819050602082019050919050565b6000819050602082019050919050565b6000819050602082019050919050565b6000819050919050565b6000819050919050565b6000819050919050565b600060029050919050565b600081519050919050565b600081519050919050565b600081519050919050565b600060029050919050565b600060049050919050565b600060059050919050565b6000602082019050919050565b6000602082019050919050565b6000602082019050919050565b6000602082019050919050565b6000602082019050919050565b6000602082019050919050565b6000602082019050919050565b600081905092915050565b600082825260208201905092915050565b600082825260208201905092915050565b600082825260208201905092915050565b600081905092915050565b600081905092915050565b600081905092915050565b600081905092915050565b600082825260208201905092915050565b6000613bae82613c13565b9150613bb983613c13565b9250827fffffffffffffffffffffffffffffffffffffffffffffffffffffffffffffffff03821115613bee57613bed613cd7565b5b828201905092915050565b60008115159050919050565b600061ffff82169050919050565b6000819050919050565b600060ff82169050919050565b60005b83811015613c48578082015181840152602081019050613c2d565b83811115613c57576000848401525b50505050565b613c6682613d35565b810181811067ffffffffffffffff82111715613c8557613c84613d06565b5b80604052505050565b6000613c9982613c13565b91507fffffffffffffffffffffffffffffffffffffffffffffffffffffffffffffffff821415613ccc57613ccb613cd7565b5b600182019050919050565b7f4e487b7100000000000000000000000000000000000000000000000000000000600052601160045260246000fd5b7f4e487b7100000000000000000000000000000000000000000000000000000000600052604160045260246000fd5b6000601f19601f8301169050919050565b7f446964206e6f742077696e000000000000000000000000000000000000000000600082015250565b7f546f206c61746520746f20626574206f6e2074686973206d6174636800000000600082015250565b7f6f6e6c79206d6174636820636f6e747261637400000000000000000000000000600082015250565b7f73636f7265000000000000000000000000000000000000000000000000000000600082015250565b7f496e76616c696420626574000000000000000000000000000000000000000000600082015250565b7f416c726561647920636c61696d65640000000000000000000000000000000000600082015250565b7f436f6f7264696e61746f72206e6565647320746f20636c6f7365206d61746368600082015250565b7f676f616c73000000000000000000000000000000000000000000000000000000600082015250565b7f496e76616c69642070726f6f6600000000000000000000000000000000000000600082015250565b7f77696e6e65720000000000000000000000000000000000000000000000000000600082015250565b7f4e6f20726573756c747320796574000000000000000000000000000000000000600082015250565b613f1281613bf9565b8114613f1d57600080fd5b50565b613f2981613c05565b8114613f3457600080fd5b50565b613f4081613c13565b8114613f4b57600080fd5b50565b613f5781613c1d565b8114613f6257600080fd5b5056fea26469706673582212208be6ed687bb190657cf177a417449d5f41fdd416771b071023e3a3c79249b2d264736f6c63430008040033",
  "linkReferences": {},
  "deployedLinkReferences": {}
}