{
  "_format": "hh-sol-artifact-1",
  "contractName": "Bets",
  "sourceName": "contracts/Bets.sol",
  "abi": [
    {
      "inputs": [
        {
          "internalType": "address",
          "name": "_betVerifier",
          "type": "address"
        },
        {
          "internalType": "address",
          "name": "_claimBetVerifier",
          "type": "address"
        },
        {
          "internalType": "address",
          "name": "_mainContract",
          "type": "address"
        },
        {
          "internalType": "address",
          "name": "_matchContract",
          "type": "address"
        }
      ],
      "stateMutability": "nonpayable",
      "type": "constructor"
    },
    {
      "anonymous": false,
      "inputs": [
        {
          "indexed": false,
          "internalType": "uint256",
          "name": "id",
          "type": "uint256"
        },
        {
          "indexed": false,
          "internalType": "uint256",
          "name": "champId",
          "type": "uint256"
        },
        {
          "indexed": false,
          "internalType": "uint256",
          "name": "matchId",
          "type": "uint256"
        },
        {
          "indexed": false,
          "internalType": "uint256",
          "name": "better",
          "type": "uint256"
        },
        {
          "indexed": false,
          "internalType": "uint256",
          "name": "value",
          "type": "uint256"
        },
        {
          "indexed": false,
          "internalType": "bool",
          "name": "house",
          "type": "bool"
        },
        {
          "indexed": false,
          "internalType": "uint8",
          "name": "goals",
          "type": "uint8"
        }
      ],
      "name": "GoalsBetInserted",
      "type": "event"
    },
    {
      "anonymous": false,
      "inputs": [
        {
          "indexed": false,
          "internalType": "uint256",
          "name": "id",
          "type": "uint256"
        },
        {
          "indexed": false,
          "internalType": "uint256",
          "name": "champId",
          "type": "uint256"
        },
        {
          "indexed": false,
          "internalType": "uint256",
          "name": "matchId",
          "type": "uint256"
        },
        {
          "indexed": false,
          "internalType": "uint256",
          "name": "better",
          "type": "uint256"
        },
        {
          "indexed": false,
          "internalType": "uint256",
          "name": "value",
          "type": "uint256"
        },
        {
          "indexed": false,
          "internalType": "uint8",
          "name": "house",
          "type": "uint8"
        },
        {
          "indexed": false,
          "internalType": "uint8",
          "name": "visitor",
          "type": "uint8"
        }
      ],
      "name": "ScoreBetInserted",
      "type": "event"
    },
    {
      "anonymous": false,
      "inputs": [
        {
          "indexed": false,
          "internalType": "uint256",
          "name": "id",
          "type": "uint256"
        },
        {
          "indexed": false,
          "internalType": "uint256",
          "name": "champId",
          "type": "uint256"
        },
        {
          "indexed": false,
          "internalType": "uint256",
          "name": "matchId",
          "type": "uint256"
        },
        {
          "indexed": false,
          "internalType": "uint256",
          "name": "better",
          "type": "uint256"
        },
        {
          "indexed": false,
          "internalType": "uint256",
          "name": "value",
          "type": "uint256"
        },
        {
          "indexed": false,
          "internalType": "bool",
          "name": "house",
          "type": "bool"
        }
      ],
      "name": "WinnerBetInserted",
      "type": "event"
    },
    {
      "inputs": [
        {
          "internalType": "uint256[2]",
          "name": "a",
          "type": "uint256[2]"
        },
        {
          "internalType": "uint256[2][2]",
          "name": "b",
          "type": "uint256[2][2]"
        },
        {
          "internalType": "uint256[2]",
          "name": "c",
          "type": "uint256[2]"
        },
        {
          "internalType": "uint256[4]",
          "name": "input",
          "type": "uint256[4]"
        },
        {
          "internalType": "uint256",
          "name": "champId",
          "type": "uint256"
        },
        {
          "internalType": "uint256",
          "name": "matchId",
          "type": "uint256"
        },
        {
          "internalType": "bool",
          "name": "house",
          "type": "bool"
        },
        {
          "internalType": "uint8",
          "name": "goals",
          "type": "uint8"
        }
      ],
      "name": "betGoals",
      "outputs": [],
      "stateMutability": "nonpayable",
      "type": "function"
    },
    {
      "inputs": [
        {
          "internalType": "uint256[2]",
          "name": "a",
          "type": "uint256[2]"
        },
        {
          "internalType": "uint256[2][2]",
          "name": "b",
          "type": "uint256[2][2]"
        },
        {
          "internalType": "uint256[2]",
          "name": "c",
          "type": "uint256[2]"
        },
        {
          "internalType": "uint256[4]",
          "name": "input",
          "type": "uint256[4]"
        },
        {
          "internalType": "uint256",
          "name": "champId",
          "type": "uint256"
        },
        {
          "internalType": "uint256",
          "name": "matchId",
          "type": "uint256"
        },
        {
          "internalType": "uint8",
          "name": "house",
          "type": "uint8"
        },
        {
          "internalType": "uint8",
          "name": "visitor",
          "type": "uint8"
        }
      ],
      "name": "betScore",
      "outputs": [],
      "stateMutability": "nonpayable",
      "type": "function"
    },
    {
      "inputs": [
        {
          "internalType": "uint256[2]",
          "name": "a",
          "type": "uint256[2]"
        },
        {
          "internalType": "uint256[2][2]",
          "name": "b",
          "type": "uint256[2][2]"
        },
        {
          "internalType": "uint256[2]",
          "name": "c",
          "type": "uint256[2]"
        },
        {
          "internalType": "uint256[4]",
          "name": "input",
          "type": "uint256[4]"
        },
        {
          "internalType": "uint256",
          "name": "champId",
          "type": "uint256"
        },
        {
          "internalType": "uint256",
          "name": "matchId",
          "type": "uint256"
        },
        {
          "internalType": "bool",
          "name": "house",
          "type": "bool"
        }
      ],
      "name": "betWinner",
      "outputs": [],
      "stateMutability": "nonpayable",
      "type": "function"
    },
    {
      "inputs": [
        {
          "internalType": "uint256[2]",
          "name": "a",
          "type": "uint256[2]"
        },
        {
          "internalType": "uint256[2][2]",
          "name": "b",
          "type": "uint256[2][2]"
        },
        {
          "internalType": "uint256[2]",
          "name": "c",
          "type": "uint256[2]"
        },
        {
          "internalType": "uint256[5]",
          "name": "input",
          "type": "uint256[5]"
        },
        {
          "internalType": "uint256",
          "name": "champId",
          "type": "uint256"
        },
        {
          "internalType": "uint256",
          "name": "matchId",
          "type": "uint256"
        },
        {
          "internalType": "uint256",
          "name": "betId",
          "type": "uint256"
        }
      ],
      "name": "claimGoalsBet",
      "outputs": [],
      "stateMutability": "nonpayable",
      "type": "function"
    },
    {
      "inputs": [
        {
          "internalType": "uint256[2]",
          "name": "a",
          "type": "uint256[2]"
        },
        {
          "internalType": "uint256[2][2]",
          "name": "b",
          "type": "uint256[2][2]"
        },
        {
          "internalType": "uint256[2]",
          "name": "c",
          "type": "uint256[2]"
        },
        {
          "internalType": "uint256[5]",
          "name": "input",
          "type": "uint256[5]"
        },
        {
          "internalType": "uint256",
          "name": "champId",
          "type": "uint256"
        },
        {
          "internalType": "uint256",
          "name": "matchId",
          "type": "uint256"
        },
        {
          "internalType": "uint256",
          "name": "betId",
          "type": "uint256"
        }
      ],
      "name": "claimScoreBet",
      "outputs": [],
      "stateMutability": "nonpayable",
      "type": "function"
    },
    {
      "inputs": [
        {
          "internalType": "uint256[2]",
          "name": "a",
          "type": "uint256[2]"
        },
        {
          "internalType": "uint256[2][2]",
          "name": "b",
          "type": "uint256[2][2]"
        },
        {
          "internalType": "uint256[2]",
          "name": "c",
          "type": "uint256[2]"
        },
        {
          "internalType": "uint256[5]",
          "name": "input",
          "type": "uint256[5]"
        },
        {
          "internalType": "uint256",
          "name": "champId",
          "type": "uint256"
        },
        {
          "internalType": "uint256",
          "name": "matchId",
          "type": "uint256"
        },
        {
          "internalType": "uint256",
          "name": "betId",
          "type": "uint256"
        }
      ],
      "name": "claimWinnerBet",
      "outputs": [],
      "stateMutability": "nonpayable",
      "type": "function"
    },
    {
      "inputs": [
        {
          "components": [
            {
              "internalType": "uint256",
              "name": "champId",
              "type": "uint256"
            },
            {
              "internalType": "uint256",
              "name": "matchId",
              "type": "uint256"
            },
            {
              "internalType": "uint16",
              "name": "winnerMultiplier",
              "type": "uint16"
            },
            {
              "internalType": "uint16",
              "name": "scoreMultiplier",
              "type": "uint16"
            },
            {
              "internalType": "uint16",
              "name": "goalsMultiplier",
              "type": "uint16"
            },
            {
              "internalType": "uint256",
              "name": "coordinatorFee",
              "type": "uint256"
            }
          ],
          "internalType": "struct Matches.CloseMatches[]",
          "name": "matchesToClose",
          "type": "tuple[]"
        }
      ],
      "name": "closeMatches",
      "outputs": [],
      "stateMutability": "nonpayable",
      "type": "function"
    },
    {
      "inputs": [
        {
          "internalType": "uint256",
          "name": "champId",
          "type": "uint256"
        },
        {
          "internalType": "uint256",
          "name": "matchId",
          "type": "uint256"
        },
        {
          "internalType": "uint256",
          "name": "betId",
          "type": "uint256"
        }
      ],
      "name": "getGoalsBet",
      "outputs": [
        {
          "components": [
            {
              "internalType": "bool",
              "name": "house",
              "type": "bool"
            },
            {
              "internalType": "uint8",
              "name": "goals",
              "type": "uint8"
            },
            {
              "internalType": "uint256",
              "name": "better",
              "type": "uint256"
            },
            {
              "internalType": "uint256",
              "name": "value",
              "type": "uint256"
            },
            {
              "internalType": "bool",
              "name": "claimed",
              "type": "bool"
            }
          ],
          "internalType": "struct Bets.GoalsBet",
          "name": "",
          "type": "tuple"
        }
      ],
      "stateMutability": "view",
      "type": "function"
    },
    {
      "inputs": [
        {
          "internalType": "uint256",
          "name": "champId",
          "type": "uint256"
        },
        {
          "internalType": "uint256",
          "name": "matchId",
          "type": "uint256"
        }
      ],
      "name": "getMatchBets",
      "outputs": [
        {
          "components": [
            {
              "components": [
                {
                  "internalType": "bool",
                  "name": "house",
                  "type": "bool"
                },
                {
                  "internalType": "uint256",
                  "name": "better",
                  "type": "uint256"
                },
                {
                  "internalType": "uint256",
                  "name": "value",
                  "type": "uint256"
                },
                {
                  "internalType": "bool",
                  "name": "claimed",
                  "type": "bool"
                }
              ],
              "internalType": "struct Bets.WinnerBet[]",
              "name": "winner",
              "type": "tuple[]"
            },
            {
              "components": [
                {
                  "internalType": "uint8",
                  "name": "house",
                  "type": "uint8"
                },
                {
                  "internalType": "uint8",
                  "name": "visitor",
                  "type": "uint8"
                },
                {
                  "internalType": "uint256",
                  "name": "better",
                  "type": "uint256"
                },
                {
                  "internalType": "uint256",
                  "name": "value",
                  "type": "uint256"
                },
                {
                  "internalType": "bool",
                  "name": "claimed",
                  "type": "bool"
                }
              ],
              "internalType": "struct Bets.ScoreBet[]",
              "name": "score",
              "type": "tuple[]"
            },
            {
              "components": [
                {
                  "internalType": "bool",
                  "name": "house",
                  "type": "bool"
                },
                {
                  "internalType": "uint8",
                  "name": "goals",
                  "type": "uint8"
                },
                {
                  "internalType": "uint256",
                  "name": "better",
                  "type": "uint256"
                },
                {
                  "internalType": "uint256",
                  "name": "value",
                  "type": "uint256"
                },
                {
                  "internalType": "bool",
                  "name": "claimed",
                  "type": "bool"
                }
              ],
              "internalType": "struct Bets.GoalsBet[]",
              "name": "goals",
              "type": "tuple[]"
            }
          ],
          "internalType": "struct Bets.MatchBetsValues",
          "name": "",
          "type": "tuple"
        }
      ],
      "stateMutability": "view",
      "type": "function"
    },
    {
      "inputs": [
        {
          "internalType": "uint256",
          "name": "champId",
          "type": "uint256"
        },
        {
          "internalType": "uint256",
          "name": "matchId",
          "type": "uint256"
        },
        {
          "internalType": "uint256",
          "name": "betId",
          "type": "uint256"
        }
      ],
      "name": "getScoreBet",
      "outputs": [
        {
          "components": [
            {
              "internalType": "uint8",
              "name": "house",
              "type": "uint8"
            },
            {
              "internalType": "uint8",
              "name": "visitor",
              "type": "uint8"
            },
            {
              "internalType": "uint256",
              "name": "better",
              "type": "uint256"
            },
            {
              "internalType": "uint256",
              "name": "value",
              "type": "uint256"
            },
            {
              "internalType": "bool",
              "name": "claimed",
              "type": "bool"
            }
          ],
          "internalType": "struct Bets.ScoreBet",
          "name": "",
          "type": "tuple"
        }
      ],
      "stateMutability": "view",
      "type": "function"
    },
    {
      "inputs": [
        {
          "internalType": "uint256",
          "name": "champId",
          "type": "uint256"
        },
        {
          "internalType": "uint256",
          "name": "matchId",
          "type": "uint256"
        },
        {
          "internalType": "uint256",
          "name": "betId",
          "type": "uint256"
        }
      ],
      "name": "getWinnerBet",
      "outputs": [
        {
          "components": [
            {
              "internalType": "bool",
              "name": "house",
              "type": "bool"
            },
            {
              "internalType": "uint256",
              "name": "better",
              "type": "uint256"
            },
            {
              "internalType": "uint256",
              "name": "value",
              "type": "uint256"
            },
            {
              "internalType": "bool",
              "name": "claimed",
              "type": "bool"
            }
          ],
          "internalType": "struct Bets.WinnerBet",
          "name": "",
          "type": "tuple"
        }
      ],
      "stateMutability": "view",
      "type": "function"
    }
  ],
  "bytecode": "0x60806040523480156200001157600080fd5b50604051620046cb380380620046cb83398181016040528101906200003791906200019d565b83600260006101000a81548173ffffffffffffffffffffffffffffffffffffffff021916908373ffffffffffffffffffffffffffffffffffffffff16021790555082600160006101000a81548173ffffffffffffffffffffffffffffffffffffffff021916908373ffffffffffffffffffffffffffffffffffffffff16021790555081600360006101000a81548173ffffffffffffffffffffffffffffffffffffffff021916908373ffffffffffffffffffffffffffffffffffffffff16021790555080600460006101000a81548173ffffffffffffffffffffffffffffffffffffffff021916908373ffffffffffffffffffffffffffffffffffffffff16021790555080600560006101000a81548173ffffffffffffffffffffffffffffffffffffffff021916908373ffffffffffffffffffffffffffffffffffffffff1602179055505050505062000257565b60008151905062000197816200023d565b92915050565b60008060008060808587031215620001b457600080fd5b6000620001c48782880162000186565b9450506020620001d78782880162000186565b9350506040620001ea8782880162000186565b9250506060620001fd8782880162000186565b91505092959194509250565b600062000216826200021d565b9050919050565b600073ffffffffffffffffffffffffffffffffffffffff82169050919050565b620002488162000209565b81146200025457600080fd5b50565b61446480620002676000396000f3fe608060405234801561001057600080fd5b50600436106100a95760003560e01c80633dc7dd46116100715780633dc7dd46146101625780636a41889814610192578063aa86b69d146101ae578063c46b070e146101ca578063ce660013146101e6578063e665fd7614610216576100a9565b80631222060f146100ae57806313caa659146100ca5780631f698520146100e657806325385432146101025780632585ed3114610132575b600080fd5b6100c860048036038101906100c391906131a0565b610232565b005b6100e460048036038101906100df91906131a0565b6107fc565b005b61010060048036038101906100fb9190613032565b610dac565b005b61011c600480360381019061011791906132e9565b611008565b6040516101299190613c62565b60405180910390f35b61014c600480360381019061014791906132ad565b6110cd565b6040516101599190613c40565b60405180910390f35b61017c600480360381019061017791906132e9565b611698565b6040516101899190613c7d565b60405180910390f35b6101ac60048036038101906101a79190612f4e565b61173e565b005b6101c860048036038101906101c391906130e9565b611ab4565b005b6101e460048036038101906101df9190612f8f565b611d12565b005b61020060048036038101906101fb91906132e9565b611f41565b60405161020d9190613c25565b60405180910390f35b610230600480360381019061022b91906131a0565b612004565b005b6000600160009054906101000a900473ffffffffffffffffffffffffffffffffffffffff1673ffffffffffffffffffffffffffffffffffffffff166334baeab9898989896040518563ffffffff1660e01b81526004016102959493929190613ade565b60206040518083038186803b1580156102ad57600080fd5b505afa1580156102c1573d6000803e3d6000fd5b505050506040513d601f19601f820116820180604052508101906102e59190613243565b905080610327576040517f08c379a000000000000000000000000000000000000000000000000000000000815260040161031e90613be5565b60405180910390fd5b6000600460009054906101000a900473ffffffffffffffffffffffffffffffffffffffff1673ffffffffffffffffffffffffffffffffffffffff1663107cfe5186866040518363ffffffff1660e01b8152600401610386929190613cb3565b60006040518083038186803b15801561039e57600080fd5b505afa1580156103b2573d6000803e3d6000fd5b505050506040513d6000823e3d601f19601f820116820180604052508101906103db919061326c565b90508060a00151610421576040517f08c379a000000000000000000000000000000000000000000000000000000000815260040161041890613bc5565b60405180910390fd5b600080600087815260200190815260200160002060008681526020019081526020016000206000019050600081600001600086815260200190815260200160002090508060030160009054906101000a900460ff16156104b6576040517f08c379a00000000000000000000000000000000000000000000000000000000081526004016104ad90613ba5565b60405180910390fd5b876000600581106104f0577f4e487b7100000000000000000000000000000000000000000000000000000000600052603260045260246000fd5b6020020151816001015414801561054857508760036005811061053c577f4e487b7100000000000000000000000000000000000000000000000000000000600052603260045260246000fd5b60200201518160020154145b80156105ab575087600460058110610589577f4e487b7100000000000000000000000000000000000000000000000000000000600052603260045260246000fd5b602002015161ffff168260020160009054906101000a900461ffff1661ffff16145b6105ea576040517f08c379a00000000000000000000000000000000000000000000000000000000081526004016105e190613b85565b60405180910390fd5b8060000160009054906101000a900460ff1680156106155750826080015160ff16836060015160ff16115b8061064857508060000160009054906101000a900460ff161580156106475750826080015160ff16836060015160ff16105b5b610687576040517f08c379a000000000000000000000000000000000000000000000000000000000815260040161067e90613b25565b60405180910390fd5b60018160030160006101000a81548160ff021916908315150217905550600360009054906101000a900473ffffffffffffffffffffffffffffffffffffffff1673ffffffffffffffffffffffffffffffffffffffff16639ced35f28960006005811061071c577f4e487b7100000000000000000000000000000000000000000000000000000000600052603260045260246000fd5b60200201518a60016005811061075b577f4e487b7100000000000000000000000000000000000000000000000000000000600052603260045260246000fd5b60200201518b60026005811061079a577f4e487b7100000000000000000000000000000000000000000000000000000000600052603260045260246000fd5b60200201516040518463ffffffff1660e01b81526004016107bd93929190613cdc565b600060405180830381600087803b1580156107d757600080fd5b505af11580156107eb573d6000803e3d6000fd5b505050505050505050505050505050565b6000600160009054906101000a900473ffffffffffffffffffffffffffffffffffffffff1673ffffffffffffffffffffffffffffffffffffffff166334baeab9898989896040518563ffffffff1660e01b815260040161085f9493929190613ade565b60206040518083038186803b15801561087757600080fd5b505afa15801561088b573d6000803e3d6000fd5b505050506040513d601f19601f820116820180604052508101906108af9190613243565b9050806108f1576040517f08c379a00000000000000000000000000000000000000000000000000000000081526004016108e890613be5565b60405180910390fd5b6000600460009054906101000a900473ffffffffffffffffffffffffffffffffffffffff1673ffffffffffffffffffffffffffffffffffffffff1663107cfe5186866040518363ffffffff1660e01b8152600401610950929190613cb3565b60006040518083038186803b15801561096857600080fd5b505afa15801561097c573d6000803e3d6000fd5b505050506040513d6000823e3d601f19601f820116820180604052508101906109a5919061326c565b90508060a001516109eb576040517f08c379a00000000000000000000000000000000000000000000000000000000081526004016109e290613bc5565b60405180910390fd5b600080600087815260200190815260200160002060008681526020019081526020016000206003019050600081600001600086815260200190815260200160002090508060030160009054906101000a900460ff1615610a80576040517f08c379a0000000000000000000000000000000000000000000000000000000008152600401610a7790613ba5565b60405180910390fd5b87600060058110610aba577f4e487b7100000000000000000000000000000000000000000000000000000000600052603260045260246000fd5b60200201518160010154148015610b12575087600360058110610b06577f4e487b7100000000000000000000000000000000000000000000000000000000600052603260045260246000fd5b60200201518160020154145b8015610b75575087600460058110610b53577f4e487b7100000000000000000000000000000000000000000000000000000000600052603260045260246000fd5b602002015161ffff168260020160009054906101000a900461ffff1661ffff16145b610bb4576040517f08c379a0000000000000000000000000000000000000000000000000000000008152600401610bab90613b85565b60405180910390fd5b826060015160ff168160000160009054906101000a900460ff1660ff16148015610bf85750826080015160ff168160000160019054906101000a900460ff1660ff16145b610c37576040517f08c379a0000000000000000000000000000000000000000000000000000000008152600401610c2e90613b25565b60405180910390fd5b60018160030160006101000a81548160ff021916908315150217905550600360009054906101000a900473ffffffffffffffffffffffffffffffffffffffff1673ffffffffffffffffffffffffffffffffffffffff16639ced35f289600060058110610ccc577f4e487b7100000000000000000000000000000000000000000000000000000000600052603260045260246000fd5b60200201518a600160058110610d0b577f4e487b7100000000000000000000000000000000000000000000000000000000600052603260045260246000fd5b60200201518b600260058110610d4a577f4e487b7100000000000000000000000000000000000000000000000000000000600052603260045260246000fd5b60200201516040518463ffffffff1660e01b8152600401610d6d93929190613cdc565b600060405180830381600087803b158015610d8757600080fd5b505af1158015610d9b573d6000803e3d6000fd5b505050505050505050505050505050565b610dba8888888888886125e7565b6000806000868152602001908152602001600020600085815260200190815260200160002060060190506040518060a0016040528084151581526020018360ff16815260200187600060048110610e3a577f4e487b7100000000000000000000000000000000000000000000000000000000600052603260045260246000fd5b6020020151815260200187600360048110610e7e577f4e487b7100000000000000000000000000000000000000000000000000000000600052603260045260246000fd5b6020020151815260200160001515815250816000016000610ea18460010161293b565b815260200190815260200160002060008201518160000160006101000a81548160ff02191690831515021790555060208201518160000160016101000a81548160ff021916908360ff160217905550604082015181600101556060820151816002015560808201518160030160006101000a81548160ff0219169083151502179055509050507f876ed4094eb4691dd15481f6b75f2ecdad0558915a06bbc01df8bea187bbe986610f548260010161293b565b868689600060048110610f90577f4e487b7100000000000000000000000000000000000000000000000000000000600052603260045260246000fd5b60200201518a600360048110610fcf577f4e487b7100000000000000000000000000000000000000000000000000000000600052603260045260246000fd5b60200201518888604051610fe99796959493929190613d74565b60405180910390a1610ffd81600101612949565b505050505050505050565b61101061295f565b6000806000868152602001908152602001600020600085815260200190815260200160002060030160000160008481526020019081526020016000206040518060a00160405290816000820160009054906101000a900460ff1660ff1660ff1681526020016000820160019054906101000a900460ff1660ff1660ff16815260200160018201548152602001600282015481526020016003820160009054906101000a900460ff1615151515815250509050809150509392505050565b6110d5612996565b6000600460009054906101000a900473ffffffffffffffffffffffffffffffffffffffff1673ffffffffffffffffffffffffffffffffffffffff1663107cfe5185856040518363ffffffff1660e01b8152600401611134929190613cb3565b60006040518083038186803b15801561114c57600080fd5b505afa158015611160573d6000803e3d6000fd5b505050506040513d6000823e3d601f19601f82011682018060405250810190611189919061326c565b90508060c001516111cf576040517f08c379a00000000000000000000000000000000000000000000000000000000081526004016111c690613c05565b60405180910390fd5b60008060008681526020019081526020016000206000858152602001908152602001600020905060006112078260000160010161293b565b67ffffffffffffffff811115611246577f4e487b7100000000000000000000000000000000000000000000000000000000600052604160045260246000fd5b60405190808252806020026020018201604052801561127f57816020015b61126c6129b7565b8152602001906001900390816112645790505b50905060006112938360060160010161293b565b67ffffffffffffffff8111156112d2577f4e487b7100000000000000000000000000000000000000000000000000000000600052604160045260246000fd5b60405190808252806020026020018201604052801561130b57816020015b6112f86129e3565b8152602001906001900390816112f05790505b509050600061131f8460030160010161293b565b67ffffffffffffffff81111561135e577f4e487b7100000000000000000000000000000000000000000000000000000000600052604160045260246000fd5b60405190808252806020026020018201604052801561139757816020015b61138461295f565b81526020019060019003908161137c5790505b50905060005b6113ac8560000160010161293b565b811015611477578460000160000160008281526020019081526020016000206040518060800160405290816000820160009054906101000a900460ff1615151515815260200160018201548152602001600282015481526020016003820160009054906101000a900460ff161515151581525050848281518110611459577f4e487b7100000000000000000000000000000000000000000000000000000000600052603260045260246000fd5b6020026020010181905250808061146f906141d2565b91505061139d565b5060005b61148a8560060160010161293b565b811015611572578460060160000160008281526020019081526020016000206040518060a00160405290816000820160009054906101000a900460ff161515151581526020016000820160019054906101000a900460ff1660ff1660ff16815260200160018201548152602001600282015481526020016003820160009054906101000a900460ff161515151581525050838281518110611554577f4e487b7100000000000000000000000000000000000000000000000000000000600052603260045260246000fd5b6020026020010181905250808061156a906141d2565b91505061147b565b5060005b6115858560030160010161293b565b81101561166f578460030160000160008281526020019081526020016000206040518060a00160405290816000820160009054906101000a900460ff1660ff1660ff1681526020016000820160019054906101000a900460ff1660ff1660ff16815260200160018201548152602001600282015481526020016003820160009054906101000a900460ff161515151581525050828281518110611651577f4e487b7100000000000000000000000000000000000000000000000000000000600052603260045260246000fd5b60200260200101819052508080611667906141d2565b915050611576565b506040518060600160405280848152602001828152602001838152509550505050505092915050565b6116a06129b7565b6000806000868152602001908152602001600020600085815260200190815260200160002060000160000160008481526020019081526020016000206040518060800160405290816000820160009054906101000a900460ff1615151515815260200160018201548152602001600282015481526020016003820160009054906101000a900460ff1615151515815250509050809150509392505050565b600560009054906101000a900473ffffffffffffffffffffffffffffffffffffffff1673ffffffffffffffffffffffffffffffffffffffff163373ffffffffffffffffffffffffffffffffffffffff16146117ce576040517f08c379a00000000000000000000000000000000000000000000000000000000081526004016117c590613b65565b60405180910390fd5b6000805b8251811015611a22576000806000858481518110611819577f4e487b7100000000000000000000000000000000000000000000000000000000600052603260045260246000fd5b6020026020010151600001518152602001908152602001600020600085848151811061186e577f4e487b7100000000000000000000000000000000000000000000000000000000600052603260045260246000fd5b602002602001015160200151815260200190815260200160002090508382815181106118c3577f4e487b7100000000000000000000000000000000000000000000000000000000600052603260045260246000fd5b6020026020010151604001518160000160020160006101000a81548161ffff021916908361ffff160217905550838281518110611929577f4e487b7100000000000000000000000000000000000000000000000000000000600052603260045260246000fd5b6020026020010151606001518160030160020160006101000a81548161ffff021916908361ffff16021790555083828151811061198f577f4e487b7100000000000000000000000000000000000000000000000000000000600052603260045260246000fd5b6020026020010151608001518160060160020160006101000a81548161ffff021916908361ffff1602179055508382815181106119f5577f4e487b7100000000000000000000000000000000000000000000000000000000600052603260045260246000fd5b602002602001015160a0015183611a0c91906140e7565b9250508080611a1a906141d2565b9150506117d2565b50600360009054906101000a900473ffffffffffffffffffffffffffffffffffffffff1673ffffffffffffffffffffffffffffffffffffffff1663650168c3826040518263ffffffff1660e01b8152600401611a7e9190613c98565b600060405180830381600087803b158015611a9857600080fd5b505af1158015611aac573d6000803e3d6000fd5b505050505050565b611ac28888888888886125e7565b6000806000868152602001908152602001600020600085815260200190815260200160002060030190506040518060a001604052808460ff1681526020018360ff16815260200187600060048110611b43577f4e487b7100000000000000000000000000000000000000000000000000000000600052603260045260246000fd5b6020020151815260200187600360048110611b87577f4e487b7100000000000000000000000000000000000000000000000000000000600052603260045260246000fd5b6020020151815260200160001515815250816000016000611baa8460010161293b565b815260200190815260200160002060008201518160000160006101000a81548160ff021916908360ff16021790555060208201518160000160016101000a81548160ff021916908360ff160217905550604082015181600101556060820151816002015560808201518160030160006101000a81548160ff0219169083151502179055509050507f54eb5500d9a9f8e538303e8b71435fa7a1c3ddbad6eabb9f2befe4b509931750611c5e8260010161293b565b868689600060048110611c9a577f4e487b7100000000000000000000000000000000000000000000000000000000600052603260045260246000fd5b60200201518a600360048110611cd9577f4e487b7100000000000000000000000000000000000000000000000000000000600052603260045260246000fd5b60200201518888604051611cf39796959493929190613de3565b60405180910390a1611d0781600101612949565b505050505050505050565b611d208787878787876125e7565b6000806000858152602001908152602001600020600084815260200190815260200160002060000190506040518060800160405280831515815260200186600060048110611d97577f4e487b7100000000000000000000000000000000000000000000000000000000600052603260045260246000fd5b6020020151815260200186600360048110611ddb577f4e487b7100000000000000000000000000000000000000000000000000000000600052603260045260246000fd5b6020020151815260200160001515815250816000016000611dfe8460010161293b565b815260200190815260200160002060008201518160000160006101000a81548160ff021916908315150217905550602082015181600101556040820151816002015560608201518160030160006101000a81548160ff0219169083151502179055509050507ff394db348fc95df98d19e3b312ed5421a0521f579536c7171697bfd19cd19173611e908260010161293b565b858588600060048110611ecc577f4e487b7100000000000000000000000000000000000000000000000000000000600052603260045260246000fd5b602002015189600360048110611f0b577f4e487b7100000000000000000000000000000000000000000000000000000000600052603260045260246000fd5b602002015187604051611f2396959493929190613d13565b60405180910390a1611f3781600101612949565b5050505050505050565b611f496129e3565b6000806000868152602001908152602001600020600085815260200190815260200160002060060160000160008481526020019081526020016000206040518060a00160405290816000820160009054906101000a900460ff161515151581526020016000820160019054906101000a900460ff1660ff1660ff16815260200160018201548152602001600282015481526020016003820160009054906101000a900460ff1615151515815250509050809150509392505050565b6000600160009054906101000a900473ffffffffffffffffffffffffffffffffffffffff1673ffffffffffffffffffffffffffffffffffffffff166334baeab9898989896040518563ffffffff1660e01b81526004016120679493929190613ade565b60206040518083038186803b15801561207f57600080fd5b505afa158015612093573d6000803e3d6000fd5b505050506040513d601f19601f820116820180604052508101906120b79190613243565b9050806120f9576040517f08c379a00000000000000000000000000000000000000000000000000000000081526004016120f090613be5565b60405180910390fd5b6000600460009054906101000a900473ffffffffffffffffffffffffffffffffffffffff1673ffffffffffffffffffffffffffffffffffffffff1663107cfe5186866040518363ffffffff1660e01b8152600401612158929190613cb3565b60006040518083038186803b15801561217057600080fd5b505afa158015612184573d6000803e3d6000fd5b505050506040513d6000823e3d601f19601f820116820180604052508101906121ad919061326c565b90508060a001516121f3576040517f08c379a00000000000000000000000000000000000000000000000000000000081526004016121ea90613bc5565b60405180910390fd5b600080600087815260200190815260200160002060008681526020019081526020016000206006019050600081600001600086815260200190815260200160002090508060030160009054906101000a900460ff1615612288576040517f08c379a000000000000000000000000000000000000000000000000000000000815260040161227f90613ba5565b60405180910390fd5b876000600581106122c2577f4e487b7100000000000000000000000000000000000000000000000000000000600052603260045260246000fd5b6020020151816001015414801561231a57508760036005811061230e577f4e487b7100000000000000000000000000000000000000000000000000000000600052603260045260246000fd5b60200201518160020154145b801561237d57508760046005811061235b577f4e487b7100000000000000000000000000000000000000000000000000000000600052603260045260246000fd5b602002015161ffff168260020160009054906101000a900461ffff1661ffff16145b6123bc576040517f08c379a00000000000000000000000000000000000000000000000000000000081526004016123b390613b85565b60405180910390fd5b8060000160009054906101000a900460ff1680156123f457508060000160019054906101000a900460ff1660ff16836060015160ff16145b8061243357508060000160009054906101000a900460ff16801561243257508060000160019054906101000a900460ff1660ff16836080015160ff16145b5b612472576040517f08c379a000000000000000000000000000000000000000000000000000000000815260040161246990613b25565b60405180910390fd5b60018160030160006101000a81548160ff021916908315150217905550600360009054906101000a900473ffffffffffffffffffffffffffffffffffffffff1673ffffffffffffffffffffffffffffffffffffffff16639ced35f289600060058110612507577f4e487b7100000000000000000000000000000000000000000000000000000000600052603260045260246000fd5b60200201518a600160058110612546577f4e487b7100000000000000000000000000000000000000000000000000000000600052603260045260246000fd5b60200201518b600260058110612585577f4e487b7100000000000000000000000000000000000000000000000000000000600052603260045260246000fd5b60200201516040518463ffffffff1660e01b81526004016125a893929190613cdc565b600060405180830381600087803b1580156125c257600080fd5b505af11580156125d6573d6000803e3d6000fd5b505050505050505050505050505050565b6000600260009054906101000a900473ffffffffffffffffffffffffffffffffffffffff1673ffffffffffffffffffffffffffffffffffffffff16635fe8c13b888888886040518563ffffffff1660e01b815260040161264a9493929190613a97565b60206040518083038186803b15801561266257600080fd5b505afa158015612676573d6000803e3d6000fd5b505050506040513d601f19601f8201168201806040525081019061269a9190613243565b9050806126dc576040517f08c379a00000000000000000000000000000000000000000000000000000000081526004016126d390613be5565b60405180910390fd5b6000600460009054906101000a900473ffffffffffffffffffffffffffffffffffffffff1673ffffffffffffffffffffffffffffffffffffffff1663107cfe5185856040518363ffffffff1660e01b815260040161273b929190613cb3565b60006040518083038186803b15801561275357600080fd5b505afa158015612767573d6000803e3d6000fd5b505050506040513d6000823e3d601f19601f82011682018060405250810190612790919061326c565b90508060400151610e10426127a591906140e7565b11156127e6576040517f08c379a00000000000000000000000000000000000000000000000000000000081526004016127dd90613b45565b60405180910390fd5b600360009054906101000a900473ffffffffffffffffffffffffffffffffffffffff1673ffffffffffffffffffffffffffffffffffffffff16639ced35f28660006004811061285e577f4e487b7100000000000000000000000000000000000000000000000000000000600052603260045260246000fd5b60200201518760016004811061289d577f4e487b7100000000000000000000000000000000000000000000000000000000600052603260045260246000fd5b6020020151886002600481106128dc577f4e487b7100000000000000000000000000000000000000000000000000000000600052603260045260246000fd5b60200201516040518463ffffffff1660e01b81526004016128ff93929190613cdc565b600060405180830381600087803b15801561291957600080fd5b505af115801561292d573d6000803e3d6000fd5b505050505050505050505050565b600081600001549050919050565b6001816000016000828254019250508190555050565b6040518060a00160405280600060ff168152602001600060ff16815260200160008152602001600081526020016000151581525090565b60405180606001604052806060815260200160608152602001606081525090565b604051806080016040528060001515815260200160008152602001600081526020016000151581525090565b6040518060a00160405280600015158152602001600060ff16815260200160008152602001600081526020016000151581525090565b6000612a2c612a2784613e77565b613e52565b90508082856040860282011115612a4257600080fd5b60005b85811015612a725781612a588882612ca0565b845260208401935060408301925050600181019050612a45565b5050509392505050565b6000612a8f612a8a84613e9d565b613e52565b905080838252602082019050828560c0860282011115612aae57600080fd5b60005b85811015612ade5781612ac48882612d69565b845260208401935060c08301925050600181019050612ab1565b5050509392505050565b6000612afb612af684613ec9565b613e52565b90508082856020860282011115612b1157600080fd5b60005b85811015612b415781612b278882612efa565b845260208401935060208301925050600181019050612b14565b5050509392505050565b6000612b5e612b5984613eef565b613e52565b90508082856020860282011115612b7457600080fd5b60005b85811015612ba45781612b8a8882612efa565b845260208401935060208301925050600181019050612b77565b5050509392505050565b6000612bc1612bbc84613f15565b613e52565b90508082856020860282011115612bd757600080fd5b60005b85811015612c075781612bed8882612efa565b845260208401935060208301925050600181019050612bda565b5050509392505050565b6000612c24612c1f84613f3b565b613e52565b905082815260208101848484011115612c3c57600080fd5b612c4784828561416e565b509392505050565b600082601f830112612c6057600080fd5b6002612c6d848285612a19565b91505092915050565b600082601f830112612c8757600080fd5b8135612c97848260208601612a7c565b91505092915050565b600082601f830112612cb157600080fd5b6002612cbe848285612ae8565b91505092915050565b600082601f830112612cd857600080fd5b6004612ce5848285612b4b565b91505092915050565b600082601f830112612cff57600080fd5b6005612d0c848285612bae565b91505092915050565b600081359050612d24816143d2565b92915050565b600081519050612d39816143d2565b92915050565b600082601f830112612d5057600080fd5b8151612d60848260208601612c11565b91505092915050565b600060c08284031215612d7b57600080fd5b612d8560c0613e52565b90506000612d9584828501612efa565b6000830152506020612da984828501612efa565b6020830152506040612dbd84828501612ee5565b6040830152506060612dd184828501612ee5565b6060830152506080612de584828501612ee5565b60808301525060a0612df984828501612efa565b60a08301525092915050565b600060e08284031215612e1757600080fd5b612e2160e0613e52565b9050600082015167ffffffffffffffff811115612e3d57600080fd5b612e4984828501612d3f565b600083015250602082015167ffffffffffffffff811115612e6957600080fd5b612e7584828501612d3f565b6020830152506040612e8984828501612f0f565b6040830152506060612e9d84828501612f39565b6060830152506080612eb184828501612f39565b60808301525060a0612ec584828501612d2a565b60a08301525060c0612ed984828501612d2a565b60c08301525092915050565b600081359050612ef4816143e9565b92915050565b600081359050612f0981614400565b92915050565b600081519050612f1e81614400565b92915050565b600081359050612f3381614417565b92915050565b600081519050612f4881614417565b92915050565b600060208284031215612f6057600080fd5b600082013567ffffffffffffffff811115612f7a57600080fd5b612f8684828501612c76565b91505092915050565b60008060008060008060006101e0888a031215612fab57600080fd5b6000612fb98a828b01612ca0565b9750506040612fca8a828b01612c4f565b96505060c0612fdb8a828b01612ca0565b955050610100612fed8a828b01612cc7565b945050610180612fff8a828b01612efa565b9350506101a06130118a828b01612efa565b9250506101c06130238a828b01612d15565b91505092959891949750929550565b600080600080600080600080610200898b03121561304f57600080fd5b600061305d8b828c01612ca0565b985050604061306e8b828c01612c4f565b97505060c061307f8b828c01612ca0565b9650506101006130918b828c01612cc7565b9550506101806130a38b828c01612efa565b9450506101a06130b58b828c01612efa565b9350506101c06130c78b828c01612d15565b9250506101e06130d98b828c01612f24565b9150509295985092959890939650565b600080600080600080600080610200898b03121561310657600080fd5b60006131148b828c01612ca0565b98505060406131258b828c01612c4f565b97505060c06131368b828c01612ca0565b9650506101006131488b828c01612cc7565b95505061018061315a8b828c01612efa565b9450506101a061316c8b828c01612efa565b9350506101c061317e8b828c01612f24565b9250506101e06131908b828c01612f24565b9150509295985092959890939650565b6000806000806000806000610200888a0312156131bc57600080fd5b60006131ca8a828b01612ca0565b97505060406131db8a828b01612c4f565b96505060c06131ec8a828b01612ca0565b9550506101006131fe8a828b01612cee565b9450506101a06132108a828b01612efa565b9350506101c06132228a828b01612efa565b9250506101e06132348a828b01612efa565b91505092959891949750929550565b60006020828403121561325557600080fd5b600061326384828501612d2a565b91505092915050565b60006020828403121561327e57600080fd5b600082015167ffffffffffffffff81111561329857600080fd5b6132a484828501612e05565b91505092915050565b600080604083850312156132c057600080fd5b60006132ce85828601612efa565b92505060206132df85828601612efa565b9150509250929050565b6000806000606084860312156132fe57600080fd5b600061330c86828701612efa565b935050602061331d86828701612efa565b925050604061332e86828701612efa565b9150509250925092565b60006133448383613521565b60408301905092915050565b600061335c83836137b3565b60a08301905092915050565b600061337483836138e1565b60a08301905092915050565b600061338c83836139b1565b60808301905092915050565b60006133a48383613a5b565b60208301905092915050565b6133b981613fc4565b6133c3818461406c565b92506133ce82613f6c565b8060005b838110156133ff5781516133e68782613338565b96506133f183614011565b9250506001810190506133d2565b505050505050565b600061341282613fcf565b61341c8185614077565b935061342783613f76565b8060005b8381101561345857815161343f8882613350565b975061344a8361401e565b92505060018101905061342b565b5085935050505092915050565b600061347082613fda565b61347a8185614088565b935061348583613f86565b8060005b838110156134b657815161349d8882613368565b97506134a88361402b565b925050600181019050613489565b5085935050505092915050565b60006134ce82613fe5565b6134d88185614099565b93506134e383613f96565b8060005b838110156135145781516134fb8882613380565b975061350683614038565b9250506001810190506134e7565b5085935050505092915050565b61352a81613ff0565b61353481846140aa565b925061353f82613fa6565b8060005b838110156135705781516135578782613398565b965061356283614045565b925050600181019050613543565b505050505050565b61358181613ff0565b61358b81846140b5565b925061359682613fa6565b8060005b838110156135c75781516135ae8782613398565b96506135b983614045565b92505060018101905061359a565b505050505050565b6135d881613ffb565b6135e281846140c0565b92506135ed82613fb0565b8060005b8381101561361e5781516136058782613398565b965061361083614052565b9250506001810190506135f1565b505050505050565b61362f81614006565b61363981846140cb565b925061364482613fba565b8060005b8381101561367557815161365c8782613398565b96506136678361405f565b925050600181019050613648565b505050505050565b6136868161413d565b82525050565b6136958161413d565b82525050565b60006136a8600b836140d6565b91506136b38261428a565b602082019050919050565b60006136cb601c836140d6565b91506136d6826142b3565b602082019050919050565b60006136ee6013836140d6565b91506136f9826142dc565b602082019050919050565b6000613711600b836140d6565b915061371c82614305565b602082019050919050565b6000613734600f836140d6565b915061373f8261432e565b602082019050919050565b60006137576020836140d6565b915061376282614357565b602082019050919050565b600061377a600d836140d6565b915061378582614380565b602082019050919050565b600061379d600e836140d6565b91506137a8826143a9565b602082019050919050565b60a0820160008201516137c9600085018261367d565b5060208201516137dc6020850182613a79565b5060408201516137ef6040850182613a5b565b5060608201516138026060850182613a5b565b506080820151613815608085018261367d565b50505050565b60a082016000820151613831600085018261367d565b5060208201516138446020850182613a79565b5060408201516138576040850182613a5b565b50606082015161386a6060850182613a5b565b50608082015161387d608085018261367d565b50505050565b600060608301600083015184820360008601526138a082826134c3565b915050602083015184820360208601526138ba8282613465565b915050604083015184820360408601526138d48282613407565b9150508091505092915050565b60a0820160008201516138f76000850182613a79565b50602082015161390a6020850182613a79565b50604082015161391d6040850182613a5b565b5060608201516139306060850182613a5b565b506080820151613943608085018261367d565b50505050565b60a08201600082015161395f6000850182613a79565b5060208201516139726020850182613a79565b5060408201516139856040850182613a5b565b5060608201516139986060850182613a5b565b5060808201516139ab608085018261367d565b50505050565b6080820160008201516139c7600085018261367d565b5060208201516139da6020850182613a5b565b5060408201516139ed6040850182613a5b565b506060820151613a00606085018261367d565b50505050565b608082016000820151613a1c600085018261367d565b506020820151613a2f6020850182613a5b565b506040820151613a426040850182613a5b565b506060820151613a55606085018261367d565b50505050565b613a6481614157565b82525050565b613a7381614157565b82525050565b613a8281614161565b82525050565b613a9181614161565b82525050565b600061018082019050613aad6000830187613578565b613aba60408301866133b0565b613ac760c0830185613578565b613ad56101008301846135cf565b95945050505050565b60006101a082019050613af46000830187613578565b613b0160408301866133b0565b613b0e60c0830185613578565b613b1c610100830184613626565b95945050505050565b60006020820190508181036000830152613b3e8161369b565b9050919050565b60006020820190508181036000830152613b5e816136be565b9050919050565b60006020820190508181036000830152613b7e816136e1565b9050919050565b60006020820190508181036000830152613b9e81613704565b9050919050565b60006020820190508181036000830152613bbe81613727565b9050919050565b60006020820190508181036000830152613bde8161374a565b9050919050565b60006020820190508181036000830152613bfe8161376d565b9050919050565b60006020820190508181036000830152613c1e81613790565b9050919050565b600060a082019050613c3a600083018461381b565b92915050565b60006020820190508181036000830152613c5a8184613883565b905092915050565b600060a082019050613c776000830184613949565b92915050565b6000608082019050613c926000830184613a06565b92915050565b6000602082019050613cad6000830184613a6a565b92915050565b6000604082019050613cc86000830185613a6a565b613cd56020830184613a6a565b9392505050565b6000606082019050613cf16000830186613a6a565b613cfe6020830185613a6a565b613d0b6040830184613a6a565b949350505050565b600060c082019050613d286000830189613a6a565b613d356020830188613a6a565b613d426040830187613a6a565b613d4f6060830186613a6a565b613d5c6080830185613a6a565b613d6960a083018461368c565b979650505050505050565b600060e082019050613d89600083018a613a6a565b613d966020830189613a6a565b613da36040830188613a6a565b613db06060830187613a6a565b613dbd6080830186613a6a565b613dca60a083018561368c565b613dd760c0830184613a88565b98975050505050505050565b600060e082019050613df8600083018a613a6a565b613e056020830189613a6a565b613e126040830188613a6a565b613e1f6060830187613a6a565b613e2c6080830186613a6a565b613e3960a0830185613a88565b613e4660c0830184613a88565b98975050505050505050565b6000613e5c613e6d565b9050613e6882826141a1565b919050565b6000604051905090565b600067ffffffffffffffff821115613e9257613e9161424a565b5b602082029050919050565b600067ffffffffffffffff821115613eb857613eb761424a565b5b602082029050602081019050919050565b600067ffffffffffffffff821115613ee457613ee361424a565b5b602082029050919050565b600067ffffffffffffffff821115613f0a57613f0961424a565b5b602082029050919050565b600067ffffffffffffffff821115613f3057613f2f61424a565b5b602082029050919050565b600067ffffffffffffffff821115613f5657613f5561424a565b5b613f5f82614279565b9050602081019050919050565b6000819050919050565b6000819050602082019050919050565b6000819050602082019050919050565b6000819050602082019050919050565b6000819050919050565b6000819050919050565b6000819050919050565b600060029050919050565b600081519050919050565b600081519050919050565b600081519050919050565b600060029050919050565b600060049050919050565b600060059050919050565b6000602082019050919050565b6000602082019050919050565b6000602082019050919050565b6000602082019050919050565b6000602082019050919050565b6000602082019050919050565b6000602082019050919050565b600081905092915050565b600082825260208201905092915050565b600082825260208201905092915050565b600082825260208201905092915050565b600081905092915050565b600081905092915050565b600081905092915050565b600081905092915050565b600082825260208201905092915050565b60006140f282614157565b91506140fd83614157565b9250827fffffffffffffffffffffffffffffffffffffffffffffffffffffffffffffffff038211156141325761413161421b565b5b828201905092915050565b60008115159050919050565b600061ffff82169050919050565b6000819050919050565b600060ff82169050919050565b60005b8381101561418c578082015181840152602081019050614171565b8381111561419b576000848401525b50505050565b6141aa82614279565b810181811067ffffffffffffffff821117156141c9576141c861424a565b5b80604052505050565b60006141dd82614157565b91507fffffffffffffffffffffffffffffffffffffffffffffffffffffffffffffffff8214156142105761420f61421b565b5b600182019050919050565b7f4e487b7100000000000000000000000000000000000000000000000000000000600052601160045260246000fd5b7f4e487b7100000000000000000000000000000000000000000000000000000000600052604160045260246000fd5b6000601f19601f8301169050919050565b7f446964206e6f742077696e000000000000000000000000000000000000000000600082015250565b7f546f206c61746520746f20626574206f6e2074686973206d6174636800000000600082015250565b7f6f6e6c79206d6174636820636f6e747261637400000000000000000000000000600082015250565b7f496e76616c696420626574000000000000000000000000000000000000000000600082015250565b7f416c726561647920636c61696d65640000000000000000000000000000000000600082015250565b7f436f6f7264696e61746f72206e6565647320746f20636c6f7365206d61746368600082015250565b7f496e76616c69642070726f6f6600000000000000000000000000000000000000600082015250565b7f4e6f20726573756c747320796574000000000000000000000000000000000000600082015250565b6143db8161413d565b81146143e657600080fd5b50565b6143f281614149565b81146143fd57600080fd5b50565b61440981614157565b811461441457600080fd5b50565b61442081614161565b811461442b57600080fd5b5056fea2646970667358221220739c1c5a83d534fcf25858ba38a8a169754f84857a718a37f5d3743eedd6427264736f6c63430008040033",
  "linkReferences": {},
  "deployedLinkReferences": {}
}